:1080000000C0022045810000DD810000E5F803008A
:10801000E1810000E3810000E5810000E7810000CC
:10802000000000000000000000000000E9810000E6
:10803000EB81000000000000ED810000CDFA00009F
:108040006DEB030075EB03007DEB030085EB030094
:108050008DEB030095EB03009DEB0300A5EB030004
:10806000ADEB0300E9F40000B5EB0300BDEB03004A
:10807000C5EB0300CDEB030075CF0000D5EB03008B
:10808000011A0100DDEB03004501010099EB00003E
:10809000E5EB0300EDEB0300F5EB0300FDEB030064
:1080A00005EC03000DEC030015EC03001DEC0300D0
:1080B00025EC03002DEC030035EC03003DEC030040
:1080C00045EC03004DEC030055EC03005DEC0300B0
:1080D00065EC03006DEC030075EC03007DEC030020
:1080E00085EC03008DEC030095EC03009DEC030090
:1080F000A5EC0300ADEC0300B5EC0300BDEC030000
:10810000C5EC0300CDEC0300D5EC0300DDEC03006F
:10811000E5EC0300EDEC0300F5EC0300FDEC0300DF
:1081200005ED03000DED030015ED03001DED03004B
:10813000DCBF040000000020140A0000000C002036
:10814000C4F3000072B6134B134A17480360196852
:1081500081F3088882F30A8815F030FB0F4B07E0A3
:1081600003F10C049A685968186800F01FF8234658
:108170000B4A9342F4D306E01C46596854F8080BA6
:1081800000F023F82346074A9342F5D362B60BF07A
:1081900027F8FEE70080000000B0022030810000D8
:1081A0003C8100004481000008ED00E00023934280
:1081B0000AD210B450F8044B41F8044B04339342F4
:1081C000F8D35DF8044B70477047002303E00022AA
:1081D00040F8042B04338B42F9D37047FEE7FEE7E7
:1081E000FEE7FEE7FEE7FEE7FEE7FEE7FEE7FEE767
:1081F000FEE7FFFFFFFFFFFF2DE9FF471C460023BF
:1082000023708DF80D308DF80E308DF80F30304B17
:10821000804693F8233089469B0792460DD500236C
:108220005246CDE9003349462346404618F0C4FC87
:108230000546284604B0BDE8F0870DF10F03019311
:108240000DF10E0300930DF10D0300F0F5F9054655
:108250009DF80D0064282AD82FF01CF916A3D3E945
:1082600000232FF081F900221A4B2FF0A7FA0646BF
:108270000F469DF80E002FF00DF911A3D3E900234E
:108280002FF072F910A3D3E900232FF097FA3246AA
:108290003B462EF0B3FF00220E4B2FF065F92FF076
:1082A00025FCC0B20C28BAD801232370C1E702A76D
:1082B000D7E90067DDE700BF333333333333EB3FB8
:1082C000333333333333C33F0000000000E06F40EB
:1082D00040FE0020000059402DE9F04FA24A8DB029
:1082E0001368CDE90501924613B100219F489847D4
:1082F0009F4C002017F03AF894F82430002B47D018
:108300009C4B9D4D9A899D4FDB7AADF828209C4A65
:108310008DF82A308DF82E302B7010883B8858430A
:108320002FF0CAFE0795814648B91DF095FB4FF026
:108330000F0B1DF073FB58460DB0BDE8F08FDAF857
:10834000003013B100218F4898471EF031FA002603
:108350000A25DFF860B28A4B3A88198848461EF031
:1083600025F9804600286CD0013D15F0FF0540F04E
:10837000B680DAF80030002B5FD1002548462FF098
:10838000A3FEDAF800301BB1C5F10A017E48984718
:1083900094F825501EF034FADAF8003013B10021B9
:1083A0007A4898474FF00008794F022016F0DEFF18
:1083B000DFF80492774BB9F800101A8805981EF080
:1083C000F5F88346022016F0DBFFBA690146032068
:1083D0003AF0E0FCBBF1000F40F0A18001216E4EAD
:1083E0006E4A304611700322594630F051FA731C20
:1083F000684A009312880DF12703B9F80010059818
:108400003AF003FD9DF827002FF044F854A3D3E978
:1084100000232FF0D3F92FF069FB7378B070434538
:108420005FD8069B012B40F09780002D5ED05C4BFF
:10843000186817F0B9F883465DE001465948984737
:108440009CE74FF0FF334E4900908DF827303A8873
:108450000DF12703098848463AF0D7FC9DF82E30E5
:1084600042468DF82A30DBF800304146039394F8F9
:108470002730404602930BAB01930AAB00930DF1FA
:1084800027033AF01AFDB8B99DF82E2094F822304F
:108490009A4228BF8DF82E309DF82E2094F8213076
:1084A0009A4298BF8DF82E309DF82E001DF060FA8C
:1084B0009DF82E30079A13709DF82730322B07D97C
:1084C00003F11302B24203DB1336B3427FF756AF18
:1084D000013D15F0FF053FF450AF1E463BE7334624
:1084E000F6E7002DA3D1069B012B35D1206917F0AB
:1084F0005BF80025834696F80180BBF1000F01D0A0
:10850000002D5BD19DF82710092908D8DAF8003032
:108510000BB1254898471DF0CDFB4FF0080B234ABF
:108520009DF827101170DAF8002022B194F8251078
:108530001F48491B904794F824201AB10D4AD07A5D
:108540001DF016FA002016F01BFF114B01469A6928
:1085500004203AF01FFCEEE66069C8E7AFF3008044
:10856000666666666666044030FE00201DBF040035
:1085700040FE00206CFE0020BDFF00200E0A0020FF
:108580000C0A00202EBF040057BF040072BF040075
:10859000D0FD00207EFF0020110A0020ADFF00204A
:1085A000A9FF00203DBF040081BF0400BEFF0020E2
:1085B0009BBF04008004002080FF002094F824303A
:1085C000013DEDB2002B3FF4F0AE00229DF82E30BD
:1085D00011468DF82A30154B10461B68039394F80A
:1085E000273002930BAB01930AAB00930DF12703E5
:1085F0003AF063FC00287FF4D8AE9DF82E2094F862
:1086000022309A4228BF8DF82E309DF82E2094F803
:1086100021309A4298BF8DF82E309DF82E001DF023
:10862000A7F99DF82E20024B1A70BEE680040020A8
:10863000BDFF0020FFFFFFFF2DE9F04F2DED048B64
:1086400099B00B9300238DF853300DF15303064678
:108650000091144600F014FA10B9FF238DF853303E
:108660004FF480709DF853503BF08BF80390002836
:1086700000F000824FF4807200213BF04EF94FF47D
:1086800000703BF07EF80490002800F0F5814FF474
:10869000007200213BF041F9A4F108002EF0FAFE2F
:1086A0000022CD4B2EF060FF894680462FF0F6F970
:1086B00007B2824638462EF0EDFE02460B46404693
:1086C00049462FF0E1F910B10AF101073FB2009BD2
:1086D000A3F108002EF0DEFE0022BF4B2EF044FF77
:1086E000894680462FF0DAF90FFA80FB8246584619
:1086F0002EF0D0FE02460B46404649462FF0C4F904
:1087000018B10AF1010A0FFA8AFB07FB0BF30C27D9
:108710005F43384601933BF034F88146002800F06F
:10872000AB813A4600213BF0F8F8009BDFEDAB8AC5
:108730001B010D93009B9FEDAA9A06EB8303059303
:108740002B020C930023089304230693A4F1140333
:108750000F93009B5B0013930F9B069A934280F24A
:108760004A81019B01275D1E0C2303FB0595019B9C
:10877000BB4200F358814FF0000B0C21019B5B457D
:108780005BDD01FB0B93D3ED007AF5EEC07AF1EEE1
:1087900010FA40F36C81019B0C225B444FEA630B9F
:1087A00001FB0B9115A83BF032FB0B9B8BB1DDED70
:1087B000157A9FED8C7AF4EEC77AF1EE10FADBBFF2
:1087C000FCEEE77ACDED007AFF239DF800300B9A9E
:1087D0001370269BBBB19DED160A2DF017FFDFED40
:1087E000817AB4EEE70AF1EE10FA00F33C819DEDD8
:1087F000160A2DF00BFFFCEEC07ACDED007A9DF845
:108800000030269A1370279BBBB19DED170A2DF0FF
:10881000FDFEDFED747AB4EEE70AF1EE10FA00F334
:1088200024819DED170A2DF0F1FEFCEEC07ACDED0E
:10883000007A9DF80030279A137048463AF0A3FF5B
:10884000002403983AF09FFF049B13B104983AF078
:108850009AFF204619B0BDEC048BBDE8F08F10F8EC
:10886000014B21449042FAD100980244013B02D0CE
:10887000A2F11000F6E7089A02EB42040C9A09EB09
:108880008404914280F0B0800599029A07930A44CB
:10889000DDE9031701F11000119988424DD1002044
:1088A000079A002B4FEA2221039AB8BFFF33561EC6
:1088B000049A1B12971E024616F8015F6D1A05FBFB
:1088C000052237F9025FED1A05FB0500129DB5423E
:1088D000F2D107EE902AB8EEE78AF2EE047A28EE9B
:1088E000098A28EE278A07EE900AF8EEE77A67EE03
:1088F000897A84ED018A17EE900A2EF0DDFD34A30B
:10890000D3E900232EF07AFC2FF010F907EE900A3D
:1089100088EE277A84ED007AA060089B01331BB2B1
:108920000893029B103302930E9B029A934272DBD0
:10893000109B00219A18112398E7009D02EB050C6B
:10894000CDE909C7139DACEB0506A0F11005A842BF
:1089500003D12037103062469EE7DDF824A0B646EA
:10896000514692F800B01AF8018C013608EB8B08DA
:108970009AF800B09EF801A008EB4B0B11F8018F9C
:108980000132D84492F800B0099108EB4B08D0446A
:108990009EF800A00A9908EB4A0A16F8028CD04407
:1089A00012F802AC08EB4A084FEA281885F8008054
:1089B00012F801ACAAEB080821F8028B0A9115F80D
:1089C00001EB0799434471440791C0E7AFF300807E
:1089D0009A9999999999B93F0000B03F0000000019
:1089E0000000803B00007F43C4ED018AC4ED028A91
:1089F000C4ED008A91E704230293009B143B0E937D
:108A0000059B10331093039B03F588731193039B0D
:108A1000FF33129388E7069B0D9A10330693059B4C
:108A20001344059398E62C4694ED007A54ED037AAE
:108A3000B4EEE77AF1EE10FAA4F10C060ED50C2292
:108A4000214615A83BF0E3F90C22314620463BF0C5
:108A5000DEF90C2215A930463BF0D9F90C3CA145B2
:108A6000E2D1013783E6FF23CBE6FF23E3E60BF1F8
:108A7000010B83E60124ECE60124E2E6FFFFFFFFA1
:108A80002DE9F04F002600272DED028B00EB41056C
:108A90000C46A9464FF0080A47EC186B99B0CDE98F
:108AA0000632CDE90867CDE9106705904FF002085E
:108AB00019F808002EF0EEFC02460B463046394607
:108AC0002EF09CFB08F10108B8F10A0F06460F468C
:108AD000EED1BAF1010AA144E8D10022B64B2EF042
:108AE00043FDAA4608274FF000084FF00009CDE9E2
:108AF0000001CDE9080102261AF806002EF0CAFC92
:108B000002460B46DDE900012EF076FB02460B46DD
:108B10002EF02AFD02460B46404649462EF06EFBDB
:108B200001360A2E80468946E6D1013FA244E2D1B1
:108B30000022A14B2EF018FDAA468DED0A8B8DED7B
:108B4000128B4FF0080B3B464FF000084FF0000926
:108B5000CDE91001A21EA4F10A06009237460DE0ED
:108B60001AF807002EF096FC0B460246494640468E
:108B70002EF044FB0123804689460137009A974234
:108B8000EED1BBF1010BA244E8D10BB1CDE90A89CA
:108B9000DDE90A01884B00222EF0E6FC4FF00808C0
:108BA00000234FF0000A4FF0000BCDE90201CDE9A0
:108BB0000A01374616E0E85D2EF06CFC02460B46D3
:108BC000DDE902012EF018FB02460B462EF0CCFC2C
:108BD0000B460246594650462EF010FB01238246B2
:108BE0008B460137009A9742E5D1B8F10108254438
:108BF000DFD10BB1CDE912ABDDE912016E4B0022E2
:108C00002EF0B2FC079B8DED0C8BA3F10A05059BA2
:108C10008DED148B04FB05354FF0090AAB4600239C
:108C20004FF000084FF00009CDE91201BAF1010A36
:108C300040F0DD800BB1CDE90C89DDE90C015E4B24
:108C400000222EF091FCA9464FF0090800234FF0B6
:108C5000000A4FF0000BCDE90201CDE90C01B8F19B
:108C6000010840F0E3800BB1CDE914ABDDE914015C
:108C7000514B00222EF078FCAA468DED0E8B8DED27
:108C8000168B4FF00909002300260027CDE91401B7
:108C9000B9F1010940F0CC800BB1CDE90E67DDE9F7
:108CA0000E01454B00222EF05FFC804689464FF0B6
:108CB000090B002300260027CDE90E89BBF1010B2B
:108CC00040F0CC800BB1CDE91667DDE916010FF25B
:108CD000D00BDBE900AB0022374B2EF045FC002621
:108CE000CDE9160108AFF7E8024552465B4620463B
:108CF00029462EF0ABFE08B1A246AB460136042E43
:108D0000F1D100259FED287B10AB1E462C468DED42
:108D1000007BF6E802010022284B2EF097FEF8B106
:108D200008AB2B44D3E900890022254B4046494635
:108D30002EF0AAFE50B952465B46404649462EF0F8
:108D40005BFA00221F4B2EF09FFE48B1DDE90001C7
:108D500042464B462EF052FACDE900010134E4B20E
:108D60000835202DD5D1A4B1069B8BB120462EF01D
:108D700091FB02460B46DDE900012EF01FFD0CA31E
:108D8000D3E900232EF0F0FB2EF0B0FE069B187006
:108D90000124204619B0BDEC028BBDE8F08F00BF66
:108DA0000000000000E06F40000000000000000034
:108DB000C3F5285C8FC2ED3F0000903F00004940A2
:108DC00000006440000059401BF807002EF062FBD1
:108DD0000B460246494640462EF010FA01238046D3
:108DE00089460137009A9742EED1A3441EE73746E1
:108DF000F8E719F807002EF04DFB02460B46DDE9B7
:108E000002012EF0F9F902460B462EF0ADFB0B469F
:108E10000246594650462EF0F1F9012382468B4610
:108E20000137009A9742E4D1A14418E73746F8E7A2
:108E30004FF002081AF808002EF02CFB02460B46F1
:108E4000304639462EF0DAF908F10108B8F10A0F78
:108E500006460F46EED1A244012319E74FF0020A5D
:108E600015F80A002EF016FB02460B46404649460E
:108E70002EF0C2F902460B462EF076FB02460B4658
:108E8000304639462EF0BAF90AF1010ABAF10A0F52
:108E900006460F46E4D1254401230FE7FFFFFFFFFD
:108EA0002DE9F04F0024ADF2344D1E46DDF8583464
:108EB0000CAD1C600B4653430593CDE906104FF4EF
:108EC0008073174605992A469DF860B40B943AF0D2
:108ED00084FF23469B4501DC002406E055F823204F
:108EE0000A2A7FD9322BDCB277DC4FF00009254605
:108EF0002346C8460CA99B4576DCB9F1000F6CD01F
:108F00000DF1300A5AF824002EF0B4FACDE9080128
:108F100048462EF0AFFA42A3D3E900232EF024FBFB
:108F200002460B46DDE908012EF0AEFD002854D1C3
:108F3000B8FBF9F8224603465FFA88F093455ADCFD
:108F4000B3FBF9F300EE103AB8EE400A2DF05EFBE9
:108F50008DED080A2EF09EFA9DED080A804610EE6F
:108F6000100A89462EF0A8FA2FA3D3E900232EF089
:108F7000FBFA02460B46404649462EF03DF9804634
:108F80008946013420462EF085FA42464B462EF0A3
:108F90007BFD002838D0E0B200231A460BAC2360DA
:108FA0000CA9A84236DC03B122602368B34202DC7C
:108FB000059BB34211DC00232360DDF85C34CDE96E
:108FC0000006DDE90610CDE902433A4602232DF002
:108FD000ABFA2368DDF85824136000200DF2344DFD
:108FE000BDE8F08F013375E751F8232003FB0288B9
:108FF000914401337FE7111A01FB01FC5AF822105A
:10900000013201FB0C3399E7404649462EF06EFDD4
:10901000C0B2C1E751F8253001351A440123C0E739
:10902000333333333333D33F666666666666024056
:109030002DE9F04F8BB095001F469DF850308146CA
:1090400028460E46904603933AF09BFB04460028C0
:1090500000F09C812A4600214FEA860A3AF05DFC26
:1090600050463AF08EFB0546002800F079815246C2
:1090700000213AF052FC484622464FF0000CC4450D
:109080001EDBE62F384628BFE6202EF003FAD9A3D0
:10909000D3E900232EF068FA4FF00209CDE904016C
:1090A00030462EF0F7F9DDE904232EF05DFA2EF0BC
:1090B0001DFDA8F102034B4516DC4FF0000919E035
:1090C0000023B34204DB0CF1010C30440432D6E738
:1090D00010F803E011687144116055F823107144D1
:1090E00045F823100133ECE754F82920824207D2D7
:1090F0005FFA89F9A8F10303012B04DC002307E0E0
:1091000009F10109D7E754F8232082425BD2DBB290
:10911000404602933AF035FB0746002800F056819E
:109120004246002109F1010B3AF0F7FB5A460FFACB
:1091300089F3980054F82330CDF8049004EB000C28
:109140000299914241DC0023CCF80030039B002BB4
:1091500046D16FEA0901029B0430194406AA08AB04
:10916000C9B220443AF062FEDDE908010022A04BBA
:109170002EF0FAF9DDE906232EF040F82EF0B6FCC9
:109180000A237343984238BF1846322373439842E8
:1091900028BF18464FF000090121CA46029B5B45D3
:1091A00022DC20463AF0EFFA40462EF073F9DDE972
:1091B00004232EF0D9F92EF099FC0223B21E9A4214
:1091C00038DC00233BE0013B96E754F8221099423B
:1091D0008CBFCB1A5B1A44F8223001320B46AFE742
:1091E000039B06FB03F0D5E754F82B30019A83422A
:1091F000BA5C0CD92AB9019B07F80B1054F823A0CC
:10920000B144019B0BF1010B01330193C6E7012A25
:10921000F7D1019A54F82220934200F0DF805345A1
:10922000EFD09A1AA3EB0A039A42EAD207F80B107E
:10923000B144E6E755F82310814205D2DBB2F21EB5
:10924000012A03DC002206E00133B8E755F82210BA
:10925000814252D2D2B23046CDE901233AF091FA9E
:109260008346002800F0B780324600213AF055FBD3
:10927000029B5C1C1E4621460FFA83FE4FEA8E02BB
:10928000029255F82E200198884238DC002245F8D9
:109290002E20039A002A3FD1D9430144029808ABFB
:1092A000043006AAC9B228443AF0C0FDDDE908013D
:1092B00000224F4B2EF058F9DDE906232DF09EFFDA
:1092C0002EF014FC0A2303FB08F3984238BF18461B
:1092D000322303FB08F3984228BF184600234FF0BF
:1092E000010C019AA2421BDC002426462846019369
:1092F0003AF049FA019BC4BB3CE0013AA0E755F8BB
:1093000021C094458CBFACEB0202A2EB0C0245F8E5
:10931000212001316246B6E7039B08FB03F0DDE73D
:1093200055F824201BF80610824208D321B90BF807
:1093300004C055F826A0434401340136D1E7012981
:10934000FAD155F826108A424CD05245F4D0511A21
:10935000A2EB0A029142EFD20BF804C04344EBE7C0
:1093600081460346074683460126204601933AF08C
:109370000AFA019B86B117B138463AF004FABBF1FC
:10938000000F05D130460BB0BDE8F08F0126F9E79C
:1093900058463AF0F8F9F5E7159A02B11360169BB2
:1093A0000BB1C3F80090179B2BB1C3F800B0189B0A
:1093B00043B11F60E6E7BBF1000FF8D058463AF022
:1093C000E2F9F4E7002FDDD03846E2E78346814634
:1093D000034601268AE703460446FAE753457FF42D
:1093E00025AF0EE75245B7D1A6E700BFAFF3008027
:1093F00000001840666666666666EE3FFFFFFFFF88
:109400002DE9F04F2DED088BD1B00C4609EE101A66
:1094100090460A93074632F0CFFF0368184612932E
:109420002FF01CFCA38911901D0603D52369002B86
:1094300000F0AB8727AA0023BA4691460D932492E9
:10944000179305939FED9C7BCDE92533CDE913332D
:10945000CDE915338DED0E7B98F800304446252B71
:109460001AD0CBB1254614F8013F0BB1252BF9D109
:10947000B4EB080610D0269B33442693259B01337A
:10948000072B2593C9E9008600F3098109F1080932
:10949000059B334405936B78002B01F0408100233A
:1094A00004F1010865784FF0FF372B248DF87330F5
:1094B0000693039308F10108A5F120035A2B00F24B
:1094C0001E81DFE813F06A001C011C01CB021C01A5
:1094D0001C011C01AA021C011C014302F1021C0117
:1094E0004E02D9021C01D2025B005B005B005B00F4
:1094F0005B005B005B005B005B001C011C011C014E
:109500001C011C011C011C019F011C0109027900A6
:109510009F019F019F011C011C011C011C01A30252
:109520001C011C01A4001C011C011C011D021C01CA
:1095300055021C011C013F071C011C011C011C01E0
:109540001C011C011C011C019F011C0109027D0062
:109550009F019F019F0199027D0072001C018F02F3
:109560001C017802A800660272001C011D026F0037
:1095700018071C011C011C071C016F00A5F130031A
:10958000002202EB820218F8015B03EB4202A5F114
:109590003003092BF5D906928EE79DF87330002B26
:1095A00000F0E68598F8005084E7039B98F8005097
:1095B00043F0200303937DE7039B43F010030393E1
:1095C000039B9C0640F177810A9B073323F0070336
:1095D0001A465B6852F8084B1E460A92002BC0F2EE
:1095E00071857A1C00F06E84039B23F08003039343
:1095F000002F40F0678454EA060314BF01230023C0
:1096000040F060841F4650AB0797099335E0039BF9
:1096100043F010030393039B13F0200600F03A81FC
:109620000A9B073323F007035E6853F8084B0A933D
:10963000039B002223F4806B00238DF87330781C89
:1096400000F015832BF08003039354EA060340F0E7
:109650000C833B1E18BF0123002F40F00683002A15
:10966000D0D11BF001031746079300F0DE843023AE
:109670008DF83F310DF23F130993079900239DF8B0
:109680007320B94208931093B8BF3946CDE90B3324
:109690000491002A45D0049B0133049341E024AA9D
:1096A00019EE101A504634F0A7FAC0B90DF19C0912
:1096B000EEE600BFAFF300800000000000000000F5
:1096C00024AA19EE101A504634F096FA002800F039
:1096D0008E80089B1BB10899504632F0B5FB19EEFD
:1096E000103A9B8913F0400F059B18BF4FF0FF33D2
:1096F0000593059851B0BDEC088BBDE8F08F002DA7
:1097000001F00D800022012337A98DF8DC501746A7
:109710008DF87320049307931092CDE90821CDE9C9
:109720000B22039B13F0020302D00499023104912F
:10973000039911F0840B05D1069904980E1A002E96
:1097400000F30D83269C82B1259A0DF1730101343B
:109750000132C9F8001001212694072A2592C9F880
:10976000041000F3438309F108097BB1259B1DAA6E
:1097700002340133C9F8002002222694072B2593D6
:10978000C9F8042000F3418309F10809BBF1800FF7
:1097900000F0F081079BFF1A002F00F33182039B3A
:1097A000D90500F18F81099BC9F80030079B1C4443
:1097B000C9F80430259B26940133072B259300F329
:1097C000C18209F10809039B580705D5069B049A35
:1097D0009D1A002D00F33B830499DDE905328A428E
:1097E000ACBF9B185B180593002C7FF469AF002376
:1097F0002593089B1BB10899504632F025FB0DF1CB
:109800009C0929E60A9B073323F00703B3EC027B8C
:109810008DED0E7BDDE90E120A9322F000430AEE75
:10982000101A4FF0FF320AEE903AA24BB0EE4A8A7D
:10983000F0EE6A8A51EC180B35F04CF9002840F034
:10984000A5844FF0FF329B4B51EC180B2EF008F91A
:10985000002840F09B8400220023DDE90E012EF059
:10986000F5F8002841F06E809DF87320039B0020DE
:10987000914923F0800308900393904B472DC8BF74
:1098800019460746109009910321CDE90B00049178
:109890000791FEE6039B13F0100340F02685039A20
:1098A00012F0400200F091870A9A1E4652F8044BCB
:1098B000A4B20A92BCE6039BD80600F14D84039B38
:1098C000590640F173870A9B53F8044B44F3C036A2
:1098D0000A9324B2334681E60A9B002253F8041B04
:1098E00017468DF873200A9301238DF8DC1004933A
:1098F000079337AB089210920993CDE90B2210E73A
:109900000A9C002654F8043B8DF873600993002BE1
:1099100000F01487791C00F069853A4631460998B1
:1099200032F014FE0890002801F0548137460A9462
:109930001096DDE90832CDE90B669B1A08969DF872
:109940007320079323EAE3730493A2E60A9B53F878
:10995000042B002A069280F2E383069A0A9352426D
:109960000692039B98F8005043F004030393A1E58B
:10997000039B43F0100B1BF0200600F093830A9B1F
:109980000122073323F007035E6853F8084B0A935C
:1099900052E60A9B7825039A002653F8044B42F0BE
:1099A000020B8DF875500A93302302228DF8743023
:1099B000434B139340E6039B9E0600F1C383039B36
:1099C000DD0600F1A486039B5C0600F1E787039B9C
:1099D000980540F19C860A9B059953F8042B117059
:1099E0000A9339E598F80050039B6C2D00F0AD8484
:1099F00043F0100303935DE598F80050039B682D36
:109A000000F0BA8443F04003039353E5039B98F8B6
:109A1000005043F0080303934CE5504632F0CCFC71
:109A20004368184616932FF019F9159005465046CD
:109A300032F0C2FC83681793002D3FF4B3AD002BC6
:109A40003FF4B0AD179B1B78002B3FF4ABAD039BED
:109A500098F8005043F4806303932BE5039B98F838
:109A6000005043F00103039324E5039B98F8005052
:109A700043F0800303931DE5424612F8015B2A2D53
:109A800001F0BA81A5F1300390460027092B3FF67B
:109A900013AD07EB870718F8015B03EB4707A5F148
:109AA0003003092BF5D907E598F800508DF873407D
:109AB00000E500BFFFFFEF7FFCB7040000B8040023
:109AC0000CB80400652D40F3F48000220023DDE98A
:109AD0000E012DF0B1FF002800F00782259B013414
:109AE000BF4A01332694C9F800200122072B259391
:109AF000C9F8042000F3878509F108091E9B0D9A17
:109B0000934280F20883119B129A1C44C9E90023F6
:109B1000259B26940133072B259300F31F8409F11D
:109B200008090D9B5D1E002D7FF74DAE102D259B66
:109B3000AC4E40F37685102719EE10BA03E0103DC5
:109B4000102D40F36E8501331034072BC9E90067EF
:109B5000CDE9253409F10809F1DD24AA594650461A
:109B600034F04AF800287FF4B4AD0DF19C09DDE92A
:109B70002534E4E7069B049AA3EB020BBBF1000F2C
:109B80007FF708AEBBF1100F259A964E26DD2146D1
:109B9000102319EE104A04E0ABF1100BBBF1100FCB
:109BA0001BDD01321031072AC9E90063CDE9252107
:109BB00009F10809F0DD24AA214650460DF19C095F
:109BC00034F01AF800287FF484ADABF1100B1023A9
:109BD000BBF1100FDDE92521E3DC0C4601325C44CA
:109BE000C9F80060072AC9F804B0CDE9252400F3BC
:109BF0007385079B09F10809FF1A002F7FF7CFAD86
:109C0000102F259A774E22DD23464FF0100B19EEC8
:109C1000104A02E0103F102F18DD01321033072ADE
:109C2000C9E9006BCDE9252309F10809F2DD24AA71
:109C3000214650460DF19C0933F0DEFF00287FF4E9
:109C400048AD103F102FDDE92523E6DC1C4601322C
:109C50003C44C9F80060072AC9F80470CDE92524FE
:109C600000F3128209F1080999E5DDF80CB0012A28
:109C700000F02A81022A00F0D58050A904F00703E1
:109C8000E4080A4644EA46743033F60801F8013D18
:109C900054EA0600F2D1302B099103D01BF0010FDA
:109CA00040F0438250AB099ACDF80CB09B1A079351
:109CB000E3E40D9B012B40F39881259D0134099B22
:109CC00001352694C9F800300123072D2595C9F8E0
:109CD000043000F3128209F10809119B0135129A30
:109CE0001C44072DC9E90023CDE9255400F3F78171
:109CF00009F1080900220023DDE90E012DF09CFE88
:109D0000002840F09681099B01350133072D2595E8
:109D1000C9F800300D9B03F1FF331C44C9F804302F
:109D2000269400F3748109F10809149B01351C4441
:109D3000C9F80430072D20ABCDE92554C9F800300F
:109D40007FF73FAD24AA19EE101A504633F054FFA6
:109D500000287FF4BEAC269C0DF19C0933E5102E43
:109D6000DDE925212BDD18931024CDF864800B4606
:109D7000B8462F4619EE105A02E0103E102E19DD9B
:109D8000013210331849072AC9E90014CDE9252307
:109D900009F10809F1DD24AA294650460DF19C0974
:109DA00033F02AFF00287FF494AC103E102EDDE93A
:109DB0002523E5DC3D4619464746DDE918380132E2
:109DC00074180949072AC9F80460C9F80010CDE9D8
:109DD000252400F3BB8309F108099DF87320B2E440
:109DE0003CB8040050B8040040B8040024AA19EE9E
:109DF000101A5046189333F0FFFE00287FF469AC28
:109E0000269C0DF19C09189BAFE424AA19EE101AA8
:109E1000504633F0F1FE00287FF45BAC269C0DF138
:109E20009C09B3E450AB139904F00F0224098A5C37
:109E300044EA0674360903F8012D54EA0602F3D108
:109E400050AA0993CDF80CB0D31A079315E4102D3E
:109E5000259B20DD102619EE107A02E0103D102D12
:109E600019DD01331034C04A072BC9E90026CDE9BA
:109E7000253409F10809F1DD24AA394650460DF1CF
:109E80009C0933F0B9FE00287FF423AC103D102D5F
:109E9000DDE92534E5DC01332C44B34A072BC9F84E
:109EA0000450C9F80020CDE925347FF795AC24AAE9
:109EB00019EE101A504633F09FFE00287FF409ACCB
:109EC000269C89E4DDF80CB00A2C76F1000380F0C2
:109ED000B58301233034CDF80CB007930DF23F1356
:109EE0008DF83F410993FFF7C8BB1E9A002A40F343
:109EF0004A830B9E0D9B9E42A8BF1E46002E0CDD82
:109F0000099B3444C9E90036259B26940133072B6D
:109F1000259300F3FC8509F108090B9D002EA8BFCD
:109F2000AD1B002D00F33E820B9B099A13449B4608
:109F3000039B5F0500F16B821E9D0D9B9D4203DB21
:109F4000039BDE0740F11F85119B129A1C44C9E94F
:109F50000023259B26940133072B259300F3F485DA
:109F600009F108090D9B099E5D1B1E44A6EB0B061B
:109F7000AE42A8BF2E46002E0DDD259B3444C9F805
:109F800000B00133C9F804602694072B259300F331
:109F9000428609F10809002EA8BFAD1B002D7FF7EE
:109FA00012AC102D259B714E40F33B83102719EE08
:109FB00010BA03E0103D102D40F333830133103409
:109FC000072BC9E90067CDE9253409F10809F1DD5E
:109FD00024AA5946504633F00FFE00287FF479AB8F
:109FE0000DF19C09DDE92534E4E7039BDD073FF52E
:109FF00064AE259D0134099B01352694C9F80030D3
:10A000000123072D2595C9F804307FF78CAE24AACB
:10A0100019EE101A504633F0EFFD00287FF459ABCB
:10A020000DF19C09DDE925547FE650AB0993FFF75C
:10A0300024BB0D9B5F1E002F7FF777AE102F4B4E7A
:10A0400040F38F83CDF81C804FF0100B19EE108A6F
:10A0500003E0103F102F40F3828301351034072DA9
:10A06000C9E9006BCDE9255409F10809F1DD24AAFD
:10A070004146504633F0C0FD00287FF42AAB0DF175
:10A080009C09DDE92554E4E724AA19EE101A50468C
:10A0900033F0B2FD00287FF41CAB269C0DF19C0927
:10A0A000FFF77DBB1BF0100369D11BF0400200F0ED
:10A0B00064830A991E46012251F8044BA4B20A9106
:10A0C000FFF7BABA64424FF02D03DDF80CB04FF041
:10A0D000010266EB46068DF87330FFF7B0BA24AA8A
:10A0E00019EE101A504633F087FD00287FF4F1AACC
:10A0F0000DF19C09DDE92554FCE524AA19EE101A9E
:10A10000504633F079FD00287FF4E3AA0DF19C0955
:10A11000DDE92554E1E5039BDA077FF554ABF2E472
:10A1200098F800500A93FFF7C5B930230999023A0D
:10A13000CDF80CB001F8013C50AB09929B1A079383
:10A14000FFF79BBA0A9B059853F8041BC2170A93A2
:10A15000C1E90002FFF780B90A9B53F8044BE617E8
:10A160000A933346FFF73ABA40B8040050B80400E7
:10A17000202398F800508DF87330FFF79BB90A9BA5
:10A18000012253F8044B0A93FFF756BADDE90E019A
:10A1900002460B4634F09EFC002840F00C8625F069
:10A1A0002003412B049340F021833023612D8DF84F
:10A1B00074300CBF78235823632F8DF8753000F36B
:10A1C000088437AB08900993DDE90E12002A80F26B
:10A1D0005F85DDE90E1202F100431A911B932D23D6
:10A1E00018931EA89DED1A0B33F032F900224FF0A0
:10A1F0007F5351EC100B2DF0B7F902460B4643ECA0
:10A20000182B002200232DF017FC08B101231E9308
:10A21000B54A7C1EB54BCDF84080612D18BF1A465B
:10A22000DDF824B057EC186B904608EE10AA0B929C
:10A23000CDE90C9504E0002200232DF0FDFBF0B9E0
:10A240000022AB4B304639462DF08EF90F460646BC
:10A250002DF024FC05462DF01DF90B46024639462B
:10A2600030462CF0C9FF18F80530DA46A1460BF845
:10A27000013B631C06460F4604F1FF34DBD100228C
:10A280009C4B304639462C46CDF81C900D9DDDF890
:10A290003090DDF84080CDF830A018EE10AA2DF0F7
:10A2A000F3FB002840F03D85304639460022914BB3
:10A2B0002DF0C2FB18B12346DC0700F13285079B65
:10A2C000002B07DB079B302201335B440BF8012B8B
:10A2D0005B45FBD1039B43F002030393099BABEB6C
:10A2E00003030D931E9B0B93C4E20A9B53F8044B8C
:10A2F0000A93FFF79DB9DDF80CB0FFF73CBB7A4B32
:10A300001393039B13F0200600F0D9800A9B0733B8
:10A3100023F007035E6853F8084B0A9354EA0603D8
:10A320000AD0039BDA0707D543F002038DF8755076
:10A33000039330238DF87430039B022223F4806B47
:10A34000FFF77AB9694B1393DBE743F0200398F8E2
:10A35000015008F101080393FFF7ACB824AA19EEE5
:10A36000101A504633F048FC00287FF4B2A9269C0E
:10A370000DF19C09FFF7D5BB43F4007398F8015029
:10A3800008F101080393FFF795B8402138462DF0F6
:10A39000A3FE20602061002800F0618540236361F6
:10A3A000FFF748B8102D259B534E40F3D08210275D
:10A3B00019EE10BA03E0103D102D40F3C8820133AE
:10A3C0001034072BC9E90067CDE9253409F10809E4
:10A3D000F1DD24AA5946504633F00EFC00287FF4E4
:10A3E00078A90DF19C09DDE92534E4E709983746A1
:10A3F0000A942EF033FC20EAE0739DF87320079056
:10A40000089610960493CDE90B66FFF742B90C9BB2
:10A41000002B0BDC109B002B08DC099B0D9A1344CE
:10A420000793079B9B4528BF9B4685E5099B2046D4
:10A430000D9A109C1344CDF840802F4F0B934B4640
:10A44000DDF85C8019EE109A002C42D0013C159A80
:10A4500016991044C3E90012259A26900132072A62
:10A46000259200F3858008330B9998F80020A1EB22
:10A470000B0607919642A8BF1646002E0CDD259AC2
:10A48000304401322690072A2592C3E900B600F332
:10A490003181083398F80020002EACBF951B15467B
:10A4A000002D1CDC93440C9A002ACDDC002CCBDC64
:10A4B000CDF85C8004469946DDF84080B1E7039B07
:10A4C00013F0100300F093800A9B53F8044B0A9397
:10A4D00024E70C9A08F1FF38013A0C92B7E7102DE7
:10A4E000259A26DD10260CE00CB8040020B80400E4
:10A4F000000030400000E03F50B80400103D102D37
:10A5000017DD01321030072AC3E90076CDE9252096
:10A5100003F10803F2DD24AA4946504633F06CFBF0
:10A5200000287FF4D6A8103D27AB102DDDE92520AB
:10A53000E7DC013228445D60072A1F60CDE9252051
:10A5400000F32683083398F80020ABE724AA19EE1D
:10A55000101A5046189333F04FFB00287FF4B9A827
:10A560009DF873200DF19C09269C189BFFF7EBB812
:10A5700024AA4946504633F03FFB00287FF4A9A89F
:10A58000269827AB70E7259B013496490133269422
:10A59000C9F800100121072B2593C9F8041000F316
:10A5A000E48109F108090D9B134300F0DF82119B40
:10A5B00012991C44C9E90013259B26940133072BEB
:10A5C000259300F3B28209F10809002AC0F23E8304
:10A5D000099A0133C9F80020072B0D9A1444C9F8D1
:10A5E0000420CDE925347FF7ECA8FFF7ABBB039A35
:10A5F00012F0400200F0CE800A9A1E4652F8044B38
:10A60000A4B20A928AE624AA19EE101A504633F030
:10A61000F3FA00287FF45DA8269C0DF19C09FFF752
:10A620006DBA01332C44C9F80060072BC9F80450F7
:10A63000CDE925347FF7C5A8FFF784BB0BF4806311
:10A64000002250A908EE10AA039507970D46CDF8F1
:10A6500020801746DDF85CA09846CDF810B00CE0DD
:10A660000023204631460A222DF000FB0A2C76F109
:10A6700000031CD304460E465D46204631460A229E
:10A6800000232DF0F3FA303205F1FF3B013705F8D6
:10A69000012CB8F1000FE3D09AF80030BB42DFD1B3
:10A6A000FF2BDDD00A2C76F1000380F07E825A4623
:10A6B00050ABCDF824B09B1ADDF810B0039DCDF857
:10A6C0005CA018EE10AA0D97DDF82080079FCDF84A
:10A6D0000CB00793FEF7D1BF24AA19EE101A50460A
:10A6E00033F08AFA00287EF4F4AF269C0DF19C0921
:10A6F000FFF750B824AA4946504633F07DFA0028A7
:10A700007EF4E7AF98F8002027AB2698C4E60A9BB2
:10A71000059953F8042B11600A93FEF79DBE269B02
:10A72000002B3EF4DCAF19EE104A24AA19EE101AE1
:10A73000504633F061FAA389FEF7D4BF062F3B469B
:10A74000099A28BF06230A94174610920493CDE96C
:10A750000732254BCDE90B220993FEF79ABFDDF8AE
:10A760001C8001353C44C9F80060072DC9F804700D
:10A77000CDE925547FF7D7AA49E41BF400760A9B5C
:10A7800000F0148153F8044B16460122E4B20A93F8
:10A79000FEF752BF039B13F400760A9B00F0108172
:10A7A00053F8044B1646E4B20A93B7E5039B13F43F
:10A7B000007F0A9B53F8044B0A9300F0FD8044F39A
:10A7C000C01664B23346FEF709BF039B13F400764C
:10A7D0000A9B00F0F98053F8044B1646E4B20A9342
:10A7E000FEF726BF3CB8040034B804007A1C00F021
:10A7F000FC80049B472B40F0F980002F40F0F6804E
:10A80000039ADDE90EBC42F480766346002BC0F269
:10A81000A382012718903C464CEC1BBB22ABB0EE48
:10A820004B0AF0EE6B0A2246022101931FAB504601
:10A8300000931EAB00F028FB049B0990472B40F0CF
:10A84000E781039BDB0700F1E381229B099A9B1AB6
:10A850000D93049B472B40F03F811E9BD81C0B930C
:10A8600002DBBB4240F314810023023D089325F034
:10A87000200304930B9B049A013B412A1E9340F052
:10A88000898205F10F02D2B2002B8DF88020C0F230
:10A89000A2822B22092B8DF8812040F36C820DF1CE
:10A8A0008F0CB14F604687FB0312D9171E46044632
:10A8B000C1EBA2010138632E01EB8102A3EB42023E
:10A8C0000B4602F1300204F8012CECDC3033DAB232
:10A8D000A31E9C4500F8012C40F2CA820DF18203B0
:10A8E00001E010F8012B844503F8012BF9D10DF19B
:10A8F00091030DF182021B1B134420AA9B1A14938F
:10A900000D9B149A012B1A44079240F36982079B0E
:10A91000119A13440793039B079A23F4806322EA56
:10A92000E27243F480730492039300231093CDE901
:10A930000B33189B002B40F0C9801F469DF87320F5
:10A94000FEF7A7BE2D228DF87320FEF78FBF0133CF
:10A950002C44C9F80060072BC9F80450CDE9253410
:10A960007CDC09F10809FFF7DFBA24AA19EE101AF6
:10A97000504633F041F900287EF4ABAE1E9A0DF13B
:10A980009C09269C0FE60D9B099E5D1B1E44A6EBB1
:10A990000B06AE42A8BF2E46FFF7FDBA0A9B0599EB
:10A9A00053F8042B11800A93FEF756BD53F8044B5D
:10A9B00001220A93FEF740BEE6173346FEF70EBEAD
:10A9C00053F8044B0A93A9E453F8044B0A93FEF797
:10A9D0002FBE791C50462DF07FFB0990002800F017
:10A9E0002D82099B0893FFF7EFBB0627039ADDE949
:10A9F0000E0142F480760029C0F2AF81002341ECC1
:10AA00001B0B1893049B462B40F0EF8022ABB0EE5B
:10AA10004B0AF0EE6B0A3A46032101931FAB5046F6
:10AA200000931EAB00F030FA03780990302B08D168
:10AA30000022002351EC1B0B2CF0FEFF002800F03D
:10AA4000F6811E9B3B44099AD4180022002351EC46
:10AA50001B0B2CF0F1FF78B12346F7E624AA19EE80
:10AA6000101A504633F0C8F800287EF432AE269C07
:10AA70000DF19C09FFF758BA229BA342BFF4E6AE42
:10AA800030215A1C22921970229B9C42F9D8DDE693
:10AA90000B9B0D9A9342C0F2CF80039AD20740F1EC
:10AAA0006781119A13440793039B5F0503D50B9BA2
:10AAB000002B00F30C81079B672523EAE3730493C3
:10AAC00000230396089310930C9332E72D2200275E
:10AAD0008DF87320FEF7DFBD049B462B40F0BB8151
:10AAE0001E9A039B002A0B9203F0010340F38F810F
:10AAF0003B4340F05A810B9B66250793039B590506
:10AB000000F1E680079B23EAE3730493D8E724AAC5
:10AB100019EE101A504633F06FF800287EF4D9ADC4
:10AB2000269C0DF19C09FFF7F8B924AA19EE101A1A
:10AB3000504633F061F800287EF4CBAD1E9A0DF13B
:10AB40009C09DDE9253440E524AA19EE101A504687
:10AB500033F052F800287EF4BCAD1E9D0DF19C0927
:10AB6000269CFFF7FFB900BF67666666039BDB079D
:10AB70007EF529AE119B129A1C44C9E90023259B3E
:10AB800026940133072B2593CFDC09F108091FE533
:10AB900024AA4946504633F02FF800287EF499AD98
:10ABA00098F8002027AB26987CE4159B1699ABEB10
:10ABB000030B1A4658462EF07FF89AF801300BB175
:10ABC0000AF1010A204631460A22002300272DF00F
:10ABD0004DF84FE50497079707469DF873200A94B0
:10ABE0001090CDE90B00FEF754BD452B40F03E819F
:10ABF00022AB7C1CB0EE4B0AF0EE6B0A02210193F3
:10AC00001FAB2246504600931EAB00F03DF9099061
:10AC1000099B1C4419E724AA19EE101A504632F079
:10AC2000EBFF00287EF455AD1E9D0DF19C090D9B98
:10AC3000269C5D1BFFF7AFB90D9B119A9A180B9BD1
:10AC4000002B079240F3A880672557E75542103242
:10AC5000894E23DA102719EE10BA02E0103D102DAC
:10AC60001CDD01331034072BC9E90067CDE9253419
:10AC700009F10809F2DD24AA5946504632F0BCFF1A
:10AC800000287EF426AD0DF19C09DDE92534E5E7C9
:10AC90000023CDE91A121893FFF7A3BA01332C440D
:10ACA000C9F80060072BC9F80450CDE925347FF7B7
:10ACB0006CAF24AA19EE101A504632F09DFF0028FE
:10ACC0007EF407AD0DF19C09DDE9253480E46725AC
:10ACD00017990B78FF2B00F0BA8000240B9A2046BE
:10ACE00003E001300131FF2B08D0934206DAD21A7B
:10ACF0004B78002BF5D10B780134F4E70B921791C8
:10AD00000C901094109A0C9B15991344079A039673
:10AD100001FB03230022079323EAE37308920493C1
:10AD200007E60C9B22930B9B1BF8012CD97B5B46FF
:10AD3000914209D1302003F8010C229B5A1E229225
:10AD400013F8012C9142F6D0392A74D00132D2B2D4
:10AD500003F8012CFFF7BEBA0127DDE90E1202F15C
:10AD600000430BEE101A0BEE903A2D23189349E690
:10AD70000B9B079398E6049A412A36D030228DF82F
:10AD800082200DF18302303302F8013B20ABD31A4D
:10AD90001493B5E5EAB277E5C3F1010367251A44D8
:10ADA00022EAE273079204938AE6119B6625D31880
:10ADB0003B440793A2E60F9B002B19DB9DF8732001
:10ADC000039B2E4923F08003039300231846089326
:10ADD0002B4BFEF753BD0B9B2D22C3F1010359E50D
:10ADE000039BD9077FF597AD91E50DF18202CAE784
:10ADF0002D228DF87320E3E70A9B98F801509046C6
:10AE000053F8047B47EAE7770A93FEF753BB3B43CB
:10AE100004D1012366250493079351E6119B66250F
:10AE200001333B44079323EAE373049348E6C7F1F5
:10AE300001031E9306E60B9A927A89E719EE101A1F
:10AE40008B8943F0400213468A81FEF74BBC0023F6
:10AE500010930C9356E700230893FFF743BA0C2393
:10AE60004FF0FF323B600592FEF743BC3C46D5E411
:10AE70000223149344E500BF50B8040004B8040052
:10AE800008B80400FFFFFFFF2DE9F04F2DED068B02
:10AE900097B004460191016C269D0A92079357ECE6
:10AEA000106B8DED020B41B1426C012393404A605F
:10AEB0008B6031F0B1FB00232364B7F10009C0F2CD
:10AEC000B98000232B607C4B33EA090300F0BD807E
:10AED000002200239DED027B51EC170BB0EE478A58
:10AEE000F0EE678A2CF0A8FD804688B10123079A0E
:10AEF0001360279B002B00F06B82704B03F1FF392E
:10AF0000279A1360484617B0BDEC068BBDE8F08F5A
:10AF1000B0EE480AF0EE680A14AA15A9204631F0EE
:10AF20008FFF09EE100A5FEA19555BEC18AB40F091
:10AF30009E80DDE91485454405F23240202840F327
:10AF40004F82C0F1400009FA00F905F2124026FADA
:10AF500000F049EA00002CF08DFA013D0123A1F137
:10AF6000F87111930022564B2CF046F94CA3D3E90B
:10AF700000232CF0F9FA4CA3D3E900232CF03EF97E
:10AF800006460F4628462CF085FA49A3D3E900234C
:10AF90002CF0EAFA02460B46304639462CF02EF9E0
:10AFA00006460F462CF07AFD0022814605900023CC
:10AFB000304639462CF04AFD002840F0FB81059EC2
:10AFC000162E00F2E9813F4B03EBC60351EC180B40
:10AFD000D3E900232CF03AFD002879D0731EA8EBAA
:10AFE00005050593002310936B1E089300F1DC8187
:10AFF00000230B93059B002B72DA059B0B9A06939B
:10B00000D21A0B925A4200230D920593019B092BF1
:10B0100070D8052B40F3E981043B00250193019B87
:10B02000023B032B00F25585DFE813F0B603B303B0
:10B03000AA038E03012329F000492B601E4BCDF893
:10B040000C9033EA09037FF443AF42F20F73C9F364
:10B050001309079A136059EA060317D1279BDFF8F3
:10B060006890002B3FF44EAF09F1080348E7CBF39B
:10B070001303CDF84480A5F2FF35DDF8508043F08E
:10B080007F5118EE100A41F440116BE7279BDFF85F
:10B090003C90002B3FF436AF09F1030330E700BFCB
:10B0A00061436F63A787D23FB3C8608B288AC63FCE
:10B0B000FB799F501344D33F0000F07F3DB804005C
:10B0C0000000F83F183F0400B0B80400ACB804001A
:10B0D000A8EB05056B1E089300F1E18410900B901E
:10B0E000089B059A13440692089300230D93019B35
:10B0F000092B8ED9002301254FF0FF3201930992CD
:10B100000C950A930021099B61641293204631F04B
:10B110005DFA0490002800F04C86099B0E2B8CBF32
:10B12000002505F00105049B2364002D00F0088133
:10B130000699002940F3728201F00F02AC4B0D1109
:10B1400003EBC2030A46D205D3E9006740F1F78258
:10B15000A84B05F00F054FF00308D3E9082351EC85
:10B16000180B2CF02BFB82468B468DB1DFF88492B6
:10B17000EB0709D53046394608F10108D9E9002323
:10B180002CF0F2F906460F466D1009F10809EFD1CF
:10B1900032463B46504659462CF010FB06460F46B9
:10B1A000109B43B10022944B304639462CF04EFCA4
:10B1B000002840F04F8440462CF06CF932463B4664
:10B1C0002CF0D2F98D4B00222CF018F8099B804608
:10B1D000A1F15079002B00F09A80069B1393099BF4
:10B1E0000E930C9B002B00F0DA820E9A0020804B0D
:10B1F000834903EBC203049D53E902232CF0DEFADA
:10B2000042464B462BF0F8FF82468B463046394685
:10B210002CF044FC80462CF03DF9024608F1300841
:10B220000B46304639462BF0E7FF05F8018B064602
:10B230000F4602460B46504659462CF025FC002886
:10B2400040F008854FF000080AEE104A2C464546AB
:10B250002BE001350E9B9D4280F21D8550465946DC
:10B260000022684B2CF080F90022664B82468B4608
:10B27000304639462CF078F9894680462CF00EFC91
:10B2800007462CF007F902460B4630374046494640
:10B290002BF0B2FF04F8017B52465B4606460F4690
:10B2A0002CF0D4FB002840F0D28432463B460020EC
:10B2B00051492BF0A1FF52465B462CF0C7FB0028FA
:10B2C000C7D0254604991AEE104A02E0A94200F0C0
:10B2D00093842A4615F8013D392BF7D001330491A8
:10B2E000DBB22B70139BDDF81090013304920693B0
:10B2F00004E140462CF0CEF832463B462CF034F9BF
:10B3000000223E4B2BF07AFF8046A1F15079304667
:10B31000394600223C4B2BF06FFF42464B46064617
:10B320000F462CF0B1FB002840F0868330463946AA
:10B33000424609F100432CF089FB002840F042838B
:10B34000159B002B03DB069A0E2A40F39D810C9A75
:10B35000002A5DD0019A012A40F3A383099B5A1E5B
:10B360000D9B934280F245830D9B00270599D31ACC
:10B370000D9219440591099B002BC0F23884089A5C
:10B380001A4408920B9A16461A440B920121204641
:10B3900031F04AFA05463EE00123A8EB050510937B
:10B3A0006B1E08937FF524AEC5F101030B930023B8
:10B3B00008931FE648462CF06DF832463B462CF0C9
:10B3C0003BFB00287FF4FBAD09F1FF330593F6E565
:10B3D000DFF83890484617B0BDEC068BBDE8F08F1B
:10B3E000C0F1200006FA00F0B5E5012517E600BF20
:10B3F000183F0400F03E04000000F03F00001C4035
:10B400000000E03F00002440000014403CB804006D
:10B410000D9FDDE90B65002E0CDD089A002A09DD81
:10B42000B24213460B99A8BF3346C91AF61AD31A6B
:10B430000B9108930D9B53B10C9B002B00F04083A4
:10B44000002F00F3C2820D9BDA1B40F0D482012151
:10B45000204631F0E9F9059A0746002A00F33681C3
:10B46000019B012B40F3EB824FF00008059B002B62
:10B4700040F03781012308990B4413F01F0353D088
:10B48000C3F12002042A40F38184C3F11C030B9A08
:10B4900019441A441E440B9208910B9B002B07DDA4
:10B4A00019EE101A1A46204631F0FCFA09EE100A7D
:10B4B000089B002B05DD39461A46204631F0F2FA8A
:10B4C0000746109B002B40F01581099B002B34DCB4
:10B4D000019B022B31DD099B002B00F0D4810A9BDC
:10B4E000DDF81090DE433946204631F095F8731CA4
:10B4F00006931DB12946204631F08EF819EE101A38
:10B50000204631F089F80023049A1370DDE9061310
:10B510001960279B002B3FF4F5AC48461A6017B022
:10B52000BDEC068BBDE8F08F1C230B9A1E441A4419
:10B530000B92089A1A440892AFE70C9B002B00F07C
:10B54000B981002E00F35F82B8F1000F40F08C83C8
:10B55000AA46029B19EE10BA049A03F00103099956
:10B5600090460293531E194409913946584630F0CB
:10B5700091F929468146584631F008FB5246394632
:10B580000646204631F024FBC268014609F130032B
:10B59000002A40F03F8205905846089331F0F6FAB1
:10B5A00005990590204631F037F8019B059A42EA4B
:10B5B0000301029B0B43089B00F0B883002EC0F2EE
:10B5C000268301990E430299314300F02083002A1B
:10B5D00000F38D83099908F1010688F80030414590
:10B5E00000F08D83594600230A22204631F01EF8D0
:10B5F0005545834629464FF000034FF00A02204686
:10B6000000F00F8231F012F85146054600230A225D
:10B61000204631F00BF8B0468246A6E700F0B48130
:10B62000069BC3F10009C24B09F00F0203EBC203F2
:10B6300051EC180BD3E900232BF096FF5FEA291990
:10B64000CDE90E0100F09C83DFF8F0A200234FF05B
:10B65000020806460F4619F0010F0AD03046394657
:10B6600008F10108DAE900232BF07EFF2B4606469D
:10B670000F465FEA69090AF1080AECD1002B7FF452
:10B680008FADDDE90E678BE5A94B03EBC203D3E970
:10B6900000AB0A9B002B80F23882099F002F00F339
:10B6A0003482002F40F08E810022A24B5046594632
:10B6B0002BF05AFF02460B4651EC180B2CF0D0F938
:10B6C000002800F0BA81099F3D4608E70146204660
:10B6D00031F088F9019B0746012B40F35A814FF066
:10B6E00000083B6907EB8303186931F04BF8C0F1A0
:10B6F0002003C0E6394619EE100A31F047FA002857
:10B70000BFF6E3AE19EE101A00230A22204630F0ED
:10B710008DFF069B09EE100A03F1FF390C9B002BED
:10B7200040F01183129B002B00F30A83019B022B34
:10B7300040F30683129BCDF818900993CBE64FF0A7
:10B7400002085BEC18AB10E501230C930A9B069AE8
:10B75000134412930133012B18460993B8BF0120FB
:10B760000021172861647FF7D1AC012204235B001C
:10B770001146013203F114068642F8D96164C5E42A
:10B7800001230C930A98002840F3518112900990EC
:10B79000E6E700230C93D9E700230C93F2E70E9819
:10B7A000424663494B46DDF8108001EBC00151E988
:10B7B00002012BF0D9FE41EC1A0B394630462CF031
:10B7C0006DF905462BF066FE02460B4630463946BB
:10B7D00030352BF011FD06460E980F4608F8015B38
:10B7E000012800F0C4820E9D09EE904A049B4FF0A0
:10B7F000000ADFF84CB11D442C46454652465B46D4
:10B80000304639462BF0B0FE894680462CF046F98A
:10B8100007462BF03FFE02460B463037404649466E
:10B820002BF0EAFC05F8017BA54206460F46E5D160
:10B83000254619EE904A00223F4B1AEE100A59ECA9
:10B840001A8B49462BF0DAFC02460B463046394645
:10B850002CF01AF9002840F004821AEE102A4B4608
:10B86000002035492BF0C8FC02460B4630463946CD
:10B870002CF0ECF800283FF463AD2A4615F8013DA2
:10B88000302BFAD02EE539460522204630F0CEFE88
:10B89000074619EE100A394631F078F900287FF78B
:10B8A0001EAE04983123069E814600F8013B013606
:10B8B000049018E6069B01330693DDF810800126FC
:10B8C00019EE10AADDF824B007E0514600230A2241
:10B8D000204630F0ABFE01368246394650462FF006
:10B8E000D9FF5E4500F1300008F8010BEDDB099B44
:10B8F000814609EE10AA0026002BCCBF9B464FF0D4
:10B90000010B049B9B4419EE101A0122204631F0D2
:10B91000C9F8394609EE100A31F038F9002840F329
:10B920005B811BF8013C0BF1FF3B049A0FE000BF69
:10B93000183F0400000014400000E03FF03E040007
:10B94000000024405A4500F040811BF8013D392B8E
:10B950000BF10108F6D001338BF800303946204650
:10B9600030F05AFE002D00F02B81002E00F01B82DB
:10B97000AE4200F0188231462046DDF81090CDF836
:10B98000108030F049FEB5E54FF0020857EC186B17
:10B9900006E4029B002B7FF4A2AEDDE90212C2F3A3
:10B9A0001303002B7FF49BAEBD4B1340002B00F024
:10B9B000B0810B9B4FF0010801330B93089B0133BF
:10B9C000089353E500273D4689E529463A46204637
:10B9D00031F008F8054619EE102A2046294630F0C5
:10B9E00051FF19EE101A09EE100A204630F014FE2D
:10B9F00029E59F1ABFE419EE101A204630F0F2FF35
:10BA000009EE100A23E529463246204631F04AF86D
:10BA1000054699E52046059330F0FEFD0122059B81
:10BA2000CCE530F003FEB046054682469DE5012395
:10BA3000CDE90933FFF766BB00273D4631E7DDE975
:10BA4000021200297FF410ADC2F31303002B7FF420
:10BA50000BADA9E7099B002B3FF44BAC129B002BCD
:10BA60007FF76EAC069A304639460E93013A8D4BFD
:10BA7000139200222BF078FD06460F4608F10100D4
:10BA80002BF008FD32463B462BF06EFD0022864B24
:10BA90002BF0B4FB8046A1F15079FFF7A2BB1090C8
:10BAA00082E4119A002A00F0AE8003F23343089A30
:10BAB0000D9F1A4408920B9A16461A440B9265E49D
:10BAC00019EE101A0D9A204630F08CFF09EE100A7C
:10BAD000BDE400212046616430F078FD0490002828
:10BAE00000F06781069A049B0E2A2364159B00F3DD
:10BAF0006781002BC0F26481069A6C4B03EBC20392
:10BB00004FF0FF32D3E900AB099252465B4618EE84
:10BB1000100A049D57EC186B39462BF04FFE2BF0A2
:10BB2000BDFF80462BF0B6FC52465B462BF01CFD59
:10BB30000B460246394618EE100A2BF05DFB08F161
:10BB4000300305F8013B099B012B00F0B38008EEA0
:10BB5000104A4FF00109099C1DE052465B463046F1
:10BB600039462BF02BFE09F101092BF097FF804697
:10BB70002BF090FC52465B462BF0F6FC0B4602463F
:10BB8000394630462BF038FB08F13003A14505F863
:10BB9000013B00F08D800022424B2BF0E5FC00229F
:10BBA000002306460F462BF047FF0028D5D018EE9D
:10BBB000104A069BDDF810900133049506939DE42E
:10BBC000DDF81090CDF8108098E4069B049A0133BC
:10BBD000069331231370C1E603D119F0010F7FF4EE
:10BBE000A0AED8461BF8013D302BFAD0B6E60B9B31
:10BBF000099A9E1AFFF7CABB139B04910133139352
:10BC00003123FFF76EBB149BC3F136034FE7002AC5
:10BC1000594609EE10BACB46994610DD012220465E
:10BC200030F040FF394609EE100A30F0AFFF00282F
:10BC300040F39F80B9F1390F6ED00BF1310908F84C
:10BC4000019B069B2E4655460133069386E6254604
:10BC50001AEE104A139BDDF81090013304950693F9
:10BC60004CE40499FFF735BB6968204630F0AEFC20
:10BC70000646002800F090802B6905F10C010C307D
:10BC800002339A002CF012FD31460122204630F09A
:10BC900009FF82465DE41AEE104AFFF751BB00BF70
:10BCA0000000F07F0000244000001C40183F04000A
:10BCB00018EE104A02460B462BF0A0FA52465B469D
:10BCC00006460F462BF0E0FE60B952465B46304612
:10BCD00039462BF0B1FE00283FF46BAF18F0010F8E
:10BCE0003FF467AF069B04991393FFF7F2BA392B21
:10BCF00009EE10BA10D0013308F8013BA1E79946CC
:10BD0000069B09EE10BAB34601332E4655460693FC
:10BD1000F9E59846FFF7AABB069BC3462E46554653
:10BD20000133069339230BF8013BFCE5392B09EE6F
:10BD300010BACB469946EFD0002E3FF77EAF7EE794
:10BD4000129B0993B9E5294600230A22204630F0C8
:10BD50006DFC129B0546002B03DC019B022B3FF779
:10BD6000E9AC129BCDF818900993FFF7EABB454662
:10BD700061E57FF464AF19F0010F7FF45BAF5EE71C
:10BD8000DDE90E674FF00208FFF70ABA3FF485AB12
:10BD9000C3F13C03FFF7C9BB02460E4B40F2EA2158
:10BDA0000D482CF013F9DDF81090CDF81080FFF756
:10BDB000A1BB084B00224FF4D57107482CF006F9BF
:10BDC0004FF0FF320021CDE90921012112920C919F
:10BDD000FFF7C0BABCB80400D0B80400FFFFFFFFF3
:10BDE0002DE9F04F1C468C4B0F4600251B68824600
:10BDF0002DED028B9FB01846069207931A952CF0F2
:10BE00002DFF0021002283463B461997CDE90412FD
:10BE1000994613F8016B2D2E2FD8DFE816F0D100CC
:10BE20002E002E002E002E002E002E002E002E00A2
:10BE3000E000E000E000E000E0002E002E002E0018
:10BE40002E002E002E002E002E002E002E002E0082
:10BE50002E002E002E002E002E002E002E00E000C0
:10BE60002E002E002E002E002E002E002E002E0062
:10BE70002E002E0002042E00F60300230893302E1D
:10BE800000F0AF8000230993A6F13003092B00F2E4
:10BE9000A48400254846A8462C4605EB85030130BE
:10BEA00008EB8802082C06EB4303199006EB4202CC
:10BEB0000678C8BFA3F1300504F10104A6F13003F0
:10BEC000D8BFA2F13008092BE7D907995A4632F0BA
:10BED0005BFD002800F04E8226F02006452E40F043
:10BEE000A1800020A64684460A90199F7B1C1993C6
:10BEF0007E782B2E00F06E842D2E00F053834FF0B1
:10BF0000000BA6F13003092B00F24883302E05D137
:10BF1000199B013319931E78302EFAD0A6F1310304
:10BF2000082B00F2FA811999A6F130024B1C0791F7
:10BF300019934E78A6F13001092900F204850133E6
:10BF400002EB8202199306EB42021E78303AA6F108
:10BF500030010929F3D907995B1A082B40F3F384C0
:10BF600044F61F630C93BBF1000F02D00C9B5B42A5
:10BF70000C93002C40F0D584099B034340F0D08102
:10BF8000BCF1000F1CD1692E00F0D88316DC492EBD
:10BF900000F0D4834E2E13D1204919A832F0ECFBC7
:10BFA00070B1199B1B78282B00F0B3851C4800F05A
:10BFB000AFFEB0EE408AF0EE608AB3E16E2EEBD0B9
:10BFC000069B9FED138B0BB1069B1F60B0EE480ADA
:10BFD000F0EE680A1FB0BDEC028BBDE8F08F19933C
:10BFE00016E799F8013003F0DF03582B00F058846E
:10BFF0004B46013319931E78302EFAD09946002E05
:10C0000000F08E81012309933EE700BFAFF300806B
:10C010000000000000000000ACBB0400F8B9040000
:10C02000C84C04000023CDE90A340C9340460B9E13
:10C030002BF020FA02460B46002C08BF3446102E87
:10C04000CDE904230C9B0A9AA3EB02030993334620
:10C05000A8BF1023092E9B4613DDC14B03EBCB0376
:10C0600053E912232BF080FA06460F4628462BF0A0
:10C0700001FA02460B46304639462BF0BFF8CDE9AF
:10C0800004010B9B0F2B00F38B81099B002B00F00D
:10C09000FE83099B40F36783162B40F3B9840B9B07
:10C0A000099AC3F1250393420B9B80F21485A3EBFD
:10C0B0000B0B099B9B441BF00F000AD0A84901EB16
:10C0C000C001DDE90423D1E900012BF04DFACDE9EF
:10C0D00004013BF00F0B40F0E382002307930B9B1E
:10C0E000224649465046CDF8008030F0F3FA1190D0
:10C0F000002800F0CF830A9B00270C9AB946B84667
:10C100009B1A099A002AA8BF00230A9322EAE27325
:10C110001093119C5046616830F058FA834600280D
:10C1200000F0E681226904F10C010C3002329DED31
:10C13000048B92002CF0BAFA1CAAB0EE480AF0EE7A
:10C14000680A1BA9504630F07BFE1A90002800F0C8
:10C15000C0810121504630F067FB8146002800F085
:10C16000C7811B9B002BC0F2B6810A9A109D9E18B6
:10C17000079A1C9C9B1A7B4A2344C4F13604013B5A
:10C18000934280F26E81D21A1F2AA4EB020400F3BC
:10C19000D581012303FA02F700230C93254434448C
:10C1A000079BA6421D443346A8BF2346AB42A8BF07
:10C1B0002B46002B02DDE41AED1AF61A0A9B002B1F
:10C1C00000F36781002C00F37B81099B002B00F3B7
:10C1D0008681002D00F3A881002E08DD49463246F5
:10C1E000504630F05FFC8146002800F081815A46BD
:10C1F0001A99504630F0ECFC8046002800F0788117
:10C200000023C2684946C3600B9230F0BFFC00288F
:10C21000C0F2AD8400F012844946404630F078FE0A
:10C2200000224FF0804310EE100A55EC104B2946C7
:10C230002BF016FC002800F018810B9B002B00F05F
:10C240008A81059B0024484D0E939FED3F7B8DED29
:10C250000C7B464F0E9A464B02EA07069E4200F0C0
:10C26000A781079B13B3B6F1D46F1FD838A3D3E9C6
:10C270000023DDE90C012BF0F3FBA0B1DDE90C019B
:10C280002BF034FC012838BF01202BF0F3F80B9B76
:10C29000CDE90C01002B00F0DF819DED0C7B8DEDD5
:10C2A000147BDDE9144505F1D6639D1B2946204624
:10C2B000B0EE480AF0EE680ACDE9040130F02CFD3A
:10C2C000DDE9040153EC102B2BF04EF953EC182B45
:10C2D0002AF094FF0D46CDE90401244B2B40B342D4
:10C2E00003D1079B002B00F050821A99504630F082
:10C2F00093F95946504630F08FF94946504630F090
:10C300008BF94146504630F087F902E74FF0010CB7
:10C3100026F02003452B00F0948100230C9328E69F
:10C320009FED0D8B069A0AB1199B1360089B002B99
:10C330003FF44CAE18EE901A18EE102A01F10043AB
:10C3400043EC182B42E600BF000000000000F03F65
:10C350000000C0FFFFFFDF41000000000000000000
:10C36000183F040002FCFFFF0000F03F0000F07FD8
:10C370000000E07F199BA6460A9003EB0B0219927E
:10C3800013F80B60A6F130010929BFD801308B46A4
:10C39000002940F0A282199E731C19937678F1E768
:10C3A0000B9BA3EB0B0B099B9B44BBF1000F3FF7CF
:10C3B00082AE3FF492AECBF1000515F00F020AD029
:10C3C000AF4B03EBC203DDE90401D3E900232BF0FB
:10C3D000F5F9CDE904012D113FF47FAE1F2D3ADCB4
:10C3E00015F01003A74E4FF0000718BF6A230793FC
:10C3F000DDE9042315F0010F1046194606D0012788
:10C40000D6E900232BF0B0F802460B466D1006F17A
:10C410000806EFD10FB1CDE90423079B93B1DDE905
:10C420000401C1F30A52C2F16B03002B0ADD1F2B7A
:10C4300040F318840020342B049040F31F844FF005
:10C440005C73059300220023DDE904012BF0F4FA6C
:10C4500000283FF444AE22239FED838BCAF80030BE
:10C4600060E7002301270C9398E6874B2046294676
:10C4700000222BF079F80B9BCDE90C01002B65D144
:10C4800001F1004312901393059BDDE912450E93D1
:10C49000DFE649461A46504630F0A4FA814638B3E2
:10C4A00001461A9A504630F0EDF908B30B90504609
:10C4B0001A9930F0B1F80B9B002C1A937FF785AED8
:10C4C00022461A99504630F0EDFA1A9000287FF46F
:10C4D0007CAE47460EE0109A0A9ED51A48E65946A9
:10C4E000109A504630F07EFA834600287FF471AEF1
:10C4F00047461A9822239FED5E8BCAF8003001460A
:10C50000504630F089F85946504630F085F8494693
:10C51000504630F081F81199504630F07DF8394698
:10C52000504630F079F8FDE659462A46504630F03C
:10C53000B9FA834600287FF44FAED9E7534FFF1A6C
:10C54000012303FA07F21F460C9227E69DED0C7BB0
:10C550008DED127B98E7DDE90412002964D1C2F366
:10C5600013030E92002B65D10022494B2046294629
:10C570002BF06CFA002840F058820022424B2046F3
:10C5800029462AF0F1FF0A460146169002F10043BF
:10C59000CDE90C121793DDE916455AE600231997E9
:10C5A0000C93E6E44FF0010BBB1C1993BE78A8E492
:10C5B000A2F15473204629460593DDE90445CDE9EF
:10C5C0000E0145EC104B30F0A7FBDDE90E0153ECFA
:10C5D000102B2AF0C9FF2B4622462AF00FFE2D4BC6
:10C5E0000F409F42CDE9040132D92B4A18EE903A10
:10C5F000934204D118EE103A01333FF479AF4FF073
:10C60000FF33254ACDE904326FE60123089309F18F
:10C610000103199399F80160002E3FF4D1AC9946BB
:10C620002DE400230893F2E7DDE90412012900F06C
:10C630007C810E920024194D9FED0F7B8DED0C7BBC
:10C6400007E644EA0003099A13433FF4B9AC4CE40B
:10C6500001F15475059540E601F1004314901593DE
:10C660001FE600BFAFF300800000000000000000E4
:10C67000000000000000F07F000000000000F03F1C
:10C68000183F0400E03F04000000E03FE2FBFFFF32
:10C690000000F03FFFFF9F7CFFFFEF7F0000F0BF37
:10C6A000BBF59A7F00F3F680BBF1100F4FEA2B1514
:10C6B00040F38A82DFF854B34FF0000C5E466746C1
:10C6C000DDE9042315F0010F104619464FEA650510
:10C6D00007F1010707D0D6E900232AF045FF4FF004
:10C6E000010C02460B46012D06F10806EAD1BCF109
:10C6F000000F01D0CDE90423059B0BEBC707A3F185
:10C7000054730593DDE90423D7E900012AF02CFFD7
:10C71000B74B0A460B40CDE90401B6498B4200F203
:10C72000B980A1F580118B4240F2EC814FF0FF33CC
:10C73000B14ACDE9043200230793D0E4AF4919A8E8
:10C7400032F01AF800283FF43BAC199B19A8AC4909
:10C75000013B199332F010F810B9199B013319936A
:10C760009FED998BDEE51633FFF61AAE0A9B0C9A05
:10C770009A1AA44B03EBC203DDE90401D3E90023B9
:10C780002BF01CF841EC180BCCE5DDE90C673046CA
:10C79000394632F0B5F92AF0B9FE0B460246394661
:10C7A0003046C5F313062AF027FD049C0B9F0D4667
:10C7B0002743044657EA060346D185A3D3E900235D
:10C7C0002BF044F900283FF490AD9DED048B4746D3
:10C7D0001A9894E64FF0000BE6E607995A46484649
:10C7E00032F0D2F88646002840F06E82199A02EBA9
:10C7F0000B03199312F80B60302E40F0B680C3F192
:10C8000001029818013319931E78302EF9D0A6F141
:10C810003103082B10D8DDF864904FF00008A6F122
:10C82000300B431C01244E4645460A9308EB88080A
:10C8300000200BEB4808AFE500234FF0010C1C462D
:10C8400098461D460A9363E563A3D3E900232BF0C2
:10C85000FDF80028B9D12046294661A3D3E9002379
:10C860002BF012F900283FF440ADAEE71C9B049377
:10C870001B9B03F233421D9B23F4801343EA0253B4
:10C880000593290703D5059B43F0004305939DEDD0
:10C89000048B47E522239FED4C8BCAF8003041E51D
:10C8A000089B19A90294504601931AAB564A00936B
:10C8B0001BAB31F06BFC10F0070405463FF430ADC4
:10C8C000062C54D1069A09F101039FED478B002AEB
:10C8D0003FF47CAB1360FFF779BB0A9B0128199EDC
:10C8E00003440A9304F101031A4616D0204400F1D0
:10C8F000FF3C05E04FEA40089C4503F101030BD0E3
:10C90000224608EB88001C46082AF3D905EB85006F
:10C91000102BD8BF4500EFE70232082C1BDC144671
:10C9200084E70B947446FFF781BBDDE904120E9295
:10C93000002A7FF47FAE474622231A989FED2A8B68
:10C94000CAF80030DBE544F61F639A42A8BF1A46D6
:10C950000C92FFF708BB102A14464FF00000DCBF12
:10C9600005EB850501EB450516E570464FE71A9A7C
:10C970003AB135211CA830F0F9FA50461A992FF037
:10C980004BFE013C042C3FF67CAF01A353F824F08E
:10C990006DC80000B9C90000B3C90000A5C90000F6
:10C9A0006DC800004FF0FF336FF00040CDE9043058
:10C9B00067E70F4B059364E71C9B04931D9B05934E
:10C9C0005FE700BFAFF30080000000000000F07FD1
:10C9D0009535A094FFFFCF3F9535A094FFFFDF3F33
:10C9E00035E5AF350000E03F00000000000000002A
:10C9F0000000F07F0000A07CFFFFEF7FECB9040097
:10CA0000F0B90400183F0400FCB90400F03E040033
:10CA10000998B74901EBC001DDE90423D1E9000120
:10CA20002AF0A2FD41EC180B7CE49FEDAD7B8DED6F
:10CA3000167B9FEDAD7B8DED0C7BACE53B460B9EF5
:10CA400047469846002E78D0AA4BDDE90445C5F349
:10CA500013012A46994200F0BB800C9BDDE90412C9
:10CA6000002B00F0AB801342144620D0B0EE480AF1
:10CA7000F0EE680A002E00F0CE8030F04DF9079BF2
:10CA800051EC100B5BB1C4F30A54C4F16B04002CDD
:10CA900005DD994D002205EB04532AF065FD0246A1
:10CAA0000B4651EC180B2AF0A9FB41EC180B079B25
:10CAB0007BB10022914B51EC180B2AF055FD034637
:10CAC00041EC180B18EE902A134304BF2223CAF836
:10CAD00000301A9813E5C3F10F0A854C04EBCA0124
:10CAE000DDE90423D1E900012AF03EFD099BA3EB17
:10CAF0000A0A04EBCA04D4E900232AF035FD41EC0C
:10CB0000180B0FE402F15473059300230793FFF70A
:10CB1000E6BA19A81CAA7A4931F048FE05287FF424
:10CB200045AA1D9B43F0FF4343F4E00305931C9B80
:10CB300004939DED048BFFF7F5BBDDE90412C2F30E
:10CB4000130314460B4388D1079B002B40F0B180A0
:10CB50006C4B2340A3F580136FEA13536FEA035322
:10CB600005934FF0FF3304939DED048B9FE7DDE9C0
:10CB700004120B9E47460B46334398D1C2F313036E
:10CB80001446002B93D122F000431B0D1B05B3F17B
:10CB9000D66F8CD9D8F814301BB9D8F81030012BC7
:10CBA00085DD3946012250462FF07CFF4946074675
:10CBB0002FF0ECFF00287FF77AAFC5E718EA010FE6
:10CBC0003FF475AF144651E70027DFF840B193E515
:10CBD000079B0499002B4ED04A4B2B40B3F1D46FE6
:10CBE00049D81B0D4FF0FF30C3F16B0300FA03F37C
:10CBF00099427FF432AF013103D1434B9A423FF463
:10CC000078AC404B134003F5801305930023049345
:10CC10009DED048B4BE730F07FF8079953EC102B18
:10CC2000B9B3C4F30A54C4F16B04002C0ADD324DCD
:10CC30001946324610EE100A05EB04532AF094FC14
:10CC400002460B4651EC180B2AF0D6FA02460B4668
:10CC500043EC182B002200232AF0EEFE00283FF4BC
:10CC600028AF69E64FF0FF3202FA03F3049A1A4044
:10CC70000492FFF7E7BB4FF0FF33B9E74FF0FF3304
:10CC8000C2F14B0203FA02F202EA01030593FFF735
:10CC9000D9BB51EC180B2AF0AFFA02460B4643EC15
:10CCA000182B002200232AF0C7FE00283FF411AF02
:10CCB00042E6144B2340B3F1D66F3FF74BAFB3F1CD
:10CCC0005C7F3FF7F6AE37E64FF0000E7546F04654
:10CCD00070467446F446CDF828E0FFF719BB00BF54
:10CCE000000000000000E0BF000000000000E03F86
:10CCF000183F0400FFFF0F000000F03F0000503914
:10CD000010BA04000000F07FFFFFEF7FF03E040048
:10CD10009FED010B704700BF000000000000F87F8E
:10CD200080B500AF064B00221A80C82200210548BA
:10CD30002BF0AEFD044B00221A7000BF80BD00BF77
:10CD400064FF00207010002082FF002080B400AF3C
:10CD5000064B00221A80064B00221A70054B002257
:10CD60001A6000BFBD465DF8047B704764FF002079
:10CD700082FF00203811002080B582B000AF002370
:10CD80007B60384B1B78DBB2012B60D1364804F056
:10CD90003DFF364934482CF021F978607B68002B40
:10CDA00053D0334B00221A60324B00221A60324BB0
:10CDB0004FF080621A60304B1B684FF480420021B4
:10CDC00018462BF065FD274B02221A702B4804F001
:10CDD000F3FE284B00221A6033E0294B1B68013B0D
:10CDE000274A1360264B1B68002BF6D1214B1B688A
:10CDF0009B00214A11684FF48042184632F0A4FC8F
:10CE00001D4B4FF080621A601B4B1B684FF4804231
:10CE1000002118462BF03CFD164B1B68194619489B
:10CE200004F0CAFE124B00221A60154B4FF0287214
:10CE30001A60154804F0C0FE0E4B1B6801330D4A02
:10CE400013600C4B1B68212BCCD9FFF769FF094BF2
:10CE50001B68212B01D9002300E001231846083765
:10CE6000BD4680BD82FF00207010002008400400F5
:10CE700044110020381100204011002030480400E7
:10CE80003C110020144004002040040080B483B012
:10CE900000AF0346FB7197F90730002B0BDBFB79E2
:10CEA00003F01F02074997F907305B09012000FAD8
:10CEB00002F241F8232000BF0C37BD465DF8047B29
:10CEC000704700BF00E100E080B483B000AF0346CC
:10CED0003960FB7197F90730002B0ADB3B68DAB247
:10CEE0000C4997F907305201D2B20B4483F8002362
:10CEF0000AE03B68DAB20849FB7903F00F03043B10
:10CF00005201D2B20B441A7600BF0C37BD465DF811
:10CF1000047B704700E100E000ED00E080B483B0E6
:10CF200000AF7860114B00221A6013E0104B002212
:10CF30001A6004E00E4B1B6801330D4A13600C4B62
:10CF40001B6842F6F7229342F4D9084B1B68013361
:10CF5000064A1360054B1B687A689A42E6D800BF00
:10CF600000BF0C37BD465DF8047B7047B029002038
:10CF7000B429002080B582B000AF2B4B44F620626C
:10CF80001A602A4831F0FEFE034603F04203002BEC
:10CF900043D0264831F014FF0346FB71244B1B8815
:10CFA0009BB2B3F5805F0ED2214B1B889BB2194612
:10CFB000204AFB7953541E4B1B889BB201339AB213
:10CFC0001B4B1A8002E01A4B00221A80184B1B8858
:10CFD0009BB2023B174AD35CDBB20D2B08D1144B3A
:10CFE0001B889BB2013B134AD35CDBB20A2B11D0E6
:10CFF0000F4B1B889BB2023B0E4AD35CDBB20A2B61
:10D000000BD10B4B1B889BB2013B0A4AD35CDBB2B2
:10D010000D2B02D1084B01221A70084B01221A6015
:10D0200000BF0837BD4680BD284D00200060084085
:10D0300066FF00205011002083FF0020304D0020AB
:10D040000FB480B584B000AF0023FB600023BB6049
:10D0500000237B604FF480702BF02EF803467B603A
:10D060007B68002B02D10E4804F0A6FD07F11C03DB
:10D070003B603A68B96978682EF056FB0346FB605E
:10D08000FA687968074810F061FA78682BF01CF8A4
:10D09000BB6818461037BD46BDE8804004B07047F5
:10D0A0002C4004000060084080B586B000AF0D2021
:10D0B00031F038FE284B40F201129A67264B40F2BD
:10D0C00001125A67244B4FF49072C3F89420224BFC
:10D0D0004FF49072DA670D2031F03CFE01233B7073
:10D0E00001237B703B461F2200211C4834F08FFD3A
:10D0F0001B4B00221A601B4B00221A804FF48052F7
:10D10000002119482BF0C4FB4FF445700CF0BEFC15
:10D110003B1D184610F010F94FF4E1337B600123FA
:10D120007B7301233B733B1D104A1946104810F0D6
:10D1300017F80A210E4831F032FE63210E20FFF766
:10D14000C3FE0E20FFF7A2FE0A4B00221A6000BFAA
:10D150001837BD4680BD00BF0010004000C0084029
:10D160004C11002066FF002050110020001BB7006A
:10D17000006008404811002080B500AF064B002237
:10D180001A804FF48052002104482BF081FB044B9D
:10D1900000221A7000BF80BD66FF002050110020E1
:10D1A00083FF002090B589B000AF7860396000231C
:10D1B0007B61786804F02AFDA54804F0FDFC7968DD
:10D1C000A44804F0F9FCA44978682BF007FF7861C3
:10D1D0007B69002B08D0A14804F0EEFCA048FFF7C3
:10D1E0002FFF002300F00EBD9E4978682BF0F6FE5D
:10D1F00078617B69002B00F08180202200219A4811
:10D200002BF046FB2022002198482BF041FB2022E6
:10D21000002197482BF03CFB944A964978692BF003
:10D22000C9FB0023BB610CE0904ABB6913441B7827
:10D23000D9B28D4ABB6913440A461A70BB690133DF
:10D24000BB618A4ABB6913441B78DBB22C2BEBD140
:10D25000BB690133BB6110E0BC6983482BF0FEFC65
:10D260000346E31A013B8149BA690A441278D1B2F4
:10D270007F4AD154BB690133BB617C4ABB6913440B
:10D280001B78DBB2002BE7D17B4B1B78DBB2312B59
:10D290002ED8794B1B78DBB21A463B681A6072486D
:10D2A0002BF0DCFC03467049184605F053F8B860D3
:10D2B000BB68B3F1FF3F15D0BB68DCB26C482BF004
:10D2C000CDFC03466A4A1946204604F0DFFFB968E0
:10D2D0006A4804F071FCB9686848FFF7B1FE06239C
:10D2E00000F090BC6648FFF7ABFE072300F08ABC55
:10D2F0006448FFF7A5FE072300F084BC6249786804
:10D300002BF06CFE78617B69002B21D0032032F07A
:10D310008BF85E4BFF221A705C4A5D4978692BF0EE
:10D3200049FB5A4B1B78DBB21A463B681A60574BD5
:10D330001B78DBB2803BDAB2564B1A70534B1B782A
:10D34000DBB21946544804F037FC082300F05ABCFD
:10D35000524978682BF042FE78617B69002B1DD022
:10D36000092032F061F84E4A4E4978692BF022FBD1
:10D370004B4B1B889BB219464B4804F01DFC012007
:10D380000CF048FB464B1B889BB21A463B681A6060
:10D39000464B00221A70042300F034BC44497868DC
:10D3A0002BF01CFE78617B69002B1CD0414A42495E
:10D3B00078692BF0FFFA3F4B1B78DBB219463F48E8
:10D3C00004F0FAFB3B4B1B78DBB2002B05D13C4849
:10D3D000FFF736FE012300F015BC3948FFF730FE99
:10D3E000022300F00FBC374978682BF0F7FD786115
:10D3F0007B69002B00F08380334A344978692BF035
:10D40000D9FA314B1B889BB219463148FFF718FEF9
:10D410002D4B1B889BB2322B0DD82E4B1B7883F0E3
:10D420000103DBB2002B06D00E2003F0D1F8294B0C
:10D4300001221A7063E0244B1B889BB2322B4BD81D
:10D44000244B1B78002B47D0042003F061F856E0F2
:10D4500054400400C44304005840040064400400E5
:10D4600068400400A84004009029002050210020BA
:10D4700070210020B040040087FF0020BC40040061
:10D48000C8400400DC400400EC400400100A002006
:10D49000F8400400A0FF0020F44004000441040010
:10D4A0006AFF0020144104002841040086FF002088
:10D4B0003C41040085FF0020484104005441040021
:10D4C00068410400784104006CFF0020844104009E
:10D4D000944104008FFF0020A44B1B889BB2322B89
:10D4E0000AD9A34B1B78002B06D00D2003F070F84F
:10D4F0009F4B00221A7002E0042003F009F89D49B6
:10D5000078682BF06BFD78617B69002B7DD09A4B9E
:10D5100000221A70994B00221A702022002198488C
:10D520002BF0B6F92022002196482BF0B1F92022E9
:10D53000002195482BF0ACF9934B904A93497869B8
:10D540002BF038FA90482BF089FB0346DAB28A4B6D
:10D550001A708A4B1B78DBB21946874B1B78DBB2FB
:10D560001A46894B8A4804F027FB0023FB6144E0FC
:10D57000884AFB69134432331A78804B1B78DBB23C
:10D580009A4237D1834AFB695B01134403F6165371
:10D590001B78AA2B2ED17F4AFB695B01134403F64B
:10D5A00017531A78744B1B78DBB29A4222D10023AE
:10D5B000FB600023FB60FB695B0103F61253754AB5
:10D5C00013440633194670482BF008FDF860FB68D9
:10D5D000002B04D07048FFF733FD012312E3FB69F1
:10D5E0005B0103F612536B4A1344063319466B482A
:10D5F00004F0E2FAFB690133FB61FB69312BB7D917
:10D600006748FFF71DFD2023FCE2664978682BF090
:10D61000E5FC78617B69002B04D001F02DFE4FF40E
:10D62000A063EFE2604978682BF0D8FC78617B69F1
:10D63000002B0DD001F020FE5C4A5D4978692BF08B
:10D64000B9F979695B4801F009FB4FF48073D9E2BD
:10D65000594978682BF0C2FC78617B69002B46D071
:10D6600001F00AFE514BFF221A7000233B617B69D7
:10D670000F331B787B690F331B78DBB21A461346D6
:10D680009B0013445B001A463B6913443B617B6972
:10D6900010331B787B6910331B78DBB21A463B6969
:10D6A00013443B613B69322B03D83B69DAB23F4BF1
:10D6B0001A706420FFF732FC404B1B889BB219465E
:10D6C0003A4B1B78DBB21A463D4804F075FA00234A
:10D6D0003B6172B600BF394B1B889BB21946786913
:10D6E00031F0A1FC62B600BF4FF400738AE2354905
:10D6F00078682BF073FC78617B69002B70D001F0A7
:10D70000BBFD314B01221A70304A314978692BF048
:10D7100051F92E4B1B78DBB21A461E4B134493F87B
:10D72000A436322B0BD8294B1B78DBB21A46194B87
:10D73000134493F8A4361946264801F08FFA234B78
:10D740001B78DBB2184605F025F80346B3F1FF3F1E
:10D7500005D02148FFF774FC4FF4E02352E21F4844
:10D76000FFF76EFC4FF400234CE200BF6CFF00207B
:10D770008FFF00209841040088FF00208AFF0020CE
:10D78000902900205021002070210020A841040091
:10D79000C04104006C600020E4410400F841040032
:10D7A0002042040038420400484204008DFF00205B
:10D7B00054420400EC4704006442040066FF002069
:10D7C000744204009842040086FF00208EFF00206F
:10D7D000A4420400B4420400C4420400DC42040039
:10D7E000984978682BF0FAFB78617B69002B19D097
:10D7F000954B00221A7005F04FF80346DAB2924BAF
:10D800001A70914B1B78DBB21946904804F0D4F99A
:10D810008D4B1B78DBB219468C48FFF711FC4FF497
:10D820008033EFE18A4978682BF0D8FB78617B6917
:10D83000002B28D04FF40062002186482BF028F8F6
:10D84000844805F057F80346DAB2834B1A708348D0
:10D8500004F0B2F9804B1B78DBB21A467D49804850
:10D860000FF074FE7D48FFF7EBFB7B4B1B78DBB2C0
:10D870001A4678497B480FF069FE7B48FFF7E0FBCA
:10D880004FF40033BEE1794978682BF0A7FB78614B
:10D890007B69002B2DD0764B00221A7020220021AC
:10D8A00074482AF0F5FF734B714A734978692BF07D
:10D8B00081F870482BF0D2F90346DAB26F4B1A7038
:10D8C0006B4B1B78DBB26D4A1278D2B21146694AB3
:10D8D000184604F02DFE0346B3F1FF3F03D068481D
:10D8E000FFF7AEFB02E06748FFF7AAFB4FF44033B7
:10D8F00088E1654978682BF071FB78617B69002BC2
:10D9000045D05B4B00221A70604B00221A70202217
:10D9100000215F482AF0BCFF5D4B554A5D4978699C
:10D920002BF048F85A482BF099F90346DAB2574BD6
:10D930001A70594B1B78DBB21946544B1B78DBB27B
:10D940001A46534B554804F037F9494B1B78DBB264
:10D950001946534804F030F9454B1B78DBB24B4A6B
:10D960001278D1B24A4A184604F0BEFE0346B3F11B
:10D97000FF3F07D04B48FFF763FB062031F054FD13
:10D9800006233FE14848FFF75BFB07233AE147499D
:10D9900078682BF023FB78617B69002B24D03B4B0C
:10D9A00000221A702022002139482AF071FF384ADB
:10D9B0003F4978692AF0FEFF35482BF04FF90346BE
:10D9C000DAB2324B1A70314B1B78DBB2304A19464F
:10D9D000384804F0F1F83848FFF732FB062031F000
:10D9E00023FD4FF4A0230DE1344978682BF0F6FABB
:10D9F00078617B69002B69D0244B00221A702022A9
:10DA0000002123482AF044FF214A2D4978692AF051
:10DA1000D1FF1F482BF022F90346DAB21B4B1A70D4
:10DA20001A4B1B78DBB21A4A1946264804F0C4F890
:10DA30002548FFF705FB062031F0F6FC4FF4C02324
:10DA4000E0E000BFF042040089FF00200043040032
:10DA500014430400902100208CFF00202043040088
:10DA600000800840006008408C4504002C430400FE
:10DA70008AFF0020902900203C4304008BFF0020F7
:10DA800050430400644304007C43040088FF0020EA
:10DA9000502100209043040087FF0020A843040089
:10DAA000CC430400E4430400FC4304001844040095
:10DAB0002044040038440400544404006444040036
:10DAC0007044040080440400A04404004F49786876
:10DAD0002BF084FA78617B69002B3DD04C4B0022FF
