:10000000E05F010481010000790200004B11030050
:100010007D02000091020000810200004C83FBFB86
:1000200002794498143004003E9621C7E103000091
:10003000000000000000000011040000BDC8000026
:10004000AF0E0300B70E0300BF0E0300C70E030080
:10005000CF0E0300D70E0300DF0E0300E70E0300F0
:10006000EF0E0300F70E0300FF0E0300070F03005F
:100070000F0F0300170F03001F0F0300270F0300CC
:100080002F0F0300370F03003F0F0300470F03003C
:100090004F0F0300570F03005F0F0300670F0300AC
:1000A0006F0F0300770F03007F0F0300870F03001C
:1000B0008F0F0300970F03009F0F0300A70F03008C
:1000C000AF0F0300B70F0300BF0F0300C70F0300FC
:1000D000CF0F0300D70F0300DF0F0300E70F03006C
:1000E000EF0F0300551B020000000000000000009D
:1000F00035310100F70F0300FF0F03000710030065
:100100000F100300171003001F1003002710030037
:100110002F100300371003003F10030047100300A7
:100120002009040020050004F42600002009040032
:100130000000020400000000182C000474F200000B
:100140000000020400000000FFFFFFFFFFFFFFFFB1
:10015000FFFFFFFFFFFFFFFFFFFFFFFFFFFFFFFFAF
:10016000FFFFFFFFFFFFFFFFFFFFFFFFFFFFFFFF9F
:10017000FFFFFFFFFFFFFFFFFFFFFFFFFFFFFFFF8F
:1001800072B607484FF03801016006480068000069
:1001900003D0054909688D46004704480047704769
:1001A000200200400408004008080040B10100009F
:1001B00038B54FF080430322C3F88022264B63B347
:1001C000264B1C6FD3F8B05001F0CEF9022814BFB3
:1001D0000023012304F07F04402C16D000221A4291
:1001E0001BD04FF08043D3F8083813B12749096872
:1001F0008D461B4A4FF0E023C3F8082D194B0BB175
:100200000AF04CFB06F0F0FBFEE7174A2A40042AEE
:1002100001D00022E3E70122E1E70AF03FFB134BA4
:1002200007E003F10C049A685968186800F042F876
:1002300023460F4A9342F4D306E01C46596854F80B
:10024000080B00F045F823460A4A9342F5D362B6FC
:1002500006F0AEFAFEE700BFE969000000200140A9
:10026000000000009DA80000040002002001000022
:100270003801000048010000FEE7FEE7FEE7FEE768
:10028000FEE7FEE7FEE7FEE7FEE7000008080040A5
:1002900080B400AF1EF0040F0CBFEFF30880EFF343
:1002A0000980034B1946C16100BFBD4680BC704741
:1002B000F1B200000023934209D210B450F8044B6D
:1002C00041F8044B04339342F8D310BC7047704795
:1002D000002303E0002240F8042B04338B42F9D3BF
:1002E0007047FFFFFFFFFFFFFFFFFFFFFFFFFFFF65
:1002F000FFFFFFFFFFFFFFFFFFFFFFFFFFFFFFFF0E
:1003000090F800F06DE9024520F007016FF0000C55
:1003100010F0070491F820F040F049804FF00004FD
:100320006FF00700D1E9002391F840F000F10800D8
:1003300082FA4CF2A4FA8CF283FA4CF3A2FA8CF310
:100340004BBBD1E9022382FA4CF200F10800A4FA77
:100350008CF283FA4CF3A2FA8CF3E3B9D1E90423CB
:1003600082FA4CF200F10800A4FA8CF283FA4CF302
:10037000A2FA8CF37BB9D1E9062301F1200182FABC
:100380004CF200F10800A4FA8CF283FA4CF3A2FAC2
:100390008CF3002BC6D0002A04BF04301A4612BAD0
:1003A000B2FA82F2FDE8024500EBD2007047D1E9D3
:1003B000002304F00305C4F100004FEAC50514F062
:1003C000040F91F840F00CFA05F562EA05021CBF33
:1003D00063EA050362464FF00004A9E7FFFFFFFF51
:1003E000074B19680868B0E8F00F80F30988BFF37D
:1003F0006F8F4FF0000080F311884EF00D0E7047A4
:100400000410010400BF00BFFFFFFFFFFFFFFFFF5D
:10041000EFF30980BFF36F8F0D4B1A6820E9F00FDF
:1004200010602DE908404FF0200080F311880DF096
:1004300075F94FF0000080F31188BDE80840196895
:100440000868B0E8F00F80F30988BFF36F8F70473A
:100450000410010400BF00BF2DE9F04F99469046FB
:1004600029F000451E46134655EA080293B035D0E0
:100470006B4A009021F00044944283468A460F461E
:1004800025DC34D0954222DC654A95421DD0002FF0
:1004900036DB00220292002B4CD1614B9D4200F0D2
:1004A0009780604B9D4200F0A580B6F1804F00F030
:1004B000AF845D4B9E423DD1002F3BDB58465146F9
:1004C00013B0BDE8F04F0EF0C3BA002BDFD0009B95
:1004D00004F1404404F5801423430BD1514C002314
:1004E000CDE90034DDE9000113B0BDE8F08F08B9B3
:1004F000A542C9DD4D4813B0BDE8F04F0EF078BB02
:100500004B4A95427EDCA2F1547295420EDD2A15CB
:10051000A2F2FF32142A40F38584C2F1340223FA96
:1005200002F101FA02F29A4200F0D2840022029211
:10053000002BB6D0584651460EF050FB5B46CDE935
:10054000000133BB24B1374B27F040429A4220D1FF
:10055000002E07DADDE90023324900200EF0D0FF3B
:10056000CDE90001002FBDDA029B04F1404404F5FF
:100570008014234340F07B84DDE9002310461946B4
:100580000EF0DCFC02460B460EF0BAFFCDE900018E
:10059000A8E7029AFB0F013B0A93134335D0254B82
:1005A0009D424BDD03F104739D42234B40F3C08316
:1005B0009C4240F35083002E40F3508316A3D3E9AE
:1005C0000023104619460EF071FECDE9000189E7BF
:1005D000009A04F1404303F5801313433FF47EAFC8
:1005E000154B9C4240F36483002EC0F23783CDE963
:1005F000008977E7002EC0F2018458465146CDE9C4
:1006000000016FE70222029245E75A4658465346D8
:100610005146B5E7AFF300809C7500883CE4377E17
:100620000000F07F0000F03F0000E03F1CDB030013
:10063000FFFF3F430000E041FFFFEF3FD44B3B4053
:10064000002B40F03D83DDE90001D24B00220EF08B
:100650002DFECDE900010C466FF034052315A3F201
:10066000FF335919CC4B0B91C4F3130242F07F5462
:100670009A4244F4401407DDC84B9A4240F3048484
:1006800001310B91A4F5801400220023CDE9082349
:10069000CDE91023C24B0022CDE906230025DDE978
:1006A0000001DDE90623214682460EF047FCA34601
:1006B000DDE9062306460F4650462146CDE90CAB40
:1006C0000EF03EFC02460B460020B5490EF018FF26
:1006D0000A460146CDE90E12134639460246304617
:1006E0000EF0E4FD0A4683469446CDE900BC4FF087
:1006F000000CCDF800C06410DDE900AB44F00054FC
:10070000014604F50023CDE90412002059190446DE
:100710000D4602460B46504659460EF0C7FD0246AE
:100720000B46304639460EF009FCDDE90623064645
:100730000F46204629460EF001FC02460B46DDE935
:100740000C010EF0FBFB52465B460EF0AFFD02467D
:100750000B46304639460EF0F1FBDDE90E230EF074
:10076000A5FDDDE90445CDE9060122462B462046DC
:1007700029460EF09BFD74A3D3E9002304460D46E1
:100780000EF094FD72A3D3E900230EF0D9FB2246AC
:100790002B460EF08BFD70A3D3E900230EF0D0FBA7
:1007A00022462B460EF082FD6DA3D3E900230EF006
:1007B000C7FB22462B460EF079FD6BA3D3E900233D
:1007C0000EF0BEFB22462B460EF070FD68A3D3E967
:1007D00000230EF0B5FB224606460F462B46204668
:1007E00029460EF063FD02460B46304639460EF0B0
:1007F0005DFD524604460D465B46DDE904010EF000
:100800009FFBDDE906230EF051FD22462B460EF03C
:1008100097FB524606460F465B46504659460EF039
:1008200045FD02460B46CDE90C235E4B00220EF03F
:1008300087FB32463B460EF083FB00240D462246E2
:100840002B46504659460EF031FD564B82468B469C
:100850000022204629460EF071FBDDE90C230EF044
:100860006DFB02460B46304639460EF067FBDDE96C
:1008700004230EF01BFD224606460F462B46DDE9FB
:1008800006010EF013FD02460B46304639460EF0C7
:1008900057FB06460F4602460B46504659460EF099
:1008A0004FFB002434A3D3E9002320460D460EF06D
:1008B000FDFC52465B4682468B46204629460EF09A
:1008C0003DFB02460B46304639460EF037FB2CA363
:1008D000D3E900230EF0EAFC2BA3D3E9002306465C
:1008E0000F46204629460EF0E1FC02460B463046F4
:1008F00039460EF025FBDDE910230EF021FB0446FE
:100900000B980D460EF068FC224606460F462B4615
:1009100050465946CDE904450EF012FBDDE90823A7
:100920000EF00EFB32463B460EF00AFB0024324628
:100930003B4620460D460EF001FBDDE908230EF094
:10094000FDFA52465B462FE0EF4E454A287ECA3FED
:1009500065DBC9934A86CD3F01411DA96074D13F33
:100960004D268F515555D53FFFAB6FDBB66DDB3F45
:10097000033333333333E33F000000E009C7EE3F76
:10098000FD033ADC09C7EE3FF5015B14E02F3EBEE4
:100990000000F07F000040438E98030079B60B0002
:1009A0000000F03F000008400EF0C8FA02460B4677
:1009B000DDE904010EF0C2FACDE90401029B0A9AB6
:1009C000013B13430CBFD44BD44B0022CDE902238F
:1009D0000023CDE900890093DDE900AB4046524693
:1009E0005B4649460EF0AAFA22462B460EF05EFC04
:1009F000424606460F464B46DDE904010EF056FC22
:100A000002460B46304639460EF09AFA52460646E2
:100A10000F465B46204629460EF048FC0B46024630
:100A200004460D46304639460EF08AFABC4B9942D0
:100A3000804689468A4640F3168101F13F4303F51B
:100A4000E003034340F003829FA3D3E90023304631
:100A500039460EF075FA2246CDE900012B46404694
:100A600049460EF06BFA02460B46DDE900010EF036
:100A7000ADFE002840F0EB81CAF30A534FF4801218
:100A8000A3F2FE3342FA03F35344A649C3F30A52D6
:100A9000A2F2FF3241FA02FCC3F31301C2F11402C5
:100AA00041F4801141FA02FE002023EA0C01BAF160
:100AB000000FCDF810E002460B4602DA71464942BB
:100AC0000491204629460EF039FA049B1B05009339
:100AD00002460B4604460D46304639460EF030FAC3
:100AE00089464FF000087AA3D3E9002340464946DF
:100AF0000EF0DCFB224682468B462B46404649469A
:100B00000EF01CFA02460B46304639460EF016FA35
:100B100071A3D3E900230EF0C9FB71A3D3E900232D
:100B200004460D46404649460EF0C0FB02460B46C1
:100B3000204629460EF004FA06460F4602460B46AA
:100B4000504659460EF0FCF952465B4604460D46A7
:100B50000EF0F4F902460B46304639460EF0EEF937
:100B6000224682468B462B46204629460EF09EFBA7
:100B70005DA3D3E9002306460F460EF097FB5CA366
:100B8000D3E900230EF0DAF932463B460EF08EFB35
:100B900059A3D3E900230EF0D3F932463B460EF0B9
:100BA00085FB57A3D3E900230EF0C8F932463B4634
:100BB0000EF07CFB54A3D3E900230EF0C1F93246BA
:100BC0003B460EF073FB02460B46204629460EF0CC
:100BD000B5F906460F4602460B46204629460EF05A
:100BE00065FB002280468946304639464FF08043F7
:100BF0000EF0A4F902460B46404649460EF080FC32
:100C0000524606460F465B46204629460EF04EFBEE
:100C100052465B460EF094F902460B463046394682
:100C20000EF08CF922462B460EF088F902460B4650
:100C300000203A490EF082F9009D0C462C44B4F590
:100C4000801FC0F241812146DDE902230EF02EFB18
:100C5000CDE9000146E4002EFFF6B0AC00230024ED
:100C6000CDE900343EE4DFF8C0C021F00043634525
:100C700040F3E5802D4B0B4403430AD122462B461B
:100C80000EF05CF932463B460EF096FD00283FF42C
:100C9000F3AE1FA3D3E90023DDE902010EF006FB4A
:100CA0001BA3D3E900230EF001FBCDE9000119E4F9
:100CB000002ED3DA09F10043CDF80080019311E44E
:100CC0000025CBE4AFF30080FE822B654715973CEF
:100CD00000000000432EE63FEF39FAFE422EE63FC9
:100CE000396CA80C615C20BED0A4BE726937663E28
:100CF000F16BD2C541BDBB3E2CDE25AF6A56113F1C
:100D000093BDBE166CC1663F3E5555555555C53F02
:100D100059F3F8C21F6EA5010000F0BF0000F03FBC
:100D2000FFFF8F40FFFF0F00FFCB904000346F3F6D
:100D30009C4290DB7E4B9C423FF73DACDDE90001DD
:100D40007B4B00220EF0FAF86BA3D3E90023044694
:100D50000D460EF0ABFA6AA3D3E9002382468B4618
:100D6000204629460EF0A2FA724BCDE9000100227E
:100D7000204629460EF09AFA02460B4662A1D1E9B6
:100D800000010EF0DBF822462B460EF08FFA0246E9
:100D90000B46002068490EF0D1F8224606460F4661
:100DA0002B46204629460EF081FA02460B46304675
:100DB00039460EF07BFA56A3D3E900230EF076FAFB
:100DC00002460B46DDE900010EF0B8F802460B467C
:100DD00006460F46504659460EF0B2F800245246D9
:100DE0005B4620460D460EF0A9F802460B463046FB
:100DF00039460EF0A3F8CDE90401DFE54C495A4627
:100E0000534600200EF07CFBCDE90001FFF76ABBE2
:100E10005A465846534651460EF048FACDE900016D
:100E2000FFF760BB002B41D1C2F1140245FA02F179
:100E300001FA02F2AA4255D00293FFF732BB3E4AB2
:100E4000934256DCDDE900230092049249E632A386
:100E5000D3E90023DDE902010EF028FA2EA3D3E93D
:100E600000230EF023FACDE90001FFF73BBB029B04
:100E7000012B7FF437ABDDE90045224605F1004345
:100E8000CDE90023FFF72EBB25A3D3E90023CDE94D
:100E9000082325A3D3E90023CDE91023274B002203
:100EA000CDE906234FF48025FFF7F9BB584651469C
:100EB0000DF094FE5B46CDE90001002B7FF4A5AB5D
:100EC000CDF808B0FFF73EBB049A00F039F8BBE656
:100ED00001F00101C1F102020292002B3FF4E1AAEC
:100EE000FFF728BB01F00101C1F102030293FFF7F4
:100EF000D8BA1B15C2E500BF000000604715F73FD8
:100F000044DF5DF80BAE543E555555555555D53F0C
:100F1000FE822B654715F73F9C7500883CE4377EC1
:100F20000000004003B8E23F06D0CF43EBFD4C3E4B
:100F30000000F03F0000D03F0000E03F0000F83F1D
:100F4000C1F30A5370B58C4604460D4616467BBB6A
:100F500021F0004C03465CEA030328D0304B00220A
:100F60000EF0A4F92F4B9E4204460D461ADBC1F346
:100F70000A538C46363B334440F2FE72934220DCE7
:100F8000002B3CDC13F1350F2CDA4CF250339E422F
:100F900017DC05F0004343F0D27141F4B731224829
:100FA00041F01F011AA3D3E900230EF07FF970BDB1
:100FB00040F2FF729342DED102460B460DF0C0FFB5
:100FC00070BD05F0004343F0FC4141F45F1141F472
:100FD000105111A3D3E90023144841F03C010EF055
:100FE00065F970BD2CF0FF4C36332CF4E00C4CEA64
:100FF000035120460E4B00220EF058F970BD2CF024
:10100000FF4C2CF4E00C20464CEA035170BD00BFAD
:1010100059F3F8C21F6EA5019C7500883CE4377E29
:1010200000005043B03CFFFF59F3F8C29C750088A4
:101030000000903C80B586B002AFF860B9607A607D
:101040003B607B680093BB68FA683968024800F02F
:10105000F9F800BEFDE700BFB0D8030080B584B04A
:1010600000AF7860396043F22153FB607B68002B4E
:1010700006D1114B114A40F2D1111148FFF7DAFFA6
:101080003B68002B06D10F4B0C4A4FF4E9710C481A
:10109000FFF7D0FF3A6879680B4832F09FFE0346AD
:1010A000FB60FB68002B01D13B6801E04FF0FF3390
:1010B00018461037BD4680BDF0D8030048D903005C
:1010C000FCD8030014D903003431000480B58EB07D
:1010D00000AFB9607B600346FB731346BB7343F2FA
:1010E00021537B637B687B61BB68BB6100233B77DB
:1010F00000237B77FB7BBB770123FB77012387F8FA
:101100002030BB7B87F82C30BB7B012B18D107F13B
:1011100014033B631C2200212C480DF0ABFE2B4B2B
:101120002A4A1A61294B1B6907F124021146184605
:1011300009F032FD03467B637B6B002B18D010E077
:10114000BB7B022B01D17B6B3BE0BB7B032B01D133
:101150007B6B36E0BB7B042B01D17B6B31E07B6B7F
:101160002FE01B4B1B4A4FF433711B48FFF762FF04
:10117000164B1B691949184609F08EFD03467B631F
:101180007B6B002B06D0124B124A40F2D62112483C
:10119000FFF750FF0D4B1B691149184609F0F8FD88
:1011A00003467B637B6B002B06D0094B094A40F258
:1011B000E1210948FFF73EFF044B1B69094A136010
:1011C000002318463837BD4680BD00BF20310004DB
:1011D00020D9030064D90300FCD803003431000493
:1011E000383100043C31000480B500AF114B1B695D
:1011F000002B02D0104809F08DFD0E4B1B69002B0F
:1012000002D00E4809F00AFE0A4B1B69002B0DD0D4
:10121000084B1B69184609F005FD0346002B05D154
:10122000044B00221A61064B00221A600023184664
:1012300080BD00BF20310004343100043831000487
:101240003C3100040FB480B5A4B000AF0023C7F850
:101250008C300023C7F8883000237B6007F1080337
:101260007C22002118460DF005FE134B1B68002B55
:1012700001D1002318E007F19C03C7F884303A1D20
:101280000E4BD7F88410D7F898002FF06BFCC7F8F6
:101290008C00D7F88C203B1D11461846FFF7DEFE68
:1012A000C7F88800D7F8883018469037BD46BDE8A3
:1012B000804004B0704700BF3C310004ED090300DA
:1012C0002DE9B04F98B000AFF860B9607A603B602C
:1012D0000023FB63FB68BB63BB6B5A1CBA63002231
:1012E0001A70BB68D3E90023C7E90C234FF0000252
:1012F0004FF00003D7E90C010EF040FA0346002B33
:1013000007D0BB6B30221A70FB6B0133FB63FB6BA6
:101310001EE107F110031A46D7E90C010DF06AFA35
:10132000C7E9100100237B650FE078680DF054FFDA
:1013300002460B46D7E910010DF0B8FF02460B46F6
:10134000C7E910237B6D01337B657B6D3A689A4258
:10135000EBD84FF000024FF00003D7E90C010EF07C
:101360002BFA0346002B29D04FF000027B4BD7E924
:1013700010010DF0E5FD02460B46C7E9122338685F
:101380000DF01AFF02460B464FF0000074490DF0B5
:101390009FFA02460B46D7E912010EF00DFA0346FA
:1013A000002B39D0D7E904014FF000026D4B0DF04E
:1013B000C7FD02460B46C7E904232DE04FF00002AB
:1013C000664BD7E910010DF0B9FD02460B46C7E99F
:1013D000122338680DF0F0FE02460B464FF0000075
:1013E0005F490DF075FA02460B46924683F0004BBA
:1013F00052465B46D7E912010EF0D4F90346002BA2
:101400000AD0D7E904014FF00002564B0DF096FDCB
:1014100002460B46C7E9042300237B6550E0786849
:101420000DF0DAFE02460B46D7E912010EF068F81D
:1014300002460B46C7E90823D7E908010EF026FA51
:1014400002460B467968C8178846814608FB03F0B8
:1014500002FB09F10144A2FB08454B191D46204639
:1014600029460DF0F5FE02460B46D7E912010DF0B4
:1014700065FD02460B46C7E90623D7E906010EF0D3
:10148000C5F90346BB65BB6D002B06DABB6DBB62BD
:10149000BB6AC3F13003BB6502E0BB6D3033BB6593
:1014A000D7E90823C7E91223BB6B5A1CBA63BA6D8C
:1014B000D2B21A70FB6B0133FB637B6D01337B652A
:1014C0007B6D3A689A42AAD8BB6B5A1CBA632E222B
:1014D0001A70FB6B0133FB63D7E9042310461946EE
:1014E0000EF094F90346FB65FB6D002B2CD1BB6B12
:1014F0005A1CBA6330221A70FB6B0133FB6326E07F
:10150000FA6D7B6892FBF3F3FB62FB6A7A6802FB7D
:1015100003F3FA6DD31ABB65BB6D002B06DABB6D06
:10152000BB62BB6AC3F13003BB6502E0BB6D303305
:10153000BB65FB6AFB65BB6B5A1CBA63BA6DD2B262
:101540001A70FB6B0133FB63FB6D002BD8D1FB6B77
:1015500018466037BD46BDE8B08F00BF0000E03FD1
:10156000000024400000F03F08B5014B984708BD3B
:101570009D0E000380B483B000AF184B1B78002B86
:1015800001D0062325E0154B01221A70144B1E22B0
:101590001A800023FB7108E0FA79FB791149895C14
:1015A000114AD154FB790133FB71FB790F2BF3D92D
:1015B0000023BB7109E0BA79BB7903330B49895C1D
:1015C0000B4AD154BB790133BB71BB790F2BF2D9D4
:1015D000002318460C37BD4680BC7047801C0104B0
:1015E000541C0104E82500044C310004F8250004D3
:1015F0003C26000480B485B000AF0346FB80194B45
:101600001B88FA889A4204D3164B1B88013B9BB275
:1016100000E0FB88BB81BB89FB810DE0124B1A689F
:10162000FB891B0113441B88FA889A4201D1FB896C
:1016300012E0FB89013BFB81FB894FF6FF7293426D
:1016400008D0094B1A68FB891B0113441B88FA88D0
:101650009A42E3D94FF6FF7318461437BD4680BC53
:10166000704700BF541C0104B028000480B582B04C
:1016700000AF7860384B1B78002B66D1364B0122C7
:101680001A7009F0B3FF05F0A3F806F041FB02F071
:1016900039FF324B1B6803F00103002B11D01720D8
:1016A00007F06AF900222021E62031F070FA0022CA
:1016B0000121EB2031F06BFA284831F0F9FE30F0CF
:1016C000EAFD04F0B5FA264804F0F8FB04F090FCBB
:1016D000002004F0E1FC05F09FF9224805F0B8FC79
:1016E00004F0D0FD204B214A1A6000F02DF930F0B3
:1016F00078FD30F082FD01F02DFD012004F0FEFEAA
:1017000003461B4A13601A4B1B68002B06D10023AB
:1017100000220021002004F08FFD19E0002115486F
:1017200030F0EEFD0021144830F0EAFD00F0A4F99D
:10173000124801F0D5F80346002B06D00023002202
:101740000021002004F078FD02E0786800F018F82D
:101750000837BD4680BD00BF811C010400B00040B9
:101760009D2500006B100300C815010485100300BF
:101770005C400004604000046C400004D11F000085
:1017800080B588B002AF78600023FB602C4B1868EE
:1017900007F10C0300934FF0FF3300226FF07F41FD
:1017A00004F030FF274B1B68002B0CD0254830F08D
:1017B00094FC78617B69002B05D0786900F032FCDD
:1017C000786930F0F4FC204B1B68002B13D01E48C6
:1017D00030F083FC38613B69002B0CD03B691B68FF
:1017E000002B05D03B691B683A6952681046984740
:1017F000386930F0DCFC134B1B68002B01D001234F
:1018000000E00023FB60104B1B68002B01D002227C
:1018100000E00022FB681343FB60FB68002B05D04F
:10182000074B1B680221184604F09AFE074B1B78F1
:10183000002B00D0AAE700BF00BF1837BD4680BD0F
:101840005C400004604000046C4000044806040052
:1018500080B584B000AF2E4B1B684FF0FF311846A7
:1018600004F012FE0023FB813DE0FA89294913466A
:10187000DB009B1A5B010B4402331B88002B2FD02B
:1018800012F080F8B860BB68B3F5FA5F2FD3FA891D
:1018900020491346DB009B1A5B010B4402330022F4
:1018A0001A80FA891B491346DB009B1A5B010B4423
:1018B0001888FA891346DB009B1A5B01154A13440A
:1018C000E022194636F0DBF80346FB71FB79002B6A
:1018D0000FD0114B114A40F2F9211148FFF7AAFB32
:1018E000FB890133FB81FB890F2BBED902E000BFCE
:1018F00000E000BF064B1B68184630F01AFB32F0C0
:1019000020FB2FF0A4FB00BF1037BD4680BD00BFF9
:10191000584000045832000484D90300F4D903006D
:10192000A0D9030080B582B000AF7860FFF790FFC8
:10193000044B1B78002B00D0F8E700BF00BF08372E
:10194000BD4680BD4806040080B582B000AF114B93
:101950001B68002B02D00123FB7115E000210E480B
:1019600030F0A8FA03460B4A13600A4B1B68002BA1
:1019700008D1002300220021002004F05DFC012397
:10198000FB7101E00023FB71FB7918460837BD4667
:1019900080BD00BF54320004B428000480B582B07A
:1019A00000AF78603960074A7B681360064A3B687D
:1019B00013600649064825F0EBFB03461846083736
:1019C000BD4680BD7C400004844000042522000008
:1019D0001924000080B582B000AF7860054A7B68AA
:1019E0001360054837F044FE034618460837BD46E5
:1019F00080BD00BF884000047D24000080B582B017
:101A000000AF7860054A7B681360054837F0D0FC6A
:101A1000034618460837BD4680BD00BF8C40000411
:101A20002925000080B584B000AF786039600023BC
:101A3000FB60082030F0A6FBF860FB68002B01D1AA
:101A4000052310E0FB687A681A60FB683A685A6000
:101A5000F968074830F01FFB064B1B680221184647
:101A600004F07EFD002318461037BD4680BD00BF40
:101A70006C4000045C40000480B582B000AF0023DD
:101A8000FB8000237B804FF460620021384830F0F7
:101A900004FF30F042FA0346364A1360354B1B68A8
:101AA000002B06D1344B354A40F241413448FFF710
:101AB000C1FA0023FB8053E0FA88FB8803F58043DA
:101AC000113398B22A491346DB009B1A5B010B4481
:101AD00002461A80FA8826491346DB009B1A5B01EE
:101AE0000B44023300221A80FA8821491346DB0096
:101AF0009B1A5B010B441B88BA1C1146184621F047
:101B0000BDFD0346002B28D0FA8819491346DB0097
:101B10009B1A5B010B441888FA881346DB009B1A5A
:101B20005B01134A9918BB1CE02221F06DFE0346AD
:101B30007B717B79002B06D0124B104A40F24E414C
:101B40000F48FFF777FA7B88E02B06D00E4B0B4A45
:101B500040F24F410A48FFF76DFAFB880133FB80E2
:101B6000FB880F2BA8D900BF00BF0837BD4680BD3A
:101B70005832000458400004ACD9030004DA0300D2
:101B8000A0D9030084D90300C4D9030080B582B072
:101B900000AF0346FB715F4B1B684FF0FF311846E7
:101BA00004F072FCFB790F2B00F2AB80FA7913463C
:101BB000DB009B1A5B01584A1344043320220021A6
:101BC000184630F04DFE0346002B42D0FA791346FA
:101BD000DB009B1A5B0120334F4A13440433082275
:101BE0000021184630F03CFE0346002B31D0FA7934
:101BF0001346DB009B1A5B012833474A1344043326
:101C000038220021184630F02BFE0346002B20D04E
:101C1000FA791346DB009B1A5B0160333E4A13449A
:101C200004333C220021184630F01AFE0346002BF4
:101C30000FD0FA791346DB009B1A5B01A033364ABA
:101C4000134440220021184630F00AFE0346002BC0
:101C500057D1FA791346DB009B1A5B012E4A1344D5
:101C6000043320220021184630F017FEFA7913467B
:101C7000DB009B1A5B012033274A134404330822FC
:101C80000021184630F009FEFA791346DB009B1A52
:101C90005B012833204A13440433382200211846BC
:101CA00030F0FBFDFA791346DB009B1A5B016033D1
:101CB000194A134404333C220021184630F0EDFD4C
:101CC000FA791346DB009B1A5B01A033124A1344D6
:101CD00040220021184630F0E0FDFA790E49134603
:101CE000DB009B1A5B010B4402331B88013398B263
:101CF00009491346DB009B1A5B010B440233024681
:101D00001A80044B1B68184630F013F900BF0837DF
:101D1000BD4680BD584000045832000480B584B0F0
:101D200000AFB9607A603B600346FB73694B1B6888
:101D30004FF0FF31184604F0A7FBFB7B0F2B00F29E
:101D4000BF80BB68002B20D0FA7B1346DB009B1AB8
:101D50005B01614A134404332022B968184630F00D
:101D60001AFDFA7B5C491346DB009B1A5B010B44AE
:101D700002331B88013398B257491346DB009B1A84
:101D80005B010B44023302461A807B68002B21D092
:101D9000FA7B1346DB009B1A5B0120334E4A134447
:101DA000043308227968184630F0F5FCFA7B4A497A
:101DB0001346DB009B1A5B010B4402331B88013383
:101DC00098B245491346DB009B1A5B010B44023372
:101DD00002461A803B68002B21D0FA7B1346DB00B9
:101DE0009B1A5B0128333C4A134404333822396878
:101DF000184630F0D0FCFA7B37491346DB009B1ABB
:101E00005B010B4402331B88013398B232491346FD
:101E1000DB009B1A5B010B44023302461A80BB694C
:101E2000002B21D0FA7B1346DB009B1A5B01603349
:101E3000294A134404333C22B969184630F0ABFCFC
:101E4000FA7B25491346DB009B1A5B010B440233E6
:101E50001B88013398B220491346DB009B1A5B01B3
:101E60000B44023302461A80FB69002B28D097F8F6
:101E700020300F2B24D8FA7B97F820101346DB0074
:101E80009B1ADB000B4428339B00134A13440422A3
:101E9000F969184630F07FFCFA7B0F491346DB00E6
:101EA0009B1A5B010B4402331B88013398B20A4929
:101EB0001346DB009B1A5B010B44023302461A8077
:101EC000044B1B68184630F034F800BF1037BD468D
:101ED00080BD00BF584000045832000480B584B073
:101EE00000AFB9607A603B600346FB73364B1B68FA
:101EF0004FF0FF31184604F0C7FAFB7B0F2B5AD87E
:101F0000BB68002B0CD0FA7B1346DB009B1A5B01ED
:101F10002E4A1344043320221946B86830F03BFCA3
:101F20007B68002B0DD0FA7B1346DB009B1A5B010C
:101F30002033264A1344043308221946786830F0C7
:101F40002AFC3B68002B0DD0FA7B1346DB009B1A62
:101F50005B0128331D4A134404333822194638687C
:101F600030F019FCBB69002B0DD0FA7B1346DB0067
:101F70009B1A5B016033154A134404333C22194613
:101F8000B86930F008FCFB69002B14D097F82030BA
:101F90000F2B10D8FA7B97F820101346DB009B1A02
:101FA000DB000B4428339B00084A134404221946E3
:101FB000F86930F0F0FB044B1B6818462FF0B9FFAE
:101FC00000BF1037BD4680BD5840000458320004A1
:101FD00080B584B000AF78600023FB60282030F02B
:101FE000D1F8F860FB68002B14D0FB6800221A605F
:101FF000FB68043324227968184630F0CCFBF9687A
:10200000064830F048F8064B1B680121184604F0DA
:10201000A7FA00E000BF1037BD4680BD6040000455
:102020005C40000490B585B000AF78607B681B68A9
:102030000A2B00F2C78001A252F823F069200000A9
:10204000BB2000008B200000A3200000D720000050
:10205000F120000011210000312100005121000079
:102060007321000089210000634B1B68002B06D000
:10207000614B1B687A68043210469847B7E07B686A
:102080000433184601F002F9B1E05C4B1B68002BE9
:1020900000F09A80594B1B687A68043210469847C2
:1020A00092E0574B1B68002B00F09080544B1B684C
:1020B0007A6804321046984788E0524B1B68002B20
:1020C00000F086804F4B1B687A6810797A68083276
:1020D000114698477CE04C4B1B68002B7AD04A4B4A
:1020E0001B687A6810797A6808321146984771E05F
:1020F000464B1B68002B6FD0444B1C687B681879DB
:102100007B6859797B689A797B681B89A04763E073
:102110003F4B1B68002B61D03D4B1C687B68187BD4
:102120007B6819897B685A687B685B89A04755E0A2
:10213000384B1B68002B53D0364B1C687B68187BD0
:102140007B6819897B685A687B685B89A04747E090
:10215000314B1B68002B45D02F4B1C687B681879CE
:102160007B68D9887B6803F10A027B681B89A047DA
:1021700038E02A4B1B68002B36D0284B1B687A6846
:102180000432104698472FE07B685B68FB60F86874
:102190002FF0B3FD0346FB72FB7A002B03D1F868E6
:1021A00003F09AFE22E0F86836F08CFD03463B818E
:1021B0003B89002B1AD01A4900230022002004F08A
:1021C0003BF813E000BF12E000BF10E000BF0EE0DC
:1021D00000BF0CE000BF0AE000BF08E000BF06E05F
:1021E00000BF04E000BF02E000BF00E000BF00BF8E
:1021F0001437BD4690BD00BF784000047C40000409
:102200008040000484400004884000048C400004A6
:102210009040000494400004984000049C40000456
:10222000C58C030080B588B000AF03463960FB71F0
:1022300000237B612C23FB613B681B78092B3BD17E
:102240003B685B683B610423FB61FB690433FB6112
:10225000FB690433FB61FB690433FB61FB692033D9
:10226000FB613B695B68002B08D03B691B781A4611
:102270003B691B7C1344FA691344FB613B699B680F
:10228000002B01D0162300E00023FA691344FB6100
:102290003B69DB68002B01D0102300E00023FA69C2
:1022A0001344FB613B69DB69002B01D0062300E08E
:1022B0000023FA691344FB61F8692FF063FF78612A
:1022C0007B69002B00F09F807B6901221A607B698B
:1022D000FA791A713B681B78092B40F082803B68C1
:1022E0005B68FB607B690C33BB617B6909221A72F6
:1022F000BB690433BB61BB69BB60BA687B69DA60E8
:102300003B685B6820221946B86930F044FABB6923
:102310002033BB61FB685B68002B2DD07B69DB68D9
:10232000FA6812781A707B69DB68BA695A60FB68D0
:102330005968FB681B781A46B86930F02CFAFB68BC
:102340001B781A46BB691344BB617B69DB68FA687A
:10235000127C1A747B69DB68BA695A61FB68596937
:10236000FB681B7C1A46B86930F015FAFB681B7CC9
:102370001A46BB691344BB61FB689B68002B20D0E5
:102380007B69DB68BA699A60FB689B681022194612
:10239000B86930F000FABB691033BB617B69DB6858
:1023A000FA68927E9A767B69DB68BA69DA61FB68C3
:1023B000DB6906221946B86930F0EDF9BB690633CE
:1023C000BB61FB68DB68002B12D07B69DB68BA69F4
:1023D000DA60FB68DB6810221946B86930F0DBF977
:1023E00006E07B69083324223968184630F0D3F9B7
:1023F000796907482FF04FFE064B1B6801211846EC
:1024000004F0AEF800E000BF2037BD4680BD00BF3D
:10241000604000045C40000480B584B000AF786088
:102420000023FB6010202FF0ADFEF860FB68002B4E
:102430001BD0FB6802221A607B681A78FB681A714D
:10244000FB687A6806330232106851681860596078
:1024500012891A81F96807482FF01DFE064B1B6888
:102460000121184604F07CF800E000BF1037BD469B
:1024700080BD00BF604000045C40000480B584B0B3
:1024800000AF03463960FB710023BB601423FB607F
:102490003B681B78022B03D03B681B78042B05D1CB
:1024A0003B68DB881A46FB681344FB60F8682FF032
:1024B00069FEB860BB68002B2DD0BB6804221A608F
:1024C000BB68FA791A71BB6808330C223968184660
:1024D00030F061F9BB681B7A022B03D0BB681B7A12
:1024E000042B0DD1BB6810331A1DBB681A61BB6881
:1024F00018693B6899683B68DB881A4630F04BF9ED
:10250000B96807482FF0C7FD064B1B680121184624
:1025100004F026F800E000BF1037BD4680BD00BFC4
:10252000604000045C40000490B585B000AF0446F4
:10253000084611461A462346FB710346BB710B46FB
:102540007B7113467B800023FB600A202FF01AFE6C
:10255000F860FB68002B19D0FB6805221A60FB6845
:10256000FA791A71FB68BA795A71FB687A881A810C
:10257000FB687A799A71F96806482FF08CFD064B52
:102580001B680121184603F0EBFF00E000BF143781
:10259000BD4690BD604000045C40000480B584B03E
:1025A00000AF78600023FB6008202FF0EBFDF8609F
:1025B000FB68002B10D0FB680A221A60FB687A685F
:1025C0005A60F96806482FF066FD064B1B6801212A
:1025D000184603F0C5FF00E000BF1037BD4680BDC0
:1025E000604000045C40000480B582B000AF7860B9
:1025F0007B681B780B2B0DD00B2B1ADC002B02D029
:10260000012B0FD015E07B685B680C4A136000F06B
:102610001BF80FE07B68043306221946084830F0A7
:10262000BAF807E07B689B8819460648FEF70AFE61
:1026300000E000BF00BF0837BD4680BDA8400004D1
:10264000A040000410DA030080B58EB000AF002374
:10265000BB6207F12C0300221A605A609A600023C3
:1026600087F8273007F1270207F12803114618469B
:1026700009F0B0FA97F82730002B00F08A8097F81D
:102680002730013B07F138021A4412F8102C0132AE
:10269000D2B207F138010B4403F8102C97F8273019
:1026A00019463A1D07F1280318462FF00AFB3B4B49
:1026B0005B683A4A1278391D184630F06CF897F882
:1026C0002730013B07F138021A4412F8102C01326E
:1026D000D2B207F138010B4403F8102C97F82730D9
:1026E00019463A1D07F1280318462FF0EAFA2B4B3A
:1026F0009B68391D1022184630F04DF897F82730A6
:10270000013B07F138021A4412F8102C0132D2B200
:1027100007F138010B4403F8102C97F827301946BD
:102720003A1D07F1280318462FF0CBFA1B4BDB6844
:10273000391D1022184630F02EF897F82730013B4B
:1027400007F138021A4412F8102C0132D2B207F104
:1027500038010B4403F8102C97F8273019463A1D1E
:1027600007F1280318462FF0ACFA3B799AB20B4BCD
:102770001A833B1D02221946094830F00CF8074B1A
:102780005869064B1B7C1A463B1D0233194630F034
:1027900002F800BF3837BD4680BD00BF7029000475
:1027A0008829000480B584B000AF0346FB71104B4C
:1027B0001B6803F02003002B16D00D4B1B6803F49D
:1027C0000063002B14BF01230023DBB2FB73FB7BF0
:1027D000002B02D044F2902201E040F64802FB793F
:1027E000FB21184636F048FA00BF1037BD4680BDC1
:1027F000A840000480B500AF174B1B68002B01D028
:10280000012327E0012003F079FE0346134A1360F9
:10281000124B1B68002B01D101231BE00F4B1B68DF
:102820000F4A12781146184610F00AFF00210D4891
:102830002FF040FB0346084A1360074B1B68002B30
:1028400007D1002300220021002003F0F5FC012322
:1028500000E00023184680BDAC400004B0400004F6
:1028600048060400D428000480B500AF174B1B684D
:10287000002B01D0012327E0012003F03FFE034697
:10288000134A1360124B1B68002B01D101231BE07C
:10289000002110482FF034FD00210F482FF030FDAB
:1028A00000210E482FF006FB0346084A1360074B31
:1028B0001B68002B07D1002300220021002003F019
:1028C000BBFC012300E00023184680BDB440000497
:1028D000B8400004BC400004C8400004F4280004D0
:1028E00080B582B000AF786009F096FC0346002BFB
:1028F00001D1052328E02EF014FC0346002B01D063
:10290000082321E0FFF776FF0346002B01D00723C1
:102910001AE00F4810F032FF0346002B01D00723C6
:1029200012E031F0FFFC0346002B01D105230BE040
:10293000FFF79AFF0346002B01D0072304E0054967
:10294000786836F000F8034618460837BD4680BD63
:102950007DC002002538010080B483B000AF7860EC
:10296000034A7B68136000BF0C37BD4680BC7047CC
:10297000D4400004B0B584B000AF75460346FB7187
:102980000023FB81FA79454913469B0013449B00C1
:102990000B4410331B78002B79D12B46FC791A4657
:1029A00000214FF4C87003F071FF02463B492346F3
:1029B0009B0023449B000B441A602B46FC791A466B
:1029C00000214FF4C87003F061FF024633492346EB
:1029D0009B0023449B000B4404331A602B46FC7974
:1029E0001A460021702003F051FF02462B4923466E
:1029F0009B0023449B000B4408331A60FA79274953
:102A000013469B0013449B000B441B68002B37D0DC
:102A1000FA79224913469B0013449B000B4404336C
:102A20001B68002B2CD0FA791C4913469B001344D9
:102A30009B000B4408331B68002B21D0FA791749FF
:102A400013469B0013449B000B44103301221A7061
:102A5000FA79124913469B0013449B000B441968F2
:102A6000FA7913469B0013449B0008330B4A134426
:102A70000733F8790A2236F0C7FC0346FB8108E0E9
:102A8000FB79184600F016FA0523FB8101E00923C3
:102A9000FB81FB8918461037BD46B0BDD840000405
:102AA000B0B586B002AF754603463A60FB710B467F
:102AB000BB710023FB81FA79474913469B001344FD
:102AC0009B000B4410331B78002B7DD12B46FC79E7
:102AD0001A460021282003F0D9FE02463E4923462B
:102AE0009B0023449B000B441A602B46FC791A463A
:102AF00000214FF4C87003F0C9FE02463649234650
:102B00009B0023449B000B4404331A602B46FC7942
:102B10001A460021702003F0B9FE02462E492346D2
:102B20009B0023449B000B4408331A60FA792A491E
:102B300013469B0013449B000B441B68002B3CD0A6
:102B4000FA79254913469B0013449B000B44043338
:102B50001B68002B31D0FA791F4913469B001344A0
:102B60009B000B4408331B68002B26D0FA791A49C6
:102B700013469B0013449B000B44103301221A7030
:102B8000FA79154913469B0013449B000B441C68BB
:102B9000FA7913469B0013449B0008330E4A1344F2
:102BA0000733B979F87901930123009323463A68F2
:102BB00036F05AFC0346FB8108E0FB79184600F02A
:102BC00079F90523FB8101E00923FB81FB89184684
:102BD0001037BD46B0BD00BFD840000480B582B0FC
:102BE00000AF0346FB71FA790D4913469B0013446D
:102BF0009B000B4410331B78002B0DD0FA79084949
:102C000013469B0013449B000B44103300221A70A0
:102C1000FB79184600F04EF900BF0837BD4680BD6D
:102C2000D840000490B589B000AF0446084611466C
:102C30001A462346FB710346BB710B467B71134654
:102C40007B80FA7913469B0013449B00984A1344F7
:102C5000BB61BB691B7C002B00F026817B79012BBB
:102C600005D1FB790021184600F090F91CE1BB79F1
:102C7000062B2AD0062B00F31681022B02DC002B38
:102C800003DC10E1042B20D00DE1BB69DB7B002BC2
:102C900015D0BB6900221A73BB6900225A73BB6945
:102CA00000229A73BB691B68BA695268DA61BB6912
:102CB0001968FB790A22184636F016FCF4E0FB7915
:102CC0000121184600F062F9EEE0BB79062B24D111
:102CD000BB691A68BB691B7B19460B469B000B44FA
:102CE000DB0013447B617B69DA69BB695B7B194656
:102CF0000B469B000B44DB0013443B61BB699A7B92
:102D00003B6993F820301344DAB2BB699A73BB690C
:102D10005B7B0133DAB2BB695A73BB691A68BB6962
:102D20001B7B19460B469B000B44DB001344FB60E6
:102D3000BB695A7BFB681B7E9A426BD2FB68DA69DF
:102D4000BB695B7B19460B469B000B44DB001344BD
:102D5000FB6135E0FB699B880233FA69283292886F
:102D600093421CD2BB699B7B032B18D8BB699A6822
:102D7000BB699B7B19460B46DB005B1A9B001A4420
:102D8000FB695A62FB6928339A88BB699B7BC3F154
:102D90000403DBB2F879F96936F0D2FB84E0BB6951
:102DA0005B7B0133DAB2BB695A73FB68DA69BB69D2
:102DB0005B7B19460B469B000B44DB001344FB6115
:102DC000BB695B7B1A46FB681B7E013B9A42C1D301
:102DD000FB699A88FB685B889A421BD2BB699B7B24
:102DE000032B17D8BB699A68BB699B7B19460B46B6
:102DF000DB005B1A9B001A44FB695A62FB685A8825
:102E0000BB699B7BC3F10403DBB2F879F96936F047
:102E100097FB49E0FB79F968184600F0D5F8BB69E3
:102E20001B7B0133DAB2BB691A73BB6900225A7388
:102E3000BB6900229A73BB699B6870220021184607
:102E40002FF02BFDBB695B684FF4C8720021184658
:102E50002FF023FDBB691A7BBB69DB7B9A421CD236
:102E6000BB691A68BB691B7B19460B469B000B4468
:102E7000DB001344BA695268DA61BB691A68BB693E
:102E80001B7B19460B469B000B44DB00D118FB79DA
:102E90000A22184636F028FB06E0FB790121184685
:102EA00000F074F800E000BF2437BD4690BD00BFBD
:102EB000D840000480B582B000AF0346FB71FA79B8
:102EC000314913469B0013449B000B441B68002BA5
:102ED00013D0FA792C4913469B0013449B000B44F2
:102EE0001B68184603F028FDFA79274913469B0012
:102EF00013449B000B4400221A60FA7922491346BE
:102F00009B0013449B000B4404331B68002B15D01B
:102F1000FA791D4913469B0013449B000B4404336C
:102F20001B68184603F008FDFA79174913469B0001
:102F300013449B000B44043300221A60FA791249AF
:102F400013469B0013449B000B4408331B68002B63
:102F500015D0FA790C4913469B0013449B000B448F
:102F600008331B68184603F0E7FCFA790649134654
:102F70009B0013449B000B44083300221A6000BFDF
:102F80000837BD4680BD00BFD840000480B584B07E
:102F900000AF03460A46FB711346BB71FB79184626
:102FA000FFF71CFE01233B72BB793B73054B1B688B
:102FB00007F10801FA791046984700BF1037BD465F
:102FC00080BD00BFD440000480B584B000AF03468C
:102FD0003960FB7100233B723B68FB60054B1B684B
:102FE00007F10801FA791046984700BF1037BD462F
:102FF00080BD00BFD440000480B485B000AF7860CD
:103000000023FB600EE07B6803F00103002B01D07E
:10301000002200E0094A7B685B0853407B60FB6844
:103020000133FB60FB68072BEDDD7B6883F07F439A
:1030300018461437BD4680BC704700BF2083B8EDEA
:1030400080B586B000AFF860B9607A604FF48062F6
:1030500000211D480BF00EFF1B4B1B68002B10D1ED
:1030600000237B610AE07869FFF7C6FF0246164934
:103070007B6941F823207B6901337B617B69FF2BEE
:10308000F1D900233B6115E07B681B68DAB2F9686F
:103090003B690B441B785340DBB21A460A4B53F88A
:1030A00022207B681B681B0A5A407B681A603B69B8
:1030B00001333B613A69BB689A42E5D300BF00BF68
:1030C0001837BD4680BD00BFD841000480B586B02A
:1030D00000AFF860B9607A60FB7000237B61032267
:1030E0001B49F8680BF02CFEFB680333FA781A7062
:1030F000FB6804337A681A60FB6808333A6A1A601E
:103100007B68002B0BD007F114031A467968B86866
:10311000FFF796FFFB680C337A691A6003E0FB68DF
:103120000C3300221A60FB6810337A6A1A6000239D
:103130007B6107F114031A461421F868FFF780FF3A
:10314000FB6814337A691A6000BF1837BD4680BD2A
:103150006CDA030080B500AF002000F0D1F804481D
:103160002FF090F803482FF084F800BF80BD00BF17
:10317000771103008511030080B58AB002AF0346C2
:10318000FB71FB79012B34D10023BB6007F10C03E9
:1031900000221A605A609A60DA601A6107F108002A
:1031A000002301934FF0FF330093FF2312221449B1
:1031B000FFF78CFF134B1B7807F108011822184604
:1031C00001F016FF0A200AF0C7F80E4B1B78012207
:1031D0000B4918462EF03CFA0B4B01221A700B4B90
:1031E0000022DA700A4B1B78002B04D100F076F92C
:1031F00001E000BF00E000BF00BF2037BD4680BD3A
:1032000070DA0300831C0104841C01042C290004CF
:10321000C041000480B584B000AF0346FB710023B9
:10322000FB73FB79062B25D0062B25DC012B02D066
:10323000052B08D020E02FF095F9124B1B7818468B
:10324000FFF79AFF19E00023FB730FE0FB7B0E4AA8
:1032500012F83330FF2B06D0FB7B0B4A12F83330C9
:10326000184635F0ADFCFB7B0133FB73FB7B072B72
:10327000ECD902E000BF00E000BF00BF1037BD4640
:1032800080BD00BF821C01048041000480B582B073
:1032900000AF78607868FFF7A7F97B681B78042B8C
:1032A00020D801A252F823F0BD320000E532000020
:1032B000D7320000C3320000CD32000000F042F8E7
:1032C00011E00B490B4835F063FB0CE00A490B4851
:1032D000FEF764FB07E0002300220021002002F03B
:1032E000ABFF00E000BF00BF0837BD4680BD00BF98
:1032F00078410004242900046935000001350000EC
:1033000080B582B000AF0346FB7101F01DFC0022C6
:103310000B210A4801F0FAFC084B1B784FF4E1310D
:10332000184601F0DDFF054B1B78002204491846C2
:1033300001F0AAFF00BF0837BD4680BD831C010411
:10334000693D000080B58AB002AF0023FB772DF005
:10335000C0FE5048FEF73EFB4F48FEF74FFB4F497B
:10336000012025F067FC4E48FFF7F6FA0021002007
:1033700035F05CFC0121002035F058FC0023FB7780
:103380001BE0FB7F474ADB00134400229A71FB7F5E
:10339000444AFF2102F83310FB7F424ADB0013440A
:1033A0004FF6FF725A80FB7F3E4ADB0013444FF614
:1033B000FF729A80FB7F0133FB77FB7F072BE0D9FD
:1033C000394B01221A7000237B6007F108030022A9
:1033D0001A605A609A60DA601A61381D00230193FE
:1033E0004FF0FF330093FF2359223049FFF76EFE61
:1033F0002F4B1B78391D1822184601F0F9FD0A20C1
:1034000009F0AAFF2A4B1B780122284918462EF002
:103410001FF9284B00221A70274B00221A602748F8
:1034200008F0CAFE08F0A0F8254B1B6843F0020321
:10343000234A136001F0D6F803461A46214B1A704E
:1034400000212148FEF7EEFA01F0CCF803461A46B7
:103450001E4B1A701D4B1878002300931C4B42F230
:10346000107212212EF04BF801F0BCF803461A46F8
:10347000184B1A7001F0B6F803461A46164B1A702C
:10348000094B1B781846FFF777FE00BF2037BD4673
:1034900080BD00BF7D380000911103009029000419
:1034A000E137000080410004821C010484DA03003B
:1034B000831C0104C0410004C4410004C84100044D
:1034C000D4410004002C0004DD3D0000012C000468
:1034D000FD110300FE2B0004FF2B000480B500AF9C
:1034E000064835F032FA30F0ECFC30F0F0FC012008
:1034F0002EF094FE2EF07BFE00BF80BD1429000448
:1035000080B582B000AF78607B681B78002B02D05A
:10351000012B0DD01CE0104B1B78002B0CBF01239E
:103520000023DBB21A460C4B1A702FF01BF80FE089
:103530000A4B1B7801220A4918462EF089F80948DF
:10354000FDF780FE01202EF069FE2EF050FE00BF38
:1035500000BF0837BD4680BDC0410004831C010484
:10356000E0DA030000DB030080B592B002AF03464F
:103570003960FB713B681B78002B02D00D2B71D09A
:1035800001E1FB798949FA7901F83320884B00225F
:103590001A70FB79184608F01FFEFB79194685481A
:1035A00030F01CFE2EF0DEFF0321012003F046FA6E
:1035B000814B1B78184601F0C7F8804B1B6801331C
:1035C0007E4A13607E4B1B7818462DF072FF03462F
:1035D000002B09D17A4B187800230093794B42F2E3
:1035E000107212212DF08BFF00237B6207F128035C
:1035F00000221A605A609A60DA601A6107F12400AA
:10360000002301934FF0FF330093FF231F226E49E5
:10361000FFF75CFD6D4B1B7807F12401182218465B
:1036200001F0E6FC0A2009F097FE684B1B780122A6
:10363000654918462EF00CF8654B01221A70FB798B
:10364000644A1178594ADB0013440A46DA710120B2
:103650002EF0E4FD2EF0CBFDFB790021184600F0A2
:10366000B9F990E0554B1B68002B04DD534B1B68E8
:10367000013B524A13600023FB6007F11003002254
:103680001A605A609A60DA601A6107F10C00002330
:1036900001934FF0FF330093FF231B224E49FFF7A6
:1036A00015FD4A4B1B7807F10C011822184601F052
:1036B0009FFC0A2009F050FE444B1B78012246492A
:1036C00018462DF0C5FFFB79384ADB001344002271
:1036D0009A71FB79354ADB0013444FF6FF725A802A
:1036E000FB79324ADB0013444FF6FF729A8008F0F0
:1036F00087FDFB7919462F4830F089FD304B1B7848
:10370000184601F021F8FB791846FFF767FA2EF00A
:1037100022FFFB79254AFF2102F833102F4BF422B8
:103720001A80002387F83F301FE097F83F301F4A88
:1037300012F83330FF2B13D007F10A0297F83F300D
:103740001146184635F025FE7B89033B9BB27B81F1
:103750007A89224B1B889A4202D27A891F4B1A809F
:1037600097F83F30013387F83F3097F83F30072B09
:10377000DBD9184B1B78012B04D1164B1B7818464C
:10378000FFF7FAFC00BFFB79084ADB001344DB7942
:10379000012B05D1FB79396818462DF079FC00E042
:1037A00000BF00BF4037BD4680BD00BF8041000460
:1037B000C041000494290004FE2B0004C44100040D
:1037C000002C0004DD3D000020DB0300831C01040D
:1037D000841C0104821C010440DB0300FC2B000458
:1037E00080B582B000AF03463960FB713B681B783F
:1037F000002B02D0012B18D037E03B685B681B79A7
:10380000022B31D13B685B680833102219461948F6
:103810002FF002F80346002B26D03B685A68FB794C
:103820001146184600F064F81EE03B681B79002B37
:1038300014D0FB79104ADB0013445B884FF6FF720B
:10384000934205D0FB790221184600F0C3F80CE042
:10385000FB790321184600F0BDF806E0FB7904214E
:10386000184600F0B7F800E000BF00BF0837BD46BB
:1038700080BD00BFE82500048041000480B584B00D
:1038800000AF03463960FB710023FB813B681B7866
:10389000002B0ED0042B21D13B689B880E2B1FD10F
:1038A0003B6899683B68DA88FB79184600F0CAF9EA
:1038B00016E007F10E02FB791146184635F069FD56
:1038C000FB89033B9BB2FB81084B1A88FB8993421F
:1038D00028BF13469AB2054B1A8002E000BF00E0F1
:1038E00000BF00BF1037BD4680BD00BFFC2B0004E9
:1038F00080B483B000AF03463960FB71FB793A684E
:1039000011880D4ADB0013440A465A803B681B7E2F
:10391000002B0CD03B68DB69002B08D03B68DA69D0
:10392000FB799188044ADB0013440A469A8000BF61
:103930000C37BD4680BC70478041000480B592B012
:1039400004AF78600B46FB7007F10C0328220021BE
:1039500018460BF08FFA002387F83730002387F8DA
:1039600037302BE097F83730194A12F83330FF2BF5
:103970001FD097F83730164ADB0013449B79042B8D
:1039800017D197F83730124ADB0013449B883B82EB
:10399000FB789AB207F10C0197F8370000230393E4
:1039A0000023029300230193012300937B6835F0E9
:1039B000FBFD97F83730013387F8373097F8373009
:1039C000072BCFD900BF00BF3837BD4680BD00BF31
:1039D0008041000480B584B000AF03460A46FB7105
:1039E0001346BB710023FB81584BBB60FB79584ADF
:1039F00012F83330FF2B00F09A80FB79544ADB0039
:103A000013449B79042B00F2948001A252F823F016
:103A1000253A00006D3A0000C53A0000053B000061
:103A2000333B0000BB79002B03D0BB79012B40F066
:103A30008280484B1B78002B0BD1FB79444ADB007A
:103A4000134401229A71FB79F721184635F0B5FC31
:103A500071E0FB793E4ADB00134402229A71BA6896
:103A6000FB7902211846FFF71BF864E0BB79052BB0
:103A700020D107F10E02FB791146184635F089FC7A
:103A8000FB89033B9BB2FB81334B1A88FB89934232
:103A900028BF13469AB2304B1A80FB792C4ADB00C0
:103AA000134402229A71BA68FB7902211846FEF784
:103AB000F7FF42E0BB79062B3FD1FB79184635F082
:103AC0007FF83AE0BB79022B06D1FB79204ADB0074
:103AD000134404229A7132E0BB79032B0AD1FB799B
:103AE0001B4ADB00134403229A71FB791846FEF748
:103AF00041FF24E0BB79042B21D1FB79184635F036
:103B00005FF81CE0BB79022B06D1FB79104ADB0081
:103B1000134404229A7114E0BB79032B02D0BB79C1
:103B2000042B0ED1FB79184635F04AF809E000BFA6
:103B300008E000BF06E000BF04E000BF02E000BFF5
:103B400000E000BF1037BD4680BD00BFE82500047F
:103B500080410004821C0104FC2B000490B587B056
:103B600000AF744678600023FB750023BB7500230B
:103B7000FB7512E0FB7D2E4A12F83330FF2B09D083
:103B8000FB7D2B4ADB0013449B79042B02D10123DC
:103B9000BB7505E0FB7D0133FB75FB7D072BE9D988
:103BA000BB7D002B3CD000237B7500233B610023B1
:103BB000FB81204B1B8822460021184602F066FE3E
:103BC00038613B69002B05D11B4B1B6801331A4A36
:103BD000136025E0194B1878164B1A8807F10E036D
:103BE000396901F061FA0346002B18D1FB89002BDB
:103BF00005D0FB89DBB219463869FFF79FFEFA89C9
:103C00000C4B1B889A420CBF01230023DBB27B754F
:103C1000386902F091FE7B7D002BC6D100E000BF29
:103C2000074B00221A7000BF1C37BD4690BD00BF75
:103C300080410004FC2B0004D8450004831C0104CF
:103C4000851C010490B58BB002AF74460346396001
:103C5000FB711346BB80314A07F10C0307CA03C34B
:103C60001A800023FB610023BB612D4B1B78DBB264
:103C7000002BBB8822460021184602F007FEF8619F
:103C8000FB69002B42D0264B1B78DBB2002B04D102
:103C9000244B1B78FA799A4229D00A23BB61204B26
:103CA0001B78DBB2002B02D01D4B00221A70FB796F
:103CB0001D4AA2FB0323DB08DBB23033DBB2FB730C
:103CC000FA79194BA3FB0213D9080B469B000B444E
:103CD0005B00D31ADBB23033DBB23B74FB79134A9F
:103CE000DB001344DB79002B01D05323BB74BB886A
:103CF0001A463968F8692EF04EFD0D4B1878BA88CF
:103D0000FB6900930B4BF96901F0C0F8054AFB7998
:103D1000137000BF2437BD4690BD00BF5CDB0300BD
:103D2000841C0104022C0004CDCCCCCC80410004C6
:103D3000831C0104E711030080B582B000AF7860F6
:103D4000074B1B78DBB2002B06D1054B01221A7002
:103D500000210448FDF766FE00BF0837BD4680BD60
:103D6000851C01045D3B000080B586B002AF786021
:103D70000023FB81134B1B7807F10E0211461846F6
:103D800001F026FAFA89104B1B889A4209D20F4B90
:103D90001878002300930E4B072211212DF0AFFB62
:103DA0000BE00C4B1B78DBB2002B06D1094B012238
:103DB0001A7000210848FDF735FE00BF1037BD46D8
:103DC00080BD00BF831C0104FC2B0004FF2B0004FA
:103DD000393D0000851C01045D3B000080B582B0C8
:103DE00000AF786007F0D2FB07F07AFB03461A4673
:103DF0000A4B9A700A4B1B6803F00203002B06D093
:103E0000074B00221A60054830F0C9F902E0034868
:103E100030F016FA00BF0837BD4680BD9429000473
:103E2000D441000480B483B000AFFF237B60404BDB
:103E30001B6823F070433B603B6847F63D5293425A
:103E40006ED83B6847F6295293421ED23B6842F235
:103E50008232934261D03B6842F2823293425FD811
:103E60003B6842F24632934254D03B6842F24632BB
:103E7000934255D83B6841F24442934244D03B6858
:103E800041F24542934242D04AE03B68A3F5FA43EF
:103E9000293B142B44D801A252F823F0033F000021
:103EA000F13E0000F73E0000213F0000213F0000EE
:103EB000213F0000213F0000213F0000213F000082
:103EC000213F0000213F0000213F0000213F000072
:103ED000213F0000213F0000213F0000213F000062
:103EE000213F0000213F0000213F0000FD3E000077
:103EF00000237B6015E001237B6012E002237B60DE
:103F00000FE003237B600CE006237B6009E00723BE
:103F10007B6006E004237B6003E005237B6000E018
:103F200000BF7B6818460C37BD4680BC704700BF99
:103F300060FC090080B586B000AF0346FB7100232A
:103F4000FB75FFF76FFF38613B69012B08D03B69B8
:103F5000002B05D02B4B0022DA700123FB754BE0C0
:103F60000023BB75FB79002B07D1264B93F9043056
:103F70000A2B02DD0023FB753EE0FB79002B14BF0A
:103F800001230023DBB2FB731E4BDB78FA7B9A42E2
:103F900002D10123FB752FE0FB7B002B02D0012B0C
:103FA0000ED01BE0174B1B7883F00103DBB2002B14
:103FB00003D00123BB7531F049FA05F019FE0DE07D
:103FC000104B1B7883F00103DBB2002B03D00123DD
:103FD000BB7531F03BFA05F08BFD00BF094AFB7B56
:103FE000D370BB7D002B07D0064B5B78054A9278D7
:103FF0001146184600F0BEF8FB7D18461837BD463E
:1040000080BD00BFA029000480B485B000AF034686
:10401000FB7197F9073013F11E0F01DAE223FB71F0
:104020000C4BDB78012B01D10F2300E00A23FB733B
:1040300097F9072097F90F309A4201DDFB7BFB715E
:10404000044AFB79137197F9073018461437BD46B7
:1040500080BC7047A029000480B582B000AF034641
:10406000FB71FB79032B08D0FB79002B05D0104B9B
:10407000104AAC211048FCF7DDFF40F203300DF090
:1040800069FEFB79032B03D140F204400DF062FE80
:104090000A4B5B78012B01D10EF0C0FA074B0022CE
:1040A0005A70064AFB79937000BF0837BD4680BD41
:1040B00068DB0300A4DB030098DB0300A0290004F5
:1040C00080B500AF0EF046F8064B5B78002B01D1AF
:1040D0000EF0C6FA034B01225A70024B04229A706A
:1040E00000BF80BDA029000480B584B000AF0346A6
:1040F000FB710B46BB7113467B714FF0FF33FB60C6
:104100007B7983F00103DBB2002B07D0154B5B7882
:10411000FA799A4202D10123FB601EE0FB79002B61
:1041200002D0012B0DD011E0BB79032B02D0BB795B
:10413000002B11D1BB791846FFF78EFF0023FB60DF
:104140000AE0FFF7BDFF0023FB6006E0064B074ACD
:10415000DD210748FCF76EFF00BFFB6818461037EB
:10416000BD4680BDA0290004D4DC0300BCDB0300F5
:1041700098DB030080B584B000AF03460A46FB71AC
:104180001346BB710023FB73154B1B78002B0BD020
:104190000120FFF7CFFE134805F0BAFD114805F0E6
:1041A000FBFD0F4B00221A700D4BDB78002B01D169
:1041B000002301E04FF4807318460EF01DFEB9791C
:1041C000FB7900221846FFF78FFF0346002B01DA28
:1041D0000123FB73FB7B18461037BD4680BD00BF33
:1041E000A02900041600010080B582B000AF0023B2
:1041F000FB710E4BDB78002B01D1002301E04FF463
:10420000807318460EF0F8FD084B5B78074A9178EA
:1042100001221846FFF768FF0346002B01DA01234D
:10422000FB71FB7918460837BD4680BDA029000404
:1042300080B483B000AF0346FB7197F90730002BC1
:104240000BDBFB7903F01F02064997F907305B0986
:10425000012000FA02F241F8232000BF0C37BD46CE
:1042600080BC704700E100E080B483B000AF03463B
:10427000FB7197F90730002B0CDBFB7903F01F0271
:10428000074997F907305B09012000FA02F2603311
:1042900041F8232000BF0C37BD4680BC704700BFEB
:1042A00000E100E080B483B000AF03463960FB71E9
:1042B00097F90730002B0ADB3B68DAB20C4997F913
:1042C00007305201D2B20B4483F800230AE03B6866
:1042D000DAB20849FB7903F00F03043B5201D2B272
:1042E0000B441A7600BF0C37BD4680BC704700BF38
:1042F00000E100E000ED00E080B584B000AF786040
:1043000000222021E6202EF042FC01220121EB2098
:104310002EF03DFC0A482DF07BF809482FF0C8F834
:10432000302107482DF028F81D23FB7397F90F3033
:10433000796818462DF07BF800BF1037BD4680BD68
:1043400000B0004080B500AF02482DF052F800BF29
:1043500080BD00BF00B0004080B582B000AF002338
:104360007B6005482CF0FCFF03467B607B681846A9
:104370000837BD4680BD00BF00B0004080B582B0A8
:1043800000AF78607B689BB2194603482CF0D4FFDD
:1043900000BF0837BD4680BD00B0004080B582B088
:1043A00000AF00237B600D482CF0FEFF78607B6837
:1043B00003F00803002B03D0082108482DF001F872
:1043C0007B6803F00403002B03D0042103482CF086
:1043D000F8FF7B6818460837BD4680BD00B0004036
:1043E00080B483B000AF0346FB71FB79044AD35C11
:1043F00023F01F03DBB218460C37BD4680BC704764
:10440000EC45000480B483B000AF03460A46FB715C
:104410001346BB71FB790B4AD25CFB7902F01F0299
:10442000D1B2084AD154FB79064AD15CFB79BA79FA
:104430000A43D1B2034AD15400BF0C37BD4680BCF9
:10444000704700BFEC45000480B483B000AF034662
:10445000FB71FB79044AD35C03F01F03DBB21846FF
:104460000C37BD4680BC7047EC45000480B483B077
:1044700000AF03460A46FB711346BB71FB790B4A3A
:10448000D25CFB7922F01F02D1B2084AD154FB79E9
:10449000064AD15CFB79BA790A43D1B2034AD154B6
:1044A00000BF0C37BD4680BC704700BFEC45000420
:1044B0002DE9B04382B000AF78607968002088466B
:1044C00081460F49096800200A46034602FB09F0AD
:1044D00008FB03F10144A8FB02454B191D464FF4AC
:1044E0007A724FF00003204629460BF0B7F90246D6
:1044F0000B46104619460837BD46BDE8B08300BFDD
:10450000E845000480B582B000AF1F4B1B7883F0F4
:104510000103DBB2002B30D01B4B01221A701B4869
:10452000FFF7EAFE00F03CF8194B1B78002B04D192
:10453000FFF708FF164B01221A70012001F0DEFF81
:104540000346144A1360134B1B68002B06D1124913
:1045500000230022002001F06FFE11E000210F482F
:104560002DF0A8FC78607B68002B09D10A49002354
:104570000022002001F060FE02E004482CF077FFEA
:1045800000BF0837BD4680BD861C0104614600009F
:104590008A1C01041446000405450000A8290004F3
:1045A00080B500AF2CF073FF03460B4A1360082060
:1045B000FFF77EFF02460B461346C3F57F43FF33EA
:1045C000064A13600420FFF773FF02460B46044BB4
:1045D0001A6000BF80BD00BFE8450004E04500044C
:1045E000E445000480B582B000AFFF23FB700023D8
:1045F0007B6011E00C4A7B6813441B78002B08D1C8
:104600007B68DBB280211846FFF7FCFE7B68FB70FD
:1046100005E07B6801337B607B68272BEAD9FB7858
:1046200018460837BD4680BDEC45000480B584B00F
:1046300000AF0346FB71FB79184600F085F803468E
:10464000FB73FB7B002B03D1FB79044A0021D1547F
:10465000002318461037BD4680BD00BFEC4500045E
:1046600080B582B000AF00237B6000233B60FFF782
:1046700095FE38603B6803F00803002B03D07B688D
:1046800043F004037B603B6803F00403002B03D07A
:104690007B6843F008037B60044B1B68796818460D
:1046A00001F05EFF00BF0837BD4680BD1446000420
:1046B00080B588B000AFBA607B600346FB730B46E1
:1046C000BB73FB7B184600F03FF80346FB75FB7D90
:1046D000002B32D1FB7B5B011A4A13443B61B86863
:1046E000FFF7E6FEC7E90601FFF736FE02463B6923
:1046F0009A61D7E90623134305D14FF001024FF029
:104700000003C7E90623BA7BFB7B11461846FFF777
:10471000ADFE3969D7E90623C1E900233969D7E934
:104720000623C1E902233B697A681A613B69BA6AC8
:104730005A61FB7B184600F0C5F9FB7D184620370F
:10474000BD4680BD182C000480B584B000AF034680
:10475000FB710023BB730023FB73FB79272B04D869
:10476000FB79254AD35C002B02D10123FB733EE089
:1047700001F0C6FFFB791846FFF732FE0346BB7314
:10478000BB7B202B02D0BB7B402B2ED1FB79802121
:104790001846FFF737FEFB791846FFF755FE03462C
:1047A00003F01003002B06D0144B1B78013BDAB248
:1047B000124B1A7005E0124B1B78013BDAB2104B1A
:1047C0001A700F4B1B78002B0FD10C4B1B78002B52
:1047D0000BD101F095FF0B4B1B78DBB2002B02D005
:1047E000084B00221A7001F063FF01F061FFFB7BB0
:1047F00018461037BD4680BDEC450004881C0104F6
:10480000871C0104891C01042DE9B04F94B002AF4C
:10481000F86100237B62A04B186807F12403009322
:104820004FF0FF3300226FF07F4101F0EBFE7B6A17
:1048300003F00803002B0DD0984B1B68002B09D008
:1048400001F05EFF954B1A68954B1B681846904720
:1048500001F02EFF7B6A03F00403002B00F01081AF
:1048600001F04EFFFFF778FDF86301F021FF8D4B5B
:104870001A68FB6BD31ABB638B4B1B687B640023EA
:1048800087F84330BCE097F843301846FFF7DCFD6B
:10489000034687F8333097F843305B01834A13446B
:1048A000FB6201F02DFF97F843301846FFF798FDA3
:1048B000034687F82B3097F82B30402B18D197F808
:1048C000433020211846FFF79DFD01F0F1FE7B6C7F
:1048D00000221C461546FB6AD3E90223A242AB41E3
:1048E00080F08980FB6AD3E9022313467B6482E06F
:1048F00097F82B30202B7CD101F0DAFEFB6AD3E94C
:104900000223B96B002039617861D7E9040184463C
:10491000944571EB03032FD201F0F2FEFB6AD3E959
:104920000223B96B0020B960F860D7E90201844620
:10493000B2EB0C0CC7F800C063EB01037B60FB6AB1
:10494000D7E90012C3E90212FFF706FD0246FB6A2F
:104950009A617B6C002298469146FB6AD3E9022358
:10496000424573EB090304D2FB6AD3E902231346E1
:104970007B6401F09DFE3EE097F8333003F00203C4
:10498000002B0CD1F96A4FF000024FF00003C1E98F
:10499000022397F843301846FFF7D6FE1EE001F0D9
:1049A000AFFEFB6AD3E90001FB6AC3E90201FFF72E
:1049B000D3FC0246FB6A9A617B6C00229A469346BE
:1049C000FB6AD3E90223524573EB0B0304D2FB6A63
:1049D000D3E9022313467B6401F06AFEFB6A1B697C
:1049E000002B08D0FB6A1A69FB6A5B69184690477E
:1049F00001E001F05DFE97F84330013387F8433062
:104A000097F84330272B7FF63EAF01F079FEFFF792
:104A1000A3FC7863FA6B7B6BD31A7B637A6B7B6C3A
:104A20009A4205D3224B1B687A6B13447B640BE0DC
:104A30007A6C7B6BD21A1E4B1B689A4204D21C4BB9
:104A40001B687A6B13447B641A4B1B78002B03D1D1
:104A5000194B1B78002B06D0786CFFF78FFC174A98
:104A60000123137007E0154B1B78DBB2002B02D03B
:104A7000124A002313700B4A7B6C136001F018FE7E
:104A80000F4B1B78002B00D0C5E600BF00BF483796
:104A9000BD46BDE8B08F00BF1446000418460004B0
:104AA0001C460004DC450004E0450004182C00040A
:104AB000E4450004871C0104881C0104891C0104CE
:104AC0004806040080B584B000AF0346FB710023A4
:104AD000FB7301F015FEFB791846FFF781FC0346D6
:104AE000802B1CD1FB791846FFF7AEFC034603F080
:104AF0001003002B06D0114B1B780133DAB20F4B99
:104B00001A7005E00E4B1B780133DAB20C4B1A70A9
:104B1000FB7940211846FFF775FC0123FB7301F078
:104B2000C7FDFB7B012B05D1064B1B6804211846F2
:104B300001F016FD00BF1037BD4680BD881C010482
:104B4000871C01041446000480B500AF184B1B7885
:104B5000002B2AD1164B01221A7040F2EC52002190
:104B600014482DF09AFE012001F0C8FC0346124AB9
:104B70001360114B1B68002B06D10023002200217B
:104B8000002001F059FB10E000210C482DF092F9B3
:104B900003460B4A13600A4B1B68002B05D1002308
:104BA00000220021002001F047FB00BF80BD00BFB4
:104BB0008B1C01042846000424460004C829000474
:104BC0002046000480B586B002AF78600023BB6049
:104BD0004B4B186807F1080300934FF0FF33002296
:104BE0006FF07F4101F00EFD0023FB817AE001F0C0
:104BF00087FDFB89434A40F2EC5101FB03F3134468
:104C000003F2E9531B787B73FB893E4A40F2EC5177
:104C100001FB03F3134403F2E95300221A7001F07D
:104C200047FD7B7B03F00103002B1ED0FB89354A37
:104C300040F2EC5101FB03F3134408331B68002BD3
:104C400013D0FB892F4A40F2EC5101FB03F31344CC
:104C500008331B68FA892B4940F2EC5000FB02F242
:104C60000A440C321268104698477B7B03F002031B
:104C7000002B09D0FB8940F2EC5202FB03F3214ADE
:104C80001344184600F09CFCFB891E4A40F2EC518C
:104C900001FB03F3134403F2EA531B78DBB2002B4E
:104CA0001DD1FB89FA89174940F2EC5000FB02F252
:104CB0000A4402F2E7521278D2B21249403212018B
:104CC00040F2EC5000FB03F313440B4408331B8801
:104CD000002B04D0FB89DBB2184600F037FBFB89C0
:104CE0000133FB81FB89002B81D0074B1B78002B04
:104CF00000D06DE700BF00BF1037BD4680BD00BFCC
:104D000024460004284600044806040080B586B006
:104D100000AF78600B46FB701346BB700023FB7539
:104D20007B68FF221A7000233B6199E03B6940F2E7
:104D3000EC5202FB03F3514A1344FB60FB681B78FF
:104D4000FA789A4207D1FB685B78BA789A4202D126
:104D50000523FB7588E0FB681B78002B7DD101F0F3
:104D6000CFFCFB68BA785A70FB78013B0A2B41D81C
:104D700001A252F823F000BFFB4D0000FB4D0000E4
:104D8000FB4D0000FB4D0000FB4D0000FB4D000003
:104D9000FB4D0000FB4D0000FB4D0000FB4D0000F3
:104DA000A54D0000B8783A6913465B0013441B0117
:104DB000334A1344194600F0E5FC3A6913465B0098
:104DC00013441B0120332E4A1344181DFB68103373
:104DD00040F2E93219462CF0C0FBBB783A69294908
:104DE000184600F0BDFDBB783A692749184600F027
:104DF000D9FD03E00223FB7500E000BFFB7D002B23
:104E00000DD100202DF07BF80246FB68C3F8DC25AD
:104E1000FB68D3F8DC35002B01D10723FB75FB7D44
:104E2000002B0DD100202DF06AF80246FB68C3F874
:104E3000E025FB68D3F8E035002B01D10723FB7593
:104E4000FB7D002B06D1FB68FA781A703B69DAB259
:104E50007B681A7001F02CFC06E03B6901333B6172
:104E60003B69002B3FF462AF3B69012B01D1032367
:104E7000FB75FB7D18461837BD4680BD28460004EB
:104E8000144C0004C7160300E316030080B588B075
:104E900000AFB9607B600346FB731346BB81002300
:104EA000FB770023BB61FB7B40F2EC5202FB03F378
:104EB0004D4A13447B61BB68002B09D0BB89002B92
:104EC00006D0FB7B002B03D17B691B78002B02D122
:104ED0000123FB7783E02CF0E6FF386101F010FC42
:104EE0007B6993F8E535DBB27A6940331B011344E3
:104EF00008331B88002B42D17B6993F8E535DBB280
:104F00007A691B01134403F57F731B68002B36D1AC
:104F10007B6993F8E835DBB21D2B30D87B6993F8B9
:104F2000E535DBB21B0103F57E737A691344043364
:104F3000BB61BB69BA899A81BB69BA689A60BB696F
:104F40007A681A60BB69BA6A5A607B6993F8E5357A
:104F5000DBB20133DBB27A69194682F8E5151D2B05
:104F600003D97B69002283F8E5257B6993F8E8354E
:104F7000DBB20133DAB27B6983F8E8250CE01B4B26
:104F80001B683A699A4207D07B6993F8E43501338C
:104F9000DAB27B6983F8E42501F08AFBBB69002B58
:104FA00006D0FB7B184600F0D1F90346FB7716E0EC
:104FB0000823FB770D4B1B683A699A4208D07B693E
:104FC000D3F8E0354FF0FF31184601F0E7F902E081
:104FD000786900F0F5FAFB7F002B7FF47FAFFB7F51
:104FE00018462037BD4680BD2846000420460004F0
:104FF00080B588B002AF03463960FB711346BB80B1
:105000000023FB7400237B61FB7940F2EC5202FB2E
:1050100003F3224A1344FB602CF045FF0246204B69
:105020001B689A4201D01F4B7B61BA88F879FB68F4
:1050300000937B693968FFF729FF0346FB74FB7C0B
:10504000012B23D0FB7C082B20D07B69002B08D0C0
:10505000FB68D3F8DC354FF0FF31184601F09EF9BC
:1050600006E000BFFB6893F8EA35DBB2002BF9D10C
:10507000FB681B780B2B0BD100BFFB685B781846D5
:1050800000F0D8FC0346002BF7D102E000BF00E09F
:1050900000BFFB7C18461837BD4680BD284600047B
:1050A00020460004AB16030080B588B000AFB9609D
:1050B0007B600346FB731346BB810023FB77FB7BBE
:1050C00040F2EC5202FB03F33F4A1344BB61FB7B0B
:1050D000002B05D1BB68002B02D0BB89002B02D16D
:1050E0000123FB776AE007F11002FB7B11461846AB
:1050F00000F06EF83B8A002B59D03B8ABA899A425D
:1051000001D2BB893B82BB691B780B2B23D1FA7B75
:1051100013465B0013441B0120332C4A1344043311
:105120007B617B691B89002B0CBF01230023DBB251
:10513000FB743B8A1A46B96878692CF029FA3B8AD5
:10514000002B2FD0FB7C002B2CD0FB7B01211846A1
:1051500000F04AFC26E00023BB831FE001F0D0FAF8
:10516000BB699B889BB21946BB685A1CBA60BA6976
:105170000A44127C1A70BB699B889BB201339BB2B4
:10518000BA6919469180B3F57A7F02D9BB690022CA
:105190009A8001F08DFABB8B0133BB833B8ABA8BBB
:1051A0009A42DBD33B8ABA89D31ABB8100E000BFA5
:1051B0007B68002B02D03A8A7B681A80FB7F1846F6
:1051C0002037BD4680BD00BF28460004144C0004B3
:1051D00080B586B000AF03463960FB710023FB75D4
:1051E000FB79002B02D13B68002B02D10123FB7518
:1051F00041E001F085FAFB79214A40F2EC5101FBD4
:1052000003F313441B780B2B11D1FA7913465B007F
:1052100013441B0120331B4A13440433FB60FB6817
:105220005B891A46FB681B89D31A3B611DE0FB7939
:10523000134A40F2EC5101FB03F3134402331B8881
:105240009BB21846FB790E4A40F2EC5101FB03F386
:10525000134404331B889BB2C31A3B613B69002B88
:1052600003DA3B6903F2E9333B6101F021FA3B6960
:105270009AB23B681A80FB7D18461837BD4680BD40
:1052800028460004144C000480B487B000AF0346E5
:10529000B9607A60FB730023FB75FB7B002B02D0A7
:1052A0000123FB7513E0FB7B0C4A40F2EC5101FB40
:1052B00003F313440833BA681A60FB7B074A40F2D1
:1052C000EC5101FB03F313440C337A681A60FB7D45
:1052D00018461C37BD4680BC704700BF28460004F6
:1052E00080B584B000AF03463960FB710023FB73C7
:1052F000FB79002B02D13B68002B02D10123FB7309
:105300001DE0FB79104A40F2EC5101FB03F313441A
:105310001B780A2B12D00B2B0DD1FB790A4A40F2D5
:10532000EC5101FB03F3134401331B783968184631
:1053300000F098FA03E00223FB7300E000BFFB7B60
:1053400018461037BD4680BD2846000480B586B09B
:1053500000AF0346FB710023FB75FB7940F2EC5272
:1053600002FB03F3324A13443B6101F0C9F93B6984
:1053700093F8EA35DBB2002B12D13B69012283F8A6
:10538000EA253B6993F8E735DBB2FB81FB893A6993
:1053900040331B01134408331B88002B0CD103E05E
:1053A00001F086F900233FE03B69002283F8EA25FB
:1053B00001F07EF9002337E0FB791D4A40F2EC5101
:1053C00001FB03F313441B780B2B19D13B695B786A
:1053D0001846FB893A6940331B01134404331968AA
:1053E000FB893A6940331B01134408331B881A4672
:1053F00000F05EFA0346002B05D00623FB7502E0A1
:105400000623FB7500E000BF01F052F9FB7D002B85
:1054100009D03B69002283F8EA25064B1B6804216A
:10542000184601F09DF8FB7D18461837BD4680BD33
:10543000284600042446000480B584B000AF78609C
:105440007B6840F2EC5202FB03F3264A1344FB60F4
:10545000FB685B889BB201339BB2FA6819465180A6
:10546000B3F57A7F02D9FB6800225A80FB685B881B
:105470009AB2FB689B889BB29A420DD1FB689B88CD
:105480009BB201339BB2FA6819469180B3F57A7FDB
:1054900002D9FB6800229A8000BFFB6893F8E935C7
:1054A000DBB2002B10D1FB6893F8E935DBB243F097
:1054B0000103DAB2FB6883F8E9250B4B1B68012175
:1054C000184601F04DF809E0FB6893F8E935DBB2C6
:1054D00043F00103DAB2FB6883F8E92500BF103717
:1054E000BD4680BD284600042446000480B584B033
:1054F00000AF78607B6840F2EC5202FB03F32E4A67
:105500001344FB6001F0FCF8FB6893F8E735DBB26D
:10551000FA6840331B011344083300221A80FB68E9
:1055200093F8E735DBB20133DBB2FA68194682F84B
:10553000E7151D2B03D9FB68002283F8E725FB68DC
:10554000002283F8EA2501F0B3F8FB6893F8E73509
:10555000DBB2FA6840331B01134408331B88002B6D
:105560000DD0FB681B78042B0AD0FB681B78052B39
:1055700006D07B68DBB21846FFF7E8FE00E000BF0C
:10558000FB6893F8E935DBB203F00203002B0FD17F
:10559000FB6893F8E935DBB243F00203DAB2FB684B
:1055A00083F8E925054B1B680221184600F0D8FF57
:1055B00000BF1037BD4680BD2846000424460004C5
:1055C00080B584B000AF786001F09AF8494B1B7841
:1055D000DBB2002B40F08780464B01221A7001F0AD
:1055E00067F86CE07B6893F8E635DBB2FB607B68BC
:1055F00093F8E835DBB2002B6ED001F081F87B68C0
:1056000093F8E835DBB2013BDAB27B6883F8E82532
:1056100001F04EF87B6893F8E635DBB20133DBB27C
:105620007A68194682F8E6151D2B03D97B6800229B
:1056300083F8E6257A68FB681B01134403F57F7342
:105640001B68002B17D07A68FB681B01134403F515
:105650007F731B687968FA6812010A4402F5806258
:105660001268104698477A68FB681B01134403F5DB
:105670007F7300221A6001F043F87B6893F8E435E9
:10568000002B10D07B6893F8E435013BDAB27B68DD
:1056900083F8E42501F00CF87B68D3F8E035184670
:1056A00000F0ACFE01E001F003F87B6893F8E6350A
:1056B000DAB27B6893F8E535DBB29A420ED07B68AC
:1056C00093F8E635DBB27A6840331B0113440833A4
:1056D0001B88002B86D002E000BF00E000BF054B16
:1056E00000221A7001E000F0E3FF00BF1037BD4652
:1056F00080BD00BF8C1C010480B483B000AF0346A2
:10570000FB7197F90730002B0BDBFB7903F01F02CD
:10571000064997F907305B09012000FA02F241F8C7
:10572000232000BF0C37BD4680BC704700E100E07D
:1057300080B483B000AF03463960FB7197F907303E
:10574000002B0ADB3B68DAB20C4997F907305201AB
:10575000D2B20B4483F800230AE03B68DAB208496E
:10576000FB7903F00F03043B5201D2B20B441A76CB
:1057700000BF0C37BD4680BC704700BF00E100E0B1
:1057800000ED00E080B588B000AF7860396000239C
:10579000FB617B68012B02D83B68002B02D10123FF
:1057A000FB6151E02B4A7B6852F82330BB612A49E8
:1057B0007B683A6841F823203B680022DA603B6846
:1057C00000229A603B6800225A613B6800221A61FD
:1057D0003B680022DA613B6800229A6107F1080306
:1057E000184604F0F3FC01233B7401237B747B68AF
:1057F0005BB2184605F0D4FE024607F108031946CD
:10580000B86904F0E7FB78682BF0DCFF0821B86981
:105810002BF090FF114A7B68134493F90030104934
:1058200018462CF0ACFB0D4A7B68134493F900300A
:1058300002211846FFF77CFF084A7B68134493F95E
:1058400000301846FFF758FFFB6918462037BD4661
:1058500080BD00BFE8290004444C0004F029000486
:105860008D5A000090B585B000AF78603960002394
:10587000FB607B68012B02D90123FB6010E00B4A1F
:105880007B6852F823407B685BB2184605F088FEBF
:1058900003461A463968204604F0DEFC0346FB60E6
:1058A000FB6818461437BD4690BD00BFE8290004C8
:1058B00080B586B000AFF860B9607A6000237B6184
:1058C000FB68012B05D87B68002B02D0BB68002B3E
:1058D00002D101237B6139E01F4AFB6852F8233073
:1058E0003B6100F00DFF1D4AFB6852F823309B69B5
:1058F000002B04D000F0DCFE02237B6126E000BF19
:1059000038692BF0FBFE034603F01003002BF7D0A1
:10591000124AFB6852F823307A68013A9A610F4ABA
:10592000FB6852F82330BA6801321A61BB681B78F1
:10593000194638692BF02AFF00F0BAFE10213869A9
:105940002BF0E8FE042138692BF0F4FE7B69184641
:105950001837BD4680BD00BFE8290004444C000450
:1059600080B487B000AFF860B9607A6000237B61D3
:10597000FB68012B02D901237B610BE0084AFB681D
:1059800052F82330BA685A60054AFB6852F823304F
:105990007A68DA607B6918461C37BD4680BC704760
:1059A000444C000480B487B000AFF860B9607A60FE
:1059B00000237B61FB68012B02D901237B610BE093
:1059C000084AFB6852F82330BA681A60054AFB6837
:1059D00052F823307A689A607B6918461C37BD46B6
:1059E00080BC7047444C000480B584B000AF786040
:1059F0000B46FB700E4A7B6852F82330FB60FB6855
:105A00001B6803F40073002B0CD0FB78002B04D030
:105A10000821F8682BF08EFE05E00821F8682BF0CD
:105A200099FE00E000BF00BF1037BD4680BD00BF3B
:105A3000E829000480B584B000AF78600023FB60E3
:105A40007B68012B19D80F4A7B6852F823309B6979
:105A5000002B02D00123FB600FE00B4A7B6852F859
:105A6000233018462BF04AFE034603F01003002BA8
:105A70000CBF01230023DBB2FB60FB681846103724
:105A8000BD4680BD444C0004E829000480B58AB0BE
:105A900000AFEFF30583BB60BB68103BFB614FF0C9
:105AA000FF337B6200237B620BE05E4A7B6A134418
:105AB00093F900301A46FB69934206D07B6A0133A2
:105AC0007B627B6A012BF0D900E000BF7B6A012B6F
:105AD00000F2A380544A7B6A52F82330BB61534AD8
