S0200000636869702D6B3332773036312D6C6F636B2D6578616D706C652E686578CE
S2140000000000030481010000B1010000B3010000FC
S214000010B5010000A1020000B901000000000000C8
S214000020000000000000000000000000E16B00007F
S2140000300000000000000000716C0000B56C0000BD
S214000040A5390000AD390000B5390000BD39000003
S214000050C5390000CD390000D5390000DD39000073
S214000060E5390000ED390000F5390000FD390000E3
S214000070053A00000D3A0000153A00001D3A00004F
S214000080253A00002D3A0000353A00003D3A0000BF
S214000090453A00004D3A0000553A00005D3A00002F
S2140000A0653A00006D3A0000753A00007D3A00009F
S2140000B0853A00008D3A00002D230000953A000096
S2140000C09D3A0000A53A0000AD3A0000B53A00009F
S2140000D0BD3A0000C53A0000CD3A0000D53A00000F
S2140000E0DD3A0000752A0600E53A0000FD3A0000F9
S2140000F0257D0700153B00001D3B0000253B00004A
S2140001002D3B00000D620000353B00003D3B00002B
S214000110453B00004D3B0000553B00005D3B0000AA
S214000120A4D5080020050004B8070000D81C000469
S21400013068340100FFFFFFFFFFFFFFFFFFFFFFFF29
S214000140FFFFFFFFFFFFFFFFFFFFFFFFFFFFFFFFBA
S214000150FFFFFFFFFFFFFFFFFFFFFFFFFFFFFFFFAA
S214000160FFFFFFFFFFFFFFFFFFFFFFFFFFFFFFFF9A
S214000170FFFFFFFFFFFFFFFFFFFFFFFFFFFFFFFF8A
S21400018072B607484FF03801016006480068000064
S21400019003D0054909688D46004704480047704764
S2140001A0200200400408004008080040C10100008A
S2140001B0FEE7FEE7FEE7FEE7FEE7FEE7FEE7FEE712
S2140001C070B54FF080450323C5F88032204B7BB9CD
S2140001D0204C214DAC422DD3204DAC4231D34FF0B4
S2140001E0E0231F4AC3F8082D62B605F059FAFEE769
S2140001F01C4B1C6FD3F8B0601B4B04F07F04984771
S214000200402CE5D1194B3340042BE1D10228DFD135
S214000210D5F8083813B1184909688D464FF0E02321
S2140002200F4AC3F8082D124B0BB103F0EBFC04F099
S214000230EFFFFEE7D4E90001A2680C3400F01EF8D8
S214000240C8E754F8080B54F8041C00F020F8C4E77C
S21400025011520000200100002C01000034010000B3
S21400026000000000002001409D0E00030400020074
S214000270053C0000FEE700000808004010B500231B
S214000280934200D310BD1C585C500433F8E700239B
S2140002901A468B4200D370471A500433F9E7FFFF23
S2140002A01EF0040F0CBFEFF30880EFF30980024B3B
S2140002B01946C161704700BF9D8C000010B5054C03
S2140002C0237833B9044B13B10448AFF300800123FD
S2140002D0237010BDD81C0004000000004001000080
S2140002E008B5034B1BB103490348AFF3008008BDB4
S2140002F000000000DC1C0004400100004174007C8B
S21400030009B104F0F5BE04F0F6BE30B400220024B5
S2140003100025C0E90045C0E9022230BCFFF7EEBF69
S21400032073B583680446FBB1C368EBB10F4B19681D
S2140003300B686846DB689847D4E90223617C00298D
S21400034018BF1346D4E90002DDE900651B1842F128
S2140003500002B34272EB050306D281F0010120468B
S214000360FFF7CCFFC4E9006502B070BD04080004C6
S214000370C0E90212FFF7D4BFC0E90211FFF7D0BFF1
S21400038010B5104B5B7833B10F4A01210020BDE851
S21400039010402AF041BD0478022C06D1027981680B
S2140003A00A4800F081FC50B110BD002CFCD1074873
S2140003B000F009FC80F00102D2B22146F0E7044AC0
S2140003C00121E4E7341D000414F707003C1D000477
S2140003D053F7070038B5038848F20502934205D163
S2140003E0037A13B1164B01221A7038BD48F20E027A
S2140003F09342FAD190F90840631C10D1114B93F840
S214000400800028B9104A0121BDE838402AF004BD12
S21400041018462AF0FBFD0D4A01210020F4E7012CC6
S214000420E3D1084B93F880500DB1094AF4E74FF03A
S21400043002003EF0BBFA074A21462846E4E700BF22
S214000440151D000414B000047CF70700A2F707008F
S214000450BDF70700E3F7070038B50D46044668B950
S2140004600B4A01212AF0D8FC204600F09FFD094BDC
S2140004700DB90122DA7002225A7038BD0128F6D171
S2140004800146054A00202AF0C7FC0320EDE700BF1E
S214000490FEF70700341D00041DF807001FB50E48C0
S2140004A000F091FB102380F0010001930DF10F0383
S2140004B08DF80F000093002240230621012009F04A
S2140004C0BDFE034620B1054A012100201FF0CAF9EF
S2140004D005B05DF804FB00BF3C1D00043EF80700B5
S2140004E010B5017801290BD1064A00202AF094FCA9
S2140004F02AF092FB0368BDE81040D3F8C8301847CE
S21400050010BD00BF56F8070038B50379042B24D178
S214000510124B5D7835B1124A01210020BDE8384003
S2140005202AF07ABC0F482AF08BFB044628B10D4807
S21400053029462AF08BFB0C4AEEE7012109482AF0EF
S21400054085FB0A4822464FF6FF713DF0F9FA10B9CE
S214000550074A0121E2E7074ADEE738BD341D0004FA
S21400056073F8070008B00004AEF80700A0E800041F
S214000570C7F80700E0F80700002208B510210A2097
S21400058006F040FE044A106018B9044A01212AF019
S21400059043FC002008BD00BF101D000406F907003C
S2140005A070B5C8B008ACFF22002120467DF000FEE2
S2140005B01C4B186859686A4603C204AE03F1080269
S2140005C0183310685168354603C508329A422E46DD
S2140005D0F7D1154920461FF0E7F8694620461FF078
S2140005E0B3F804A920461FF0C7F84AF6CD312046D6
S2140005F01FF0FDF80F2120461FF086F800210B485B
S2140006002BF083FB94F8FE200848CDE9024202ABAB
S21400061093E806002BF008FC012104482BF075FB3C
S21400062048B070BDB1FB070029F9070080B300048D
S2140006300379032B09D1054B5B7823B1044A0121CA
S21400064000202AF0E9BBFFF7ABBF7047341D00045B
S21400065034F9070037B500240546084800940068BA
S21400066023462246032108F0FFF818B9044A012160
S2140006702AF0D2FBAC7003B030BD00BF381D0004BA
S21400068073F9070073B5124E044630680D4608F03D
S21400069051FA38B100200F4A01212AF0BDFB20464E
S2140006A0FFF7D8FF64230093306800230A22042152
S2140006B0B5FBF2F208F0D8F8012804D0064A01216A
S2140006C000202AF0A9FB0123A37002B070BD00BF72
S2140006D0381D00048BF90700A6F9070038B5037922
S2140006E0012B01D0042B3FD1204CA078A8B1204686
S2140006F0FFF7B0FF00251E48657000F064FA50B1A1
S21400070029461C48FFF701FE1B4A01210020BDE8D0
S21400071038402AF081BB0121F3E7657815B1174A06
S2140007200121F4E7164A284641F2707301212AF0A7
S21400073073FB0123294613486370FFF7E6FD29463D
S2140007400C48FFF7E2FD0F484FF4FA71FFF714FE6E
S21400075008484FF4FA71FFF70FFE204641F2707119
S214000760BDE83840FFF78EBF38BD00BF341D00041B
S2140007703C1D0004181D0004BFF90700DCF9070043
S2140007801DFA0700F81C000407B500230193144B5C
S2140007901868B8B1EFF30583BBB1012301AA06F0D0
S2140007A02DFE18B90F4A01212AF036FB019B4BB1EA
S2140007B04FF0E0234FF08052C3F8042DBFF34F8F65
S2140007C0BFF36F8F03B05DF804FB1A4606F051FDC9
S2140007D00028F7D1034A01212AF01EFBF2E700BFEA
S2140007E0101D000464FA07001FB501284FF000032F
S2140007F08DF800308DF804008DF8051008D1094BEF
S214000800094803936946FFF7BFFF05B05DF804FB90
S214000810022801D1054BF3E703280CBF044B054B18
S214000820EEE700BFDD060000341D00048103000073
S2140008303106000009050000431E032B01D8FFF710
S214000840D3BF7047F8B51C4C1C4EFF25236800220A
S21400085001276BB3002107FA01F018425FFA81FC0A
S2140008600AD023EA000365460122691E0329F0D850
S214000870DFE801F00612161A01312029EBD1F4E761
S21400088002B123600121324600202AF0C5FA012178
S2140008900846FFF7A9FFD9E702B123600221F7E770
S2140008A002B123600321F3E702B123600421EFE7DE
S2140008B002B12360F8BD00BF301D000491FA0700A6
S2140008C0034A01238340106803431360FFF7BABF4F
S2140008D0301D00041FB501238DF800300190044B35
S2140008E0044803936946FFF74FFF05B05DF804FB25
S2140008F0E1040000341D0004CB68084603B1184725
S214000900024A012118462AF087BA00BFA1FA07005A
S2140009100249034800222AF003BD00BF9D040000E0
S214000920D0B0000410B5014670B90A4A01212AF079
S21400093073FA094CE37823B12046FFF7E9FF00235A
S214000940E3700023637010BD0128F2D1034A002033
S214000950EDE700BFD1FA0700341D0004F0FA0700E7
S21400096030B599B040F204430025ADF81030344B52
S214000970069341F2A45241F2AE532946044631484A
S2140009808DF80C503EF0D6FC31F0ECFD2EF048FB16
S2140009904FF002003EF0B6F82046FFF7B9FF2A48AF
S2140009A004F048FB294B00932A4629482346012198
S2140009B007F02CFF274A106018B9274A01212AF0B1
S2140009C02BFA264800F0DAF820B1254A012100204B
S2140009D02AF022FA2148234A234900F0F1F80120A0
S2140009E006F0FAFC18B9214A01212AF015FA00256A
S2140009F03D22294608A807957DF0DAFB2AF00CF977
S214000A0003684122DB6A07A99847044620B1184AC2
S214000A10012128462AF000FA1649174800222AF033
S214000A20CEFB164A07AB012100202AF0F5F900F0AC
S214000A30E1FA134803A9FFF7A7FE204619B030BD18
S214000A400905000020C40004C1080000D508000005
S214000A5011FB0700381D000417FB07003C1D0004AF
S214000A6031FB070025090000590400004DFB070074
S214000A706CFB0700D5030000D0B000047EFB070027
S214000A80341D00047FB52248FFF76AFF20B1214AD3
S214000A90012100202AF0C0F91F4D1D4E1F4C0122D7
S214000AA02868694606F075FD012805D16946304676
S214000AB0FFF722FF0022F3E719482AF008FC50B19E
S214000AC018482AF0C9F8184B003818BF01201870CB
S214000AD013482AF005FC7378012B08D0134B1B78BB
S214000AE063B1322240F2B6312046FFF741FC204681
S214000AF0FFF716FC0E48FFF713FCD0E70A4B1B78EF
S214000B0013B164221146EFE740F2B6323221EBE72A
S214000B10341D00049BFB0700101D0004F81C000495
S214000B20D0B0000408B00004141D0004151D000415
S214000B30181D0004FFF780BE024B00225A709A7000
S214000B40DA707047341D00041FB508F009F8012359
S214000B508DF80030037D019043B1054B05480393A3
S214000B606946FFF711FE05B05DF804FB024BF5E79A
S214000B70F50C0000341D0004590C000013B50C4B96
S214000B80009300220346044601210A4807F03EFE71
S214000B90094A106018B9094A01212AF03DF90020D7
S214000BA00123A37020752073206102B010BD00BF22
S214000BB0490B0000C9FB0700541D0004D1FB0700C9
S214000BC0C0E9011270478078C31E584258417047EA
S214000BD007B500230848009300681A46032107F06B
S214000BE043FE30B9054A012103B05DF804EB2AF054
S214000BF013B903B05DF804FB541D0004EAFB0700BC
S214000C0073B5124E054630680C4607F093FF38B1B0
S214000C1000200F4A01212AF0FFF82846FFF7D8FFE8
S214000C2064230093306800230A220421B4FBF2F206
S214000C3007F01AFE012807D0064A0121002002B05C
S214000C40BDE870402AF0E8B802B070BD541D00043C
S214000C5003FC07001FFC070070B54468A578CDB9F3
S214000C600123A370A3680BB128469847237BBBB12A
S214000C70012D15D123694FF47A7159432046FFF7A9
S214000C80BFFF25752369074A29460020BDE8704046
S214000C902AF0C2B8022D03D10323A3700125E1E791
S214000CA070BD00BF39FC0700F8B58378012B0446F9
S214000CB00F46154603D1012A1AD00020F8BD032B93
S214000CC0FBD1002AF9D11646237D23B11EB926751D
S214000CD02046FFF77DFF4FF4FA612046FFF790FFAE
S214000CE06368A67013B13946284698470120E5E7A1
S214000CF00226E9E738B54468237D6BB1002528460F
S214000D00064A257501212AF087F82A4629462046F4
S214000D10BDE83840FFF7C8BF38BD00BF6FFC07000E
S214000D204368009A062B07D09AB20092094A1B0C19
S214000D3002211D201EF096BD816821B18BB2009362
S214000D40054A0B0CF4E712780448B2FA82F252090C
S214000D50FFF7AABF90FC0700B2FC07003C1D00048A
S214000D600148FFF7D5BD00BF341D000408B507488D
S214000D702AF050FF48B14FF0E0234FF08052C3F8FE
S214000D80042DBFF34F8FBFF36F8F08BD54C0000410
S214000D9008B504F04FFA04F0D5FC002004F008FD76
S214000DA0BDE8084005F08EBA37B52D4B2D4C2E4DBC
S214000DB00193AC4203D254F8043B9847F9E72B481A
S214000DC02B4C01F06BFF2B492B4829F023FBFFF738
S214000DD0DFFF01A9012014F01FFC284A0121002092
S214000DE02AF01AF812F04CF8002108461EF06AFAAB
S214000DF025787DB920462AF019FC00280CBF01236F
S214000E000023237006D01E4A012100202AF004F891
S214000E1003B030BD1B482BF0DAFE08B11A4AF3E7E0
S214000E20184803212BF07EF804460028F0D1174816
S214000E302AF0C2FB18B1164A01212046E6E71548FB
S214000E402AF0A6FE044608B1134ADDE71348FFF76A
S214000E5093FB08B1124AEFE7FFF714FED8E700BF8E
S214000E60240500044C0C0004D40C000400F00840D8
S214000E70C8B00004FDF20100F9F20100D6FC07003C
S214000E80F4FC070080B300041FFD0700D0B0000488
S214000E904FFD070054C0000480FD0700341D000409
S214000EA0B4FD070073B500243048019400F0F4FC4C
S214000EB02F4A304B1360304B5060E02183F80B1301
S214000EC02E482F4902F028FBA04202DA204607F0FF
S214000ED037F82C4E2C4D002433780D2B01D00A2BDE
S214000EE02CD12C44002304F8013C28467DF0C2FB9C
S214000EF02649032228467DF0F7FAE0B92449284619
S214000F007DF025FBB8B9234928467DF020FB90B933
S214000F10214928467DF01BFB68B9204928467DF00C
S214000F2016FB40B91E4928467DF011FBB0B10121E1
S214000F300846FFF7FFFD00243470CDE701AB0F48ED
S214000F400122314602F070FB33782B5501341F2CFA
S214000F50C2D9144802F0F0FE0024BDE71249284624
S214000F607DF0F5FA0028E6D00421E1E7080001004C
S214000F702805000400B0084000E100E0781D0004E9
S214000F80E41D0004C01D0004A01D0004F7FD0700BA
S214000F90FBFD070007FE070015FE07001EFE070004
S214000FA029FE0700DDFD070036FE070008B560B124
S214000FB0032810D04FF0FF320A490B4802F004FB1A
S214000FC0003818BF0120404208BD084905487DF09A
S214000FD07BFA1022F0E7064902487DF075FA1222E5
S214000FE0EAE700BFC11D0004781D000441FE0700AB
S214000FF052FE070007B541F2AC0000F02DFA0C488F
S21400100001F0D4FC0E2001F0D1FC05220023CDE92E
S2140010100023084908484FF4806206F003FD0128C3
S21400102003D0064802F088FEFEE703B05DF804FB36
S2140010300B00010065FE0700A50E000076FE070007
S21400104038B50D461022002104467DF0B1F82B7A03
S2140010502373012B06D1E96804F10800BDE8384087
S21400106000F035B843F2215038BD0346002010B5D5
S2140010700860EFF3108472B65A6801325A6084F33F
S21400108010880B6010BD0346EFF3108272B600683E
S21400109020B182F3108843F222507047196082F321
S2140010A010880B6070470068037B012B02D1083064
S2140010B000F029B843F2215070470068037B012BEB
S2140010C002D1083000F021B843F2215070471FB516
S2140010D0CA7A8DF80A200A7B4B688DF80B200A68BE
S2140010E0CDE900230B89ADF808308B7A8DF80C30EB
S2140010F0694600F00DF843F22153002818BF184641
S21400110005B05DF804FB00F04FB800F03DB8FFFFF7
S21400111030B50C4685B00546684601F0BAFF6368F0
S2140011200093237A012B24D102238DF80430637AAE
S214001130207B5A1E534253418DF80530A37A22680D
S214001140003B18BF01238DF80830E37A003B18BF38
S21400115001238DF809300023ADF80C30094B6946A1
S21400116053F8200001F0E8FF40B9237B2B7005B050
S21400117030BD022B0CBF03230023D6E742F6AF7028
S214001180F5E700BF9CFE070008B5064B007853F84D
S214001190200002F068F8002842F6AF7008BF002072
S2140011A008BD00BF9CFE070008B5044B007853F846
S2140011B0200002F042F8002008BD00BF9CFE070099
S2140011C038B504461B200D4600F0F8FC0023636685
S2140011D029782B7A2A7901294FEA432308BF42F45B
S2140011E0807203F4C063012943EA020301BFEA6880
S2140011F0120302F4E04213432360236F43F001031B
S21400120023672B7833B9EB68226F1B0203F48073D5
S2140012101343236707494FF4967000F067FD4FF4B9
S2140012201F23D3F8803CDA0744BF5B0863670123BB
S214001230E36638BD006CDC024B680A781B0303F4D7
S2140012407C3313430A7A012A4A7A08BF43F4802380
S2140012500AB143F40023CA7A012A8A7A08BF43F007
S21400126080430AB143F0805383607047083150F8DA
S214001270211000291FDAC1F30B1313600068C0F3B6
S2140012804120022813D0032813D0012801D19B083F
S2140012901360C1F301431371C1F381435371C1F36A
S2140012A08363C1F3807193601173012070471B093B
S2140012B0EEE79B09ECE700207047FFFF4FF0804306
S2140012C089B10122DA6403F500330822C3F8A020AE
S2140012D0D3F8A02042F00102C3F8A020036F43F425
S2140012E03E4303677047DB6C012BFBD1054BC3F80D
S2140012F0A010036F23F43E430367036F43F42053A9
S214001300EFE700BF0000024000BA704770B584687F
S214001310A507FCD5002352F8236003F1100501331E
S214001320042B40F82560F6D163070AD5002303F1A5
S214001330180250F8222041F823200133042BF6D15E
S21400134070BD8468F0E78368DA0606D5102343602C
S2140013508368DB07FCD5002343607047182A38B53E
S21400136003460DD0202A21D0102A22D04FF4007236
S21400137042609A68D207FCD500225A60042038BD25
S214001380062401201A6822F4407242EA00221A60FB
S214001390002251F82200FFF7B7FF02F108050132DC
S2140013A0A24243F82500F4D10020E8E708240220F2
S2140013B0E8E704240020E5E7F8B516461A070546D0
S2140013C01C4601D00420F8BD51230370012343803E
S2140013D083689B06F6D5FFF7B6FF0F1926443A1B1F
S2140013E0311B0CB92046EEE72846FFF78FFF103C6E
S2140013F0F5E770B51C4623071BD183689E0618D5F3
S21400140051230370012343808368DD0606D410232E
S21400141043608368DB07FCD5002343600E1915196B
S214001420321B291B0CB9204670BDFFF76FFF103C1E
S214001430F6E70420F8E73F2804D8814208D8401A87
S214001440C0B27047C1F17F03834203D30844F7E775
S2140014500020F5E77F20F3E742F2BD03984222D84A
S21400146042F2A00398420ED841F2A903984212D045
S214001470C0F30B03B12B43D8A72B1BD8A22B47D006
S21400148000283FD17047A0F50252213A012393402D
S214001490394A1342ECD0394AD2F8AC3043F0805384
S2140014A0C2F8AC30E4E743F2A0039842F3D044F22B
S2140014B0A203DBE7A83B092B24D8DFE803F02725A7
S2140014C0232323232305232BDE239A0002F18042C5
S2140014D0116841F08041116050B1C2B2C0F30330D0
S2140014E00138BD2AC0B219D1244A1062002BC9D0D7
S2140014F09B0003F180431A6822F080421A6070470E
S214001500BB2B09D00023E8E7E523DEE7E423DCE78E
S214001510E123DAE7DB23D8E7EA23D6E79100A12A1E
S21400152001F1804111D101280A6806D822F0010293
S2140015300A600A6810430860D8E722F002020A60D0
S2140015400A68023842EA4000F5E7B32AF3D10128D8
S2140015500A6807D842F001020A600A6840F00200F2
S2140015601040E8E742F0020202380A6040000A68CB
S21400157040F00100F4E700BF8100001000000240C8
S21400158000F0F703E02B10B51BD0830003F1804377
S2140015901C6844F080441C60A9B9E82800D110BD3E
S2140015A0800000F180403AB1036843F000530360C6
S2140015B0036823F000530360036823F0804303604E
S2140015C0EDE70029EBD0830003F18043013941F0B9
S2140015D08041E0281960E0D1E1E7FFFF044BD3F833
S2140015E0B80010F0806018BF4FF40040704700BF8E
S2140015F000200140044BD3F8B80010F0007018BF6C
S2140016004FF40040704700BF002001404FF0804379
S214001610D3F884329B0701D5FFF7E0BFFFF7EABF98
S214001620034B186C034B10F4801018BF1846704715
S21400163000200140001BB700034B186C034B10F44E
S214001640001018BF18467047002001400048E80107
S2140016504FF08043D3F88432DB0701D4FFF7ECBFAA
S214001660004870470048E8014FF08043D3F8C43282
S21400167003F00303022B07D0032B07D0012B01D066
S214001680FFF7E6BFFFF7C2BF01487047002070476C
S21400169040420F00034B186C034B10F4800018BF39
S2140016A01846704700200140006CDC024FF0804373
S2140016B0D3F8C03213F0030303D0012B03D000206D
S2140016C07047FFF7C5BFFFF7E5BFFFFF4FF080434A
S2140016D0D3F8803203F00703062B11D8DFE803F0B7
S2140016E00608040A0C100E0006487047FFF798BF5D
S2140016F0FFF78CBFFFF7A0BFFFF7CCBF02487047CD
S214001700002070470048E80140420F0008B5FFF788
S214001710DDFF4FF08043D3F88033DBB20133B0FBFC
S214001720F3F008BD4FF08043D3F8E83203F003032C
S214001730012B04D0022B04D02BB9FFF7C7BFFFF74D
S21400174087BFFFF7A7BF0020704710B54FF0804453
S214001750D4F8A033DBB2FF2B0ED1FFF7E3FFD4F8AB
S214001760A0230146C2F3072202F58072002300027E
S214001770090E7CF0EDFA10BD0020FCE7034B186C58
S214001780034B10F4000018BF1846704700200140B5
S2140017900090D00308B54FF08041D1F8883203F0AE
S2140017A00703013B062B0ED8DFE803F010131E16C6
S2140017B019041C000D48D1F8843303F00F030133DD
S2140017C0B0FBF3F008BDFFF781FFF4E7FFF706FF75
S2140017D0F1E7FFF70FFFEEE7FFF7D0FFEBE7FFF7C6
S2140017E059FFE8E70020E6E70148E4E740420F003B
S2140017F00048E80108B54FF08041D1F8A03203F068
S2140018000703032B03D8DFE803F00B140E110020A8
S214001810D1F8903303F003030133B0FBF3F008BDB7
S214001820FFF754FFF4E7FFF7A9FFF1E7FFF732FFF2
S214001830EEE70148ECE700BF0048E8014FF08043C0
S214001840D3F8A03203F00703032B03D8DFE803F036
S214001850040A060800207047FFF738BFFFF78EBF60
S214001860FFF718BF004870470048E801084B1B6A9E
S21400187003F00303022B05D0032B05D0012B05D064
S214001880FFF724BFFFF7D8BEFFF704BF0148704735
S214001890000002400048E80108B53E4B98420AD8CE
S2140018A0B0F5803F09D2B0F5897F6DD02CD80A28D4
S2140018B05BD016285DD0002025E0A0F580300E28ED
S2140018C0F9D801A353F820F01B19000023190000D3
S2140018D0231900002B19000091190000331900008D
S2140018E0051900003B190000431900004B190000C1
S2140018F053190000B7180000731900005B190000A8
S21400190063190000244808BD6FF4007318440128CA
S214001910D1D8BDE80840FFF7A9BFBDE80840FFF7EB
S214001920D5BEBDE80840FFF7F1BEBDE80840FFF7AA
S21400193055BEBDE80840FFF75DBEBDE80840FFF7AE
S2140019406FBEBDE80840FFF777BEBDE80840FFF76A
S214001950A1BEBDE80840FFF711BFBDE80840FFF78D
S214001960F4BEBDE80840FFF715BFBDE80840FFF726
S21400197041BFFFF779FE4FF08043D3F86C33DBB2FC
S2140019800133B0FBF3F0BEE7BDE80840FFF78EBEBC
S2140019900248B8E70E00010040420F000048E80188
S2140019A0B0F5007F4FEA10230CD3022B14D0A0F51D
S2140019B080300338072831D8DFE800F01D231530C3
S2140019C02B31363B0122C0B202FA00F090334FF0C2
S2140019D0804242F8230070470123C0B203FA00F0A9
S2140019E0164B98617047164AD2F8B83023F0007349
S2140019F0C2F8B8307047124AD2F8B83023F0806385
S214001A00F6E70E4AD2F8AC3023F48003C2F8AC30C6
S214001A1070470B4A136C23F4801313647047084A0C
S214001A20136C23F40013F8E7054A136C23F48003C1
S214001A30F3E7034A136C23F40003EEE700000240CA
S214001A40002001404FF08042D36C43F00103D36482
S214001A507047FFFF2DE9F0414FF41F2348F20102C3
S214001A60D3F8F04CA24359D1D3F8682C03F1957300
S214001A70D2339A4252D9C4F34603C4F3062CACEBD5
S214001A80030CACEB8C02C4F380761344C4F306421A
S214001A90C4F3C654A41AA4EB840515440F688A68D8
S214001AA04968C2EB47024FF0270EC6F101060F3A0F
S214001AB00EFB06224FF4C876C1EB4708052790FBBD
S214001AC0F7F706FB03F03A440CFB02000D21C83082
S214001AD090FBF6F0FFF7AFFCA8F115080246474466
S214001AE006FB05F004FB0700C83090FBF6F0FFF796
S214001AF0A2FC12010E49C30202F4FE6203F47E3316
S214001B00D1F8AC4013430B4A2240134343F0B8636A
S214001B1043F00103C1F8AC30BDE8F0816FF00E056C
S214001B2013246FF00D034FF0140C0026B6E700BF29
S214001B30000002400E007CF808B507F0F7FBBDE891
S214001B40084001460020FFF785BFFFFF084AD2F88D
S214001B50A83040F2FA311940B1F5D57F1FBF23F403
S214001B607E7323F0020343F4D573C2F8A83070479F
S214001B700000024000B9704700BF0138FAE7FFFFD7
S214001B8008B50146FFF7C2FD064BB0FBF3F301FBB9
S214001B9003F0C02804D9BDE808408008FFF7EABF74
S214001BA008BD00BF40420F00034AD2F8B430DB073E
S214001BB0FBD5FFF7E5BF00BF00000240B0F5007F91
S214001BC008B54FEA10230CD3022B14D0A0F58030B2
S214001BD0033807280ED8DFE800F018283A0D484EDC
S214001BE053580122C0B202FA00F088334FF0804208
S214001BF042F8230008BD4FF080420123C0B2D364F0
S214001C0003FA00F0234B5861F4E7234AD2F8B830C1
S214001C1043F08063C2F8B8304FF08042D2F8843286
S214001C2043F00203C2F88432E4E71A4BD3F8AC2040
S214001C305202DFD4D3F8AC2042F00062C3F8AC20E6
S214001C40FFF77AFFBDE80840C820FFF7ADBF124A8D
S214001C50D2F8B83043F00073C2F8B8304FF0804284
S214001C60D2F8843223F00203DCE70B4A136C43F409
S214001C7080131364BEE7084A136C43F40013F8E7B6
S214001C80054A136C43F48003F3E7034A136C43F4EA
S214001C900003EEE700000240002001402DE9F0417D
S214001CA004460E46EFF3108872B60C4F0C4DBB6818
S214001CB0AB4207D00B4A0C4922F0030228467CF0C0
S214001CC04FFABD6004F1100355F8230045F8236071
S214001CD088F31088BFF34F8FBDE8F08100ED00E079
S214001CE000040004200100000000000008B5064AB9
S214001CF00023A0FB01017CF02BF80046A0F10100B8
S214001D000028FBD108BD00BF00093D00054B9842E6
S214001D1006D003F5805398420CBF0120022070477E
S214001D200020704700100240002808DB420901230B
S214001D3000F01F0003FA00F0014B43F82200704742
S214001D4000E100E070B50546FFF7E0FF0B4B0646E6
S214001D5053F820000C46FFF731FF094B53F82600D6
S214001D6000F024FE637822789B0003F00C0302F058
S214001D70030213432B676368EB6070BDACFE07007D
S214001D80B8FE0700F8B51579446901EB410606F17F
S214001D90010C05FA0CF54FF0070C0CFA06FC24EAC9
S214001DA00C042543147AB44025435479023604FAC9
S214001DB006F635434561C46B4F003025BD4024EA26
S214001DC0050594790437BC402C430126D5798E400E
S214001DD08D4024EA06042C43C4630631146840F898
S214001DE021400660137A3BB1FFF790FF034B18566D
S214001DF0BDE8F840FFF798BFF8BD00BFB4FE070087
S214001E002DE9F041134B53F820301E681E60124B2C
S214001E101B5C044653B9114B53F820301B680BB1BA
S214001E2030469847BFF34F8FBDE8F081DFF82C802F
S214001E300025012707FA05F3334206D058F8243068
S214001E4053F825300BB1304698470135062DF1D1B1
S214001E50E8E700BFA4FE0700141E0004181E0004D6
S214001E6008B50020FFF7CCFFBFF34F8F08BD08B5BD
S214001E700120FFF7C5FFBFF34F8F08BD0F23C0F843
S214001E80E83F41F080010223C0F8801003607047ED
S214001E90054A0346002052F8041B8B4203D001304B
S214001EA00728F8D100207047C0FE070070B5054629
S214001EB00C46FFF7EDFF061E28DB174B53F82600EF
S214001EC0FFF77CFE154B53F8260000F06FFD44B17B
S214001ED0042C14D8D5F8F82FE11C01238B401342AC
S214001EE016D0D5F8F83F1B0705D5D5F8F83F03F010
S214001EF00703A3420ED1C5F8F84F002070BD052C8D
S214001F0006D1D5F8F83F13F0800FE9E70420F5E78F
S214001F100320F3E70120F1E7DCFE0700F8FE0700E8
S214001F2038B50C461546FFF7B3FF044B43F8205070
S214001F30034B43F82040BFF34F8F38BD201E0004EC
S214001F403C1E000408B5044A044B11681B6804488C
S214001F509847BFF34F8F08BD201E00043C1E0004A8
S214001F6000B0084008B5044A044B51685B68044852
S214001F709847BFF34F8F08BD201E00043C1E000488
S214001F8000C0084008B5044A044B91689B680448A2
S214001F909847BFF34F8F08BD201E00043C1E000468
S214001FA00030004008B5054A054BD168DB684FF0A5
S214001FB040209847BFF34F8F08BD00BF201E000487
S214001FC03C1E000408B5044A044B11691B6904480A
S214001FD09847BFF34F8F08BD201E00043C1E000428
S214001FE000D0084008B5044A044B51695B690448B0
S214001FF09847BFF34F8F08BD201E00043C1E000408
S21400200000E0084008B5044A044B91699B690448FF
S2140020109847BFF34F8F08BD201E00043C1E0004E7
S2140020200050004010B5012404FA02F21C7824B9CE
S21400203001F5106140F8212010BD5B7833B901F539
S2140020400A6340F8232001F50E61F3E701F5086303
S214002050F7E703465868C207FCD550225A60704717
S21400206000230360836001230370014B43607047C5
S214002070A0860100036803F01E0303607047FFFF9D
S2140020802DE9F0474B00244CB4FBF3F35E00B2FBA3
S214002090F4F5B4FBF6F702367F1AB4FBF6F40C1B25
S2140020A0A74288BF01339C1E072C28D96FF0010871
S2140020B0122708FB01F84F4301EBC10E4FF0000C4E
S2140020C00926B2FBF7FABAF5803FD14628BF4FF48F
S2140020D080390EFB09F4A2EB4404644502D3BCF13C
S2140020E0000F02D14D463346A44644B1BAF5803FB0
S2140020F005D2013E012E4744AEEB010EE1D1023B74
S2140021001A01013D02F0700203F00703ADB213435B
S21400211045614362BDE8F08700127A0070B50D464F
S214002120032104461646FFF7C1FE2B7863B12368E9
S21400213003F01E0343F0010323606968324620461D
S214002140BDE87040FFF79CBF236803F01E03F3E76B
S21400215038B505461446FFF77CFF40F63223984212
S21400216007D004F0010444EA41040223AC620020D4
S2140021702B6238BD08B50146FFF76BFF40F63223E9
S21400218098421EBF04230B62002008BD2DE9F041D3
S21400219005461E468F184FF001088F42284618D174
S2140021A0FFF757FF06F0040600F05003334308D14C
S2140021B004232B622846FFF74CFF40F63223984252
S2140021C00DD0C30609D410F0400008D04FF42360A9
S2140021D005E0FFF73EFFC40603D540F62D20BDE818
S2140021E0F0814206F2D4C0F34204022C08D0033C2D
S2140021F040F62A2040F63123012C88BF1846EEE729
S21400220011F8013BAB62C5F82080C6E770B50446FE
S2140022101546002003F00406FDB12046FFF719FF1F
S21400222010F0500F19D1C0F34202012A08D0033A29
S21400223040F62A2040F63123012A88BF184670BD92
S214002240A36A01F8013B013D01D02262E4E726B90A
S214002250042323622046FFF7FCFEC30606D410F0D4
S214002260400F0CBF00204FF42360E8E740F62D2017
S214002270E5E773B50A6812F0010205460E460DD072
S214002280B379002B37D0012B3ED17269002A3DD09E
S214002290336831692846FFF7B9FF33E0F3680979F8
S2140022A03BB3FFF755FF0446A8B9D6E9020201A9D9
S2140022B0531E002B19DA04232846FFF767FF04464F
S2140022C048B9B279012ADBD131792846FFF740FFB9
S2140022D004460028D4D040F62A239C4202D1284641
S2140022E0FFF748FF204602B070BDC854000A013B05
S2140022F0DFE7B279EAE7726942B1336831692846A6
S214002300FFF744FF0446E6E70024EBE71446E9E758
S2140023100B20FFF753BCC2F3130300EB8100120D32
S214002320835070470B20FFF73BBBFFFF084B094964
S214002330D3F8A42082F48022C3F8A4200A682AB125
S214002340D3F8A4004968C0F380401047704700BF28
S21400235000000240581E000410B1012808D0704743
S214002360064B0322C3F8C820054AC3F8A4207047CA
S214002370024B0222C3F8C820024AF6E700000240D9
S214002380B0B01C0083837C00094B002210B5C3E963
S2140023900022C3E90222074B9842044605D11220C8
S2140023A0FFF70CFC122000F001FB034B236310BD6B
S2140023B0601E00040000014000B66DDB70B501240D
S2140023C08C40C4610462056812F0100F14BF2646E4
S2140023D0002625EA040512F0110F45EA06050560F9
S2140023E014BF8460C4609207034A48BF446142F841
S2140023F0213058BF846170BD601E0004F0B5002413
S214002400147004684768012606FA01F52F4204EAAC
S214002410050402D004B1102616700069284202D0C6
S21400242034B112201070054A52F821201A60F0BD0F
S214002430107801280CBF03200220F3E7601E00047A
S2140024400346806A000E1CBFDA6ADA6270470268CA
S214002450012303FA01F10A42436A02D1194218BF66
S2140024604162704708B50948FFF7EAFF084B1B684A
S21400247001460BB1002098470448016811F001019D
S21400248001D1FFF7E4FFBFF34F8F08BD0000014006
S214002490601E000408B50948FFF7D2FF084B5B68CA
S2140024A001460BB101209847044803689B0702D4F5
S2140024B00121FFF7CCFFBFF34F8F08BD000001409E
S2140024C0601E000408B50948FFF7BAFF084B9B6872
S2140024D001460BB102209847044803685B0702D404
S2140024E00221FFF7B4FFBFF34F8F08BD0000014085
S2140024F0601E000408B50948FFF7A2FF084BDB681A
S21400250001460BB103209847044803681B0702D412
S2140025100321FFF79CFFBFF34F8F08BD000001406B
S214002520601E0004004B1847993E000308B5114B87
S21400253098470346990700F0010048BF40F00200A4
S2140025405A0748BF40F00400190748BF40F008008B
S214002550DA0648BF40F01000990648BF40F0200059
S2140025605A0648BF40F040001B0648BF40F08000B7
S21400257008BD00BFE946000310B59F499F4891F982
S21400258000307F2B03D090F900307F2B13D14FF40F
S2140025901F23D3F8D43C13F0100F03F00F0218BF1C
S2140025A0524213F4007FC3F3431318BF5B4252B288
S2140025B05BB20A700370924A1378092B00F292807D
S2140025C090F900407F2C07D02344092B00F3978016
S2140025D0012BB8BF0123DBB213705378092B00F22E
S2140025E0928090F900407F2C07D02344092B00F3FB
S2140025F09780012BB8BF0123DBB253709378092B69
S21400260000F2928090F900407F2C07D02344092BDB
S21400261000F39780012BB8BF0123DBB29370D37809
S214002620092B00F2928090F900407F2C07D02344BB
S214002630092B00F39780012BB8BF0123DBB2D370C0
S214002640704A1378092B00F2918090F900407F2C95
S21400265007D02344092B00F39680012BB8BF012333
S214002660DBB213705378092B00F2918090F900408A
S2140026707F2C07D02344092B00F39680012BB8BF8C
S2140026800123DBB253709378092B00F2918090F906
S21400269000407F2C07D02344092B00F39680012BA3
S2140026A0B8BF0123DBB29370D378092B00F2918078
S2140026B090F900107F2907D00B44092B00F3968071
S2140026C0012BB8BF0123DBB24D48D370FFF72AFFBA
S2140026D04D4B1B68DB0500F18D80BDE81040484877
S2140026E0FFF720BF91F900407F2C3FF475AF44FA06
S2140026F083F31E2B05DC0A2BB8BF0A236BE70923DE
S2140027006AE71E2368E791F900407F2C3FF475AF17
S21400271044FA83F31E2B05DC0A2BB8BF0A236BE7AB
S21400272009236AE71E2368E791F900407F2C3FF4EF
S21400273075AF44FA83F31E2B05DC0A2BB8BF0A23B9
S2140027406BE709236AE71E2368E791F900407F2CB0
S2140027503FF475AF44FA83F31E2B05DC0A2BB8BF93
S2140027600A236BE709236AE71E2368E791F900400E
S2140027707F2C3FF476AF44FA83F31E2B05DC0A2B3E
S214002780B8BF0A236CE709236BE71E2369E791F9B4
S21400279000407F2C3FF476AF44FA83F31E2B05DC13
S2140027A00A2BB8BF0A236CE709236BE71E2369E7E9
S2140027B091F900407F2C3FF476AF44FA83F31E2B4A
S2140027C005DC0A2BB8BF0A236CE709236BE71E2338
S2140027D069E791F900107F293FF476AF41FA83F359
S2140027E01E2B05DC0A2BB8BF0A236CE709236BE710
S2140027F01E2369E710BD00BF400500045305000412
S2140028004A050004410500040020014010B5044CB0
S21400281023781BB9FFF7B0FE0123237010BD00BF5D
S214002820701E0004F0B54FF41F20204C6168A568A8
S214002830D0F8E02CD0F8E06CD0F8E03CD20802F0FB
S214002840F00725F0007222F44F62750905F4406522
S2140028503A432A4322F470425B0042F0806203F45B
S2140028607043D0F8E05C1343D0F8E02C23F0787384
S214002870C5F3835523F00F03520902F0F0722B4381
S2140028801343D0F8E42CD0F8E40C920921F47841F4
S21400289002F4784221F03F011143C0F34502114390
S2140028A041F460216160A360F0BD00BF00200140DC
S2140028B070B54FF41F211E4844688268D1F8E46C56
S2140028C0D1F8E45CD1F8E43CF60806F0F00622F411
S2140028D04F626D0905F4406532432A4322F4704284
S2140028E05B0042F0C06203F47043D1F8E45C13432B
S2140028F0D1F8E42C23F0F073C5F3835523F00F03CF
S21400290052092B4302F0F0721343D1F8E02CD1F8B1
S214002910E05C920902F47841064A22400A43C5F375
S21400292045010A4342F480224260836070BD00BFC6
S21400293000200140C007F1FF81B20123B0F5003F3F
S2140029404FEA104203FA01F305D3084A53601168B0
S2140029501942FCD07047920002F18042C2F8203142
S214002960D2F800111942FBD0704700BF00000240A9
S21400297081B20123B0F5003F4FEA104203FA01F39B
S21400298006D3094A9360116833EA0101FBD0704709
S214002990920002F18042C2F84031D2F8001133EAC8
S2140029A00101FAD0704700BF0000024008B5FFF7EB
S2140029B0C3FFBDE80840FFF7DBBFFFFF72B6014B61
S2140029C0184700BFA13F0003034628B1002002229B
S2140029D0187058709A70704704207047F8B50D4606
S2140029E0044650B349B38B78013B012B25D8154BD1
S2140029F0D3F8AC305B0222D54FF080464FF4002768
S214002A0040F21310C6F82471FFF7D8F80123C6F871
S214002A104471C6F89C35E36823F0FF03E3602B7827
S214002A206978E2685B0143EA81031343E360E26886
S214002A30AB781343E3600020F8BD0420FCE70120D8
S214002A40FAE700BF0000024073B50B461446064680
S214002A5098B191B18AB1032C94BF254604253268FB
S214002A60019218462A4601A97BF07AFB641B0346AE
S214002A702B44F0D1204602B070BD0420FBE700BA1C
S214002A80704770B50B46990790B004460BD06D465C
S214002A9003F14006186859682A4603C20833B34251
S214002AA01546F7D16B466268D207FCD51A1F04F1AB
S214002AB0200103F11C0052F8045F41F8045B8242D7
S214002AC0F9D120229958A1500432402AFAD110B0E8
S214002AD070BD012A0BD851B148B10020012381F8FE
S214002AE044200864086081F84530886470470420F4
S214002AF070472DE9F84380460C4617461D46B3B18D
S214002B00002A4ED000294CD091F84420012A48D8FB
S214002B108B6C086C2B448B644319402B0AD82A46CE
S214002B20394620447BF01CFB236C2B442364002096
S214002B30BDE8F88391F84530022B08D0002A0CBF78
S214002B4011231223C8F80030022381F84530266C82
S214002B50C6F140094A463946A0197BF001FB2146DA
S214002B604046FFF78EFF4F443544A5F14006B94670
S214002B703D44494609F14009A5EB09033F2B0CD813
S214002B80B1096FF03F0202FB0166324607EB811186
S214002B9020467BF0E5FA2664C9E74046FFF771FF5A
S214002BA0E7E70420C4E72DE9F043064691B00C465B
S214002BB098469146002A6FD000296DD091F844308F
S214002BC0012B69D891F84520012A04D1002B0CBFAF
S214002BD011231223036094F84430002B46D0012BB7
S214002BE014BF002720274022002168467BF0E0FA29
S214002BF0256C372D3CD82A46214668467BF0B0FA2D
S214002C0010AB1D44802305F8403CA06CC000FFF7C5
S214002C1036FF69460F903046FFF733FF73689B0711
S214002C20FCD5B8F1000F06D0D8F80030BB428CBFF8
S214002C30C8F800701F466A46002303F110010133EE
S214002C4056F82100FFF71BFF082B42F8040BF4D1BF
S214002C503A46694648467BF083FA502200212046D1
S214002C607BF0A6FA002011B0BDE8F0831427BAE77F
S214002C703F2D4FF080030CD8681C6355C5F13F020A
S214002C80002120447BF094FA21463046FFF7F9FEF7
S214002C90BBE78DF80030F7E70420E4E740F21B10AE
S214002CA0FEF78CBF40F21B10FEF77ABE00230360CF
S214002CB0436003814FF6FF7303800F238370012365
S214002CC04371C371704738B504460A200D46FEF7B7
S214002CD075FF0A20FFF76AFE1023E361E369DB064F
S214002CE0FCD42B79EA78DB0643EA42532A8813435E
S214002CF0EA7943EA42736A7943EA8273AA7812044D
S214002D0002F470221343AA79D20502F40002134398
S214002D102A7A120702F080521343236038BD0A2035
S214002D20FEF73EBEC369DB0704D51023C361C36943
S214002D30DA06FCD4C3699B07FCD40B888A78C3F3F5
S214002D400D0343EA8233CA7943EA0263CA78D203A0
S214002D5092B213430A79120402F4E02213434A792A
S214002D60D20402F4C01213438A79520502F46002B8
S214002D70134343607047C3699A07FCD40B794A79BA
S214002D801B04D20402F4C01203F4E0231343CA79EE
S214002D9043EA02638A79520502F4600213438361B0
S214002DA0C369DB07FCD5704770B522F003038E07B6
S214002DB00B4D0B440C4608D09C4208D254F8046BCA
S214002DC06E61F9E754F8046B6E619C42FAD31144C5
S214002DD08B4200D370BD13F8012B0275F8E700BFD5
S214002DE000400840022A08D0032A09D0012A01D050
S214002DF041617047C9B20175704789B281827047D8
S214002E00CBB20375C1F307230375C1F30741F2E79D
S214002E10022907D0032908D0012912BF4069007D86
S214002E20C0B27047808A80B27047037D027D007D05
S214002E30000440EA022018437047CBB2090A037523
S214002E4041757047054B984205D003F5805398426C
S214002E5001D1012070470020704700BF00B0084035
S214002E60428C038C92B29BB29A42038C06D9428C57
S214002E70C06992B210FA83F0801A7047408C9BB2F9
S214002E8080B2181A70472DE9F0470B6905460C46C4
S214002E903BBB8E69003E18BF01266768D5F8043E26
S214002EA0003F18BF01279B0716D5D5F8043E43F010
S214002EB00203C5F8043ED5F8003E43F40033C5F8D7
S214002EC0003ED4F82480B8F1000F05D0A36A41F282
S214002ED04D6221462846C0474FF004094FF00008CF
S214002EE055E00126D9E7002E2FD0D5F8043E580627
S214002EF040F1BF802369002B00F08380D5F8302E88
S214002F00E3681A702369013B2361E3680133E360D9
S214002F102369002B73D1A669003E18BF01262369DA
S214002F2093B9A36913B90A23C5F8143ED4F824A0AC
S214002F30022384F82D30BAF1000F05D0A36A41F2BF
S214002F40476221462846D0470FB3D5F8043E990677
S214002F5040F1918023681B78C5F8203E6368013BEA
S214002F606360236801332360D4F804A0BAF1000F2D
S214002F7040F08180C5F8149E676A84F82CA037B1AB
S214002F80A36A41F2466221462846B84757461EB114
S214002F90D5F8043E5A06A8D41FB1D5F8043E9B06C1
S214002FA0A1D4A3694BBB23698BB9D5F8082E94F836
S214002FB02F30C2F303429A4209D0D5F8082E1B04DC
S214002FC003F4702322F470221343C5F8083E2369E5
S214002FD09BB12269D5F8083EC3F3034301339A42F6
S214002FE00BD2D5F8082E2369013B1B0403F470238B
S214002FF022F470221343C5F8083EBDE8F087012688
S2140030008DE7A369002B34D02046FFF729FFE3693C
S214003010013B984207D1666A2EB1A36A41F24C6220
S21400302021462846B0472046FFF71AFFE269531E9E
S21400303098420BD1638C9BB20133934217BF638CCB
S214003040A4F8228001339BB218BF6384D5F8301EE3
S214003050238CA2699BB2D154238CE2699BB20133C4
S214003060934217BF238CA4F8208001339BB218BF6D
S2140030702384012668E7012789E7C1E906230023A0
S2140030800B844B84D0F8103E43F00A03C0F8103E81
S2140030907047002343608360C3604FF4E1330360EE
S2140030A00123837170472DE9F043044600283ED083
S2140030B000293CD0002A3AD003681B050AD50068D0
S2140030C010F4804004D0B2FBF1F1013921620020F7
S2140030D0BDE8F0834FF00A084FF0FF360F2708FBD5
S2140030E002F94FEA011CB6463D46B9FBFCF005382E
S2140030F0B0F5202F05F101030ED2B0FBF8F000FB6F
S2140031000333B2FBF3F3994234BF5B1ACB1A734511
S2140031103EBF06462F469E46013D072DACEB010CF2
S214003120E3D1B6F5803F04D2A7622662CFE704203B
S214003130CEE741F25160CBE770B50D461646044621
S214003140002878D0002976D0002A74D00121FEF716
S214003150ADFE00286AD16B7AD3B1D4F8003E43F0B6
S2140031600113C4F8003ED4F8083E23F47063C4F894
S214003170083E2B7BD4F8082E1B0203F4706313431F
S214003180C4F8083ED4F8083E43F00103C4F8083EED
S2140031902B7AD3B1D4F8003E43F00213C4F8003EB5
S2140031A0D4F8083E23F47023C4F8083E6B7BD4F8AA
S2140031B0082E1B0403F470231343C4F8083ED4F807
S2140031C0083E43F00203C4F8083EEB7AAA7BE9798E
S2140031D05B0243EAC133910201F400610B43297993
S2140031E0090101F030010B436979890101F04001C2
S2140031F00B43A979890001F00C0192030B4302F4FA
S21400320080421343EA7B120302F48052134343F0D6
S21400321001032360296832462046FFF744FF28B999
S214003220AB7A23B1636843F48073636070BD6368F0
S21400323023F48073F9E70420F8E750B149B1D0F8D9
S214003240003EDB0705D50A44914203D183681B077D
S214003250FCD57047D0F8043E9B06FBD511F8013B21
S214003260C0F8203EF0E7002844D0002942D0D0F82D
S214003270003E9B0740D50A44914201D1002070478A
S214003280D0F8043E5B06FBD5836813F4005F06D0D7
S214003290836843F40053836041F24F60704713F431
S2140032A0804F06D0836843F48043836041F25060C9
S2140032B070471B0406D5836843F40043836041F2DD
S2140032C04E607047D0F8043E9B070ED5D0F8003EFF
S2140032D043F40033C0F8003ED0F8043E43F0020347
S2140032E0C0F8043E41F24D607047D0F8303E01F819
S2140032F0013BC1E704207047012070472DE9F843E1
S2140033000C4691469846064680B379B3FFF79AFD79
S21400331030220746002120467AF04AFFC4E9099881
S2140033200223002584F82D3084F82C50D6F8083E69
S2140033301049C3F3034384F82F30D6F8083EC3F38E
S214003340032384F82E3022463046FEF7E9FD0A4B6A
S214003350DB57AB4208DB5909012203F01F0302FAD0
S21400336003F3064A42F82130284600E00420BDE870
S214003370F88300BF872E000014FF070000E100E07E
S21400338010B5C0B1B9B1B2B15368A3B1136893B167
S21400339091F82C40012C10D00B6053684B608B606A
S2140033A0012381F82C30D0F8103E43F00403C0F817
S2140033B0103E002010BD0420FCE741F24460F9E70F
S2140033C02DE9F84317461C468046002860D00029A1
S2140033D05ED0002A5CD05668002E59D01368002BA9
S2140033E056D091F82D20032A54D08D69002D42D056
S2140033F0EFF3108972B60846FFF732FD054618B39C
S214003400B04228BF35460023761B1846B1F822E0A6
S2140034108A691FFA8EFE12F80EE03A6802F803E098
S214003420B1F822C0CA691FFA8CFC0CF1010C944555
S21400343017BF4A8C4884013292B203F1010318BFC9
S2140034404A849D42E2D13EB13B684E612B44CB603C
S21400345003230E6181F82D3089F3108836B94E6A41
S21400346026B18B6A41F247624046B047ACB1256050
S2140034700020BDE8F883CB6003230E614E6181F81F
S2140034802D30D0F8103E43F00803C0F8103EEDE7AC
S2140034900420EEE741F24560EBE72046E9E78B695A
S2140034A043B90823C0F8143ED0F8003E43F4003376
S2140034B0C0F8003E00230B61022381F82D307047D0
S2140034C007B50021019141F247618A4203D101AA62
S2140034D00121D86906E041F246618A4214D1186A91
S2140034E001AA012103F0ECFA58B1019B4BB14FF051
S2140034F0E0234FF08052C3F8042DBFF34F8FBFF385
S2140035006F8F03B05DF804FB41F24C618A42F8D13C
S21400351001AA0221DDE7FFFF30B5154685B0044657
S21400352000284DD000294BD0002A49D01368002B24
S21400353046D05268002A43D0AA68002A40D00360CA
S2140035404162012003F048FFA06138B1012003F07A
S21400355043FF606120B9A06904F0A4F901202DE0C2
S21400356003F086F9206218B9606904F09BF9F2E767
S21400357003F07EF9E06118B9206A03F080FAF3E7F9
S2140035806846FFF786FDAB6800932B7B6A688DF86C
S2140035900430694640F201132068ADF80830FFF7A2
S2140035A0CBFD084A616A20682346FFF7A7FE20681D
S2140035B0616AD5E90423FFF760FD002005B030BD41
S2140035C00420FBE7C134000073B5036805460E46C9
S2140035D014461BB322B329B38069002104F078F89F
S2140035E0E0B1C5E90164696A28682A1DFFF7C8FECC
S2140035F001224FF0FF3311460093286A002303F0A0
S21400360044F9002304461A46A869194603F031FE19
S21400361020B1E04300F0010002B070BD0120FBE7DE
S2140036201046F9E70420F7E72DE9FF411E46036838
S214003630002704460D4690460397002B39D03AB92A
S214003640002E3ED032601546284604B0BDE8F08114
S214003650002938D040694FF0FF3104F039F840B304
S214003660C4E90358616A206803AB04F10C02FFF753
S214003670A7FE4FF0FF330093E0693B46012203218B
S21400368003F003F910F0020515D0616A2068FFF711
S21400369006FFE069012103F080F941F24C6506B1AE
S2140036A03760002360691A46194603F0E2FD0028D9
S2140036B0CAD10125C8E710F0010714BF4746012507
S2140036C0EDE73546C0E70425BEE7FFFFF0B5404905
S2140036D09DF8145030244FF0804604FB0014D6F8B2
S2140036E0207A9E46A3681F43C6F8207ACDB1D6F846
S2140036F0206AE468264214D1302404FB001466696C
S214003700646A2240326030B330235DB34FF08044A9
S21400371003FB0011D4F8202ACB681343C4F8203AE0
S214003720F0BD3024444301EB040C0E59DCF80C7059
S2140037304FF08044C4F83C6AD4F8206A26EA0706AC
S214003740C4F8206ADCF80460D4F83C7A36EA07034A
S214003750D2D100BFF8E74FF08042CEF30803C2F89C
S214003760283AD1E703FB001393F82C2093F92C306A
S214003770002B0CDB02F01F045B090122A240203361
S214003780144C44F82320BFF34F8FBFF36F8F3024C1
S2140037904FF0804304FB0011D3F8202AC868024388
S2140037A0C3F8202A4A68D3F83C0A10420ED091F992
S2140037B02C3091F82C20002BB2DB02F01F010122E6
S2140037C08A405B09034941F82320A9E700BFEAE7DE
S2140037D018FF070000E100E04FF08043D3F8002216
S2140037E0920103D5D3F8F0329B070AD04FF08043FE
S2140037F0D3F8002242F00072C3F800220022C3F879
S214003800F02270473021094A48434FF08043111890
S214003810D3F83C3A1258134205D14A68134214BFF3
S2140038200120002070470220704700BF18FF0700E5
S2140038300D4B302202FB003210B592F82C1092F994
S2140038402C20002A07DB01F01F040121A1405209A9
S214003850064C44F82210302202FB00331A694FF05F
S2140038608043C3F8402A10BD18FF070000E100E0BF
S21400387007B500210091FFF729FF03B05DF804FBB0
S21400388007B5012300930A460023FFF71FFF03B086
S2140038905DF804FB0E4B302202FB003382B0DA697F
S2140038A013680093136801930199009B9942F9D01D
S2140038B000231168019101980099884204BF0133E2
S2140038C0DBB201990091052BF3D1009802B0704746
S2140038D018FF07000B4B302202FB003382B0D8697A
S2140038E00023194602680192019A8A1A012A88BFA3
S2140038F0002303F1010388BF0199042BF2DD019830
S21400390002B0704718FF070030230C4A58431318BC
S21400391011584FF08042C2F83C1A93F82C2093F9C5
S2140039202C30002B08DB02F01F015B0901228A40C5
S2140039306033034941F82320704700BF18FF070093
S21400394000E100E010B4084A30244FF0804104FB48
S2140039500022D1F8203AD26823EA0203C1F8203ABE
S21400396010BCFFF7D1BF00BF18FF070010B40C4B08
S21400397030244FF0804204FB0033D2F8201ADC6873
S2140039805B6821EA0401C2F8201AD2F83C1A33EA2E
S214003990010102D010BCFFF7B7BF00BFF5E700BFBC
S2140039A018FF070008B5FCF765FC08BD08B5FCF76E
S2140039B061FC08BD08B5FCF75DFC08BD08B5FCF762
S2140039C059FC08BD08B5FEF74DFD08BD08B5FEF765
S2140039D061FD08BD08B5FEF775FD08BD08B5FEF724
S2140039E089FD08BD08B5FCF745FC08BD08B5FEF71F
S2140039F037FA08BD08B5FEF73AFA08BD08B5FEF76F
S214003A00A1FA08BD08B5FEF7ADFA08BD08B5FEF781
S214003A10B9FA08BD08B5FEF7C5FA08BD08B5FEF741
S214003A20D1FA08BD08B5FEF7DDFA08BD08B5FCF703
S214003A3021FC08BD08B5FCF71DFC08BD08B5FCF761
S214003A4019FC08BD08B5FCF715FC08BD08B5FCF761
S214003A5011FC08BD08B5FCF70DFC08BD08B5FCF761
S214003A6009FC08BD08B5FCF705FC08BD08B5FCF761
S214003A7001FC08BD08B5FCF7FDFB08BD08B5FCF762
S214003A80F9FB08BD08B5FEF7BDFA08BD08B5FCF79A
S214003A90F1FB08BD08B5FCF7EDFB08BD08B5FCF763
S214003AA0E9FB08BD08B5FCF7E5FB08BD08B5FCF763
S214003AB0E1FB08BD08B5FCF7DDFB08BD08B5FCF763
S214003AC0D9FB08BD08B5FCF7D5FB08BD08B5FCF763
S214003AD0D1FB08BD08B5FCF7CDFB08BD08B5FCF763
S214003AE0C9FB08BD08B5044B13B16DF0B7FE08BDA1
S214003AF0FCF7C0FBFBE700BF5D18070008B5044BEA
S214003B0013B16DF013FF08BDFCF7B4FBFBE700BF75
S214003B102D19070008B5FCF7ADFB08BD08B5FCF786
S214003B20A9FB08BD08B5FCF7A5FB08BD08B5FCF762
S214003B30A1FB08BD08B5FCF79DFB08BD08B5FCF762
S214003B4099FB08BD08B5FCF795FB08BD08B5FCF762
S214003B5091FB08BD08B5FCF78DFB08BD08B5FCF762
S214003B6089FB08BD4FF08042D2F8803203F007038D
S214003B70062B38D8DFE803F0101804292F37350055
S214003B801A4B4FF08042D2F88023D2B20132B3FBF8
S214003B90F2F3174A13607047164B174A1B6C13F460
S214003BA0801318BF1346ECE7D2F8843213F0020FE6
S214003BB0104BD3F8B83005D013F0806318BF4FF41D
S214003BC00043DEE713F00073F8E70A4B074A1B6C66
S214003BD013F40013E5E7074B084A1B6C13F4800345
S214003BE0DFE7074BCDE70023CBE700BF0048E8013F
S214003BF05405000400200140001BB700006CDC02E6
S214003C0040420F0008B5FFF7ADFF0D4AD36823F416
S214003C10E0631B041B0C43F0BF6343F40133D36023
S214003C204FF41F23D3F8D03CDA0707D505494A6C72
S214003C30C3F3460322F07F0213434B6408BD00BF64
S214003C4000ED00E000200140014608B501220348CF
S214003C50FDF733FA003818BF012008BD901E000497
S214003C6010B50A460C4601460448FDF71CFA002823
S214003C700CBF20464FF0FF3010BD00BF8C1E000466
S214003C802DE9F843002506460C4690461F46A946F1
S214003C90BD4201DBBDE8F88321684B1C7F2B04D9AD
S214003CA03046FFF7DDFFC4F80090236806F803806F
S214003CB02368013323600135EAE708B5FFF7C4FF40
S214003CC000280CBF01204FF0FF3008BD30B589B08A
S214003CD0CDE90431012300259A42ADF818508DF83D
S214003CE01A008DF81B308DF81C308DF808201CD17A
S214003CF00F4C04AB1C222946204603937AF058FA50
S214003D00694620462461FDF79BF904F114012069F9
S214003D10FDF7ABF9206904F11801FDF7B4F9054B7E
S214003D2022691A60284609B030BD43F22150FAE7EE
S214003D30781E0004741E00040FB400B5A3B0002162
S214003D407C2203A802917AF033FA094B186850B126
S214003D5025A9084B2498019102AA00F043F80146D1
S214003D6002A8FFF77DFF23B05DF804EB04B07047B0
S214003D70741E0004813C000010B503461446084635
S214003D8039B1013B012B04D81146FFF769FF2046E5
S214003D9010BD4FF0FF34FAE7F7B500230E46154680
S214003DA08DF80730044658B942F201472B1B002B0A
S214003DB005DD0DF10700FFF780FF002805DA0CB9D6
S214003DC04FF0FF34204603B0F0BD9DF80730335562
S214003DD00D2B04F10104E9D827FA03F3DB07F1D42D
S214003DE0E4E7FFFF2DE9F04F8DB00025074690462B
S214003DF099460C4602952E464FF00A0A3A781AB9AA
S214003E0002980DB0BDE8F08F252A3BD0012302A909
S214003E104046C847BB460BF10107EFE70AFB032302
S214003E20303B0F467A78A2F13000092807F10101ED
S214003E30F4D92E2A05D10F4611F8012F303A092A57
S214003E40F9D97A78A2F16200642A07F1010BC0B2B0
S214003E501AD0692A18D002F0DF01462921D0582945
S214003E601FD0132803D86449C140CF0719D4632A4A
S214003E7040F0A38054F8042B0123D2B202A9404696
S214003E80C847C8E70023CDE754F8047B00218DF827
S214003E900C1003AE002F45D130218DF80D100125F2
S214003EA02E44582A52D0782A6BD1002754F8041B87
S214003EB000258DF80C5003AE002949D130218DF82D
S214003EC00D1001252E44132819D84B4921FA00F06D
S214003ED0C10714D56F2A54F8040B54D0622A54D064
S214003EE0702A0CBF10220A2200218DF80C1003AE97
S214003EF000284CD130228DF80D2001252E445B1B66
S214003F00202202A94046C847002E84D037463E46A7
S214003F1017F80129002A3FF47EAF012302A9404684
S214003F20C847F4E74FF0010C3D4697FBFAF70AFB4B
S214003F301755002DB4BFC5F13005303506F80C50C6
S214003F4065460CF1010C002FEED1A9E70127ADE77D
S214003F50002F14BF4FF0410E4FF0610E4FF0010CD2
S214003F60AEF10A0E01F00F05092D94BF30357544E9
S214003F70090906F80C5065460CF1010C0029F1D130
S214003F80A0E701279FE70822AEE70222ACE7002F52
S214003F9014BF4121612101270A398446B0FBF2F0A3
S214003FA002FB10C5092D94BF30356D186245F555D6
S214003FB03D4607F10107F0D9A0E7732A1AD154F855
S214003FC0047B0193002F3FF426AF38467AF084FA3C
S214003FD0019B05461B1A202202A94046C847013FFE
S214003FE017F8012F002A3FF416AF012302A9404616
S214003FF0C847F5E7012341E7016008007FB506469C
S214004000002014460D46FEF7A7F94FF49670FDF70C
S214004010B7FD0948FEF7CAFC01A8FEF721F82846B6
S2140040200296FDF739FC01A902462046FEF776F80F
S214004030606800B204B070BD14000100F0B587B02F
S21400404004460F4616460021102268461D467AF0A2
S214004050AFF869462046CDE90465ADF80470FEF772
S21400406008F9C0B207B0F0BDF0B587B004460F46F9
S21400407016460021102268461D467AF099F801235C
S21400408069462046CDE90465ADF804708DF8063023
S214004090FEF7EFF8C0B207B0F0BD10B50446FDF766
S2140040A0E9FF0120FEF758F9606800B210BDFFFF77
S2140040B038B9054B1A78052A04D118705960184685
S2140040C070470020704700BF5805000410B1017209
S2140040D0002070470120704718B100234360052375
S2140040E00370704738B5FE23437281720446017A26
S2140040F01546022300F109024068FFF79FFF10B142
S2140041000120207038BD217A6068012304F11A026C
S214004110FFF7AAFF18B1022323700120F2E7A37E5F
S2140041202B70EFE7F8B517460246044602F8091F5B
S2140041301D46017A40680123FFF780FF10B1012079
S2140041402070F8BD04F11A06217A60681023324602
S214004150FFF78AFF18B1022323700120F1E7102D24
S21400416028BF1025A84201D30020EAE716F8013B35
S2140041703B540130F6E72DE9F84F98460378052BB7
S21400418006468A46914635D0834600240BF81A4BDD
S21400419044452CD20AEB0405C5F3071105F00F05BC
S2140041A0C5F11007A8EB04039F42A8BF1F46FFB245
S2140041B00F2F14D800231A463046FFF7B3FFB0B9C6
S2140041C009EB0403874202D83C44A4B2E0E70F2D73
S2140041D09CBF1BF805201A5401350130F2E7102366
S2140041E009EB04023046FFF79DFF0028ECD030783C
S2140041F0BDE8F88F0120FBE773B5102B0D466FF076
S21400420009064FF000018DF807100446457228BFD6
S2140042101023013A00F10A01361A7018834214D8A6
S21400422003F10A00C3F11002002154FA80F079F07D
S214004230BFFF217A6068112304F10902FFF7FEFE32
S21400424040B10120207002B070BD12F8010F01F8D5
S214004250010BE2E70835EDB2032D01D82078F2E72E
S2140042600325052000F05EF80DF107020621204622
S214004270FFF738FF0028F1D1013D04D09DF8073044
S2140042809B07EED4EAE703232370E7E72DE9F74F11
S21400429098460378052B06468B46914640D08246C4
S2140042A000240AF81A4B444517D20BEB0405C5F355
S2140042B0071105F00F05C5F11007A8EB04039F4290
S2140042C0A8BF1F46FFB20F2F26D800231A46304637
S2140042D00191FFF727FF019918B1307803B0BDE8C8
S2140042E0F08F11B90DB1337AB376002309EB0402CF
S2140042F09F4209D8102352463046FFF77DFF00281C
S214004300EBD13C44A4B2CEE70F2D9CBFD05C0AF89C
S214004310050001330135EBE7102309EB0402EBE758
S2140043200120DBE701F0AFB87047FFFF08B5014694
S2140043300348FFF701FDBDE80840FEF73FBB00BF9E
S21400434078FF070010B5044602F07EFA20B14EF062
S21400435087FC4EF089FC04462046BDE810406DF010
S214004360CDBB08B56DF0ECFB08BD08B500206DF0C0
S214004370BFFBC31E5842584108BDFFFF38B50E4B61
S21400438003600E4B0E4D436004460E4B8360C560C3
S21400439000F03BFFE368286001221A71E268137997
S2140043A043F00803137101F0CDF9E068BDE838402A
S2140043B0083001F0E5B900BF98FF0700DCFF0700F2
S2140043C0981E000484050004084B1B689A060BD54B
S2140043D013F4006F40F6480344F290224FF0FB01BE
S2140043E008BF1A4663F095B8704700BF6C380004E3
S2140043F010B50378012B8EB074D00B2B6AD0002B2F
S21400440066D14E4A4168116002A80DF10701CDE958
S2140044100233CDE904338DF8073004F083FE9DF8AF
S2140044200710002954D04B1E0EAA1344444C13F810
S214004430302C013203F8302C02A806AA01F0FEFB4D
S2140044402278606806A900F0D1FA9DF807100EAA37
S2140044504B1E134402A813F8302C013203F8302CFC
S21400446006AA01F0EBFBA068102206A900F0BEFA2F
S2140044709DF807100EAA4B1E134402A813F8302C02
S214004480013203F8302C06AA01F0D8FBE0681022AF
S21400449006A900F0ABFA9DF807100EAA4B1E1344AF
S2140044A002A813F8302C013203F8302C06AA01F0CB
S2140044B0C5FB20469DF8183020F8183F022206A9B2
S2140044C000F094FA227C60690DF11A0100F08EFA71
S2140044D00EB010BD011D1B4806220EB0BDE81040F0
S2140044E000F084BA8388B3F5D37F0AD01BD8082B94
S2140044F00ED8062BECD900231A461946184601F0AA
S2140045001FF900231A461946184601F019F90DE05E
S2140045100A2BDDD100231A46194618460EB0BDE810
S214004520104001F00DB9B3F5816FD1D100231A46C2
S2140045301946184601F004F9ECE700BF6C38000491
S214004540980800047038000410B50B78044613B1C0
S214004550012B08D010BD012162F0B7FF2046BDE850
S2140045601040FFF731BFBDE81040052162F088BE5D
S21400457062F03EBF012108B50822084660F08CFEB6
S21400458008B1002008BD58220121022060F084FEF8
S2140045900028F6D128220121032060F07DFE0028A5
S2140045A0EFD104220121104660F076FEB0FA80F0CA
S2140045B04009E7E708B594220121052060F06CFE6B
S2140045C020B9034860F062FE012008BD0020FCE729
S2140045D0F8050004EFF3108372B6EFF31182027051
S2140045E0602282F3128883F310887047037883F37F
S2140045F0118870474FF41F23D3F8600C47F62953F1
S21400460020F07040984226D016D842F246339842A0
S21400461023D00AD841F24443984220D041F2454381
S214004620984214BFFF200720704742F28233984218
S21400463014BFFF200520704747F62B53984210D032
S21400464047F63D5398420ED047F62A53984214BF79
S214004650FF20002070470320704704207047062084
S21400466070470120704702207047FFFF014902484B
S214004670FEF758BBCC0600040040084008B50849C1
S2140046800848FEF74FFB074AD3699B06FCD5064B46
S214004690044893F82010BDE80840FEF7B9BB00BFF9
S2140046A0AC060004004008408C06000408B5094922
S2140046B00948FEF737FB084AD3699B06FCD5074B2B
S2140046C0054893F86810FEF7A3FBBDE808401520E0
S2140046D0FDF756BAF4060004004008408C060004B5
S2140046E0F0B5404C236885B04BB9012000F0D5FEEC
S2140046F00346206018B93C49024601F021F83B4EBB
S2140047003478002C6CD1CDE90144ADF80C4004F0AF
S2140047106DFB01A8FEF7CAFAFFF76CFF344D354F64
S214004720012808BF8DF80C0001A93248FEF7CBFA25
S214004730FFF79CFF2A686FF07F439A422AD1FFF763
S214004740B5FF2D493846FEF7EDFAFB699A06FCD50B
S2140047502A4B284893F85810FEF75AFB0123286086
S2140047602A6827498A4229D026498A4214D02148F5
S214004770FEF7D5FA4FF080434FF48062C3F820224C
S21400478004F016FC0424FFF779FFC307FBD4204689
S21400479005B0F0BD0023E3E70BB9FFF787FF174925
S2140047A01448022321F8483FFEF7BCFA11484FF49C
S2140047B00071FEF742FB01233370E4E712490D480F
S2140047C0FEF7B0FA9DF80C300A48002B0B4B08BFDA
S2140047D0402193F8482018BF0021FEF703FBEAE7C4
S2140047E00024D4E7483B0004E1460000463B0004B2
S2140047F0FC06000400400840E40600048C060004A2
S214004800C22814000B401400D406000438B5114D1D
S2140048102B78E3B1104C4FF0FF31206800F049FED2
S2140048200E490F48FEF77EFA0D48FEF778FA4FF06D
S21400483080434FF48062C3F8202204F0B9FB0023C3
S21400484020682B7000F04AFE206800F02AFE002048
S21400485038BD00BF463B0004483B0004EC0600049D
S2140048600040084070B5174E04460D4630684FF0BD
S214004870FF3100F01EFEFFF701FFC307FBD4FFF772
S214004880F5FEB5F5004F0AD0B5F5803F16D0B5F564
S214004890805F15D0306800F021FE042070BD06232E
S2140048A009480A4904F18054846001EBC301FEF70D
S2140048B039FA306800F012FE0020EFE70A23EFE72F
S2140048C00523EDE7483B0004004008408C06000442
S2140048D02DE9F041DFF85C8007460C46D8F800006A
S2140048E04FF0FF31164600F0E4FDFFF7C7FEC307A2
S2140048F0FBD4114D04F18054AC60FFF77BFE012819
S2140049000CBF0E490E492846FEF735FA3A462146B0
S214004910304600F06BF81023EB61074BDC6914F0AF
S2140049201004FBD1D8F8000000F0D8FD2046BDE802
S214004930F08100BF483B0004004008408C0600049D
S2140049409C060004F8B5154F05460C4638684FF02F
S214004950FF31164600F0ADFDFFF790FEC307FBD40F
S214004960FFF784FE0E4A0F4904F180549460FFF767
S21400497041FEABB201280CBF21F8083F21F8183FD2
S2140049801046FEF7CFF906482A463146FEF70CFADF
S2140049903868BDE8F84000F0A1BD00BF483B000401
S2140049A0004008408C0600042DE9F0410D461646EE
S2140049B0044670B90020BDE8F081C7F5807832461D
S2140049C029464046FFF7BEFFA7F580773C4445449E
S2140049D0464454FA85F3FF2BEFB2EED8002CE9D00C
S2140049E0324629462046FFF7ADFFE3E70139024489
S2140049F0904200D1704711F8013F00F8013BF7E7FD
S214004A0042B1531E18440A4411F8013B00F801391C
S214004A109142F9D1704710B501390244904201D154
S214004A20012010BD047811F8013F9C4201D10130ED
S214004A30F4E70020F5E70244824201D101207047E6
S214004A4012F8013D8B42F7D00020704779F0B0BBDA
S214004A500028ACBF00F16040064B4FEA4111ACBFE6
S214004A6000F5614000F00F00C9B2B4BF195480F8D9
S214004A700013704714ED00E0F0B4EFF30582104B1E
S214004A801049114E1C88103A52B200230D460127D9
S214004A909C4201D8F0BC7047C87AD6F824C007FA02
S214004AA000F010EA0C0F08D091F90800904204D1EB
S214004AB00C225343EB58F0BC184701330C31E7E7A0
S214004AC0883B0004583B00040000014037B50C4604
S214004AD01546B0B9152914D8032A03D902F0FD03E8
S214004AE0102B0ED11348FDF713FC1249002303F1D7
S214004AF0300251F82220D2B2A24208D00133042B51
S214004B00F5D10C4803B0BDE83040FDF70BBCDCB275
S214004B10094801AB0DF103022146FDF76FFC9DF835
S214004B200330AB42EDD0019B03482A462146FDF7F1
S214004B3045FCE6E700E000400000014010B5162303
S214004B40064C03FB0011D20054F8213002F0180284
S214004B5023F018031A4344F8212010BD00F000404B
S214004B6010B51623064C03FB001102F0070254F89A
S214004B70213023F007031A4344F8212010BD00BF5C
S214004B8000F0004001790148FDF761BC00000140DB
S214004B9010B5064C4378012101FA03F2236813EAA4
S214004BA002001EBF93432360084610BD503B00041E
S214004BB0034B00795B6A23FA00F000F001007047AF
S214004BC0000001404178037801228A4003F508631B
S214004BD0014941F8232070470000084041780378D7
S214004BE001228A4003F50A63014941F823207047F1
S214004BF0000008404178037801228A4003F50C63E0
S214004C00014941F8232070470000084003784278A5
S214004C1016214B4303F1804303F50023985C70474D
S214004C202DE9F34100250E468DF80450044658B190
S214004C30DFF8BC802F4F103456B9B6FA86F46409F4
S214004C4015B12D48FDF76EFB204602B0BDE8F08199
S214004C5014F80F1C14F8100C1529EED80028ECD107
S214004C6014F80E2CFF2AE8D014F80D3C1F2BE4D8BD
S214004C70FFF764FF024614F80F1C14F8100CFFF739
S214004C806FFF01AB14F80F2C14F8101C4046FDF70C
S214004C90C9F914F80D3C43B315B91748FDF738FBAE
S214004CA03B7813B91548FDF76FFB14F80F2C14F872
S214004CB00C1C114802F14062FDF72DFB3B7814F8FE
S214004CC00D2C14F80F1C14F8100C01333B70FFF772
S214004CD0FDFE14F8043C01353BB114F80F1C084ADD
S214004CE001238B4011680B431360013E1034A3E789
S214004CF0000008404C3B000400E00040000001407B
S214004D00543B00042DE9F04F1E4685B01B780093F7
S214004D10904633794E4ADFF83CB1D45673784E4A03
S214004D20BBF8007001914FF0010A0AFA03FA8146B7
S214004D3000251346AF4205D8032F22D9012005B01F
S214004D40BDE8F08F1168494518D1517A0098814224
S214004D5014D1917A0198814210D1516851450DD1F4
S214004D600C2202FB0533002C5A6842EA0A025A60FB
S214004D7048DA3A4B04F00F029B5C49E001350C32EE
S214004D80D8E700F059FCBBF80020334B974208D018
S214004D904FF00C0C15460CFB023CAF42ACF10C0C71
S214004DA028D30C225743DA1943F80790019B9372D5
S214004DB0009B5372C2F804A014723379D372002396
S214004DC0274803930DF10B0203ABE9B2FDF716FB80
S214004DD0F278317922484B46FDF7F0FABBF80030FE
S214004DE00133ABF8003000F01DFC14F1800F19D130
S214004DF00020A4E79CE807000CF10C0E8EE80700E4
S214004E00013DCAE704F1604303F5614393F80033BC
S214004E105B09B3EB581F4FEA5811E9D92046FFF754
S214004E2017FEE5E70F49204600F036FC002C0CDBA9
S214004E3004F01F0301229A4063099B0003F16043BC
S214004E4003F56143C3F880211A604FEA5811E5E77D
S214004E5048000800883B0004583B000414ED00E0BE
S214004E6000000140794A000038B5074C002521783B
S214004E70012902D16068FFF7D3FE0135042D04F145
S214004E800804F4D138BD00BF8C3B000410B50A4BB3
S214004E9003EBC0035C682046FFF78AFE20B120467D
S214004EA0FFF770FE012010BD2046FFF771FE0038A8
S214004EB018BF0120F7E700BF8C3B0004034B044AF1
S214004EC01B783221184601F0E1BB00BF0007000442
S214004ED0354F000070B500240A4E254616F83530CA
S214004EE0012B05D12846FFF7D1FF08B10134E4B203
S214004EF00135042DF2D11CB1BDE87040FFF7DEBFCE
S214004F0070BD00BF8C3B0004F8B50024084D274652
S214004F102E78012E05D16868FFF778FE08B9A640FE
S214004F2037430134042C05F10805F1D13846F8BDA5
S214004F308C3B00042DE9F041374D2C78012C2AD00B
S214004F40022C5AD02CBB354FDFF8D480FF23D8F87C
S214004F5000603B70FFF7D8FF397846EA0003224628
S214004F60012000FA02F61E4203D0FF2904BFD1B288
S214004F7001240132042AF4D104B1397029490022EF
S214004F80C8F800200B60002B40D001232B70264B66
S214004F901A60BDE8F081FFF7B7FFC6071DD481078A
S214004FA01DD442071DD403071DD50323DBB21B4ABD
S214004FB010781B4A98424FF000011B4B116014D02A
S214004FC01B68132B14D8FF2804D0184B20441B68EA
S214004FD0C0B2984702232B70DBE70023E6E72346A0
S214004FE0E4E70223E2E7FF23E1E71A680132CFE7AE
S214004FF0A02B34BF05240924E5E7FFF785FF094BFE
S2140050001B680BB10028C4D100232B70084BBDE8E9
S214005010F041187801F0B0B9AD3B0004C03B000485
S214005020B83B0004B43B0004B03B0004BC3B0004A7
S2140050300007000470B538B3154B164C186001F025
S21400504071F9154B154E1870154B636003F110017E
S2140050500122E16003F120013033227022722274B3
S21400506061612276E361FFF7FFFE00252378012BBE
S21400507005D1636880220F213046FFF743FE0135D5
S214005080042D04F10804F1D1064B01221A7070BDFC
S214005090BC3B00048C3B000400070004D54E000017
S2140050A024010800AC3B0004042905D0052905D0DE
S2140050B0032905D1FFF786BDFFF790BDFFF79ABD20
S2140050C07047FFFFC20738B504460D4602D50648AE
S2140050D0FFF7EAFFA30705D529460448BDE8384090
S2140050E0FFF7E2BF38BD00BF640108006901080091
S2140050F00321FFF7E7BF0421FFF7E4BF0023C0E961
S214005100003341810381704770B504460D4600F0B8
S21400511093FA628923892AB1934203D100F082FA76
S214005120012070BD6BB9256063686B6000262E6039
S214005130AC60238965600133238100F073FA304642
S214005140EFE763681D60EFE770B504460D4600F0B4
S21400515073FA628923892AB1934203D100F062FA76
S214005160012070BD6BB96560002623682B60C5E919
S2140051700164238925600133238100F053FA304609
S214005180EFE723685D60EFE738B5044600F054FAB1
S2140051900CB1238923B900F045FA0025284638BD0E
S2140051A0013B9BB2256823813BB963602B68236073
S2140051B00023AB6000F036FAF0E72B6800225A6056
S2140051C0F4E738B583680446EBB100F035FA636857
S2140051D013B9A36822681A60236813B9D4E90123B7
S2140051E05A6063680BB122681A6023680BB1626864
S2140051F05A60A26813890025013B1381A56000F060
S21400520011FA284638BD0320FCE700207047FFFF50
S21400521072B6022080F314880148012100F002B81B
S214005220C43B0004B0E8F05FE546080008BF012074
S214005230704700BF2DE9F041DFF85880164F174C35
S214005240174E0023A8F80030758820462946FFF739
S21400525055FF4DB93388E381B38823823389A38110
S214005260ABB114340836EFE739462046FFF74CFF5B
S214005270A37CFC600133A374B8F800300133A8F8AF
S21400528000303388013D10331F44ADB2E1E72846B5
S214005290BDE8F081EC3B0004F03B000450500004F5
S2140052A00207000470B50E46054600F0C5F9134C1B
S2140052B0B6B2CDB1E389AB421BD3238AB34218D131
S2140052C02046FFF761FF60B10D4A1388013B13804B
S2140052D0E37C013300F11005E37400F0A3F92846DF
S2140052E070BDA389AB4203D200F09CF90025F6E717
S2140052F01D46A389002BF7D01434DAE7505000047B
S214005300EC3B000470B5044698B1154BA0F11006AE
S2140053109E420ED303F5A3539E420AD800F08CF9A2
S21400532054F8045C0F4B9D4207D09A891AB900F0D6
S21400533079F9032013E01433F5E754F8084C002CF1
S214005340F5D1094A13883146013328461380FFF702
S214005350DBFEEB7C013BEB7400F064F9204670BD8D
S214005360F03B000450500004EC3B00041039FFF7FB
S214005370CBBE1039FFF7E8BE08B5FFF705FF00B152
S214005380103008BD10B5044600F056F9246804B184
S214005390103400F047F9204610BD10B5044600F062
S2140053A04BF954F8104C04B1103400F03BF9204689
S2140053B010BD1038FFF705BF00B5724600215DF836
S2140053C004EBFFF76FBF08B1FFF79CBF03207047E1
S2140053D008B5FBF7E9FCFEE7074A034605209342BB
S2140053E004D11868003818BF01207047013802F150
S2140053F00C02F4D1704700BFB850000437B5002443
S21400540005460194FFF7E8FF78B1A86868B1EFF3A6
S2140054100585DDB101AA01F053FB012807D00E492E
S21400542023462246204600F08BF9012011E0019B1E
S214005430012B09D14FF0E0234FF08052C3F8042D22
S214005440BFF34F8FBFF36F8F204602E001F0D2FA12
S214005450284603B030BD00BFFD5300001FB50B4605
S21400546003A9C26801914468C4F1060400948169E6
S2140054700068C2F38F0202F0D5FA01280CBF039829
S214005480002004B010BD6423584300F2E7304FF408
S2140054907A73B0FBF3F002F0F5BC0146FF2001F092
S2140054A0CABE08B518B102F0FDF9002008BD0120FB
S2140054B0FCE708B580B14B1C07D06423594301F5BF
S2140054C0FA714FF47A73B1FBF3F102F001F9002898
S2140054D00CBF0220002008BD0120FCE713B508B36E
S2140054E0EFF30583B3B1002401A9019401F0F2FFA4
S2140054F0012817D1019B012B09D14FF0E0234FF073
S2140055008052C3F8042DBFF34F8FBFF36F8F204632
S21400551002B010BD1A46194601F0ABFE013818BF9E
S2140055200120F5E70120F3E770B50C46054608B9FB
S214005530012070BD01F072FE064602F0C1FE8642F2
S214005540F6D0631C07D064214C4304F5FA744FF47C
S2140055507A71B4FBF1F42146284602F0B9F8002827
S2140055600CBF02200020E4E738B5044608B9012045
S21400557038BD01F053FE054602F0A2FE8542F6D184
S21400558000231A461946204601F073FE013818BF5C
S2140055900120EDE710B50446FFF71EFF58B1A068DE
S2140055A048B1EFF305841CB101F01CFA002010BDD1
S2140055B001F0F3F9FAE70120F9E72DE9F341DDF808
S2140055C02080064617461D46FFF706FFF0B1B06876
S2140055D021F07F44D0B132796B1C1CBF0A23B5FB87
S2140055E0F3F5003A214600953B4618BF012201F02C
S2140055F04CF90440B8F1000F01D0C8F80040002C68
S21400560014BF0020022002B0BDE8F0810120FAE7B6
S214005610034A13681BB1013B136003B962B67047B7
S214005620B4500004FFF7F4BF72B6024A13680133A1
S21400563013607047B4500004FFF7F6BF38B5154C3A
S214005640FFF7F2FF0546052322685AB901232360B7
S214005650FFF7DEFF24B101F00BF9A06040B1257121
S214005660204638BD013B04F10C04EDD11C46EFE7A3
S214005670FFF7DAFF074A0523944205D1002323608B
S214005680FFF7C6FF0024EBE7013B02F10C02F3D163
S214005690F6E700BFB850000440B2FCF7FFBA704708
S2140056A008B503F0A5FE00210348FFF7D7FE02F079
S2140056B099FA002008BD00BF3407000470B50D46F7
S2140056C01646044648B9084601F0CAFB044620B10F
S2140056D01EB12A460021FFF7B9F9204670BDFFFF2C
S2140056E037B5134D2A7802BB124B019301993F2917
S2140056F018D1114B1148C01AB0FBF1F0B3FBF0F013
S21400570080B26CF009FB044638B1444200231A46C6
S2140057101946184600F014F801E001232B702046C5
S21400572003B030BD4FF0FF34F0E70024F7E700BFCA
S214005730F45000043F00000000100C0000001000B1
S2140057407047FFFF13B56846FDF73EF90B486946FC
S214005750FDF744F910B1012002B010BD042207483D
S2140057600DEB0201FDF770F904460028F3D101980D
S21400577001306FF047FA2046EEE700BF00D0004049
S21400578008B5014638B105480422FDF75DF9003832
S21400579018BF012008BD8020FCE700BF00D00040F5
S2140057A010B5044610B16FF037FA206010BDFFFF49
S2140057B010B5002488B01C22214601A8009478F079
S2140057C0F7FC084B01221A600DEB04000434FFF7C7
S2140057D0E7FF202CF8D1044822466946FFF706F971
S2140057E008B010BD54070004F85000042DE9F0413D
S2140057F088B0804614460E4620220021684678F07F
S214005800D7FC224A0CB101231360136820498B424F
S21400581038D001331F4F13605CB3631E38466946A9
S2140058201F3413F8015F10F8012BA3422A4401F835
S214005830012BF6D16A466846202100F0FFF93B6846
S214005840144A01333B6068460823116850F8044B3D
S214005850013B214442F8041BF7D1202EA8BF202686
S21400586032466946404678F07BFC304608B0BDE8D4
S214005870F0813D460FCD6C460FC495E80F0084E8D6
S2140058800F00D7E74FF0FF36EFE700BF54070004DE
S214005890A0860100F850000437B5054601A80C465E
S2140058A0FFF77EFF0198611BB0FBF1F301FB1300CD
S2140058B0284403B030BD10B500F1100210310023AB
