:1000000060FDFF1F1521000057190000FB210000B3
:1000100000000000000000000000000000000000E0
:1000200000000000000000000000000007220000A7
:1000300000000000000000006123000063230000B6
:1000400001230000092300001123000019230000F0
:1000500059230000592300005923000059230000B0
:10006000F30D0000212300002923000031230000AC
:1000700039230000412300004923000059230000D8
:100080005923000059230000592300005923000080
:100090005923000059230000592300005123000078
:1000A0005923000059230000592300005923000060
:1000B0005923000059230000592300005923000050
:1000C00070B506000D00140023002A00310002481C
:1000D00000F0A4FC00BEFDE7E8200000704701002E
:1000E000431C0178401C0942FBD1C01A7047070528
:1000F00000B51300DBB2002B03D101238B408360DA
:1001000002E001238B40436000BD70B504000E0087
:100110001500002D06D14B220C490D48FFF7D0FFEA
:1001200000BF00BF2878002805D160690121B140D7
:100130008843606109E06A7831002000FFF7D8FF4A
:1001400060690121B1400143616170BDB81E0000CA
:10015000E0220000070500000050044009FF1E00D7
:100160000000000000000000005004400AFF1E00D4
:100170000000000000000000005004400DFF1900C6
:1001800000000000000000000050044008FF1900BB
:100190000000000000000000005004400FFF1900A4
:1001A0000000000000000000005004400EFF190095
:1001B00000000000000000000050044007FF19008C
:1001C00000000000000000000050044000FF190083
:1001D00000000000000000000050044002FF190071
:1001E00000000000000000000050044006FF1E0058
:1001F00000000000000000000050044005FF1E0049
:10020000000000000000000000500440FFFFFF005D
:10021000000000000000000000F8FF1F00000000C8
:100220000080000000093D0000004001EECCFF000E
:10040000FFFFFFFFFFFFFFFFFFFFFFFFFEFFFFFFFD
:1004100067490968674A0A408104C0231B030B40EF
:10042000134363490B60704763490968634A0A4094
:10043000010480235B02194011435F4A1160704739
:1004400080B58A480068002806D1E1225C495D48F1
:10045000FFF736FE00BF00BF8448006802BD38B514
:10046000FFF7EEFF002826D057490978C9B2C9081E
:100470004C07640FE04084490978C9B209098D0727
:10048000AD0F2900C9B2002915D02100C9B2002939
:10049000052904D9891F04D0491E06D009E0400966
:1004A00009E0142100F063FA05E00C2100F05FFA86
:1004B00001E00021080032BD00B574480078C00793
:1004C00002D47348006808E07248006872490978ED
:1004D000C9B249084907490FC84000BD80B56B48FB
:1004E0000078C0B20100C906C90F002902D1FFF788
:1004F000B6FF01E06648006802BD80B5FFF7A0FFC7
:1005000002BD80B57348007800060ED557480068D4
:10051000002807D1AA22520029492A48FFF7D0FD16
:1005200000BF00BF5148006800E0002002BD80B558
:100530001F480068800C8007800F002804D0022824
:100540000DD003281AD01CE0FFF7DBFF8021090241
:10055000884202D18020000200E0002012E07548AD
:100560000068002807D1B422520015497248FFF7ED
:10057000A7FD00BF00BF6F48006803E0FA208000BD
:1005800000E0002002BD80B50B4800680100C903EF
:10059000C90F002902D0012903D006E000F09CF821
:1005A00004E000F0DAF8400800E0002002BD00009E
:1005B00000700440FFFFF3FF04800440FFFFFEFFD4
:1005C000281D0000A82200000040064010B50400CD
:1005D0002000C0B20028012814D9801E1BD0801E24
:1005E00019D0401E28D0401E29D0401E39D0401EB0
:1005F00028D0401E29D0401E2AD0401E2BD0801E5D
:100600002CD031E000F04AF866490968090F491C0E
:1006100000F0ADF929E000F041F862490968090FDE
:10062000491C00F0A4F95F490968090C4907490F02
:10063000491C00F09CF918E0FFF7A5FF15E0FFF753
:1006400076FF12E000F07AF80FE000F069F80CE0B5
:1006500000F042F809E000F080F806E0FA2080009F
:1006600003E0FFF74EFF00E0002010BD3CF9FF1F44
:1006700010B5040060684B4908602078FFF7D4FE8D
:100680006078FFF7C5FE10BD0140064006400640F9
:10069000C8F8FF1FCCF8FF1F0840064010B570488F
:1006A0000078C0B280088407A40F002C07D0022C69
:1006B0000BD007D3032C0BD100F04FF809E000F06A
:1006C0000BF806E0FFF7F8FE03E0FFF7B9FE00E0E5
:1006D000002010BD0050064010B562480078800729
:1006E00003D45F480078800601D5002017E0FFF7AB
:1006F000F5FE002813D05C490978C9B24909890779
:10070000890F594A1278D2B2D209584BC9B204247F
:1007100061435918D2B202235A43895A484310BD43
:1007200080B555480078800701D4002001E0FFF72C
:10073000C3FE02BD40F9FF1F6C22000010B5FFF799
:10074000CDFE0400002C06D0FFF7A8FFC008A04291
:1007500001D3200000E0002010BD10B54048007813
:10076000400601D400201BE0FFF7C7FE0400002C68
:1007700006D13F4A3F494148FFF7A2FC00BF00BFF6
:1007800020003F490978C9B2C906C90E491C00F0CA
:10079000EEF83D490978C9B2C906C90E1831484377
:1007A00010BD000044800440F0B503002C480078E0
:1007B000C0B280088407A40F294800780500ED071F
:1007C000ED0F30480078C0B240084607760F1000A1
:1007D0003700C0B2FFB2B8421FD02800C0B2012813
:1007E0000FD1012C03D024480078800709D51D487B
:1007F0000778FE2038401B4F387019480078C00732
:10080000FBD420480078D0270740BC4657000E2074
:100810003840674638431B4F387012480778FE202F
:1008200038400F00FF07FF0F07430E4807701248BC
:100830000778FC20384018430F4F3870012C01D046
:10084000980709D506480778FFB23800C007C00FDF
:100850000F00FFB2B842F5D10020F0BD000000004B
:100860000640064001400640034006407C2200004E
:1008700055020000281D000000400640B422000080
:10088000044006400840064005400640F2B504001A
:1008900017000025214806781F480078C0B20100E3
:1008A000C906C90F002907D1012005001B4800789F
:1008B0002021414019480170194800783B2101402E
:1008C000042008431649087013480078C0B201009C
:1008D000C906C90F0029F7D02800C0B2002801D0EE
:1008E0000E480670F106C90EE00108436946097812
:1008F000490160220A400243084802700648007815
:10090000C0B280088007800F0028F7D13800002887
:1009100000D0B8470020F2BD064006400340064024
:100920000040064070B506000D00140022002900AA
:10093000C9B23000C0B2FFF7A9FF70BDF44600286D
:1009400004D4494200F013F8404260474042002975
:1009500005D45FD000F00BF840424942604749425D
:1009600000F005F84942604703460B43E6D40022F5
:10097000030A8B420BD203098B4219D243088B42E4
:100980002ED2411A00D20146524110467047FF2232
:1009900009023FD012068B4205D3121209028B4284
:1009A00001D31212090203098B4219D300E0090A8C
:1009B000C3098B4201D3CB01C01A524183098B4238
:1009C00001D38B01C01A524143098B4201D34B0121
:1009D000C01A524103098B4201D30B01C01A524184
:1009E000C3088B4201D3CB00C01A524183088B420B
:1009F00001D38B00C01A524143088B4201D34B00F4
:100A0000C01A5241884200D3401A5241CFD2014607
:100A10001046704708B5FFF761FB08BD0EB430B54E
:100A2000050011480078002802D10020C04305E0ED
:100A300003AC220029000D4800F08CF8029930BC6C
:100A400004B0084701B508480078002802D100200A
:100A5000C04307E00122694603484068024B9B6897
:100A60009847012002BD000018F9FF1F450A000049
:100A7000F7B504001F00089D019E0298864207DA20
:100A80002000C0B2A8473868401C3860761CF4E7E4
:100A9000F7BDFFB584B00027049800210170461C03
:100AA0000698002826D00598006801900198002833
:100AB00004D1302030707F1C380049E001980028B4
:100AC00045D001980799FFF74FFF039001980399CC
:100AD000079A5143401A002803D50500EC433134EE
:100AE00001E0040030340398019020003070761C3F
:100AF0007F1CE3E70598006800900098002804D167
:100B0000302030707F1C380022E0009800281ED072
:100B100000980799FFF72BFF029000980299079A17
:100B20005143401A0A2802D20500303508E00DA9C9
:100B30000978002901D0412100E0612145180A3DD2
:100B40000298009028003070761C7F1CDDE738008A
:100B500008B0F0BDF3B595B0140000270020039055
:100B60000020029000206946087100200690169E21
:100B700030780500002D00D10DE1252D06D028008C
:100B8000159988470298401C029002E101206946AD
:100B9000487100200790002005900598002812D188
:100BA000761C30780500302D09DB3A2D07DA0799DD
:100BB0000A2041432800303808180790EDE7761ED8
:100BC00001200590E9E706200890711C08782E287E
:100BD00019D100200890002005900598002813D115
:100BE000491C08780500302D09DB3A2D07DA089AF0
:100BF0000A2042432800303810180890EDE7491EBB
:100C000001200590E9E7491E4E1C30780500642D4F
:100C100011D0692D0FD0662D0DD0462D0BD0782D1B
:100C200009D0582D07D06F2D05D0622D03D0702D1F
:100C300001D0752D77D1642D01D0692D10D1206898
:100C4000241D09906846407900900A23012209A9D1
:100C50000BA8FFF71EFF03900BA80399401807008D
:100C6000582D01D0782D15D1782D02D1002069465C
:100C700048712068241D0690684640790090102332
:100C8000002206A90BA8FFF704FF03900BA8039905
:100C9000401807006F2D05D0622D03D0702D01D0B4
:100CA000752D2BD12068241D0690280062280AD0BB
:100CB0006F2804D070280AD075280CD00FE00820C7
:100CC000694608710BE002206946087107E01020B0
:100CD0006946087103E00A2069460871FFE7684623
:100CE0004079009068460379002206A90BA8FFF717
:100CF000D0FE03900BA803994018070015980090A8
:100D000002AB079A03992020FFF7B2FE002F40D0D4
:100D1000387800283DD03878159988477F1E02988A
:100D2000401C0290F4E7632D0AD12068241DC0B254
:100D30000A900A98159988470298401C029028E06A
:100D4000732D20D12068241D04900498002820D001
:100D50000498FFF7C5F903901598009002AB079A25
:100D600003992020FFF784FE04980078002810D013
:100D700004980078159988470498401C04900298BC
:100D8000401C0290F0E72800159988470298401C03
:100D90000290761CECE6029817B0F0BD0121C20665
:100DA000D20E9140C44A1160704710B50400200073
:100DB0007F21C94340B2884203D0200040B2FFF7F0
:100DC000EDFF10BD00B51300DBB2002B03D10123F2
:100DD0008B40836002E001238B40436000BD416093
:100DE00070478160704710B50400200000F02EFAB3
:100DF00010BD80B5B148FFF7F6FF0221B04A11706F
:100E000041061DD541070CD5AE49097810220A4389
:100E1000AC490A700021AC4A11700121AB4A117033
:100E20000EE00021A94A11700021A94A1170A549BC
:100E30000978E7220A40A3490A70A649097868E0C0
:100E4000810666D5A1490978012918D1A1490978F7
:100E50009D490978A04AC9B2515C9E4A11709A49CD
:100E60000978022905D197490978EF220A40954966
:100E70000A7095490978491C934A117049E09449D0
:100E80000978944A1278954BC9B25A549049097816
:100E9000924AC9B2515C10290DD08D4909788F4A08
:100EA000C9B2515C112906D0894909788B4AC9B267
:100EB000515C122928D186490978884AC9B2515C07
:100EC000F031874A11700021864A117085490978EE
:100ED000022914DA83490978814A1278824BD2B206
:100EE0009A5C7D4BC9B25A547D490978491C7C4AA9
:100EF00011707C490978491C7A4A1170E6E7002193
:100F0000764A734B1B78D15471490978491C704A51
:100F1000117001BDF0B585B074480088694608803D
:100F200000F06BFA00F017FB0820FFF73EFF01A866
:100F300000F000FA002001A90872102001A98880A1
:100F40000220FFF743FB020001A95C4800F090F982
:100F500040215A4800F064F9012207216448FFF754
:100F600031FF6448006880210143624801608021AC
:100F70005F48FFF736FF6A4612215F48FFF7C5F862
:100F80008021C9025C48FFF72AFF5C4800F047FB5C
:100F90005A4800F09DFC060058480079401E0700A2
:100FA0003800C0B20421FFF7DFFC0D003800C0B2EA
:100FB0000421FFF7D9FC04003000C0B200280DD195
:100FC00049482100C9B2405C032102226A43914092
:100FD000884345492200D2B2885426E03000C0B28E
:100FE000012822D180214248FFF7F9FE3E48210026
:100FF000C9B2405C032102226A43914088433A49C6
:101000002200D2B2885438482100C9B2415C012084
:1010100002226A439040084333492200D2B28854E6
:101020008021C9023448FFF7DCFE3000C0B202283C
:101030001AD12D482100C9B2405C032102226A4323
:101040009140884328492200D2B288542648210082
:10105000C9B2415C022002226A43904008432249FF
:101060002200D2B2885493E73000C0B205288FD155
:101070001D482100C9B2405C032102226A4391400D
:10108000884319492200D2B2885417482100C9B2B6
:10109000415C032002226A43904008431249220027
:1010A000D2B2885480211248FFF79BFE8021C902EA
:1010B0001148FFF794FE6BE700E100E00060064096
:1010C0000360064002600640D6F8FF1F5DF9FF1F6F
:1010D0005CF9FF1F04600640D4F8FF1FD8F8FF1F1B
:1010E0005FF9FF1F5EF9FF1F58F9FF1FDE000000C8
:1010F00080F00F4094F00F4000F00F40C0F8FF1F49
:10110000010C354A89180A680123834013430B6098
:10111000704738B505000024022C07D22F4804215F
:1011200061434058A84201D0641CF5E7022C06D365
:10113000B5222B493748FEF7C3FF00BF00BF200090
:1011400032BDF5B585B00D000020C04301900020F0
:1011500003900020029000273800C0B2032831D24B
:10116000019800282ED00120B840049000200400EF
:101170002000C0B2402823D2049827492200D2B2CE
:1011800002235A43895A4843244948430699FFF7A2
:10119000EEFB00900098A84202D200982E1A01E0BF
:1011A0000098461B0198864208D23800C0B20390CE
:1011B0002000C0B202900196002E01D0641CD7E737
:1011C0007F1CC9E70398800102998906890E0143B3
:1011D0000598417007B0F0BD00700440E82200009F
:1011E000181F000038B505000C00E878C00602D4CE
:1011F000A878800605D521002800124A1268904779
:1012000004E021002800104A12689047BFF34F8F76
:1012100031BD0000D81F0000A81C00000065CD1DD6
:1012200010B54B0603D5837840241C4384708B068D
:1012300006D58379AF241C40202323431A008271F2
:1012400010BD000044F9FF1F48F9FF1F00B5010061
:10125000C8788A79520603D502008020C001104365
:101260008A79D20603D5020080204001104300BDD8
:10127000F8B504000D001700002D06D13B4A3A498D
:101280003B48FEF71DFF00BF00BF2000FFF741FFF6
:101290003849042250430858FFF732FF00202070DD
:1012A000002060700020A070FF20E07000206071BE
:1012B0005020A0710020E071287A002802D0022876
:1012C00004D019E0A8884000207015E0A888E988BB
:1012D000884206D3284A24492848FEF7F1FE00BF79
:1012E00000BFA88840002070E8884000E071607965
:1012F000082101436171FFE7A0786946FD220240A1
:101300000A7068460078A978490001432878C0012E
:101310000843A07060796F210140E878000108431C
:101320006978CE01064366713A00E9682000FFF74C
:1013300008FFF1BD10B50400002C06D1104A0A497F
:101340000B48FEF7BDFE00BF00BF0020207200204A
:1013500060700020A0700020E070FA200001E060C2
:101360000120207010BD0000181F0000B50400000F
:10137000C0220000F0220000D20400005020000033
:10138000FE04000080B5034841680348FFF72AFFC8
:1013900001BD000034F9FF1F00700640010C524AE5
:1013A00089180A680123834013430B60704770B5A6
:1013B00006000D001400002C07D1812252004B4979
:1013C0004B48FEF77DFE00BF00BF04206843301885
:1013D0002188018070BD30B404234B43C358454C71
:1013E0001C401300DBB21B02E025ED001D4025432D
:1013F00004234B43C55030BC704780B53E48FFF7CF
:10140000CDFF3E48FFF7CAFF3D48FFF7C7FF3D4805
:10141000FFF7C4FF022201213B48FFF7DCFF022255
:1014200002213948FFF7D7FF002201213648FFF794
:10143000D2FF002202213448FFF7CDFF0022042111
:101440003148FFF7C8FF002200213048FFF7C3FFF3
:10145000002201212D48FFF7BEFF002202212B4868
:10146000FFF7B9FF002203212848FFF7B4FF00224D
:1014700010212648FFF7AFFF002211212348FFF774
:10148000AAFF002200212248FFF7A5FF0022012128
:101490001F48FFF7A0FF002202211D48FFF79BFF16
:1014A000012207211A48FFF796FF01221221164850
:1014B000FFF791FF174800886946488000AA921CF0
:1014C00018211548FFF773FF144800886946088003
:1014D0006A4619211048FFF76AFF11480068072182
:1014E00088430F49086001BD00700440781F000068
:1014F000F8220000FFF8FFFF090038100A0038103A
:101500000D0038100B0038100090044000A004407B
:1015100000B00440EE00000000D004405401000080
:10152000108004401A4909681A4A0A408106C023FB
:101530001B050B40134316490B60704716481749AB
:101540000860704700B516480100481E002901D008
:1015500000BFF9E700BD80B5FFF7F0FF114A124860
:10156000417911488079FFF7DDF90F48C2780E48BC
:1015700081780D484078FFF717F90C48FFF778F8A5
:10158000B72080040A4908600320FFF7CBFF01BDA4
:1015900004800440FFFFFFF3000003104480044078
:1015A00030750000451500009C220000D822000084
:1015B000D0F8FF1F0168BE480840704700B50A0018
:1015C000D2B2002A06D00268BA4B134080221A43D6
:1015D000026003E00268B84B1340036000BD41683D
:1015E0008022D2030A434260704738B505000C00E0
:1015F0002000C0B2102806DBB04AB149B148FEF75E
:101600005FFD00BF00BF6868000100092100C9B28A
:1016100009070143696031BD406880B27047F8B581
:1016200086B00700082069460871002400260C21B6
:10163000002203A80090009800F066F9009803A823
:1016400000F0C0FA03A9A04800F038FA01219E4832
:10165000FFF7B4FF38682100C9B210225143401887
:101660000079FF2800D184E038682100C9B2102237
:101670005143405806009448864200D0FEE738683F
:101680002100C9B21022514340180021017238686C
:101690002100C9B21022514340180021417238681C
:1016A0002100C9B2102251434018002141813868FD
:1016B0002100C9B2102251434018002181813868AD
:1016C0002100C9B21022514340180021C1810020DD
:1016D0006946C88000200290002005002800694665
:1016E0000979C0B2884234D238682100C9B21022C8
:1016F000514340184079FF2829D138682100C9B2E8
:101700001022514340180079192800DBFEE73868A1
:101710002100C9B210225143401801793000FFF76F
:1017200064FF3000FFF75BFF3000FFF743FF400727
:10173000FAD53000FFF770FF6946C8800298694605
:10174000C988401802900421300000F085FA6D1C11
:10175000C4E738682100C9B21022514341180091F2
:10176000029869460979FFF702F900994881641CDB
:1017700070E707B0F0BDFEB50600002000276946FF
:10178000327A0A70747A75896946F2898A8031687A
:1017900002917179FF2914D131790298FFF725FF61
:1017A0000298FFF71CFF0298FFF704FF4007FAD5E5
:1017B0000298FFF731FF694648800421029800F043
:1017C0004BFA280080B2F18841186846007800285A
:1017D0002ED16846408881420CD2641C2000C0B2E1
:1017E000032857D3002004000120070002206A4686
:1017F00010704FE068468088344A904212DB002027
:101800006A46908028006A46528880B2904201D28F
:101810006D1C3FE0684640882A0092B2904239D25F
:101820006D1E37E068466A469288521C828031E01D
:1018300068460078022815D10220070068464088D3
:10184000814202D20020040024E0641C2000C0B2C7
:1018500003281FD3002004000420070003206A4649
:10186000107017E06846007803280ED105200700A5
:10187000641C2000C0B202280CD300200400002009
:10188000070000206A46107004E0002007000020D6
:101890006A46107068460078307268464088B081A9
:1018A0007581747268468088F0813800C0B2FEBDD0
:1018B00004000080FBFFFF7F7BFFFF7F050200002D
:1018C000541E00008C22000000500440010400005F
:1018D00070B504000025267920683100C9B21022B5
:1018E000514340180079FF2801D1002006002068EC
:1018F0003100C9B2102251434018FFF73CFF761C5B
:101900002671C0B270BD00001206130A1A43130CF0
:101910001A4300BF094205D0830705D00270401C5E
:10192000491EF9D1704700001300103906D330B4B6
:101930001400150010393CC0FCD230BC490700D35C
:101940000CC000D504C0890002D30280801C00298D
:1019500000D502707047FEE7010C964A89180A68A4
:101960000123834013430B60704710B40268924B0D
:1019700013400A00D2B25203E024240214401C4354
:10198000046010BC704710B402688C4B13400A000E
:10199000D2B21202F824640114401C43046010BC4B
:1019A000704700B50A00D2B2002A06D00268844B04
:1019B000134080221A43026003E002688A4B1340FE
:1019C000036000BD38B505000C002000934980B2CB
:1019D000884206D1924A85499248FEF771FB00BFC2
:1019E00000BFA868000C0004210089B20843A86069
:1019F00031BD38B505000C002000884980B288420E
:101A000007D19922920079499248FEF759FB00BF0D
:101A100000BFA86880B221040143A96031BD10B4A1
:101A20000268964B13400A00D2B21206F024240535
:101A300014401C43046010BC704710B40268904B03
:101A400013400A00D2B25205E024240414401C437F
:101A5000046010BC704710B402688A4B13400A003F
:101A6000D2B21204E024E40214401C43046010BC0F
:101A7000704710B40268844B13400A00D2B2D204FB
:101A8000C024640314401C43046010BC704710B4AD
:101A900002687E4B13400A00D2B21204E024E40232
:101AA00014401C43046010BC70470268784B13401C
:101AB0000A00D2B252041A4302607047F8B504001B
:101AC0000D00002D06D1222272497348FEF7F8FA64
:101AD00000BF00BF002700267048FFF73DFF2068C9
:101AE000000605D50120070000212000FFF759FF5F
:101AF0002068400605D5012006000121200000F0E5
:101B000093F8287A002820D129882000FFF771FF58
:101B100069882000FFF756FF29792000FFF725FF8D
:101B2000A9792000FFF789FF69792000FFF793FF6B
:101B3000E9792000FFF727FF297A2000FFF76FFFE0
:101B4000697A2000FFF795FF23E029882000FFF73E
:101B500050FF69882000FFF735FF29792000FFF743
:101B600004FFA9792000FFF768FFE9792000FFF75B
:101B70000AFF297A2000FFF752FF697A2000FFF759
:101B800078FFA97A2000FFF782FFE97A2000FFF7AB
:101B90008CFF3800C0B2002803D001212000FFF7DD
:101BA00000FF3000C0B2002803D00121200000F067
:101BB0001FF8F1BD00700440FB1FFF7FFBE0FF7FBB
:101BC000FBFFFF7F00210180002141800121017185
:101BD00000214171032181710421C1710021017231
:101BE00000214172704700007BFFFF7F8C1D0000C9
:101BF00000B503682A4A1A40CB0702D513004022D9
:101C00001A438B0702D51300264A1A404B0703D507
:101C10001300802252051A43026000BDFFFF00003E
:101C2000560200005422000000B503681C4A1A4006
:101C3000CB0701D540239A438B0703D5130080229D
:101C400052051A434B0702D51300164A1A40026088
:101C500000BD00001C22000000B50368104A1A40B5
:101C60004B0702D5130004221A43002903D51300A1
:101C7000802212061A43026000BD0000FBFFFF70C5
:101C8000FBFF1F7FFBFFF87FFBFFE77FFBFFFE7F74
:101C9000FBFFF97FF01D0000CC220000050038108A
:101CA000FBFFFF7FFFFFFFEF1400160018001A0074
:101CB0001C001E00220028001C0020002400280018
:101CC0002C0030003800440030003800400048004C
:101CD00050005800680080005000600070008000D4
:101CE0009000A000C000F000A000C000E0000001D3
:101CF000200140018001E00140018001C00100029B
:101D0000400280020003C00380020003800300043D
:101D10008004000500068007000500060007000893
:101D20000009000A000C000F433A5C425F777578A7
:101D300075616E5C4B4C31365A5F452D4C6F636B51
:101D40005F746573745C6769745F313231355C6BE5
:101D50006C2D746F7563685C6B6C2D746F75636844
:101D60005C6B6C31367A5F7473695F6932635F7381
:101D70006C6176655C647269766572735C66736CBF
:101D80005F636C6F636B2E6300000000433A5C423C
:101D90005F77757875616E5C4B4C31365A5F452DB7
:101DA0004C6F636B5F746573745C6769745F313229
:101DB00031355C6B6C2D746F7563685C6B6C2D7466
:101DC0006F7563685C6B6C31367A5F7473695F69D9
:101DD00032635F736C6176655C6472697665727399
:101DE0005C66736C5F7473695F76342E6800000004
:101DF000433A5C425F77757875616E5C4B4C313667
:101E00005A5F452D4C6F636B5F746573745C6769D3
:101E1000745F313231355C6B6C2D746F7563685C47
:101E20006B6C2D746F7563685C6B6C31367A5F74A4
:101E300073695F6932635F736C6176655C64726954
:101E4000766572735C66736C5F7473695F76342E4B
:101E500063000000433A5C425F77757875616E5CA1
:101E60004B4C31365A5F452D4C6F636B5F74657315
:101E7000745C6769745F313231355C6B6C2D746FE3
:101E80007563685C6B6C2D746F7563685C6B6C312B
:101E9000367A5F7473695F6932635F736C6176650C
:101EA0002F647269766572735C66736C5F747369B4
:101EB0005F76342E68000000433A5C425F777578A5
:101EC00075616E5C4B4C31365A5F452D4C6F636BC0
:101ED0005F746573745C6769745F313231355C6B54
:101EE0006C2D746F7563685C6B6C2D746F756368B3
:101EF0005C6B6C31367A5F7473695F6932635F73F0
:101F00006C6176655C647269766572735C66736C2D
:101F10005F6770696F2E6300433A5C425F77757844
:101F200075616E5C4B4C31365A5F452D4C6F636B5F
:101F30005F746573745C6769745F313231355C6BF3
:101F40006C2D746F7563685C6B6C2D746F75636852
:101F50005C6B6C31367A5F7473695F6932635F738F
:101F60006C6176655C647269766572735C66736CCD
:101F70005F6932632E630000433A5C425F77757895
:101F800075616E5C4B4C31365A5F452D4C6F636BFF
:101F90005F746573745C6769745F313231355C6B93
:101FA0006C2D746F7563685C6B6C2D746F756368F2
:101FB0005C6B6C31367A5F7473695F6932635F732F
:101FC0006C6176652F647269766572735C66736C9A
:101FD0005F706F72742E6800696E7374616E6365F2
:101FE000203C202873697A656F6628735F693263C5
:101FF000426173657329202F2073697A656F6628A3
:1020000028735F6932634261736573295B305D29B0
:102010002900000070B40123002413E00168001DB2
:10202000194202D04D466918491E0C60091D121F45
:10203000042AFAD20D00960701D50C80AD1C1A4077
:1020400000D02C700268001D002AE7D170BC7047D8
:10205000736C617665436F6E6669672D3E736C6164
:10206000766541646472657373203C20736C61769D
:1020700065436F6E6669672D3E7570706572416469
:10208000647265737300000080B5074841680748B3
:10209000074A1268904701BD80B50348816805482A
:1020A000034A1268904701BD28F9FF1F00B006409F
:1020B00054F9FF1F00C0064030B401220EE003684F
:1020C000C31844680830144202D04D462C19641ECF
:1020D0001D6825601B1D241D091FF9D10168001D05
:1020E0000029ECD130BC7047415353455254204530
:1020F00052524F52202220257320223A2066696CCA
:10210000652022257322204C696E652022256422D9
:10211000200A000072B60548054901600A6882F38A
:1021200008880448804762B60348004708ED00E08D
:10213000000000003D2100003922000000B50748E2
:102140000078000705D505480078082101430348B9
:10215000017000200249086000BD000002D0074065
:102160000081044010B5074979441831064C7C447D
:10217000163404E0081D0A68891888470100A14246
:10218000F8D110BD080000002800000089FEFFFF04
:1021900088000000D8F8FF1F000000001DFFFFFFAF
:1021A000D8000000B4DFFFFF00F8FF1F00000000B0
:1021B00080B5044801680448044A1268904701BD8C
:1021C000000000004CF9FF1F00A0064050F9FF1F5F
:1021D00000F00DF8002801D0FFF7C4FF00BF00BFDA
:1021E000002000BF00BFFEF795FE00F002F80120BE
:1021F000704780B500F002F801BDFEE7074638469B
:1022000000F002F8FBE7FEE780B500BF00BF024A1E
:1022100011001820ABBEFBE7260002006869676862
:102220005F7468726573686F6C64203C2030784618
:1022300046464655000000000548014603B468467E
:1022400080F3098800BF00BF00BF00BFFFF7C0FFD9
:10225000A5EDF5FE6C6F775F7468726573686F6CDF
:1022600064203C203078464646465500675F7874C7
:10227000616C333246726571000000008002DC023E
:102280000005B80580079508000A710B6368616E48
:102290006E656C203C2028313629000000020100C8
:1022A0000001010001000000675F7874616C304636
:1022B000726571006D6367706C6C30636C6B0000ED
:1022C000736C617665436F6E66696700636F6E66F7
:1022D000696720213D20300001030000000001005B
:1022E000636F6E666967000000600640007006401C
:1022F0000600341007003410636F6E6669670000D3
:1023000000480047592300000048004759230000B7
:1023100000480047592300000048004759230000A7
:10232000004800478513000000480047592300007B
:10233000004800475923000000480047B121000031
:10234000004800478920000000480047992000000D
:102350000048004759230000004800475923000067
:04236000FEE7FEE7AF
:04000005000022399C
:00000001FF
