:10000000000004208101000019020000F733000005
:100010001D0200001F020000210200002302000058
:1000200000000000000000000000000025020000A9
:100030002702000000000000290200002B0200003F
:10004000352F00003D2F0000452F00004D2F0000F0
:10005000552F00005D2F0000652F00006D2F000060
:10006000752F00007D2F0000852F00008D2F0000D0
:10007000952F00009D2F000031040000A52F0000E7
:10008000AD2F0000B52F0000BD2F0000C52F0000D0
:10009000CD2F0000D52F0000DD2F0000E52F000040
:1000A000ED2F0000F52F0000FD2F000005300000AF
:1000B0000D300000153000001D300000253000001C
:1000C0002D300000353000003D300000453000008C
:1000D0004D300000553000005D30000065300000FC
:1000E0006D300000753000007D300000853000006C
:1000F0008D300000953000009D300000A5300000DC
:10010000AD300000B5300000BD300000C53000004B
:10011000CD300000D5300000DD300000E5300000BB
:10012000ED300000F5300000FD300000053100002A
:1001300010430000000000200C00000010430000ED
:100140000000000400000000104300000000104008
:100150000000000010430000000004200000000028
:100160000C000020200A0000000000040000000035
:10017000000010400000000000000420000000000B
:1001800072B6134B134A17480360196881F3088845
:1001900082F30A8801F068FD0F4B07E003F10C04BD
:1001A0009A685968186800F01FF823460B4A934272
:1001B000F4D306E01C46596854F8080B00F023F805
:1001C0002346074A9342F5D362B603F08FFAFEE75F
:1001D0000000000000F0032030010000600100007A
:1001E0008001000008ED00E0002393420AD210B421
:1001F00050F8044B41F8044B04339342F8D35DF8B4
:10020000044B70477047002303E0002240F8042BA2
:1002100004338B42F9D37047FEE7FEE7FEE7FEE7C3
:10022000FEE7FEE7FEE7FEE7FEE7FEE7FEE7FFFF8D
:1002300080B500AF064B00221A80C8220021054875
:1002400003F05CFA044B00221A7000BF80BD00BFAF
:10025000280A00200C0000202A0A002080B400AFE9
:10026000064B00221A80064B00221A70054B002212
:100270001A6000BFBD465DF8047B7047280A002065
:100280002A0A0020D400002080B582B000AF0023ED
:100290007B604C4B1B78DBB2012B40F08F804A48CF
:1002A00002F034FF4949484803F086FB78607B68D8
:1002B000002B50D0464B00221A60464B00221A6099
:1002C000454B4FF080621A60434B1B684FF48042ED
:1002D0000021184603F012FA3A4B02221A703F48E6
:1002E00000F068F93B4B00221A6030E03C4B1B6881
:1002F000013B3B4A13603A4B1B68002BF6D1354B50
:100300001B689B00344A11684FF48042184602F083
:10031000F2FF314B4FF080621A602F4B1B684FF495
:1003200080420021184603F0E9F92A4B1B68194660
:100330002C4800F03FF9264B00221A60284B4FF45E
:10034000E0021A60234B1B680133224A1360214BE1
:100350001B68212BCFD924491B4803F02DFB786063
:100360007B68002B28D0214800F024F9194B00228B
:100370001A601AE0184B4FF080621A60164B1B6827
:100380004FF480420021184603F0B8F9114B1B6866
:100390009B00114A11684FF48042184602F0ABFFEF
:1003A0000C4B1B6801330B4A13600A4B1B68212B53
:1003B000E0D90F4800F0FEF8FFF73AFF00BF08371A
:1003C000BD4680BD2A0A00200C000020483B0000EA
:1003D000E0000020D4000020DC000020543B00009E
:1003E000D8000020583B0000703B00007C3B000020
:1003F000943B000080B483B000AF0346FB7197F9D3
:100400000730002B0BDBFB7903F01F02074997F93C
:1004100007305B09012000FA02F241F8232000BFF7
:100420000C37BD465DF8047B704700BF00E100E07B
:1004300080B582B000AF364802F0B4FE034603F048
:100440004203002B60D0324802F0CAFE0346FB7123
:10045000304B1B78DBB2002B41D12F4B1B889BB25A
:10046000C72B0ED82C4B1B889BB219462B4AFB7905
:100470005354294B1B889BB201339AB2264B1A80E6
:1004800002E0254B00221A80234B1B889BB2023BC3
:10049000224AD35CDBB20D2B08D11F4B1B889BB2C9
:1004A000013B1E4AD35CDBB20A2B11D01A4B1B88CE
:1004B0009BB2023B194AD35CDBB20A2B0FD1164B1D
:1004C0001B889BB2013B154AD35CDBB20D2B06D1D6
:1004D000104B01221A70124B4FF4E0021A600D4BC0
:1004E0001B78DBB2022B0FD10E4B1A680E4B1B6828
:1004F0001344FA791A700C4B1B6801330A4A1360D3
:10050000074B4FF4E0021A6000BF0837BD4680BDBC
:10051000006008402A0A0020280A00200C00002061
:10052000D8000020DC000020E000002080B588B06A
:1005300000AF78600D2002F005FE1A4B40F2011268
:100540009A67184B40F201125A670D2002F012FE12
:100550004FF4457000F0A0FA134800F069FF07F16E
:100560000C03184601F040FA7B68FB6001237B75A1
:1005700001233B750D4B00221A60002002F051FF51
:10058000024607F10C031946094801F047F90A2110
:10059000074802F014FE0E20FFF72CFF00BF2037A3
:1005A000BD4680BD001000400B000100E4080020A3
:1005B000006008400FB480B584B000AF0023FB603A
:1005C0000023BB604FF4006200210D4803F096F851
:1005D00007F11C037B607A68B969094802F034FCB2
:1005E0000346FB60FA680649064801F0F7FABB6863
:1005F00018461037BD46BDE8804004B0704700BFC4
:10060000E40000200060084080B483B000AF786050
:10061000104B00221A6011E00F4B00221A6004E018
:100620000D4B1B6801330C4A13600B4B1B680B2BE3
:10063000F6D9084B1B680133064A1360054B1B684B
:100640007A689A42E8D800BF00BF0C37BD465DF813
:10065000047B7047E8080020EC08002080B483B0D9
:1006600000AF0346FB71144BD3F8003E124A43F42B
:100670004033C2F8003E104BD3F8043E0E4A43F01C
:100680000303C2F8043EFB7943F0E6620A4BC3F869
:10069000202E00BF084BD3F8043E03F04003002B8C
:1006A000F8D0054BD3F8303EDBB218460C37BD46C8
:1006B0005DF8047B704700BF00F0094080B584B04E
:1006C00000AF7860002314220021174802F0C6FD15
:1006D0006420FFF799FF9F20FFF7C0FFA520FFF7D9
:1006E000BDFF03463B73A520FFF7B8FF03467B73AE
:1006F000A520FFF7B3FF0346BB730123142200219B
:10070000094802F0ABFD3B7B1A047B7B1B021343C1
:10071000BA7B13431A467B681A600A20FFF774FFFE
:1007200000BF1037BD4680BD00C0084080B500AF97
:100730000023142200210A4802F090FD6420FFF7F4
:1007400063FF0620FFF78AFF0123142200210448DB
:1007500002F084FD0520FFF757FF00BF80BD00BFFA
:1007600000C0084080B582B000AF002314220021F1
:10077000114802F073FD0A20FFF746FF0520FFF73E
:100780006DFFA520FFF76AFF0346FB716420FFF7AA
:100790003BFFFB7903F00103002BF2D1012314226C
:1007A0000021054802F05AFD0520FFF72DFF00BF8C
:1007B0000837BD4680BD00BF00C0084080B582B08C
:1007C00000AF78600A20FFF71FFFFFF7CBFF7B68C1
:1007D0001B037B60FFF7AAFF0023142200211648A9
:1007E00002F03CFD6420FFF70FFF2020FFF736FFEB
:1007F0007B681B0CDBB21846FFF730FF7B681B0AD7
:10080000DBB21846FFF72AFF7B68DBB21846FFF71A
:1008100025FF012314220021074802F01FFD0520B7
:10082000FFF7F2FEFFF79EFF0A20FFF7EDFE00BF85
:100830000837BD4680BD00BF00C0084080B584B009
:1008400000AF786039600520FFF7DEFE7B681B0291
:100850007B60FFF787FFFFF769FF00231422002169
:100860001C4802F0FBFC6420FFF7CEFE0220FFF7DD
:10087000F5FE7B681B0CDBB21846FFF7EFFE7B68CA
:100880001B0ADBB21846FFF7E9FE7B68DBB21846AD
:10089000FFF7E4FE0023FB600AE03B681B78184684
:1008A000FFF7DCFE3B6801333B60FB680133FB6014
:1008B000FB68FF2BF1D9012314220021054802F027
:1008C000CDFC0520FFF7A0FEFFF74CFF00BF10375F
:1008D000BD4680BD00C0084080B588B000AF0D2087
:1008E00002F08CFC4FF4807314220021294802F09E
:1008F000CAFC4FF4937303220121264802F0C3FC83
:1009000040F229131A220021224802F0BCFC4FF4C5
:100910009373022201211F4802F0B5FC0D2002F062
:1009200085FC01233B7601237B7607F11803142213
:100930000021194802F037FE012314220021164835
:1009400002F08CFC3B4600221A605A609A60DA6022
:100950001A615A614FF4477000F09EF80F4802F098
:1009600074FE3B46184600F0FFFD0D4BBB600023B4
:100970007B730023FB813B460A4A19460A4800F074
:1009800037FE07F11C031846FFF798FE00BF20371B
:10099000BD4680BD0010004000C008401C000200A1
:1009A000808D5B00001BB70000F0094080B582B06D
:1009B00000AF0B4B1B681B687B607B6883F3088868
:1009C00000BF074B1B6804331B681A46054B1A60AF
:1009D00062B6044B1B68984700BF0837BD4680BD10
:1009E00000000020F008002080B582B000AF0D208C
:1009F00002F0A6FC0B2002F0A3FC0E2002F0A0FCEB
:100A00000F2002F09DFC01F071F94FF4E130FFF787
:100A10008DFD0D2002F094FC4FF480731422002110
:100A2000124802F0D1FC0D2002F0A2FC00233B7121
:100A300001237B713B1D142200210D4802F0B3FD00
:100A4000142200210A4802F0ABFC0346002B06D119
:100A5000FFF742FFFFF702FCFFF716FCFCE7054B30
:100A60004FF400421A60FFF7A1FFFEE700100040BC
:100A700000C008400000002080B483B000AF786060
:100A8000044A7B68C2F8C83000BF0C37BD465DF829
:100A9000047B70470000024080B487B000AF7860EC
:100AA0007B687B61204BFB607B68B3F1004F34D0E7
:100AB00000233B612CE07B69002B2DD07B699BB22E
:100AC000C3F30B037B817B89002B1BD07B897B725B
:100AD0007B891B0ADBB203F00F03DBB2013B3B72E5
:100AE0007B7A3F2B08D1114BD3F898203B7A0F49E2
:100AF0001343C1F8983005E07B7A9B00FA681344F1
:100B00003A7A1A607B691B0B7B613B6901333B615D
:100B10003B69012BCFD900E000BF00BF1C37BD46A9
:100B20005DF8047B704700BF600200400000024097
:100B300080B485B000AF03463960FB711346BB71CA
:100B40001A4BFB60FB79072B0DD9FB790F2B0AD8C9
:100B50003B681B029AB2FB799B00F9680B4442F098
:100B6000FF021A601BE0BB79002B06D0FB799B00CB
:100B7000FA6813444FF000521A603B68002B07D10B
:100B8000FB799B00FA6813444FF080421A6006E03C
:100B9000FB799B00FA6813443A68013A1A6000BF77
:100BA0001437BD465DF8047B704700BF000300406A
:100BB00080B582B000AF78607B68194A934209D053
:100BC0007B68184A934205D07B68174A934201D04C
:100BD000012320E04FF080434FF00062C3F848212A
:100BE0004FF080434FF00062C3F828222020FFF727
:100BF00043FF7B680C4A934206D10C4B1B690B4A9E
:100C000043F08043136105E0084B1B69074A43F436
:100C100080431361002318460837BD4680BD00BFDE
:100C2000001BB700006CDC0200D8B80500300140A2
:100C300080B485B000AF78607B68424A934202D8A6
:100C40000023FB604EE07B683F4A934202D80123B9
:100C5000FB6047E07B683D4A934202D80223FB6079
:100C600040E07B683A4A934202D80323FB6039E0B4
:100C70007B68384A934202D80423FB6032E07B68E9
:100C8000354A934202D80523FB602BE07B68334A48
:100C9000934202D80623FB6024E07B68304A9342EB
:100CA00002D80723FB601DE07B682E4A934202D8DE
:100CB0000823FB6016E07B682B4A934202D8092385
:100CC000FB600FE07B68294A934202D80A23FB604D
:100CD00008E07B68264A934202D80B23FB6001E0C0
:100CE0000C23FB60234B1F22C3F8E82F214BD3F8C2
:100CF000803023F00F02FB6803F00F031D491343FC
:100D0000C1F880301B4B02221A6000BF194BD3F888
:100D1000E03F03F00403002BF8D04FF08043D3F8FA
:100D2000003423F47042FB681B039BB24FF08041F8
:100D30001343C1F8003400BF1437BD465DF8047B8F
:100D4000704700BFC0D8A70080B14F01408AF701AB
:100D500000639F02C03B47038014EF0340ED9604FD
:100D600000C63E0500E1F505C0C2DA0680A4BF0753
:100D700080D1F0080040034080B400AF064B1B69EF
:100D800003F48043002B01D0044B00E000231846FD
:100D9000BD465DF8047B704700300140001BB70082
:100DA00080B400AF4FF08043D3F8183A03F040030B
:100DB000002B01D0034B00E000231846BD465DF830
:100DC000047B704740420F0080B400AF074B1B6AA2
:100DD00003F08073002B02D0054B1B6800E000235A
:100DE0001846BD465DF8047B704700BF00300140E7
:100DF0000400002080B400AF064B1B6903F0804361
:100E0000002B01D0044B00E000231846BD465DF8DE
:100E1000047B70470030014000D8B80580B400AFB3
:100E2000034B1B681846BD465DF8047B704700BF46
:100E3000F408002080B400AF034B1B681846BD4681
:100E40005DF8047B704700BFF808002080B400AF55
:100E5000134BD3F8B83003F04003002B06D1104BEE
:100E6000D3F8983003F00103002B12D00C4BD3F8C9
:100E7000B83003F08003002B09D1094BD3F8983028
:100E800003F00103002B02D04FF4004303E00023E2
:100E900001E04FF400431846BD465DF8047B7047FF
:100EA0000000024080B582B000AF00237B604FF0AD
:100EB0008043D3F88432032B3ED801A252F823F0AA
:100EC000D10E0000210F0000290F0000310F00009B
:100ED0004FF08043D3F88032002B03D1FFF74CFF53
:100EE00078602CE04FF08043D3F88032012B03D19F
:100EF000FFF76AFF786022E04FF08043D3F880323A
:100F0000022B03D1FFF74CFF786018E04FF08043CD
:100F1000D3F88032032B12D1FFF76CFF78600EE01C
:100F2000FFF77CFF78600BE0FFF784FF786007E055
:100F3000FFF78CFF786003E000237B6000E000BFD8
:100F40007B6818460837BD4680BD00BF80B400AF3F
:100F5000034B1B681846BD465DF8047B704700BF15
:100F6000FC08002080B584B000AF78600023FB60EF
:100F70004FF080427B68AC3352F82330072B44D8C3
:100F800001A252F823F000BFA90F0000B10F00002A
:100F9000CB0F0000D30F0000ED0F0000F50F000095
:100FA000FD0F000005100000FFF77CFFF8602FE048
:100FB000FFF734FF02464FF08043D3F8C433DBB26F
:100FC0000133B2FBF3F3FB6022E0FFF7D5FEF860DC
:100FD0001EE0FFF70FFF02464FF08043D3F888333F
:100FE000DBB20133B2FBF3F3FB6011E0FFF7D8FE95
:100FF000F8600DE0FFF7AAFFF86009E0FFF726FFB1
:10100000F86005E00023FB6002E0044800F06CFF9C
:10101000FB6818461037BD4680BD00BFB03B0000DE
:1010200080B584B000AF78607B68BB600023FB6054
:1010300009E0BA680C49FB6851F823309A4206D09F
:10104000FB680133FB60FB68082BF2D900E000BFAE
:10105000FB68082B02D9054800F046FFFB681846DC
:101060001037BD4680BD00BFC83B0000243C0000D7
:1010700080B584B000AF78600B46FB707868FFF7EE
:10108000CFFFF8600C4AFB6832F81330184602F0C4
:10109000EEF90A4AFB6852F82330184602F0D5FAF6
:1010A000FB7800221946786802F02BFA03461846AE
:1010B0001037BD4680BD00BFEC3B0000003C000087
:1010C00080B582B000AF1048FFF7AAFF78600F4AE2
:1010D0007B6852F82330002B02D10D4800F004FF4A
:1010E0000A4A7B6852F823300A497A6851F822206C
:1010F000104609497A6851F822201146984700BFE6
:101100000837BD4680BD00BF0070084000090020C0
:10111000683C0000C83B00002409002080B582B074
:1011200000AF1048FFF77CFF78600F4A7B6852F8E9
:101130002330002B02D10D4800F0D6FE0A4A7B680E
:1011400052F823300A497A6851F82220104609499A
:101150007A6851F822201146984700BF0837BD46EB
:1011600080BD00BF0080084000090020A43C0000B2
:10117000C83B00002409002080B582B000AF1048B1
:10118000FFF74EFF78600F4A7B6852F82330002B40
:1011900002D10D4800F0A8FE0A4A7B6852F82330BD
:1011A0000A497A6851F82220104609497A6851F8AC
:1011B00022201146984700BF0837BD4680BD00BFBA
:1011C0000090084000090020E03C0000C83B0000FF
:1011D0002409002080B582B000AF1048FFF720FF3F
:1011E00078600F4A7B6852F82330002B02D10D48FB
:1011F00000F07AFE0A4A7B6852F823300A497A687E
:1012000051F82220104609497A6851F822201146E7
:10121000984700BF0837BD4680BD00BF00A008400A
:10122000000900201C3D0000C83B000024090020EC
:1012300080B582B000AF1048FFF7F2FE78600F4A29
:101240007B6852F82330002B02D10D4800F04CFE91
:101250000A4A7B6852F823300A497A6851F82220FA
:10126000104609497A6851F822201146984700BF74
:101270000837BD4680BD00BF00600940000900205E
:10128000583D0000C83B00002409002080B582B012
:1012900000AF1048FFF7C4FE78600F4A7B6852F831
:1012A0002330002B02D10D4800F01EFE0A4A7B6855
:1012B00052F823300A497A6851F822201046094929
:1012C0007A6851F822201146984700BF0837BD467A
:1012D00080BD00BF0070094000090020943D00005F
:1012E000C83B00002409002080B582B000AF104840
:1012F000FFF796FE78600F4A7B6852F82330002B88
:1013000002D10D4800F0F0FD0A4A7B6852F8233004
:101310000A497A6851F82220104609497A6851F83A
:1013200022201146984700BF0837BD4680BD00BF48
:101330000080094000090020D03D0000C83B0000AB
:101340002409002080B582B000AF1048FFF768FE86
:1013500078600F4A7B6852F82330002B02D10D4889
:1013600000F0C2FD0A4A7B6852F823300A497A68C5
:1013700051F82220104609497A6851F82220114676
:10138000984700BF0837BD4680BD00BF00F0094048
:10139000000900200C3E0000C83B0000240900208A
:1013A00080B582B000AF786039603B68032B02D90A
:1013B000064800F099FD064A3B6832F8133018469B
:1013C00002F0D9F800BF0837BD4680BD503E00008E
:1013D000483E000080B586B000AF78607B681B0C8B
:1013E0007B617B689BB23B6101223B6902FA03F39C
:1013F000FB603B691F2B02D90C4800F075FD4FF0D4
:1014000080417B694833FA6841F8232000BF4FF0E0
:1014100080427B69403352F82320FB681340002B45
:10142000F5D000BF00BF1837BD4680BD843E000028
:1014300080B586B000AF78607B681B0C7B617B68F1
:101440009BB23B6101223B6902FA03F3FB603B69FB
:101450001F2B02D90D4800F047FD4FF080417B69FA
:101460005033FA6841F8232000BF4FF080427B6977
:10147000403352F82320FB681340FA689A42F4D0B4
:1014800000BF00BF1837BD4680BD00BFA43E0000AE
:1014900080B582B000AF786039607B68002B02D1E4
:1014A000114800F021FD3B68002B02D10F4800F0ED
:1014B0001BFD3B681B7803F00F023B685B781B0148
:1014C000DBB21A433B689B781B0203F470631A4338
:1014D0003B68DB781B039BB21A437B68C3F8042488
:1014E00000BF0837BD4680BDC43E0000E43E00009A
:1014F00080B584B000AF78600023FB6009E00D4A3E
:10150000FB6852F823207B689A4206D0FB680133BF
:10151000FB60FB68082BF2D900E000BFFB68082BDA
:1015200002D9054800F0E0FCFB6818461037BD46BC
:1015300080BD00BF043F0000283F000080B584B09C
:1015400000AF78600B46FB707868FFF7D1FFF8605A
:10155000044AFB681344FA781A7000BF1037BD467E
:1015600080BD00BF5C09002080B582B000AF78600C
:101570007B68002B02D11C4800F0B6FC1822002129
:10158000786802F0BBF87B6800221A707B68012241
:101590005A707B6800229A707B680022DA707B6840
:1015A00000221A717B68114A9A607B6807221A73BD
:1015B0007B6800225A737B6800221A747B680022C1
:1015C0005A747B680022DA817B6800229A747B68F7
:1015D0000022DA747B6800221A757B6800225A7533
:1015E00000BF0837BD4680BD603F000020A1070056
:1015F00080B588B000AFF860B9607A600023FB6105
:10160000FB68002B05D0BB68002B02D07B68002B49
:1016100002D1594800F068FCFB68002B05D0BB687C
:10162000002B02D07B68002B01D104239FE0022114
:10163000F868FFF71DFDF861FB69002B01D0FB691D
:1016400095E0BB689B687A681946F86800F098F8DE
:10165000F861FB69002B01D0FB6988E0F868FFF7AF
:1016600047FFB861FB68D3F800347B617B6923F4E2
:101670007B6323F00D037B61BB68DB781B0103F008
:1016800010037A6913437B61BB689B785B0103F0AD
:1016900020037A6913437B61BB681B79DB0003F08D
:1016A00008037A6913437B617B6943F004037B6120
:1016B000BB681B78DB01DBB27A6913437B61BB68D3
:1016C000DB8903F470637A6913437B61FB687A6991
:1016D000C3F80024BB68197B284ABB6902F81310C1
:1016E000BB68597B254ABB695B0013440A465A70A4
:1016F000FB68D3F8003E43F44032FB68C3F8002E89
:10170000FB68D3F8003E43F00302FB68C3F8002EE9
:10171000FB68D3F8083E23F4702323F470637B61E5
:10172000BB681B7C1B0203F47062BB685B7C1B0400
:1017300003F4702313437A6913437B617B6943F09D
:1017400003037B61FB687A69C3F8082EBB68123318
:101750001946F868FFF79CFEFF21F868FFF7EEFED8
:10176000BB685B781946F86801F07DFF00231846D6
:101770002037BD4680BD00BF803F000048090020E3
:1017800080B586B000AFF860B9607A60FB68002B66
:1017900005D0BB68002B02D07B68002B02D11D480E
:1017A00000F0A2FBFB68002B05D0BB68002B02D029
:1017B0007B68002B01D1042328E07A6813469B0044
:1017C00013445B001A46BB68B2FBF3F30533124ABD
:1017D000A2FB0323DB08013B7B617B69B3F5803F00
:1017E00002D341F2E35311E0FB68D3F824341B0C1D
:1017F0001B04FA68C2F82434FB68D3F824247B69FC
:101800009BB21A43FB68C3F82424002318461837F8
:10181000BD4680BDD03F0000CDCCCCCC80B586B0DD
:1018200000AFF860B9607A60FB68002B05D0BB6838
:10183000002B02D07B68002B02D16A4800F054FBD9
:10184000FB68002B05D0BB68002B02D07B68002B07
:1018500001D10423C1E00121F868FFF709FC786198
:101860007B69002B01D07B69B7E0BB685B7A002BFA
:1018700023D0FB68D3F8003E43F00112FB68C3F8A5
:10188000002EFB68D3F8083E23F47062FB68C3F8AF
:10189000082EFB68D3F8082EBB685B7B1B0203F4A1
:1018A00070631A43FB68C3F8082EFB68D3F8083E40
:1018B00043F00102FB68C3F8082EBB681B7A002BBB
:1018C00023D0FB68D3F8003E43F00212FB68C3F854
:1018D000002EFB68D3F8083E23F47022FB68C3F89F
:1018E000082EFB68D3F8082EBB689B7B1B0403F40F
:1018F00070231A43FB68C3F8082EFB68D3F8083E30
:1019000043F00202FB68C3F8082EBB681B791B0179
:1019100003F03002BB685B799B0103F040031A437C
:10192000BB689B799B0003F00C031A43BB68DB790F
:10193000DB039BB21A43BB68DB7B5B08DBB2DB02D9
:1019400003F400631A43BB68DB7B9B0303F480430F
:101950001A43BB681B7C1B0303F480531A43BB6808
:10196000DB7ADB01DBB21A43BB681B7B5B0203F44F
:101970000073134343F00102FB681A60BB68DB7A13
:10198000002B16D0BB681B684FF41652B2FBF3F164
:1019900001FB03F3D31A002B08D1BB681B684FF47B
:1019A0001652B2FBF3F2FB681A620FE041F2516388
:1019B00013E0BB681B687A681946F86800F054F8B1
:1019C00078617B69002B01D07B6906E0BB689B7A5C
:1019D0001946F86801F067FE002318461837BD461F
:1019E00080BD00BF2440000080B582B000AF7860A9
:1019F0007B68002B02D11B4800F076FA14220021EC
:101A0000786801F07BFE7B684FF4E1321A607B68F6
:101A100000221A717B6800225A717B6801229A7138
:101A20007B680022DA717B6800221A727B680022D0
:101A30005A727B680022DA727B6800225A737B68D4
:101A400000229A737B680022DA737B6800229A7204
:101A50007B6800221A747B6800221A7300BF083763
:101A6000BD4680BD7440000080B58CB000AFF8600A
:101A7000B9607A604FF0FF33FB620F23BB624FF017
:101A8000FF337B62FB68002B05D0BB68002B02D0C4
:101A90007B68002B02D14E4800F026FAFB68002B31
:101AA00005D0BB68002B02D07B68002B01D104233A
:101AB00089E0FB681B6803F40063002B0FD0FB6810
:101AC0001B6803F48043002B7CD07A68BB68B2FBB0
:101AD000F3F37B617B695A1EFB681A6272E0BB6A92
:101AE0003B623BE07A6813469B0013445B00194657
:101AF0003B6A0133BA6802FB03F3B1FBF3F3053B26
:101B0000344AA2FB0323DB087B617B69B3F5803F8A
:101B100020D23B6A01337A69013202FB03F37A680F
:101B2000B2FBF3F3FB61BA68FB699A4203D2FA692C
:101B3000BB68D31A02E0BA68FB69D31ABB61BA6901
:101B4000FB6A9A4207D2BB69FB623B6ABB627B6954
:101B50007B6200E000BF3B6A013B3B623B6A072BB4
:101B6000C0D8BB6A01337A6A013202FB03F37A6898
:101B7000B2FBF3F3FB61BA68FB699A4203D2FA69DC
:101B8000BB68D31A02E0BA68FB69D31ABB61BB68B1
:101B9000114AA2FB03235A0913465B001344BA6996
:101BA0009A4202D941F251630DE07B6AB3F5803F5E
:101BB00002D341F2516306E0FB68BA6A9A62FB689D
:101BC0007A6A1A62002318463037BD4680BD00BFCE
:101BD00098400000CDCCCCCC1F85EB5180B584B0B3
:101BE00000AFF860B9607A60FB68002B02D0BB6878
:101BF000002B02D11B4800F077F9FB68002B02D0C4
:101C0000BB68002B01D1042327E0FB68D3F8003E1A
:101C100003F00103002B15D104231EE000BFFB6875
:101C2000D3F8043E03F02003002BF8D0BB681B78E8
:101C30001A46FB68C3F8202EBB680133BB607B6883
:101C4000013B7B607B68002BE8D100BFFB689B6891
:101C500003F00803002BF9D0002318461037BD46C7
:101C600080BD00BFEC40000080B500AF154BD3F83D
:101C70008830144A43F47003C2F88830114BD3F80B
:101C80008830104A43F00F03C2F888300D4BD3F868
:101C90008C300C4A43F4406343F00303C2F88C30A9
:101CA000084B094A9A604FF080430022C3F808238A
:101CB0004FF080437822C3F8202201F010FD00BFCE
:101CC00080BD00BF00ED00E00000000080B483B0E4
:101CD00000AF7860044A7B68C2F8C83000BF0C3798
:101CE000BD465DF8047B70470000024080B500AF40
:101CF0002020FFF7EBFF0E48FEF75AFF0D48FEF7D6
:101D0000CBFE0D48FEF754FF094800F0ABF8084839
:101D1000FEF78EFF002201212020FEF709FF054873
:101D2000FEF7BAFE054B024A1A6000BF80BD00BF35
:101D3000001BB7000891100000D8B805080000206B
:101D4000B0F57A7F30B51FD040F2014398422FD9C9
:101D500040F21A4398422FD940F2334398422FD988
:101D600040F24C4398422FD940F2654398422FD914
:101D700040F27E4398422FD9B0F5936F34BF0921CA
:101D80000A211F201E2402E0022113200E24134DDD
:101D9000EB6923F4F84323F01F03234343EA802332
:101DA000EB612B6923F4F01343EA4141296130BD13
:101DB000032116201124EAE7042119201424E6E760
:101DC00005211B201624E2E706211D201824DEE74A
:101DD00007211E201B24DAE70821D2E70000024079
:101DE0001B4B1C4A1B681268D90754BF1A4B5B086F
:101DF000D10754BF184A5208934228BF1346174AC6
:101E0000934206D8012812D0022814D040F2334061
:101E10000FE0134A934206D901280FD0022810D0B0
:101E20004FF47A7005E001280ED00228F8D140F274
:101E30007E40FFF785BF4FF49660FAE740F201401D
:101E4000F7E740F21A40F4E740F24C40F1E700BFF8
:101E500030FD090040FD0900A07E2601A0DF010140
:101E6000A01D4B01174B98420CD80020164B174A67
:101E70001B681168DA0741BF154A5B08136151619D
:101E8000FFF7AEBF134B98420DD8134B134A1B6894
:101E90001168D80742BF0E4A5B0813614FF001007A
:101EA00048BF5161ECE70E4B0E4A1B681168DA0718
:101EB00042BF074A5B0813614FF0020048BF5161FF
:101EC000DEE700BF00E1F505E0FC0900E4FC0900E5
:101ED0000000024080A4BF07E8FC0900ECFC0900F8
:101EE000D8FC0900DCFC090010B504460E490F4877
:101EF00001F007FD0C49204601F003FD0C49D1F823
:101F00008030013B002BC1F8803008DB8B6F5A1CFE
:101F10008A670A221A70BDE8104001F0EEBB7831E2
:101F20000A2001F00DFCF6E7E0090020284100003E
:101F3000680900202DE9F041D5688046EB020E4685
:101F40001446576905D5384601F0ECFD45F01005FB
:101F5000A061124B2B408BB13846A16901F0EBFD1B
:101F6000002806DAE3684FF0FF3043F08003E360B7
:101F700011E025F4003525F01005E56032464146B4
:101F8000384601F0DEFD20F00041761AA1690E44CA
:101F9000A6610028E6D1BDE8F08100BF1000020074
:101FA000F8B5304F3C68002851D10020F8BD2368B7
:101FB000B3F1805F39D1D4E9013151B10D68B5F188
:101FC000805F06D1DD1C4B682B4463608B68A36087
:101FD000F1E7B34207DB734505DC20464FF00053C1
:101FE00040F80C3BE2E7634511D920464FF000551D
:101FF000666040F80C5B22F003054219A2604FF0C6
:1020000080549B1B033B4451C2E90131CEE761B9C7
:10201000A0EB830000F046FF0130C6D04FF0005324
:1020200004F10C00C4E90036C0E72546A468002C82
:10203000BDD10C3000F036FF431CB6D04FF000533A
:102040008460C0E9003655B938600C30AEE7C21C78
:102050009608002506F10A0C06F1030EE7E7A860D2
:10206000F3E700BF200A002010B5FFF799FF0446F0
:1020700028B91722034901F064FD01F03EFB204618
:1020800010BD00BF3D410000034B034493F8803076
:102090001B0748BF20387047554100002DE9F84321
:1020A000C6683C4B044633400D4690461BB9022798
:1020B0003846BDE8F883D0F81490484601F035FD65
:1020C00007460028F3D1B8F1010F2CD0B8F1020F68
:1020D0002ED0B8F1000FEAD1002DE8DBB00404D512
:1020E0002368E26A9A4238BFE362A169A9420EDC22
:1020F0002368E26A934238BF134622695818801A4F
:10210000A84204DB206B01EB000CAC4531DC002362
:10211000C4E9013346F02006A56226F4032626F022
:102120004006E660C4E7204600F036F80544D3E7F1
:10213000484601F0F7FCB0F1000CE26804DA42F026
:1021400080020127E260B3E72168A369E06A814267
:102150002CBF5B181B1821699206A3EB010303D562
:10216000A26A9342B8BF13466345ACBFED186544FD
:10217000B2E76D1AB10744BF281AA060F10744BF47
:102180009B1AEB1A154448BF6360256026F02006B1
:10219000C3E700BF03001000C3689A0705D12122DE
:1021A0000D4B4FF0FF301A60704703F020021B0305
:1021B00009D512B1806A01387047036882690069E5
:1021C0001344181AF7E70AB1806A704703688269F6
:1021D00000691344181A7047240A002010B5174AE2
:1021E0001749002001F0F8FB4FF480734FF4806230
:1021F0000021124801F09DFB124A1349012001F011
:10220000EBFB4FF480734FF4806200210D4801F026
:1022100090FB0E4B1B68022B0EDD0D4A0A49022073
:1022200001F0DAFBBDE810404FF480734FF4806298
:102230000021074801F07DBB10BD00BF68090020E8
:10224000D5420000A4090020D7420000244100002C
:10225000E00900202DE9F04F9DB0CDE908230023CF
:102260000446279D0493269F17F8010B18B904987C
:102270001DB0BDE8F08F25281AD0049A0899049B58
:102280008A42099A03F101064FEAE373934108DA9F
:10229000A368013B002BA36006DB23685A1C226065
:1022A000187004962697DEE7214601F049FAF8E710
:1022B0004FF0000909E02D2E04D0302E0FD149F443
:1022C000007901E049F001095F46BB461BF8016B4C
:1022D0002B2E2BD0EFD8202E2BD0232E2CD02A2EF5
:1022E0002DD155F8048B9BF80060B8F1000FBCBFEE
:1022F000C8F1000889F0010907F1020B28EAE87328
:102300002E2E0A934FD19BF800602A2E24D04FF036
:10231000000A0A220BF1010BA6F13003D9B20929F8
:1023200020D802FB0A3A1BF8016BF5E749F00209D5
:10233000CAE749F00409C7E749F00809C4E74FF0C4
:1023400000080A22A6F13003D9B20929D6D802FB27
:1023500008381BF8016BF5E755F804AB9BF80160F2
:102360000BF1020BBAF1000F1DDB49F010096C2EC6
:102370000ED19BF800606C2E03BF9BF8016049F002
:1023800060090BF1020B0BF1010B18BF49F020099A
:102390004C2E01D0712E09D15B4613F8016B49F028
:1023A00060099B4613E04FF0000AE0E7682E66D113
:1023B0009BF80060682E03BF9BF8016049F48079A8
:1023C0000BF1020B0BF1010B18BF49F08009782EBD
:1023D00009DC572E60DC412E00F0CC8200F3A68091
:1023E000002E00F0FB800A9B5F1E19F0010305938D
:1023F00040F0D48019F4007FDDF8109018BF30222F
:102400004B4608BF2022BA46DB17BAF1010A40F159
:10241000A880B8F1000FCCBF3B4600230A99049A6C
:10242000C1F10107D8BF002713440A9A023A1744A2
:1024300008995A1C8B4204924FEAE372099B72EB93
:10244000030309DAA368013B002BA360C0F2A88054
:1024500023685A1C22601E70059B73B1B8464FF06A
:10246000200A049E4FEAE679B8F1010840F19D8008
:10247000049B002FA8BFDB1904932F46BCE06A2EF3
:1024800005D149F040095B4613F8016B89E77A2EC4
:10249000F9D0742E9BD1F6E7A6F15803202BA2D8D1
:1024A00001A252F823F000BF61270000E7230000DB
:1024B000E7230000E7230000E7230000E7230000F4
:1024C000E7230000E7230000E72300007529000050
:1024D000E72300005D2500000B29000037250000E0
:1024E0003725000037250000E72300000B290000F6
:1024F000E7230000E7230000E7230000E7230000B4
:10250000E32500006328000001280000E723000005
:10251000E72300001F260000E7230000C528000075
:10252000E7230000E7230000B127000026F00203A4
:10253000452B7FF458AF073525F00707F7E802234E
:10254000CDE91223002319F0100F08BF4FF0060A3F
:102550001A4619469C4649F4806958E155F8046BBF
:1025600041E708998945099973EB010108DAA168E7
:1025700001390029A16008DB2168481C20600A702D
:1025800019F1010943F100033FE710462146079383
:10259000069201F0D5F8DDE90623F1E7049B47E751
:1025A0002146304601F0CCF856E7089B9E42099B35
:1025B00079EB030309DAA368013B002BA36008DB76
:1025C00023685A1C226083F800A0013649F10009F3
:1025D0004AE72146202001F0B3F8F6E70BF1FF3B74
:1025E0004BE719F0400F2B68049A05F1040707D058
:1025F0000499D217C3E900123D46049E5F4650E697
:1026000019F0200F01D01A60F6E719F4807F01D08D
:102610001A70F1E719F0800FF5D01A80ECE72F4619
:10262000A14B57F8046B002E08BF1E46304601F040
:102630009FF919F0100F059004D050450346A8BF2C
:10264000534605930A9B059A9D1A19F001030693B8
:1026500013D119F4007F14BF30232023A946DDF8DD
:1026600010804FEAE87AB9F1010927D5049A25EAE2
:10267000E5731A44013D0492ED1A4FF00009DDF8AC
:1026800010804FEAE87A059B994532DBDDE9043298
:10269000002AA8BF9B180493069B002BACD0A84629
:1026A0004FF0200A049E4FEAE679B8F101083ED5C2
:1026B000049B002DA8BF5B1904939DE7089A9045E1
:1026C000099A7AEB020208DAA268013A002AA260AB
:1026D00008DB2268511C2160137018F101084AF1CF
:1026E000000AC0E718462146079301F029F8079B26
:1026F000F3E7089B9845099B7AEB03030ADAA36882
:10270000013B002BA3600CDB23685A1C226016F8E7
:1027100009201A7018F1010809F101094AF1000AAB
:10272000B1E7214616F8090001F00AF8F2E7089B24
:102730009E42099B79EB030309DAA368013B002B56
:10274000A36008DB23685A1C226083F800A00136CE
:1027500049F10009A9E72146202000F0F1FFF6E742
:1027600019F040021DBF073525F007052F462F46FB
:102770001ABF57F8083B6A6857F8043B19F0800104
:102780000FD000229BB24948494919F0080F14BFE5
:1027900084468C4619F0100F01D029F40079454980
:1027A00035E019F4807F1CBF0A4603F0FF03EAE717
:1027B00019F040021DBF073525F007052F462F46AB
:1027C0001ABF57F8083B6A6857F8043B19F08001B4
:1027D0000FD000229BB23848354919F0080F14BFBA
:1027E00084468C4619F0100F01D029F40079334942
:1027F0000DE019F4807F1CBF0A4603F0FF03EAE7EF
:102800002F46002257F8043B2C49DFF8ACC0089D46
:1028100004980DF1500E281A0690049D0998CDE9F0
:102820000EAC60EBE57007904FF0FF307546CDE9D8
:1028300010004FF0550C00200130202805F801CB86
:10284000FAD119F4826F04BF01200E906E2E00F3AE
:102850009980472E00F31581402E00F3A3800025B8
:10286000A8E019F040021DBF073525F007052F46E7
:102870002F461ABF57F8083B6A6857F8043B19F00F
:10288000800109D000229BB20D4819F0080F0849B9
:1028900014BF84468C4654E019F4807F1CBF0A465E
:1028A00003F0FF03F0E700BFD9420000E042000060
:1028B00054410000EC420000E3420000FD420000F1
:1028C000E642000019F040021DBF073525F007055C
:1028D0002F462F461ABF57F8083B6A6857F8043B43
:1028E00019F080010AD000229BB219F0100102D029
:1028F000002129F40079DFF83CC388E719F4807FD0
:102900001CBF0A4603F0FF03EFE719F0400F17BFA3
:1029100007352F4625F007052F460DBF57F8043B16
:1029200057F8083B6A68DA1719F0800F11D043F3A3
:10293000C0321BB2002A13DA5B42DFF8FCC262EB42
:10294000420219F010013FF462AF002129F400792E
:102950005DE719F4807F1CBF43F3C0125BB2E9E767
:1029600019F0020F03D1B24819F0040F8FE7DFF816
:10297000CCC2E6E719F0100F04BF4FF00D0A49F082
:102980001009D8E56F3E0025092E13D8DFE816F0B0
:10299000C200B20012001200120012000E0112005A
:1029A0001200B2000125A6F14100854015F0510545
:1029B00040F0FF8019F480630B9300F00A8100233C
:1029C0000E93109B002BC4BF03F1FF330E93119B9A
:1029D000002B03DD0E9A013B13440E930E9B0F98C0
:1029E000EE1800F0C5FF0A9B9B1B40F201261B1A44
:1029F000059319EA060609F001030C9300F0138110
:102A00000026B246F3170A930F9B5A1C0F9293F8B5
:102A10000080B8F1000F40F013810C9BABB919F4A2
:102A2000007F14BF30232023B146059A4FEAE67A8F
:102A30000A920A9A013A0A9240F11F81059B5A1E96
:102A400023EAE373D21A05921E440B9B002B40F03D
:102A50005E81B0464FF0300A4FEAE6790E9B013BAB
:102A6000002B0E9380F29F81B0462B464FEAE67909
:102A7000002B03F1FF3A00F3B181002DA8BF7619B6
:102A800047E1A6F1580011283FF6E9AE11283FF6BC
:102A9000E6AE01A555F820F0FD2A00005F280000F1
:102AA0005F2800005F2800005F2800005F2800000A
:102AB0005F2800005F2800005F280000B32B0000A3
:102AC0005F2800005F280000AB2B0000B32B000044
:102AD000B32B0000B32B00005F280000AB2B0000DD
:102AE00003F00F00085C1B0943EA027301350EF87E
:102AF000010B120953EA0200F2D15BE70025F9E766
:102B000003F007013031DB0843EA427301350EF868
:102B1000011BD20853EA0201F2D14BE75E08990883
:102B200041EA827146EAC27676184FEA920040EB9B
:102B30005200310941EA0071761840EB1010310A59
:102B400041EA0061711840EB10200E0C46EA004685
:102B50008E1940EB1040361840F10000F60846EAA6
:102B60004076A6FB08A1C00808FB001113F1060C73
:102B700042F10002BCEB0A0C62EB01024FEA1C1CA2
:102B80004CEA027C1CEB060C03F130030CEB8C01CD
:102B9000A3EB41030EF8013B634605F1010540EB51
:102BA000121253EA0201B9D104E700254FF00A08D6
:102BB000F7E711AB039310AB02930EAB01930FAB8E
:102BC000289D009330464B4614AA12A9A8470546F3
:102BD000F0E60E9B0B9A5B1B48BF1346FDE6069B77
:102BE0009E42079B78EB03030ADAA368013B002BA4
:102BF000A36013DB23685A1C22604FF020021A7076
:102C0000013648F10008AAEB0603002BE7DA059B22
:102C100023EAE376AAEB06030593F2E62146202099
:102C200000F08EFDECE7059BB04603F1FF3AEAE7C2
:102C30003B41000054410000E8420000EA4200002D
:102C4000069B079A9A450A9B06F10106934109DA09
:102C5000A368013B002BA3600ADB23685A1C226097
:102C600083F800800A9B1AF1010A43F10003CAE6C7
:102C70002146404600F064FDF4E7069A9145079A24
:102C80007AEB020208DAA268013A002AA26008DBA5
:102C90002268511C2160137019F101094AF1000AE0
:102CA000C7E6184621460D9300F04AFD0D9BF3E759
:102CB00014AB13F808004FEAE6793C281ED03E28F2
:102CC0005BD1B246119B013B002B11931CDB069B91
:102CD0000AF1010A9E42079B79EB03030ADAA36813
:102CE000013B002BA36043DB23685A1C22604FF09A
:102CF00030021A70013649F10009E3E7B246109B31
:102D0000013B002B109317DA564608F101084545A0
:102D1000CEDC0C9B6BB135464FF0200ADDF81480F9
:102D20004FEAE679B8F1010874D5059B002BA8BFDE
:102D3000F618049B3344BFE4069B0AF1010A9E4245
:102D4000079B79EB03030ADAA368013B002BA3601E
:102D500009DB23685A1C22604FF030021A700136DA
:102D600049F10009CBE72146302000F0E9FCF6E705
:102D70002146302000F0E4FCBCE7069B06F1010A86
:102D80009E42079B79EB0303BEDAA368013B002B4D
:102D9000A36004DB23685A1C22601870B4E7214644
:102DA00000F0CEFCB0E7069B01369845079B79EB17
:102DB000030309DAA368013B002BA36009DB236846
:102DC0005A1C226083F800A018F1010849F100099B
:102DD00044E62146302000F0B3FCF5E7069B984519
:102DE000079B79EB03030BDAA36814AA013B002BC2
:102DF00012F80A00A36009DB23685A1C22601870CD
:102E000018F10108534649F1000931E6214600F066
:102E100097FCF5E7069B9D42079B79EB030309DAD4
:102E2000A368013B002BA36008DB23685A1C2260C7
:102E300083F800A0013549F1000973E721462020FD
:102E400000F07EFCF6E700BF70B594B00C46064675
:102E5000154600213C2205A800F050FC0A230893E7
:102E60006FF0004307930E4B0094CDE901534FF0F0
:102E7000FF326FF0004305A80596FFF7EBF9079BBB
:102E80000446013B002B079305DB0022059B1A70CB
:102E9000204614B070BD05A9002000F051FCF7E7F2
:102EA0002F39000070B50B4D2B680BB90A4B2B6006
:102EB00003302E6820F003043444204600F02EF83E
:102EC00010B92C60304670BD0C22044B4FF0FF3619
:102ED0001A60F7E71C0A00202C0A0020240A0020B0
:102EE000F8B5044638B905460A4B0B4E1F68A74291
:102EF00005DC2846F8BDBDE8F84000F0D7BD3046F7
:102F000000F0D4FD002818BF4FF0FF3501343C36E7
:102F1000EDE700BF2441000068090020044B23B105
:102F2000984234BF0020012070471846704700BF08
:102F30002C1A002008B5FDF779F908BD08B5FDF792
:102F400075F908BD08B5FDF771F908BD08B5FDF7BD
:102F50006DF908BD08B5FDF769F908BD08B5FDF7BD
:102F600065F908BD08B5FDF761F908BD08B5FDF7BD
:102F70005DF908BD08B5FDF759F908BD08B5FDF7BD
:102F800055F908BD08B5FDF751F908BD08B5FDF7BD
:102F90004DF908BD08B5FDF749F908BD08B5FDF7BD
:102FA00045F908BD08B5FEF78BF808BD08B5FEF772
:102FB000B5F808BD08B5FEF7DFF808BD08B5FEF79F
:102FC00009F908BD08B5FEF733F908BD08B5FEF7E5
:102FD0005DF908BD08B5FEF787F908BD08B5FDF72E
:102FE00025F908BD08B5FDF721F908BD08B5FDF7BD
:102FF0001DF908BD08B5FDF719F908BD08B5FDF7BD
:1030000015F908BD08B5FDF711F908BD08B5FDF7BC
:103010000DF908BD08B5FDF709F908BD08B5FDF7BC
:1030200005F908BD08B5FDF701F908BD08B5FDF7BC
:10303000FDF808BD08B5FDF7F9F808BD08B5FDF7BE
:10304000F5F808BD08B5FDF7F1F808BD08B5FDF7BE
:10305000EDF808BD08B5FDF7E9F808BD08B5FDF7BE
:10306000E5F808BD08B5FDF7E1F808BD08B5FDF7BE
:10307000DDF808BD08B5FDF7D9F808BD08B5FDF7BE
:10308000D5F808BD08B5FDF7D1F808BD08B5FDF7BE
:10309000CDF808BD08B5FDF7C9F808BD08B5FDF7BE
:1030A000C5F808BD08B5FDF7C1F808BD08B5FDF7BE
:1030B000BDF808BD08B5FDF7B9F808BD08B5FDF7BE
:1030C000B5F808BD08B5FDF7B1F808BD08B5FDF7BE
:1030D000ADF808BD08B5FDF7A9F808BD08B5FDF7BE
:1030E000A5F808BD08B5FDF7A1F808BD08B5FDF7BE
:1030F0009DF808BD08B5FDF799F808BD08B5FDF7BE
:1031000095F808BD08B5FEF71DF908BD80B584B077
:1031100000AF78607B68FB600BE07B681B7818462B
:10312000FEF7B2FF0346DAB27B681A707B680133A0
:103130007B607B681B78002BEFD1FB68184610374B
:10314000BD4680BD80B485B000AF0346FB80FB88E0
:103150001B0AFB60FB88DBB24FF0804101229A40E2
:10316000FB68883341F8232000BF1437BD465DF863
:10317000047B704780B485B000AF0346FB80FB88BA
:103180001B0AFB60FB88DBB24FF0804101229A40B2
:10319000FB68903341F8232000BF1437BD465DF82B
:1031A000047B704780B483B000AF78607B68D3F84D
:1031B000043E18460C37BD465DF8047B704780B46A
:1031C00083B000AF786039603B6803F00F027B6822
:1031D000C3F8102E00BF0C37BD465DF8047B704766
:1031E00080B483B000AF78607B68D3F8303EDBB248
:1031F00018460C37BD465DF8047B704780B485B037
:1032000000AF0346FB80FB881B0AFB60FB88DBB238
:103210004FF0804101229A40FB68883341F8232017
:1032200000BF1437BD465DF8047B704780B485B09D
:1032300000AF0346FB80FB881B0AFB60FB88DBB208
:103240004FF0804101229A40FB68903341F82320DF
:1032500000BF1437BD465DF8047B704780B485B06D
:1032600000AFF860B9607A60FB70FA68BB685B0118
:103270001A447B681344FA781A7000BF1437BD46AD
:103280005DF8047B704780B485B000AFF8607B6068
:103290000B46FB721346BB72F97ABA7AFB68490196
:1032A0000A44796843F8221000BF1437BD465DF820
:1032B000047B704780B584B000AF786039607B686C
:1032C0001B017B600023FB600DE039687868FDF727
:1032D000B5FA7B6801337B603B6803F580733B6024
:1032E000FB680133FB60FB680F2BEED900BF00BF0A
:1032F0001037BD4680BD80B586B000AFF860B960BC
:103300007A6000237B6110E0F868FDF757FAB9682E
:10331000F868FFF7CFFFFB680133FB60BB6803F57C
:103320008053BB607B6901337B617B681B0B01337E
:103330007A699A42E8D300BF00BF1837BD4680BD06
:1033400080B485B000AF0346FB80FB881B0AFB609E
:10335000FB88DBB24FF0804101229A40FB68883342
:1033600041F8232000BF1437BD465DF8047B704749
:1033700080B485B000AF0346FB80FB881B0AFB606E
:10338000FB88DBB24FF0804101229A40FB6890330A
:1033900041F8232000BF1437BD465DF8047B704719
:1033A00080B485B000AFF860B9607A60FA68BB6835
:1033B0005B011A447B6813441B78DBB21846143750
:1033C000BD465DF8047B704780B485B000AFF860FF
:1033D0007B600B46FB721346BB72F97ABA7AFB68C4
:1033E00049010A44796843F8221000BF1437BD46EA
:1033F0005DF8047B704704207146084202D0EFF369
:10340000098001E0EFF3088081690A884BF6AB631D
:103410009A4200D0FEE702318161202101607047AD
:1034200000BF80B584B000AF78600023FB6078688F
:10343000FDF798FDF8604FF080427B68C83352F882
:10344000233003F47F43BB604FF080427B68C83376
:1034500052F82330DBB20133BA68B2FBF3F3013325
:10346000FA68B2FBF3F318461037BD4680BD80B44E
:1034700085B000AF0346FB80FB881B0AFB60FB881E
:10348000DBB24FF0804101229A40FB68883341F85B
:10349000232000BF1437BD465DF8047B704780B41D
:1034A00083B000AF78600B46FB70FB78002B01D136
:1034B000012320E0FB78042B0ED87B68D3F8F82F8B
:1034C000FB78033322FA03F303F00103002B14BF4C
:1034D00001230023DBB20EE0FB78052B0AD17B68C9
:1034E000D3F8F83F03F08003002B14BF012300231F
:1034F000DBB200E0002318460C37BD465DF8047BC4
:10350000704780B584B000AFF8600B467A60FB72FC
:10351000FB7A1946F868FFF7C2FF034683F0010300
:10352000DBB2002B01D0032321E0FB68D3F8F83F86
:1035300003F00803002B09D0FB68D3F8F83F03F031
:103540000702FB7A9A4201D0012310E07B68002B2E
:1035500008D0FB7A43F00803DBB21A46FB68C3F8D5
:10356000F82F03E0FA7AFB68C3F8F82F0023184617
:103570001037BD4680BD80B485B000AF0346FB80E8
:10358000FB881B0AFB60FB88DBB24FF08041012205
:103590009A40FB68883341F8232000BF1437BD46AA
:1035A0005DF8047B704780B584B000AFF860B96007
:1035B0007A603B60B968F868FDF7F2FE3B681B78FB
:1035C000002B13D1FB68BA6802F5006253F8222081
:1035D00001217B6801FA03F3DB4302EA0301FB6884
:1035E000BA6802F5006243F822102AE03B685B7873
:1035F000002B0AD101227B6802FA03F1FB68BA684A
:1036000002F50A6243F8221009E001227B6802FAFF
:1036100003F1FB68BA6802F5086243F82210FB6800
:10362000BA6802F5006253F8222001217B6801FA92
:1036300003F342EA0301FB68BA6802F5006243F84B
:10364000221000BF1037BD4680BD80B582B000AFEC
:1036500078607868FDF7BEFE7868FDF7E9FE00BF88
:103660000837BD4680BD80B483B000AF78600B469C
:10367000FB70FB78002B08D07B68D3F8003443F054
:1036800001027B68C3F8002407E07B68D3F80034AC
:1036900023F001027B68C3F8002400BF0C37BD464D
:1036A0005DF8047B704780B483B000AF78600B4650
:1036B000FB70FB78002B06D07B685B6843F480725C
:1036C0007B685A6005E07B685B6823F480727B68E6
:1036D0005A6000BF0C37BD465DF8047B704780B46C
:1036E00000AF00BFBD465DF8047B704708B5FEF72C
:1036F00075FDBDE80840FDF777B9FEE700F0F6B9C3
:10370000C36810B523F020038269C360836A04464E
:103710009A420ED000F0B4F8E36823F4405323F04B
:10372000100343F01003E360A36AA3612369E3621B
:103730002360E36823F4804323F04003E36010BD7B
:10374000CB6870B523F400220C46CA609906054682
:1037500002D52046FFF7D4FFD4E902365A1C10DA0E
:10376000B0050ED4C3F1FF2303F57F03FE33A3603E
:10377000236846F490365A1CE66022601D70E8B259
:1037800070BD41F28A023240022A07D0002346F07F
:103790008006A360E6604FF0FF30F1E74AF21003C5
:1037A0003340B3F5004F0AD100212046FEF776FCE6
:1037B000E368990602D52046FFF7A2FFE66846F4C3
:1037C000903316F4706FE3600ED1606900F0ADF9CC
:1037D00000B372051ED504F1240323612360012385
:1037E000E36146F49233E36013F4106F22682669B4
:1037F00026D0E36A9A422CBFC6EB0201C6EB030156
:10380000B9B9731CE3622360E3695A1EA2602363A3
:103810003570B4E74FF48070FEF726FC4FF48073E8
:10382000E268E36146F494331A4320612060E26069
:10383000DAE722463046FEF77DFB0028E1D0AAE712
:10384000511CEDB221601570E26A206890422CBFD5
:10385000C6EB0001C6EB0201E2695B05226303D4FB
:103860000A2D01D08A4209DC002322463046E66256
:103870002660A360FEF75EFB00288CD128467FE718
:1038800038B5044605690168C36AC06820F400229F
:10389000E26000F08202022A02D04FF0FF3038BD11
:1038A00010F48030FBD0994238BF19468D4208D1C0
:1038B0000020E368E56223F480332560A060E360C4
:1038C000EDE722462846491BFEF734FB0028EFD0DF
:1038D000E3E7A8B14FF0805340F80C3C50F8042CBB
:1038E00072B11368B3F1805F0AD150F8083C516897
:1038F00003330B4440F8083C936840F8043CEDE780
:10390000704738B505460C4615F8010B70B1A36831
:10391000013B002BA36004DB23685A1C2260187053
:10392000F2E72146FFF70CFF431CEDD138BD002024
:10393000704770B5C468A50708D0B2F5007F11D0F4
:10394000B2F5806F04D0B2F5807F0BD0012008E083
:10395000012300F12401224301610160C361C260BF
:10396000002070BD6FF07F455E1EAE42F3D3EDE7E1
:1039700010B5431C8207044614D1204654F8042B8A
:10398000A2F1013121EA020111F0803FF5D0D1B25C
:1039900081B112F47F4F0BD012F47F0F14BF204679
:1039A000033003E010F8012B002AE3D1C01A10BD48
:1039B0000230FBE70130F9E730B54C1E421E14F827
:1039C000013F43B112F8015F9D42F8D010F8013B6E
:1039D000002BF2D1184630BD70B50D460646104694
:1039E000144600F02DF82B78722B17D0772B18D0B7
:1039F000612B23D1082348F2020215F8011F2B295D
:103A000012D0622915D01B07E260666104D502223C
:103A100000212046FEF742FB204670BD0023012214
:103A2000EBE704230222E8E742F0030243F002033B
:103A3000E3E742F0040243F00103DEE70024EBE792
:103A4000F0B5C4680546A10789B022D0220718D472
:103A5000D0E90467FFF744FA384600F060F8230520
:103A600002D53046FFF735FFA40DA40514F1A54F8C
:103A700007D120226846296A00F060F8684600F005
:103A80000BF83C2200212846FFF738FE002009B041
:103A9000F0BD4FF0FF30FAE710B50446FFF768FFBE
:103AA00001462046BDE8104000F042B8C36870B53A
:103AB00013F00306044611D09B0611D5856AFFF763
:103AC0001FFEE368204623F44053E360FFF7D8FE6F
:103AD0000022064629462046FEF7E0FA304670BD31
:103AE000816905680D4401696D1AEAE7034613F020
:103AF000030F0ED101F0FF0141EA012141EA01412A
:103B0000043A24BF43F8041BB2F10402F9D202F1D3
:103B10000402013A24BF03F8011BFAE770474FF093
:103B2000FF3070474FF0FF3070474FF0FF30704765
:103B30004FF0FF3070474FF0FF3070474FF0FF30CD
:103B4000704710467047FFFF555044415445424965
:103B50004E0000004F4B000057726974652064618D
:103B6000746120256420646F6E650D0A00000000FA
:103B7000455241534542494E000000004572617371
:103B8000652053504920466C6173682053746172FC
:103B9000740D0A0045726173652053504920466CCC
:103BA0006173682046696E69736865640D0A00FF79
:103BB00066736C5F636C6F636B2E633A38343120CD
:103BC0003A2066616C736500006008400070084030
:103BD000008008400090084000A0084000600940B4
:103BE000007009400080094000F009400B010C0101
:103BF0000D010E010F011001110112011C02FFFF46
:103C00000B0001000C0001000D0001000E0001007E
:103C10000F0001001000010011000100120001005E
:103C20001C00020066736C5F666C6578636F6D6D77
:103C30002E633A313036203A2069203C20287569BD
:103C40006E7433325F742946534C5F464541545578
:103C500052455F534F435F464C4558434F4D4D5F70
:103C6000434F554E5400FFFF66736C5F666C65787A
:103C7000636F6D6D2E633A313937203A20735F667A
:103C80006C6578636F6D6D49727148616E646C65C7
:103C9000725B696E7374616E63655D20213D204EB9
:103CA000554C4C0066736C5F666C6578636F6D6D28
:103CB0002E633A323131203A20735F666C65786347
:103CC0006F6D6D49727148616E646C65725B696E8F
:103CD0007374616E63655D20213D204E554C4C0030
:103CE00066736C5F666C6578636F6D6D2E633A32D8
:103CF0003235203A20735F666C6578636F6D6D496D
:103D0000727148616E646C65725B696E7374616E2A
:103D100063655D20213D204E554C4C0066736C5F01
:103D2000666C6578636F6D6D2E633A323339203A75
:103D300020735F666C6578636F6D6D497271486161
:103D40006E646C65725B696E7374616E63655D2031
:103D5000213D204E554C4C0066736C5F666C657857
:103D6000636F6D6D2E633A323534203A20735F668F
:103D70006C6578636F6D6D49727148616E646C65D6
:103D8000725B696E7374616E63655D20213D204EC8
:103D9000554C4C0066736C5F666C6578636F6D6D37
:103DA0002E633A323638203A20735F666C6578634A
:103DB0006F6D6D49727148616E646C65725B696E9E
:103DC0007374616E63655D20213D204E554C4C003F
:103DD00066736C5F666C6578636F6D6D2E633A32E7
:103DE0003832203A20735F666C6578636F6D6D4979
:103DF000727148616E646C65725B696E7374616E3A
:103E000063655D20213D204E554C4C0066736C5F10
:103E1000666C6578636F6D6D2E633A323936203A81
:103E200020735F666C6578636F6D6D497271486170
:103E30006E646C65725B696E7374616E63655D2040
:103E4000213D204E554C4C000E000F00100011007B
:103E500066736C5F6770696F2E633A3435203A2061
:103E6000706F7274203C2041525241595F53495A3D
:103E70004528735F6770696F436C6F636B4E616D4C
:103E8000652900FF66736C5F72657365742E633A13
:103E90003438203A20626974506F73203C203332EA
:103EA0007500FFFF66736C5F72657365742E633A0D
:103EB0003733203A20626974506F73203C203332CC
:103EC0007500FFFF66736C5F7370692E683A353456
:103ED00033203A204E554C4C20213D2062617365C1
:103EE0000000000066736C5F7370692E683A3534A9
:103EF00034203A204E554C4C20213D20636F6E6695
:103F0000696700FF006008400070084000800840BA
:103F10000090084000A0084000600940007009407F
:103F20000080094000F0094066736C5F7370692E71
:103F3000633A3832203A2069203C202875696E7433
:103F400033325F742946534C5F46454154555245C0
:103F50005F534F435F5350495F434F554E5400FFEB
:103F600066736C5F7370692E633A313239203A2080
:103F70004E554C4C20213D20636F6E66696700FFF3
:103F800066736C5F7370692E633A313736203A205E
:103F90002128284E554C4C203D3D206261736529F7
:103FA000207C7C20284E554C4C203D3D20636F6E7C
:103FB00066696729207C7C20283055203D3D207390
:103FC0007263436C6F636B5F487A292900FFFFFFC0
:103FD00066736C5F7370692E633A343131203A2016
:103FE0002128284E554C4C203D3D206261736529A7
:103FF000207C7C20283055203D3D20626175647214
:104000006174655F42707329207C7C2028305520C4
:104010003D3D20737263436C6F636B5F487A29295F
:1040200000FFFFFF66736C5F75736172742E633AF5
:10403000313938203A202128284E554C4C203D3D1E
:10404000206261736529207C7C20284E554C4C20D1
:104050003D3D20636F6E66696729207C7C20283097
:1040600055203D3D20737263436C6F636B5F487AEC
:10407000292900FF66736C5F75736172742E633A51
:10408000333034203A204E554C4C20213D20636F74
:104090006E66696700FFFFFF66736C5F7573617220
:1040A000742E633A333438203A202128284E554C58
:1040B0004C203D3D206261736529207C7C202830A6
:1040C00055203D3D2062617564726174655F427088
:1040D0007329207C7C20283055203D3D207372635D
:1040E000436C6F636B5F487A292900FF66736C5FCE
:1040F00075736172742E633A353131203A2021286C
:10410000284E554C4C203D3D206261736529207C32
:104110007C20284E554C4C203D3D20646174612923
:104120002900FFFF030000002A2A2A20617373651B
:104130007274206661696C6564203A20002A2A2A1C
:10414000205F437379735F616C6C6F632066616994
:104150006C65640A00000000000000000000000020
:10416000000000000000000000000000000000004F
:10417000000000000000000000000000000000003F
:10418000000000000000000000000000000000002F
:10419000000000000000000000000000000000001F
:1041A000000000000000000000000000000000000F
:1041B00000000000000000000000000000000000FF
:1041C00000000000000000000000000000000000EF
:1041D000000000000040404040404040404041411D
:1041E00041414140404040404040404040404040CC
:1041F0004040404040050202020202020202020266
:104200000202020202202020202020202020200262
:1042100002020202020290909090909010101010F2
:10422000101010101010101010101010101010108E
:104230000202020202028888888888880808080822
:1042400008080808080808080808080808080808EE
:104250000202020240000000000000000000000016
:10426000000000000000000000000000000000004E
:10427000000000000000000000000000000000003E
:10428000000000000000000000000000000000002E
:10429000000000000000000000000000000000001E
:1042A000000000000000000000000000000000000E
:1042B00000000000000000000000000000000000FE
:1042C00000000000000000000000000000000000EE
:1042D000000000000072007700286E756C6C2900E9
:1042E00030580030780030002D002B003031323350
:1042F000343536373839414243444546003031324F
:104300003334353637383961626364656600FFFFE0
:0C431000008000000024F400001BB70037
:040000030000018177
:00000001FF
