:1080000000C0022045810000DD81000061FB03000B
:10801000E1810000E3810000E5810000E7810000CC
:10802000000000000000000000000000E9810000E6
:10803000EB81000000000000ED81000099F90000D4
:10804000B5EC0300BDEC0300C5EC0300CDEC030070
:10805000D5EC0300DDEC0300E5EC0300EDEC0300E0
:10806000F5EC0300C9F30000FDEC030005ED03008F
:108070000DED030015ED030075CF00001DED0300AD
:108080006918010025ED030011000100C5EA000098
:108090002DED030035ED03003DED030045ED03003C
:1080A0004DED030055ED03005DED030065ED0300AC
:1080B0006DED030075ED03007DED030085ED03001C
:1080C0008DED030095ED03009DED0300A5ED03008C
:1080D000ADED0300B5ED0300BDED0300C5ED0300FC
:1080E000CDED0300D5ED0300DDED0300E5ED03006C
:1080F000EDED0300F5ED0300FDED030005EE0300DB
:108100000DEE030015EE03001DEE030025EE030047
:108110002DEE030035EE03003DEE030045EE0300B7
:108120004DEE030055EE03005DEE030065EE030027
:10813000B0C1040000000020140A0000000C002060
:10814000BC03010072B6134B134A17480360196849
:1081500081F3088882F30A8815F090FB0F4B07E043
:1081600003F10C049A685968186800F01FF8234658
:108170000B4A9342F4D306E01C46596854F8080BA6
:1081800000F023F82346074A9342F5D362B60BF07A
:1081900037F8FEE70080000000B0022030810000C8
:1081A0003C8100004481000008ED00E00023934280
:1081B0000AD210B450F8044B41F8044B04339342F4
:1081C000F8D35DF8044B70477047002303E00022AA
:1081D00040F8042B04338B42F9D37047FEE7FEE7E7
:1081E000FEE7FEE7FEE7FEE7FEE7FEE7FEE7FEE767
:1081F000FEE7FFFFFFFFFFFF2DE9FF471C460023BF
:1082000023708DF80D308DF80E308DF80F30304B17
:10821000804693F8233089469B0792460DD500236C
:108220005246CDE9003349462346404618F024FD26
:108230000546284604B0BDE8F0870DF10F03019311
:108240000DF10E0300930DF10D0300F0F5F9054655
:108250009DF80D0064282AD82FF07CF916A3D3E9E5
:1082600000232FF0E1F900221A4B2FF007FB0646FE
:108270000F469DF80E002FF06DF911A3D3E90023EE
:108280002FF0D2F910A3D3E900232FF0F7FA3246EA
:108290003B462FF013F800220E4B2FF0C5F92FF0BC
:1082A00085FCC0B20C28BAD801232370C1E702A70D
:1082B000D7E90067DDE700BF333333333333EB3FB8
:1082C000333333333333C33F0000000000E06F40EB
:1082D000480E0120000059402DE9F04FA24A8DB010
:1082E0001368CDE90501924613B100219F489847D4
:1082F0009F4C002017F09AF894F82430002B47D0B8
:108300009C4B9D4D9A899D4FDB7AADF828209C4A65
:108310008DF82A308DF82E302B7010883B8858430A
:108320002FF02AFF0795814648B91DF0F5FB4FF065
:108330000F0B1DF0D3FB58460DB0BDE8F08FDAF8F7
:10834000003013B100218F4898471EF091FA0026A3
:108350000A25DFF860B28A4B3A88198848461EF031
:1083600085F9804600286CD0013D15F0FF0540F0EE
:10837000B680DAF80030002B5FD1002548462FF098
:1083800003FFDAF800301BB1C5F10A017E489847B7
:1083900094F825501EF094FADAF8003013B1002159
:1083A0007A4898474FF00008794F022017F03EF8BE
:1083B000DFF80492774BB9F800101A8805981EF080
:1083C00055F98346022017F03BF8BA6901460320AD
:1083D0003AF01EFEBBF1000F40F0A18001216E4E6D
:1083E0006E4A304611700322594630F0B1FA731CC0
:1083F000684A009312880DF12703B9F80010059818
:108400003AF041FE9DF827002FF0A4F854A3D3E9D9
:1084100000232FF033FA2FF0C9FB7378B070434577
:108420005FD8069B012B40F09780002D5ED05C4BFF
:10843000186817F019F983465DE0014659489847D6
:108440009CE74FF0FF334E4900908DF827303A8873
:108450000DF12703098848463AF015FE9DF82E30A5
:1084600042468DF82A30DBF800304146039394F8F9
:108470002730404602930BAB01930AAB00930DF1FA
:1084800027033AF058FEB8B99DF82E2094F8223010
:108490009A4228BF8DF82E309DF82E2094F8213076
:1084A0009A4298BF8DF82E309DF82E001DF0C0FA2C
:1084B0009DF82E30079A13709DF82730322B07D97C
:1084C00003F11302B24203DB1336B3427FF756AF18
:1084D000013D15F0FF053FF450AF1E463BE7334624
:1084E000F6E7002DA3D1069B012B35D1206917F0AB
:1084F000BBF80025834696F80180BBF1000F01D040
:10850000002D5BD19DF82710092908D8DAF8003032
:108510000BB1254898471DF02DFC4FF0080B234A5E
:108520009DF827101170DAF8002022B194F8251078
:108530001F48491B904794F824201AB10D4AD07A5D
:108540001DF076FA002016F07BFF114B01469A6968
:1085500004203AF05DFDEEE66069C8E7AFF3008005
:108560006666666666660440380E0120F1C0040047
:10857000480E0120740E0120B80F01200E0A0020C1
:108580000C0A002002C104002BC1040046C10400F3
:10859000D80D01207C0F0120110A0020A80F012016
:1085A000A40F012011C1040055C10400B90F01201E
:1085B0006FC10400800400207E0F012094F8243055
:1085C000013DEDB2002B3FF4F0AE00229DF82E30BD
:1085D00011468DF82A30154B10461B68039394F80A
:1085E000273002930BAB01930AAB00930DF12703E5
:1085F0003AF0A1FD00287FF4D8AE9DF82E2094F823
:1086000022309A4228BF8DF82E309DF82E2094F803
:1086100021309A4298BF8DF82E309DF82E001DF023
:1086200007FA9DF82E20024B1A70BEE68004002047
:10863000B80F0120FFFFFFFF2DE9F04F2DED048B58
:1086400099B00B9300238DF853300DF15303064678
:108650000091144600F014FA10B9FF238DF853303E
:108660004FF480709DF853503BF0C9F903900028F7
:1086700000F000824FF4807200213BF08CFA4FF43E
:1086800000703BF0BCF90490002800F0F5814FF435
:10869000007200213BF07FFAA4F108002EF05AFF8F
:1086A0000022CD4B2EF0C0FF894680462FF056FAAF
:1086B00007B2824638462EF04DFF02460B46404632
:1086C00049462FF041FA10B10AF101073FB2009B71
:1086D000A3F108002EF03EFF0022BF4B2EF0A4FFB6
:1086E000894680462FF03AFA0FFA80FB82465846B8
:1086F0002EF030FF02460B46404649462FF024FA42
:1087000018B10AF1010A0FFA8AFB07FB0BF30C27D9
:108710005F43384601933BF072F98146002800F030
:10872000AB813A4600213BF036FA009BDFEDAB8A85
:108730001B010D93009B9FEDAA9A06EB8303059303
:108740002B020C930023089304230693A4F1140333
:108750000F93009B5B0013930F9B069A934280F24A
:108760004A81019B01275D1E0C2303FB0595019B9C
:10877000BB4200F358814FF0000B0C21019B5B457D
:108780005BDD01FB0B93D3ED007AF5EEC07AF1EEE1
:1087900010FA40F36C81019B0C225B444FEA630B9F
:1087A00001FB0B9115A83BF070FC0B9B8BB1DDED31
:1087B000157A9FED8C7AF4EEC77AF1EE10FADBBFF2
:1087C000FCEEE77ACDED007AFF239DF800300B9A9E
:1087D0001370269BBBB19DED160A2DF077FFDFEDE0
:1087E000817AB4EEE70AF1EE10FA00F33C819DEDD8
:1087F000160A2DF06BFFFCEEC07ACDED007A9DF8E5
:108800000030269A1370279BBBB19DED170A2DF0FF
:108810005DFFDFED747AB4EEE70AF1EE10FA00F3D3
:1088200024819DED170A2DF051FFFCEEC07ACDEDAD
:10883000007A9DF80030279A137048463BF0E1F823
:10884000002403983BF0DDF8049B13B104983BF03F
:10885000D8F8204619B0BDEC048BBDE8F08F10F8B5
:10886000014B21449042FAD100980244013B02D0CE
:10887000A2F11000F6E7089A02EB42040C9A09EB09
:108880008404914280F0B0800599029A07930A44CB
:10889000DDE9031701F11000119988424DD1002044
:1088A000079A002B4FEA2221039AB8BFFF33561EC6
:1088B000049A1B12971E024616F8015F6D1A05FBFB
:1088C000052237F9025FED1A05FB0500129DB5423E
:1088D000F2D107EE902AB8EEE78AF2EE047A28EE9B
:1088E000098A28EE278A07EE900AF8EEE77A67EE03
:1088F000897A84ED018A17EE900A2EF03DFE34A3AA
:10890000D3E900232EF0DAFC2FF070F907EE900A7D
:1089100088EE277A84ED007AA060089B01331BB2B1
:108920000893029B103302930E9B029A934272DBD0
:10893000109B00219A18112398E7009D02EB050C6B
:10894000CDE909C7139DACEB0506A0F11005A842BF
:1089500003D12037103062469EE7DDF824A0B646EA
:10896000514692F800B01AF8018C013608EB8B08DA
:108970009AF800B09EF801A008EB4B0B11F8018F9C
:108980000132D84492F800B0099108EB4B08D0446A
:108990009EF800A00A9908EB4A0A16F8028CD04407
:1089A00012F802AC08EB4A084FEA281885F8008054
:1089B00012F801ACAAEB080821F8028B0A9115F80D
:1089C00001EB0799434471440791C0E7AFF300807E
:1089D0009A9999999999B93F0000B03F0000000019
:1089E0000000803B00007F43C4ED018AC4ED028A91
:1089F000C4ED008A91E704230293009B143B0E937D
:108A0000059B10331093039B03F588731193039B0D
:108A1000FF33129388E7069B0D9A10330693059B4C
:108A20001344059398E62C4694ED007A54ED037AAE
:108A3000B4EEE77AF1EE10FAA4F10C060ED50C2292
:108A4000214615A83BF021FB0C22314620463BF085
:108A50001CFB0C2215A930463BF017FB0C3CA14532
:108A6000E2D1013783E6FF23CBE6FF23E3E60BF1F8
:108A7000010B83E60124ECE60124E2E6FFFFFFFFA1
:108A80002DE9F04F002600272DED028B00EB41056C
:108A90000C46A9464FF0080A47EC186B99B0CDE98F
:108AA0000632CDE90867CDE9106705904FF002085E
:108AB00019F808002EF04EFD02460B4630463946A6
:108AC0002EF0FCFB08F10108B8F10A0F06460F462C
:108AD000EED1BAF1010AA144E8D10022B64B2EF042
:108AE000A3FDAA4608274FF000084FF00009CDE982
:108AF0000001CDE9080102261AF806002EF02AFD31
:108B000002460B46DDE900012EF0D6FB02460B467D
:108B10002EF08AFD02460B46404649462EF0CEFB1B
:108B200001360A2E80468946E6D1013FA244E2D1B1
:108B30000022A14B2EF078FDAA468DED0A8B8DED1B
:108B4000128B4FF0080B3B464FF000084FF0000926
:108B5000CDE91001A21EA4F10A06009237460DE0ED
:108B60001AF807002EF0F6FC0B460246494640462E
:108B70002EF0A4FB0123804689460137009A9742D4
:108B8000EED1BBF1010BA244E8D10BB1CDE90A89CA
:108B9000DDE90A01884B00222EF046FD4FF008085F
:108BA00000234FF0000A4FF0000BCDE90201CDE9A0
:108BB0000A01374616E0E85D2EF0CCFC02460B4673
:108BC000DDE902012EF078FB02460B462EF02CFD6B
:108BD0000B460246594650462EF070FB0123824652
:108BE0008B460137009A9742E5D1B8F10108254438
:108BF000DFD10BB1CDE912ABDDE912016E4B0022E2
:108C00002EF012FD079B8DED0C8BA3F10A05059B41
:108C10008DED148B04FB05354FF0090AAB4600239C
:108C20004FF000084FF00009CDE91201BAF1010A36
:108C300040F0DD800BB1CDE90C89DDE90C015E4B24
:108C400000222EF0F1FCA9464FF0090800234FF056
:108C5000000A4FF0000BCDE90201CDE90C01B8F19B
:108C6000010840F0E3800BB1CDE914ABDDE914015C
:108C7000514B00222EF0D8FCAA468DED0E8B8DEDC7
:108C8000168B4FF00909002300260027CDE91401B7
:108C9000B9F1010940F0CC800BB1CDE90E67DDE9F7
:108CA0000E01454B00222EF0BFFC804689464FF056
:108CB000090B002300260027CDE90E89BBF1010B2B
:108CC00040F0CC800BB1CDE91667DDE916010FF25B
:108CD000D00BDBE900AB0022374B2EF0A5FC0026C1
:108CE000CDE9160108AFF7E8024552465B4620463B
:108CF00029462EF00BFF08B1A246AB460136042EE2
:108D0000F1D100259FED287B10AB1E462C468DED42
:108D1000007BF6E802010022284B2EF0F7FEF8B1A6
:108D200008AB2B44D3E900890022254B4046494635
:108D30002EF00AFF50B952465B46404649462EF097
:108D4000BBFA00221F4B2EF0FFFE48B1DDE9000107
:108D500042464B462EF0B2FACDE900010134E4B2AE
:108D60000835202DD5D1A4B1069B8BB120462EF01D
:108D7000F1FB02460B46DDE900012EF07FFD0CA35E
:108D8000D3E900232EF050FC2EF010FF069B187044
:108D90000124204619B0BDEC028BBDE8F08F00BF66
:108DA0000000000000E06F40000000000000000034
:108DB000C3F5285C8FC2ED3F0000903F00004940A2
:108DC00000006440000059401BF807002EF0C2FB71
:108DD0000B460246494640462EF070FA0123804673
:108DE00089460137009A9742EED1A3441EE73746E1
:108DF000F8E719F807002EF0ADFB02460B46DDE957
:108E000002012EF059FA02460B462EF00DFC0B46DD
:108E10000246594650462EF051FA012382468B46AF
:108E20000137009A9742E4D1A14418E73746F8E7A2
:108E30004FF002081AF808002EF08CFB02460B4691
:108E4000304639462EF03AFA08F10108B8F10A0F17
:108E500006460F46EED1A244012319E74FF0020A5D
:108E600015F80A002EF076FB02460B4640464946AE
:108E70002EF022FA02460B462EF0D6FB02460B4697
:108E8000304639462EF01AFA0AF1010ABAF10A0FF1
:108E900006460F46E4D1254401230FE7FFFFFFFFFD
:108EA0002DE9F04F0024ADF2344D1E46DDF8583464
:108EB0000CAD1C600B4653430593CDE906104FF4EF
:108EC0008073174605992A469DF860B40B943BF0D1
:108ED000C2F823469B4501DC002406E055F8232018
:108EE0000A2A7FD9322BDCB277DC4FF00009254605
:108EF0002346C8460CA99B4576DCB9F1000F6CD01F
:108F00000DF1300A5AF824002EF014FBCDE90801C7
:108F100048462EF00FFB42A3D3E900232EF084FB3A
:108F200002460B46DDE908012EF00EFE002854D162
:108F3000B8FBF9F8224603465FFA88F093455ADCFD
:108F4000B3FBF9F300EE103AB8EE400A2DF0BEFB89
:108F50008DED080A2EF0FEFA9DED080A804610EE0F
:108F6000100A89462EF008FB2FA3D3E900232EF028
:108F70005BFB02460B46404649462EF09DF9804673
:108F80008946013420462EF0E5FA42464B462EF043
:108F9000DBFD002838D0E0B200231A460BAC23607A
:108FA0000CA9A84236DC03B122602368B34202DC7C
:108FB000059BB34211DC00232360DDF85C34CDE96E
:108FC0000006DDE90610CDE902433A4602232DF002
:108FD0000BFB2368DDF85824136000200DF2344D9C
:108FE000BDE8F08F013375E751F8232003FB0288B9
:108FF000914401337FE7111A01FB01FC5AF822105A
:10900000013201FB0C3399E7404649462EF0CEFD74
:10901000C0B2C1E751F8253001351A440123C0E739
:10902000333333333333D33F666666666666024056
:109030002DE9F04F8BB095001F469DF850308146CA
:1090400028460E46904603933AF0D9FC0446002881
:1090500000F09C812A4600214FEA860A3AF09BFDE7
:1090600050463AF0CCFC0546002800F07981524683
:1090700000213AF090FD484622464FF0000CC445CE
:109080001EDBE62F384628BFE6202EF063FAD9A370
:10909000D3E900232EF0C8FA4FF00209CDE904010C
:1090A00030462EF057FADDE904232EF0BDFA2EF0FB
:1090B0007DFDA8F102034B4516DC4FF0000919E0D5
:1090C0000023B34204DB0CF1010C30440432D6E738
:1090D00010F803E011687144116055F823107144D1
:1090E00045F823100133ECE754F82920824207D2D7
:1090F0005FFA89F9A8F10303012B04DC002307E0E0
:1091000009F10109D7E754F8232082425BD2DBB290
:10911000404602933AF073FC0746002800F056815F
:109120004246002109F1010B3AF035FD5A460FFA8B
:1091300089F3980054F82330CDF8049004EB000C28
:109140000299914241DC0023CCF80030039B002BB4
:1091500046D16FEA0901029B0430194406AA08AB04
:10916000C9B220443AF0A0FFDDE908010022A04B7B
:109170002EF05AFADDE906232EF0A0F82EF016FDA7
:109180000A237343984238BF1846322373439842E8
:1091900028BF18464FF000090121CA46029B5B45D3
:1091A00022DC20463AF02DFC40462EF0D3F9DDE9D2
:1091B00004232EF039FA2EF0F9FC0223B21E9A4253
:1091C00038DC00233BE0013B96E754F8221099423B
:1091D0008CBFCB1A5B1A44F8223001320B46AFE742
:1091E000039B06FB03F0D5E754F82B30019A83422A
:1091F000BA5C0CD92AB9019B07F80B1054F823A0CC
:10920000B144019B0BF1010B01330193C6E7012A25
:10921000F7D1019A54F82220934200F0DF805345A1
:10922000EFD09A1AA3EB0A039A42EAD207F80B107E
:10923000B144E6E755F82310814205D2DBB2F21EB5
:10924000012A03DC002206E00133B8E755F82210BA
:10925000814252D2D2B23046CDE901233AF0CFFB5F
:109260008346002800F0B780324600213AF093FC94
:10927000029B5C1C1E4621460FFA83FE4FEA8E02BB
:10928000029255F82E200198884238DC002245F8D9
:109290002E20039A002A3FD1D9430144029808ABFB
:1092A000043006AAC9B228443AF0FEFEDDE90801FE
:1092B00000224F4B2EF0B8F9DDE906232DF0FEFF1A
:1092C0002EF074FC0A2303FB08F3984238BF1846BB
:1092D000322303FB08F3984228BF184600234FF0BF
:1092E000010C019AA2421BDC002426462846019369
:1092F0003AF087FB019BC4BB3CE0013AA0E755F87C
:1093000021C094458CBFACEB0202A2EB0C0245F8E5
:10931000212001316246B6E7039B08FB03F0DDE73D
:1093200055F824201BF80610824208D321B90BF807
:1093300004C055F826A0434401340136D1E7012981
:10934000FAD155F826108A424CD05245F4D0511A21
:10935000A2EB0A029142EFD20BF804C04344EBE7C0
:1093600081460346074683460126204601933AF08C
:1093700048FB019B86B117B138463AF042FBBBF17E
:10938000000F05D130460BB0BDE8F08F0126F9E79C
:1093900058463AF036FBF5E7159A02B11360169B72
:1093A0000BB1C3F80090179B2BB1C3F800B0189B0A
:1093B00043B11F60E6E7BBF1000FF8D058463AF022
:1093C00020FBF4E7002FDDD03846E2E783468146F4
:1093D000034601268AE703460446FAE753457FF42D
:1093E00025AF0EE75245B7D1A6E700BFAFF3008027
:1093F00000001840666666666666EE3FFFFFFFFF88
:109400002DE9F04F2DED088BD1B00C4609EE101A66
:1094100090460A93074633F073F803681846129390
:109420002FF0C0FCA38911901D0603D52369002BE2
:1094300000F0AB8727AA0023BA4691460D932492E9
:10944000179305939FED9C7BCDE92533CDE913332D
:10945000CDE915338DED0E7B98F800304446252B71
:109460001AD0CBB1254614F8013F0BB1252BF9D109
:10947000B4EB080610D0269B33442693259B01337A
:10948000072B2593C9E9008600F3098109F1080932
:10949000059B334405936B78002B01F0408100233A
:1094A00004F1010865784FF0FF372B248DF87330F5
:1094B0000693039308F10108A5F120035A2B00F24B
:1094C0001E81DFE813F06A001C011C01CB021C01A5
:1094D0001C011C01AA021C011C014302F1021C0117
:1094E0004E02D9021C01D2025B005B005B005B00F4
:1094F0005B005B005B005B005B001C011C011C014E
:109500001C011C011C011C019F011C0109027900A6
:109510009F019F019F011C011C011C011C01A30252
:109520001C011C01A4001C011C011C011D021C01CA
:1095300055021C011C013F071C011C011C011C01E0
:109540001C011C011C011C019F011C0109027D0062
:109550009F019F019F0199027D0072001C018F02F3
:109560001C017802A800660272001C011D026F0037
:1095700018071C011C011C071C016F00A5F130031A
:10958000002202EB820218F8015B03EB4202A5F114
:109590003003092BF5D906928EE79DF87330002B26
:1095A00000F0E68598F8005084E7039B98F8005097
:1095B00043F0200303937DE7039B43F010030393E1
:1095C000039B9C0640F177810A9B073323F0070336
:1095D0001A465B6852F8084B1E460A92002BC0F2EE
:1095E00071857A1C00F06E84039B23F08003039343
:1095F000002F40F0678454EA060314BF01230023C0
:1096000040F060841F4650AB0797099335E0039BF9
:1096100043F010030393039B13F0200600F03A81FC
:109620000A9B073323F007035E6853F8084B0A933D
:10963000039B002223F4806B00238DF87330781C89
:1096400000F015832BF08003039354EA060340F0E7
:109650000C833B1E18BF0123002F40F00683002A15
:10966000D0D11BF001031746079300F0DE843023AE
:109670008DF83F310DF23F130993079900239DF8B0
:109680007320B94208931093B8BF3946CDE90B3324
:109690000491002A45D0049B0133049341E024AA9D
:1096A00019EE101A504634F04BFBC0B90DF19C096D
:1096B000EEE600BFAFF300800000000000000000F5
:1096C00024AA19EE101A504634F03AFB002800F094
:1096D0008E80089B1BB10899504632F059FC19EE58
:1096E000103A9B8913F0400F059B18BF4FF0FF33D2
:1096F0000593059851B0BDEC088BBDE8F08F002DA7
:1097000001F00D800022012337A98DF8DC501746A7
:109710008DF87320049307931092CDE90821CDE9C9
:109720000B22039B13F0020302D00499023104912F
:10973000039911F0840B05D1069904980E1A002E96
:1097400000F30D83269C82B1259A0DF1730101343B
:109750000132C9F8001001212694072A2592C9F880
:10976000041000F3438309F108097BB1259B1DAA6E
:1097700002340133C9F8002002222694072B2593D6
:10978000C9F8042000F3418309F10809BBF1800FF7
:1097900000F0F081079BFF1A002F00F33182039B3A
:1097A000D90500F18F81099BC9F80030079B1C4443
:1097B000C9F80430259B26940133072B259300F329
:1097C000C18209F10809039B580705D5069B049A35
:1097D0009D1A002D00F33B830499DDE905328A428E
:1097E000ACBF9B185B180593002C7FF469AF002376
:1097F0002593089B1BB10899504632F0C9FB0DF127
:109800009C0929E60A9B073323F00703B3EC027B8C
:109810008DED0E7BDDE90E120A9322F000430AEE75
:10982000101A4FF0FF320AEE903AA24BB0EE4A8A7D
:10983000F0EE6A8A51EC180B35F0F0F9002840F090
:10984000A5844FF0FF329B4B51EC180B2EF068F9BA
:10985000002840F09B8400220023DDE90E012EF059
:1098600055F9002841F06E809DF87320039B00207D
:10987000914923F0800308900393904B472DC8BF74
:1098800019460746109009910321CDE90B00049178
:109890000791FEE6039B13F0100340F02685039A20
:1098A00012F0400200F091870A9A1E4652F8044BCB
:1098B000A4B20A92BCE6039BD80600F14D84039B38
:1098C000590640F173870A9B53F8044B44F3C036A2
:1098D0000A9324B2334681E60A9B002253F8041B04
:1098E00017468DF873200A9301238DF8DC1004933A
:1098F000079337AB089210920993CDE90B2210E73A
:109900000A9C002654F8043B8DF873600993002BE1
:1099100000F01487791C00F069853A4631460998B1
:1099200032F0B8FE0890002801F0548137460A94BE
:109930001096DDE90832CDE90B669B1A08969DF872
:109940007320079323EAE3730493A2E60A9B53F878
:10995000042B002A069280F2E383069A0A9352426D
:109960000692039B98F8005043F004030393A1E58B
:10997000039B43F0100B1BF0200600F093830A9B1F
:109980000122073323F007035E6853F8084B0A935C
:1099900052E60A9B7825039A002653F8044B42F0BE
:1099A000020B8DF875500A93302302228DF8743023
:1099B000434B139340E6039B9E0600F1C383039B36
:1099C000DD0600F1A486039B5C0600F1E787039B9C
:1099D000980540F19C860A9B059953F8042B117059
:1099E0000A9339E598F80050039B6C2D00F0AD8484
:1099F00043F0100303935DE598F80050039B682D36
:109A000000F0BA8443F04003039353E5039B98F8B6
:109A1000005043F0080303934CE5504632F070FDCC
:109A20004368184616932FF0BDF915900546504629
:109A300032F066FD83681793002D3FF4B3AD002B21
:109A40003FF4B0AD179B1B78002B3FF4ABAD039BED
:109A500098F8005043F4806303932BE5039B98F838
:109A6000005043F00103039324E5039B98F8005052
:109A700043F0800303931DE5424612F8015B2A2D53
:109A800001F0BA81A5F1300390460027092B3FF67B
:109A900013AD07EB870718F8015B03EB4707A5F148
:109AA0003003092BF5D907E598F800508DF873407D
:109AB00000E500BFFFFFEF7FD0B90400D4B9040078
:109AC000E0B90400652D40F3F48000220023DDE9B5
:109AD0000E012EF011F8002800F00782259B0134BA
:109AE000BF4A01332694C9F800200122072B259391
:109AF000C9F8042000F3878509F108091E9B0D9A17
:109B0000934280F20883119B129A1C44C9E90023F6
:109B1000259B26940133072B259300F31F8409F11D
:109B200008090D9B5D1E002D7FF74DAE102D259B66
:109B3000AC4E40F37685102719EE10BA03E0103DC5
:109B4000102D40F36E8501331034072BC9E90067EF
:109B5000CDE9253409F10809F1DD24AA594650461A
:109B600034F0EEF800287FF4B4AD0DF19C09DDE986
:109B70002534E4E7069B049AA3EB020BBBF1000F2C
:109B80007FF708AEBBF1100F259A964E26DD2146D1
:109B9000102319EE104A04E0ABF1100BBBF1100FCB
:109BA0001BDD01321031072AC9E90063CDE9252107
:109BB00009F10809F0DD24AA214650460DF19C095F
:109BC00034F0BEF800287FF484ADABF1100B102305
:109BD000BBF1100FDDE92521E3DC0C4601325C44CA
:109BE000C9F80060072AC9F804B0CDE9252400F3BC
:109BF0007385079B09F10809FF1A002F7FF7CFAD86
:109C0000102F259A774E22DD23464FF0100B19EEC8
:109C1000104A02E0103F102F18DD01321033072ADE
:109C2000C9E9006BCDE9252309F10809F2DD24AA71
:109C3000214650460DF19C0934F082F800287FF44B
:109C400048AD103F102FDDE92523E6DC1C4601322C
:109C50003C44C9F80060072AC9F80470CDE92524FE
:109C600000F3128209F1080999E5DDF80CB0012A28
:109C700000F02A81022A00F0D58050A904F00703E1
:109C8000E4080A4644EA46743033F60801F8013D18
:109C900054EA0600F2D1302B099103D01BF0010FDA
:109CA00040F0438250AB099ACDF80CB09B1A079351
:109CB000E3E40D9B012B40F39881259D0134099B22
:109CC00001352694C9F800300123072D2595C9F8E0
:109CD000043000F3128209F10809119B0135129A30
:109CE0001C44072DC9E90023CDE9255400F3F78171
:109CF00009F1080900220023DDE90E012DF0FCFE28
:109D0000002840F09681099B01350133072D2595E8
:109D1000C9F800300D9B03F1FF331C44C9F804302F
:109D2000269400F3748109F10809149B01351C4441
:109D3000C9F80430072D20ABCDE92554C9F800300F
:109D40007FF73FAD24AA19EE101A504633F0F8FF02
:109D500000287FF4BEAC269C0DF19C0933E5102E43
:109D6000DDE925212BDD18931024CDF864800B4606
:109D7000B8462F4619EE105A02E0103E102E19DD9B
:109D8000013210331849072AC9E90014CDE9252307
:109D900009F10809F1DD24AA294650460DF19C0974
:109DA00033F0CEFF00287FF494AC103E102EDDE996
:109DB0002523E5DC3D4619464746DDE918380132E2
:109DC00074180949072AC9F80460C9F80010CDE9D8
:109DD000252400F3BB8309F108099DF87320B2E440
:109DE00010BA040024BA040014BA040024AA19EE1C
:109DF000101A5046189333F0A3FF00287FF469AC83
:109E0000269C0DF19C09189BAFE424AA19EE101AA8
:109E1000504633F095FF00287FF45BAC269C0DF193
:109E20009C09B3E450AB139904F00F0224098A5C37
:109E300044EA0674360903F8012D54EA0602F3D108
:109E400050AA0993CDF80CB0D31A079315E4102D3E
:109E5000259B20DD102619EE107A02E0103D102D12
:109E600019DD01331034C04A072BC9E90026CDE9BA
:109E7000253409F10809F1DD24AA394650460DF1CF
:109E80009C0933F05DFF00287FF423AC103D102DBA
:109E9000DDE92534E5DC01332C44B34A072BC9F84E
:109EA0000450C9F80020CDE925347FF795AC24AAE9
:109EB00019EE101A504633F043FF00287FF409AC26
:109EC000269C89E4DDF80CB00A2C76F1000380F0C2
:109ED000B58301233034CDF80CB007930DF23F1356
:109EE0008DF83F410993FFF7C8BB1E9A002A40F343
:109EF0004A830B9E0D9B9E42A8BF1E46002E0CDD82
:109F0000099B3444C9E90036259B26940133072B6D
:109F1000259300F3FC8509F108090B9D002EA8BFCD
:109F2000AD1B002D00F33E820B9B099A13449B4608
:109F3000039B5F0500F16B821E9D0D9B9D4203DB21
:109F4000039BDE0740F11F85119B129A1C44C9E94F
:109F50000023259B26940133072B259300F3F485DA
:109F600009F108090D9B099E5D1B1E44A6EB0B061B
:109F7000AE42A8BF2E46002E0DDD259B3444C9F805
:109F800000B00133C9F804602694072B259300F331
:109F9000428609F10809002EA8BFAD1B002D7FF7EE
:109FA00012AC102D259B714E40F33B83102719EE08
:109FB00010BA03E0103D102D40F333830133103409
:109FC000072BC9E90067CDE9253409F10809F1DD5E
:109FD00024AA5946504633F0B3FE00287FF479ABEB
:109FE0000DF19C09DDE92534E4E7039BDD073FF52E
:109FF00064AE259D0134099B01352694C9F80030D3
:10A000000123072D2595C9F804307FF78CAE24AACB
:10A0100019EE101A504633F093FE00287FF459AB26
:10A020000DF19C09DDE925547FE650AB0993FFF75C
:10A0300024BB0D9B5F1E002F7FF777AE102F4B4E7A
:10A0400040F38F83CDF81C804FF0100B19EE108A6F
:10A0500003E0103F102F40F3828301351034072DA9
:10A06000C9E9006BCDE9255409F10809F1DD24AAFD
:10A070004146504633F064FE00287FF42AAB0DF1D0
:10A080009C09DDE92554E4E724AA19EE101A50468C
:10A0900033F056FE00287FF41CAB269C0DF19C0982
:10A0A000FFF77DBB1BF0100369D11BF0400200F0ED
:10A0B00064830A991E46012251F8044BA4B20A9106
:10A0C000FFF7BABA64424FF02D03DDF80CB04FF041
:10A0D000010266EB46068DF87330FFF7B0BA24AA8A
:10A0E00019EE101A504633F02BFE00287FF4F1AA27
:10A0F0000DF19C09DDE92554FCE524AA19EE101A9E
:10A10000504633F01DFE00287FF4E3AA0DF19C09B0
:10A11000DDE92554E1E5039BDA077FF554ABF2E472
:10A1200098F800500A93FFF7C5B930230999023A0D
:10A13000CDF80CB001F8013C50AB09929B1A079383
:10A14000FFF79BBA0A9B059853F8041BC2170A93A2
:10A15000C1E90002FFF780B90A9B53F8044BE617E8
:10A160000A933346FFF73ABA14BA040024BA04003B
:10A17000202398F800508DF87330FFF79BB90A9BA5
:10A18000012253F8044B0A93FFF756BADDE90E019A
:10A1900002460B4634F042FD002840F00C8625F0C4
:10A1A0002003412B049340F021833023612D8DF84F
:10A1B00074300CBF78235823632F8DF8753000F36B
:10A1C000088437AB08900993DDE90E12002A80F26B
:10A1D0005F85DDE90E1202F100431A911B932D23D6
:10A1E00018931EA89DED1A0B33F0D6F900224FF0FC
:10A1F0007F5351EC100B2DF017FA02460B4643EC3F
:10A20000182B002200232DF077FC08B101231E93A8
:10A21000B54A7C1EB54BCDF84080612D18BF1A465B
:10A22000DDF824B057EC186B904608EE10AA0B929C
:10A23000CDE90C9504E0002200232DF05DFCF0B97F
:10A240000022AB4B304639462DF0EEF90F4606465C
:10A250002DF084FC05462DF07DF90B46024639466B
:10A2600030462DF029F818F80530DA46A1460BF8EB
:10A27000013B631C06460F4604F1FF34DBD100228C
:10A280009C4B304639462C46CDF81C900D9DDDF890
:10A290003090DDF84080CDF830A018EE10AA2DF0F7
:10A2A00053FC002840F03D85304639460022914B52
:10A2B0002DF022FC18B12346DC0700F13285079B04
:10A2C000002B07DB079B302201335B440BF8012B8B
:10A2D0005B45FBD1039B43F002030393099BABEB6C
:10A2E00003030D931E9B0B93C4E20A9B53F8044B8C
:10A2F0000A93FFF79DB9DDF80CB0FFF73CBB7A4B32
:10A300001393039B13F0200600F0D9800A9B0733B8
:10A3100023F007035E6853F8084B0A9354EA0603D8
:10A320000AD0039BDA0707D543F002038DF8755076
:10A33000039330238DF87430039B022223F4806B47
:10A34000FFF77AB9694B1393DBE743F0200398F8E2
:10A35000015008F101080393FFF7ACB824AA19EEE5
:10A36000101A504633F0ECFC00287FF4B2A9269C6A
:10A370000DF19C09FFF7D5BB43F4007398F8015029
:10A3800008F101080393FFF795B8402138462DF0F6
:10A3900003FF20602061002800F061854023636195
:10A3A000FFF748B8102D259B534E40F3D08210275D
:10A3B00019EE10BA03E0103D102D40F3C8820133AE
:10A3C0001034072BC9E90067CDE9253409F10809E4
:10A3D000F1DD24AA5946504633F0B2FC00287FF440
:10A3E00078A90DF19C09DDE92534E4E709983746A1
:10A3F0000A942EF0D7FC20EAE0739DF873200790B2
:10A40000089610960493CDE90B66FFF742B90C9BB2
:10A41000002B0BDC109B002B08DC099B0D9A1344CE
:10A420000793079B9B4528BF9B4685E5099B2046D4
:10A430000D9A109C1344CDF840802F4F0B934B4640
:10A44000DDF85C8019EE109A002C42D0013C159A80
:10A4500016991044C3E90012259A26900132072A62
:10A46000259200F3858008330B9998F80020A1EB22
:10A470000B0607919642A8BF1646002E0CDD259AC2
:10A48000304401322690072A2592C3E900B600F332
:10A490003181083398F80020002EACBF951B15467B
:10A4A000002D1CDC93440C9A002ACDDC002CCBDC64
:10A4B000CDF85C8004469946DDF84080B1E7039B07
:10A4C00013F0100300F093800A9B53F8044B0A9397
:10A4D00024E70C9A08F1FF38013A0C92B7E7102DE7
:10A4E000259A26DD10260CE0E0B90400F4B904003A
:10A4F000000030400000E03F24BA0400103D102D61
:10A5000017DD01321030072AC3E90076CDE9252096
:10A5100003F10803F2DD24AA4946504633F010FC4B
:10A5200000287FF4D6A8103D27AB102DDDE92520AB
:10A53000E7DC013228445D60072A1F60CDE9252051
:10A5400000F32683083398F80020ABE724AA19EE1D
:10A55000101A5046189333F0F3FB00287FF4B9A883
:10A560009DF873200DF19C09269C189BFFF7EBB812
:10A5700024AA4946504633F0E3FB00287FF4A9A8FB
:10A58000269827AB70E7259B013496490133269422
:10A59000C9F800100121072B2593C9F8041000F316
:10A5A000E48109F108090D9B134300F0DF82119B40
:10A5B00012991C44C9E90013259B26940133072BEB
:10A5C000259300F3B28209F10809002AC0F23E8304
:10A5D000099A0133C9F80020072B0D9A1444C9F8D1
:10A5E0000420CDE925347FF7ECA8FFF7ABBB039A35
:10A5F00012F0400200F0CE800A9A1E4652F8044B38
:10A60000A4B20A928AE624AA19EE101A504633F030
:10A6100097FB00287FF45DA8269C0DF19C09FFF7AD
:10A620006DBA01332C44C9F80060072BC9F80450F7
:10A63000CDE925347FF7C5A8FFF784BB0BF4806311
:10A64000002250A908EE10AA039507970D46CDF8F1
:10A6500020801746DDF85CA09846CDF810B00CE0DD
:10A660000023204631460A222DF060FB0A2C76F1A9
:10A6700000031CD304460E465D46204631460A229E
:10A6800000232DF053FB303205F1FF3B013705F875
:10A69000012CB8F1000FE3D09AF80030BB42DFD1B3
:10A6A000FF2BDDD00A2C76F1000380F07E825A4623
:10A6B00050ABCDF824B09B1ADDF810B0039DCDF857
:10A6C0005CA018EE10AA0D97DDF82080079FCDF84A
:10A6D0000CB00793FEF7D1BF24AA19EE101A50460A
:10A6E00033F02EFB00287EF4F4AF269C0DF19C097C
:10A6F000FFF750B824AA4946504633F021FB002802
:10A700007EF4E7AF98F8002027AB2698C4E60A9BB2
:10A71000059953F8042B11600A93FEF79DBE269B02
:10A72000002B3EF4DCAF19EE104A24AA19EE101AE1
:10A73000504633F005FBA389FEF7D4BF062F3B46F6
:10A74000099A28BF06230A94174610920493CDE96C
:10A750000732254BCDE90B220993FEF79ABFDDF8AE
:10A760001C8001353C44C9F80060072DC9F804700D
:10A77000CDE925547FF7D7AA49E41BF400760A9B5C
:10A7800000F0148153F8044B16460122E4B20A93F8
:10A79000FEF752BF039B13F400760A9B00F0108172
:10A7A00053F8044B1646E4B20A93B7E5039B13F43F
:10A7B000007F0A9B53F8044B0A9300F0FD8044F39A
:10A7C000C01664B23346FEF709BF039B13F400764C
:10A7D0000A9B00F0F98053F8044B1646E4B20A9342
:10A7E000FEF726BF10BA040008BA04007A1C00F075
:10A7F000FC80049B472B40F0F980002F40F0F6804E
:10A80000039ADDE90EBC42F480766346002BC0F269
:10A81000A382012718903C464CEC1BBB22ABB0EE48
:10A820004B0AF0EE6B0A2246022101931FAB504601
:10A8300000931EAB00F028FB049B0990472B40F0CF
:10A84000E781039BDB0700F1E381229B099A9B1AB6
:10A850000D93049B472B40F03F811E9BD81C0B930C
:10A8600002DBBB4240F314810023023D089325F034
:10A87000200304930B9B049A013B412A1E9340F052
:10A88000898205F10F02D2B2002B8DF88020C0F230
:10A89000A2822B22092B8DF8812040F36C820DF1CE
:10A8A0008F0CB14F604687FB0312D9171E46044632
:10A8B000C1EBA2010138632E01EB8102A3EB42023E
:10A8C0000B4602F1300204F8012CECDC3033DAB232
:10A8D000A31E9C4500F8012C40F2CA820DF18203B0
:10A8E00001E010F8012B844503F8012BF9D10DF19B
:10A8F00091030DF182021B1B134420AA9B1A14938F
:10A900000D9B149A012B1A44079240F36982079B0E
:10A91000119A13440793039B079A23F4806322EA56
:10A92000E27243F480730492039300231093CDE901
:10A930000B33189B002B40F0C9801F469DF87320F5
:10A94000FEF7A7BE2D228DF87320FEF78FBF0133CF
:10A950002C44C9F80060072BC9F80450CDE9253410
:10A960007CDC09F10809FFF7DFBA24AA19EE101AF6
:10A97000504633F0E5F900287EF4ABAE1E9A0DF197
:10A980009C09269C0FE60D9B099E5D1B1E44A6EBB1
:10A990000B06AE42A8BF2E46FFF7FDBA0A9B0599EB
:10A9A00053F8042B11800A93FEF756BD53F8044B5D
:10A9B00001220A93FEF740BEE6173346FEF70EBEAD
:10A9C00053F8044B0A93A9E453F8044B0A93FEF797
:10A9D0002FBE791C50462DF0DFFB0990002800F0B7
:10A9E0002D82099B0893FFF7EFBB0627039ADDE949
:10A9F0000E0142F480760029C0F2AF81002341ECC1
:10AA00001B0B1893049B462B40F0EF8022ABB0EE5B
:10AA10004B0AF0EE6B0A3A46032101931FAB5046F6
:10AA200000931EAB00F030FA03780990302B08D168
:10AA30000022002351EC1B0B2DF05EF8002800F0E3
:10AA4000F6811E9B3B44099AD4180022002351EC46
:10AA50001B0B2DF051F878B12346F7E624AA19EE26
:10AA6000101A504633F06CF900287EF432AE269C62
:10AA70000DF19C09FFF758BA229BA342BFF4E6AE42
:10AA800030215A1C22921970229B9C42F9D8DDE693
:10AA90000B9B0D9A9342C0F2CF80039AD20740F1EC
:10AAA0006781119A13440793039B5F0503D50B9BA2
:10AAB000002B00F30C81079B672523EAE3730493C3
:10AAC00000230396089310930C9332E72D2200275E
:10AAD0008DF87320FEF7DFBD049B462B40F0BB8151
:10AAE0001E9A039B002A0B9203F0010340F38F810F
:10AAF0003B4340F05A810B9B66250793039B590506
:10AB000000F1E680079B23EAE3730493D8E724AAC5
:10AB100019EE101A504633F013F900287EF4D9AD1F
:10AB2000269C0DF19C09FFF7F8B924AA19EE101A1A
:10AB3000504633F005F900287EF4CBAD1E9A0DF196
:10AB40009C09DDE9253440E524AA19EE101A504687
:10AB500033F0F6F800287EF4BCAD1E9D0DF19C0983
:10AB6000269CFFF7FFB900BF67666666039BDB079D
:10AB70007EF529AE119B129A1C44C9E90023259B3E
:10AB800026940133072B2593CFDC09F108091FE533
:10AB900024AA4946504633F0D3F800287EF499ADF4
:10ABA00098F8002027AB26987CE4159B1699ABEB10
:10ABB000030B1A4658462EF023F99AF801300BB1D0
:10ABC0000AF1010A204631460A22002300272DF00F
:10ABD000ADF84FE50497079707469DF873200A9450
:10ABE0001090CDE90B00FEF754BD452B40F03E819F
:10ABF00022AB7C1CB0EE4B0AF0EE6B0A02210193F3
:10AC00001FAB2246504600931EAB00F03DF9099061
:10AC1000099B1C4419E724AA19EE101A504633F078
:10AC20008FF800287EF455AD1E9D0DF19C090D9BFB
:10AC3000269C5D1BFFF7AFB90D9B119A9A180B9BD1
:10AC4000002B079240F3A880672557E75542103242
:10AC5000894E23DA102719EE10BA02E0103D102DAC
:10AC60001CDD01331034072BC9E90067CDE9253419
:10AC700009F10809F2DD24AA5946504633F060F87C
:10AC800000287EF426AD0DF19C09DDE92534E5E7C9
:10AC90000023CDE91A121893FFF7A3BA01332C440D
:10ACA000C9F80060072BC9F80450CDE925347FF7B7
:10ACB0006CAF24AA19EE101A504633F041F8002860
:10ACC0007EF407AD0DF19C09DDE9253480E46725AC
:10ACD00017990B78FF2B00F0BA8000240B9A2046BE
:10ACE00003E001300131FF2B08D0934206DAD21A7B
:10ACF0004B78002BF5D10B780134F4E70B921791C8
:10AD00000C901094109A0C9B15991344079A039673
:10AD100001FB03230022079323EAE37308920493C1
:10AD200007E60C9B22930B9B1BF8012CD97B5B46FF
:10AD3000914209D1302003F8010C229B5A1E229225
:10AD400013F8012C9142F6D0392A74D00132D2B2D4
:10AD500003F8012CFFF7BEBA0127DDE90E1202F15C
:10AD600000430BEE101A0BEE903A2D23189349E690
:10AD70000B9B079398E6049A412A36D030228DF82F
:10AD800082200DF18302303302F8013B20ABD31A4D
:10AD90001493B5E5EAB277E5C3F1010367251A44D8
:10ADA00022EAE273079204938AE6119B6625D31880
:10ADB0003B440793A2E60F9B002B19DB9DF8732001
:10ADC000039B2E4923F08003039300231846089326
:10ADD0002B4BFEF753BD0B9B2D22C3F1010359E50D
:10ADE000039BD9077FF597AD91E50DF18202CAE784
:10ADF0002D228DF87320E3E70A9B98F801509046C6
:10AE000053F8047B47EAE7770A93FEF753BB3B43CB
:10AE100004D1012366250493079351E6119B66250F
:10AE200001333B44079323EAE373049348E6C7F1F5
:10AE300001031E9306E60B9A927A89E719EE101A1F
:10AE40008B8943F0400213468A81FEF74BBC0023F6
:10AE500010930C9356E700230893FFF743BA0C2393
:10AE60004FF0FF323B600592FEF743BC3C46D5E411
:10AE70000223149344E500BF24BA0400D8B90400A7
:10AE8000DCB90400FFFFFFFF2DE9F04F2DED068B2D
:10AE900097B004460191016C269D0A92079357ECE6
:10AEA000106B8DED020B41B1426C012393404A605F
:10AEB0008B6031F055FC00232364B7F10009C0F228
:10AEC000B98000232B607C4B33EA090300F0BD807E
:10AED000002200239DED027B51EC170BB0EE478A58
:10AEE000F0EE678A2CF008FE804688B10123079AAD
:10AEF0001360279B002B00F06B82704B03F1FF392E
:10AF0000279A1360484617B0BDEC068BBDE8F08F5A
:10AF1000B0EE480AF0EE680A14AA15A9204632F0ED
:10AF200033F809EE100A5FEA19555BEC18AB40F0F4
:10AF30009E80DDE91485454405F23240202840F327
:10AF40004F82C0F1400009FA00F905F2124026FADA
:10AF500000F049EA00002CF0EDFA013D0123A1F1D7
:10AF6000F87111930022564B2CF0A6F94CA3D3E9AB
:10AF700000232CF059FB4CA3D3E900232CF09EF9BD
:10AF800006460F4628462CF0E5FA49A3D3E90023EC
:10AF90002CF04AFB02460B46304639462CF08EF91F
:10AFA00006460F462CF0DAFD00228146059000236C
:10AFB000304639462CF0AAFD002840F0FB81059E62
:10AFC000162E00F2E9813F4B03EBC60351EC180B40
:10AFD000D3E900232CF09AFD002879D0731EA8EB4A
:10AFE00005050593002310936B1E089300F1DC8187
:10AFF00000230B93059B002B72DA059B0B9A06939B
:10B00000D21A0B925A4200230D920593019B092BF1
:10B0100070D8052B40F3E981043B00250193019B87
:10B02000023B032B00F25585DFE813F0B603B303B0
:10B03000AA038E03012329F000492B601E4BCDF893
:10B040000C9033EA09037FF443AF42F20F73C9F364
:10B050001309079A136059EA060317D1279BDFF8F3
:10B060006890002B3FF44EAF09F1080348E7CBF39B
:10B070001303CDF84480A5F2FF35DDF8508043F08E
:10B080007F5118EE100A41F440116BE7279BDFF85F
:10B090003C90002B3FF436AF09F1030330E700BFCB
:10B0A00061436F63A787D23FB3C8608B288AC63FCE
:10B0B000FB799F501344D33F0000F07F11BA040086
:10B0C0000000F83F9841040084BA040080BA0400EC
:10B0D000A8EB05056B1E089300F1E18410900B901E
:10B0E000089B059A13440692089300230D93019B35
:10B0F000092B8ED9002301254FF0FF3201930992CD
:10B100000C950A930021099B61641293204631F04B
:10B1100001FB0490002800F04C86099B0E2B8CBF8D
:10B12000002505F00105049B2364002D00F0088133
:10B130000699002940F3728201F00F02AC4B0D1109
:10B1400003EBC2030A46D205D3E9006740F1F78258
:10B15000A84B05F00F054FF00308D3E9082351EC85
:10B16000180B2CF08BFB82468B468DB1DFF8849256
:10B17000EB0709D53046394608F10108D9E9002323
:10B180002CF052FA06460F466D1009F10809EFD16E
:10B1900032463B46504659462CF070FB06460F4659
:10B1A000109B43B10022944B304639462CF0AEFC44
:10B1B000002840F04F8440462CF0CCF932463B4604
:10B1C0002CF032FA8D4B00222CF078F8099B804647
:10B1D000A1F15079002B00F09A80069B1393099BF4
:10B1E0000E930C9B002B00F0DA820E9A0020804B0D
:10B1F000834903EBC203049D53E902232CF03EFB79
:10B2000042464B462CF058F882468B46304639462B
:10B210002CF0A4FC80462CF09DF9024608F1300881
:10B220000B46304639462CF047F805F8018B0646A8
:10B230000F4602460B46504659462CF085FC002826
:10B2400040F008854FF000080AEE104A2C464546AB
:10B250002BE001350E9B9D4280F21D8550465946DC
:10B260000022684B2CF0E0F90022664B82468B46A8
:10B27000304639462CF0D8F9894680462CF06EFCD1
:10B2800007462CF067F902460B46303740464946E0
:10B290002CF012F804F8017B52465B4606460F4636
:10B2A0002CF034FC002840F0D28432463B4600208B
:10B2B00051492CF001F852465B462CF027FC00283F
:10B2C000C7D0254604991AEE104A02E0A94200F0C0
:10B2D00093842A4615F8013D392BF7D001330491A8
:10B2E000DBB22B70139BDDF81090013304920693B0
:10B2F00004E140462CF02EF932463B462CF094F9FE
:10B3000000223E4B2BF0DAFF8046A1F15079304607
:10B31000394600223C4B2BF0CFFF42464B460646B7
:10B320000F462CF011FC002840F086833046394649
:10B33000424609F100432CF0E9FB002840F042832B
:10B34000159B002B03DB069A0E2A40F39D810C9A75
:10B35000002A5DD0019A012A40F3A383099B5A1E5B
:10B360000D9B934280F245830D9B00270599D31ACC
:10B370000D9219440591099B002BC0F23884089A5C
:10B380001A4408920B9A16461A440B920121204641
:10B3900031F0EEFA05463EE00123A8EB05051093D7
:10B3A0006B1E08937FF524AEC5F101030B930023B8
:10B3B00008931FE648462CF0CDF832463B462CF069
:10B3C0009BFB00287FF4FBAD09F1FF330593F6E505
:10B3D000DFF83890484617B0BDEC068BBDE8F08F1B
:10B3E000C0F1200006FA00F0B5E5012517E600BF20
:10B3F00098410400704104000000F03F00001C4030
:10B400000000E03F000024400000144010BA040097
:10B410000D9FDDE90B65002E0CDD089A002A09DD81
:10B42000B24213460B99A8BF3346C91AF61AD31A6B
:10B430000B9108930D9B53B10C9B002B00F04083A4
:10B44000002F00F3C2820D9BDA1B40F0D482012151
:10B45000204631F08DFA059A0746002A00F336811E
:10B46000019B012B40F3EB824FF00008059B002B62
:10B4700040F03781012308990B4413F01F0353D088
:10B48000C3F12002042A40F38184C3F11C030B9A08
:10B4900019441A441E440B9208910B9B002B07DDA4
:10B4A00019EE101A1A46204631F0A0FB09EE100AD8
:10B4B000089B002B05DD39461A46204631F096FBE5
:10B4C0000746109B002B40F01581099B002B34DCB4
:10B4D000019B022B31DD099B002B00F0D4810A9BDC
:10B4E000DDF81090DE433946204631F039F9731CFF
:10B4F00006931DB12946204631F032F919EE101A93
:10B50000204631F02DF90023049A1370DDE906136B
:10B510001960279B002B3FF4F5AC48461A6017B022
:10B52000BDEC068BBDE8F08F1C230B9A1E441A4419
:10B530000B92089A1A440892AFE70C9B002B00F07C
:10B54000B981002E00F35F82B8F1000F40F08C83C8
:10B55000AA46029B19EE10BA049A03F00103099956
:10B5600090460293531E194409913946584630F0CB
:10B5700035FA29468146584631F0ACFB52463946E9
:10B580000646204631F0C8FBC268014609F1300387
:10B59000002A40F03F8205905846089331F09AFB0C
:10B5A00005990590204631F0DBF8019B059A42EAA7
:10B5B0000301029B0B43089B00F0B883002EC0F2EE
:10B5C000268301990E430299314300F02083002A1B
:10B5D00000F38D83099908F1010688F80030414590
:10B5E00000F08D83594600230A22204631F0C2F82C
:10B5F0005545834629464FF000034FF00A02204686
:10B6000000F00F8231F0B6F85146054600230A22B9
:10B61000204631F0AFF8B0468246A6E700F0B4818C
:10B62000069BC3F10009C24B09F00F0203EBC203F2
:10B6300051EC180BD3E900232BF0F6FF5FEA291930
:10B64000CDE90E0100F09C83DFF8F0A200234FF05B
:10B65000020806460F4619F0010F0AD03046394657
:10B6600008F10108DAE900232BF0DEFF2B4606463D
:10B670000F465FEA69090AF1080AECD1002B7FF452
:10B680008FADDDE90E678BE5A94B03EBC203D3E970
:10B6900000AB0A9B002B80F23882099F002F00F339
:10B6A0003482002F40F08E810022A24B5046594632
:10B6B0002BF0BAFF02460B4651EC180B2CF030FA77
:10B6C000002800F0BA81099F3D4608E70146204660
:10B6D00031F02CFA019B0746012B40F35A814FF0C1
:10B6E00000083B6907EB8303186931F0EFF8C0F1FC
:10B6F0002003C0E6394619EE100A31F0EBFA0028B3
:10B70000BFF6E3AE19EE101A00230A22204631F0EC
:10B7100031F8069B09EE100A03F1FF390C9B002B50
:10B7200040F01183129B002B00F30A83019B022B34
:10B7300040F30683129BCDF818900993CBE64FF0A7
:10B7400002085BEC18AB10E501230C930A9B069AE8
:10B75000134412930133012B18460993B8BF0120FB
:10B760000021172861647FF7D1AC012204235B001C
:10B770001146013203F114068642F8D96164C5E42A
:10B7800001230C930A98002840F3518112900990EC
:10B79000E6E700230C93D9E700230C93F2E70E9819
:10B7A000424663494B46DDF8108001EBC00151E988
:10B7B00002012BF039FF41EC1A0B394630462CF0D0
:10B7C000CDF905462BF0C6FE02460B4630463946FB
:10B7D00030352BF071FD06460E980F4608F8015BD8
:10B7E000012800F0C4820E9D09EE904A049B4FF0A0
:10B7F000000ADFF84CB11D442C46454652465B46D4
:10B80000304639462BF010FF894680462CF0A6F9C9
:10B8100007462BF09FFE02460B463037404649460E
:10B820002BF04AFD05F8017BA54206460F46E5D1FF
:10B83000254619EE904A00223F4B1AEE100A59ECA9
:10B840001A8B49462BF03AFD02460B4630463946E4
:10B850002CF07AF9002840F004821AEE102A4B46A8
:10B86000002035492BF028FD02460B46304639466C
:10B870002CF04CF900283FF463AD2A4615F8013D41
:10B88000302BFAD02EE539460522204630F072FFE3
:10B89000074619EE100A394631F01CFA00287FF7E6
:10B8A0001EAE04983123069E814600F8013B013606
:10B8B000049018E6069B01330693DDF810800126FC
:10B8C00019EE10AADDF824B007E0514600230A2241
:10B8D000204630F04FFF013682463946504630F060
:10B8E0007DF85E4500F1300008F8010BEDDB099BA7
:10B8F000814609EE10AA0026002BCCBF9B464FF0D4
:10B90000010B049B9B4419EE101A0122204631F0D2
:10B910006DF9394609EE100A31F0DCF9002840F3E0
:10B920005B811BF8013C0BF1FF3B049A0FE000BF69
:10B9300098410400000014400000E03F7041040002
:10B94000000024405A4500F040811BF8013D392B8E
:10B950000BF10108F6D001338BF800303946204650
:10B9600030F0FEFE002D00F02B81002E00F01B8237
:10B97000AE4200F0188231462046DDF81090CDF836
:10B98000108030F0EDFEB5E54FF0020857EC186B73
:10B9900006E4029B002B7FF4A2AEDDE90212C2F3A3
:10B9A0001303002B7FF49BAEBD4B1340002B00F024
:10B9B000B0810B9B4FF0010801330B93089B0133BF
:10B9C000089353E500273D4689E529463A46204637
:10B9D00031F0ACF8054619EE102A2046294630F021
:10B9E000F5FF19EE101A09EE100A204630F0B8FEE5
:10B9F00029E59F1ABFE419EE101A204631F096F897
:10BA000009EE100A23E529463246204631F0EEF8C9
:10BA1000054699E52046059330F0A2FE0122059BDC
:10BA2000CCE530F0A7FEB046054682469DE50123F1
:10BA3000CDE90933FFF766BB00273D4631E7DDE975
:10BA4000021200297FF410ADC2F31303002B7FF420
:10BA50000BADA9E7099B002B3FF44BAC129B002BCD
:10BA60007FF76EAC069A304639460E93013A8D4BFD
:10BA7000139200222BF0D8FD06460F4608F1010074
:10BA80002BF068FD32463B462BF0CEFD0022864B64
:10BA90002BF014FC8046A1F15079FFF7A2BB109067
:10BAA00082E4119A002A00F0AE8003F23343089A30
:10BAB0000D9F1A4408920B9A16461A440B9265E49D
:10BAC00019EE101A0D9A204631F030F809EE100ADE
:10BAD000BDE400212046616430F01CFE0490002883
:10BAE00000F06781069A049B0E2A2364159B00F3DD
:10BAF0006781002BC0F26481069A6C4B03EBC20392
:10BB00004FF0FF32D3E900AB099252465B4618EE84
:10BB1000100A049D57EC186B39462BF0AFFE2CF041
:10BB20001DF880462BF016FD52465B462BF07CFD3F
:10BB30000B460246394618EE100A2BF0BDFB08F101
:10BB4000300305F8013B099B012B00F0B38008EEA0
:10BB5000104A4FF00109099C1DE052465B463046F1
:10BB600039462BF08BFE09F101092BF0F7FF8046D7
:10BB70002BF0F0FC52465B462BF056FD0B4602467E
:10BB8000394630462BF098FB08F13003A14505F803
:10BB9000013B00F08D800022424B2BF045FD00223E
:10BBA000002306460F462BF0A7FF0028D5D018EE3D
:10BBB000104A069BDDF810900133049506939DE42E
:10BBC000DDF81090CDF8108098E4069B049A0133BC
:10BBD000069331231370C1E603D119F0010F7FF4EE
:10BBE000A0AED8461BF8013D302BFAD0B6E60B9B31
:10BBF000099A9E1AFFF7CABB139B04910133139352
:10BC00003123FFF76EBB149BC3F136034FE7002AC5
:10BC1000594609EE10BACB46994610DD012220465E
:10BC200030F0E4FF394609EE100A31F053F80028ED
:10BC300040F39F80B9F1390F6ED00BF1310908F84C
:10BC4000019B069B2E4655460133069386E6254604
:10BC50001AEE104A139BDDF81090013304950693F9
:10BC60004CE40499FFF735BB6968204630F052FD7B
:10BC70000646002800F090802B6905F10C010C307D
:10BC800002339A002CF072FD31460122204630F03A
:10BC9000ADFF82465DE41AEE104AFFF751BB00BFCC
:10BCA0000000F07F0000244000001C409841040088
:10BCB00018EE104A02460B462BF000FB52465B463C
:10BCC00006460F462BF040FF60B952465B463046B1
:10BCD00039462BF011FF00283FF46BAF18F0010F2D
:10BCE0003FF467AF069B04991393FFF7F2BA392B21
:10BCF00009EE10BA10D0013308F8013BA1E79946CC
:10BD0000069B09EE10BAB34601332E4655460693FC
:10BD1000F9E59846FFF7AABB069BC3462E46554653
:10BD20000133069339230BF8013BFCE5392B09EE6F
:10BD300010BACB469946EFD0002E3FF77EAF7EE794
:10BD4000129B0993B9E5294600230A22204630F0C8
:10BD500011FD129B0546002B03DC019B022B3FF7D4
:10BD6000E9AC129BCDF818900993FFF7EABB454662
:10BD700061E57FF464AF19F0010F7FF45BAF5EE71C
:10BD8000DDE90E674FF00208FFF70ABA3FF485AB12
:10BD9000C3F13C03FFF7C9BB02460E4B40F2EA2158
:10BDA0000D482CF073F9DDF81090CDF81080FFF7F6
:10BDB000A1BB084B00224FF4D57107482CF066F95F
:10BDC0004FF0FF320021CDE90921012112920C919F
:10BDD000FFF7C0BA90BA0400A4BA0400FFFFFFFF47
:10BDE0002DE9F04F1C468C4B0F4600251B68824600
:10BDF0002DED028B9FB01846069207931A952CF0F2
:10BE0000D1FF0021002283463B461997CDE9041259
:10BE1000994613F8016B2D2E2FD8DFE816F0D100CC
:10BE20002E002E002E002E002E002E002E002E00A2
:10BE3000E000E000E000E000E0002E002E002E0018
:10BE40002E002E002E002E002E002E002E002E0082
:10BE50002E002E002E002E002E002E002E00E000C0
:10BE60002E002E002E002E002E002E002E002E0062
:10BE70002E002E0002042E00F60300230893302E1D
:10BE800000F0AF8000230993A6F13003092B00F2E4
:10BE9000A48400254846A8462C4605EB85030130BE
:10BEA00008EB8802082C06EB4303199006EB4202CC
:10BEB0000678C8BFA3F1300504F10104A6F13003F0
:10BEC000D8BFA2F13008092BE7D907995A4632F0BA
:10BED000FFFD002800F04E8226F02006452E40F09F
:10BEE000A1800020A64684460A90199F7B1C1993C6
:10BEF0007E782B2E00F06E842D2E00F053834FF0B1
:10BF0000000BA6F13003092B00F24883302E05D137
:10BF1000199B013319931E78302EFAD0A6F1310304
:10BF2000082B00F2FA811999A6F130024B1C0791F7
:10BF300019934E78A6F13001092900F204850133E6
:10BF400002EB8202199306EB42021E78303AA6F108
:10BF500030010929F3D907995B1A082B40F3F384C0
:10BF600044F61F630C93BBF1000F02D00C9B5B42A5
:10BF70000C93002C40F0D584099B034340F0D08102
:10BF8000BCF1000F1CD1692E00F0D88316DC492EBD
:10BF900000F0D4834E2E13D1204919A832F090FC22
:10BFA00070B1199B1B78282B00F0B3851C4800F05A
:10BFB000AFFEB0EE408AF0EE608AB3E16E2EEBD0B9
:10BFC000069B9FED138B0BB1069B1F60B0EE480ADA
:10BFD000F0EE680A1FB0BDEC028BBDE8F08F19933C
:10BFE00016E799F8013003F0DF03582B00F058846E
:10BFF0004B46013319931E78302EFAD09946002E05
:10C0000000F08E81012309933EE700BFAFF300806B
:10C01000000000000000000080BD0400CCBB040054
:10C02000008D04000023CDE90A340C9340460B9E9A
:10C030002BF080FA02460B46002C08BF3446102E27
:10C04000CDE904230C9B0A9AA3EB02030993334620
:10C05000A8BF1023092E9B4613DDC14B03EBCB0376
:10C0600053E912232BF0E0FA06460F4628462BF040
:10C0700061FA02460B46304639462BF01FF9CDE9EE
:10C0800004010B9B0F2B00F38B81099B002B00F00D
:10C09000FE83099B40F36783162B40F3B9840B9B07
:10C0A000099AC3F1250393420B9B80F21485A3EBFD
:10C0B0000B0B099B9B441BF00F000AD0A84901EB16
:10C0C000C001DDE90423D1E900012BF0ADFACDE98F
:10C0D00004013BF00F0B40F0E382002307930B9B1E
:10C0E000224649465046CDF8008030F097FB11902B
:10C0F000002800F0CF830A9B00270C9AB946B84667
:10C100009B1A099A002AA8BF00230A9322EAE27325
:10C110001093119C5046616830F0FCFA8346002869
:10C1200000F0E681226904F10C010C3002329DED31
:10C13000048B92002CF01AFB1CAAB0EE480AF0EE19
:10C14000680A1BA9504630F01FFF1A90002800F023
:10C15000C0810121504630F00BFC8146002800F0E0
:10C16000C7811B9B002BC0F2B6810A9A109D9E18B6
:10C17000079A1C9C9B1A7B4A2344C4F13604013B5A
:10C18000934280F26E81D21A1F2AA4EB020400F3BC
:10C19000D581012303FA02F700230C93254434448C
:10C1A000079BA6421D443346A8BF2346AB42A8BF07
:10C1B0002B46002B02DDE41AED1AF61A0A9B002B1F
:10C1C00000F36781002C00F37B81099B002B00F3B7
:10C1D0008681002D00F3A881002E08DD49463246F5
:10C1E000504630F003FD8146002800F081815A4618
:10C1F0001A99504630F090FD8046002800F0788172
:10C200000023C2684946C3600B9230F063FD0028EA
:10C21000C0F2AD8400F012844946404630F01CFF65
:10C2200000224FF0804310EE100A55EC104B2946C7
:10C230002BF076FC002800F018810B9B002B00F0FF
:10C240008A81059B0024484D0E939FED3F7B8DED29
:10C250000C7B464F0E9A464B02EA07069E4200F0C0
:10C26000A781079B13B3B6F1D46F1FD838A3D3E9C6
:10C270000023DDE90C012BF053FCA0B1DDE90C013A
:10C280002BF094FC012838BF01202BF053F90B9BB5
:10C29000CDE90C01002B00F0DF819DED0C7B8DEDD5
:10C2A000147BDDE9144505F1D6639D1B2946204624
:10C2B000B0EE480AF0EE680ACDE9040130F0D0FD96
:10C2C000DDE9040153EC102B2BF0AEF953EC182BE5
:10C2D0002AF0F4FF0D46CDE90401244B2B40B34274
:10C2E00003D1079B002B00F050821A99504630F082
:10C2F00037FA5946504630F033FA4946504630F046
:10C300002FFA4146504630F02BFA02E74FF0010C6D
:10C3100026F02003452B00F0948100230C9328E69F
:10C320009FED0D8B069A0AB1199B1360089B002B99
:10C330003FF44CAE18EE901A18EE102A01F10043AB
:10C3400043EC182B42E600BF000000000000F03F65
:10C350000000C0FFFFFFDF41000000000000000000
:10C360009841040002FCFFFF0000F03F0000F07F56
:10C370000000E07F199BA6460A9003EB0B0219927E
:10C3800013F80B60A6F130010929BFD801308B46A4
:10C39000002940F0A282199E731C19937678F1E768
:10C3A0000B9BA3EB0B0B099B9B44BBF1000F3FF7CF
:10C3B00082AE3FF492AECBF1000515F00F020AD029
:10C3C000AF4B03EBC203DDE90401D3E900232BF0FB
:10C3D00055FACDE904012D113FF47FAE1F2D3ADC53
:10C3E00015F01003A74E4FF0000718BF6A230793FC
:10C3F000DDE9042315F0010F1046194606D0012788
:10C40000D6E900232BF010F902460B466D1006F119
:10C410000806EFD10FB1CDE90423079B93B1DDE905
:10C420000401C1F30A52C2F16B03002B0ADD1F2B7A
:10C4300040F318840020342B049040F31F844FF005
:10C440005C73059300220023DDE904012BF054FB0B
:10C4500000283FF444AE22239FED838BCAF80030BE
:10C4600060E7002301270C9398E6874B2046294676
:10C4700000222BF0D9F80B9BCDE90C01002B65D1E4
:10C4800001F1004312901393059BDDE912450E93D1
:10C49000DFE649461A46504630F048FB814638B33D
:10C4A00001461A9A504630F091FA08B30B90504664
:10C4B0001A9930F055F90B9B002C1A937FF785AE33
:10C4C00022461A99504630F091FB1A9000287FF4CA
:10C4D0007CAE47460EE0109A0A9ED51A48E65946A9
:10C4E000109A504630F022FB834600287FF471AE4C
:10C4F00047461A9822239FED5E8BCAF8003001460A
:10C50000504630F02DF95946504630F029F9494649
:10C51000504630F025F91199504630F021F939464E
:10C52000504630F01DF9FDE659462A46504630F097
:10C530005DFB834600287FF44FAED9E7534FFF1AC7
:10C54000012303FA07F21F460C9227E69DED0C7BB0
:10C550008DED127B98E7DDE90412002964D1C2F366
:10C5600013030E92002B65D10022494B2046294629
:10C570002BF0CCFA002840F058820022424B204693
:10C5800029462BF051F80A460146169002F1004365
:10C59000CDE90C121793DDE916455AE600231997E9
:10C5A0000C93E6E44FF0010BBB1C1993BE78A8E492
:10C5B000A2F15473204629460593DDE90445CDE9EF
:10C5C0000E0145EC104B30F04BFCDDE90E0153EC55
:10C5D000102B2BF029F82B4622462AF06FFE2D4B0C
:10C5E0000F409F42CDE9040132D92B4A18EE903A10
:10C5F000934204D118EE103A01333FF479AF4FF073
:10C60000FF33254ACDE904326FE60123089309F18F
:10C610000103199399F80160002E3FF4D1AC9946BB
:10C620002DE400230893F2E7DDE90412012900F06C
:10C630007C810E920024194D9FED0F7B8DED0C7BBC
:10C6400007E644EA0003099A13433FF4B9AC4CE40B
:10C6500001F15475059540E601F1004314901593DE
:10C660001FE600BFAFF300800000000000000000E4
:10C67000000000000000F07F000000000000F03F1C
:10C6800098410400604204000000E03FE2FBFFFF2D
:10C690000000F03FFFFF9F7CFFFFEF7F0000F0BF37
:10C6A000BBF59A7F00F3F680BBF1100F4FEA2B1514
:10C6B00040F38A82DFF854B34FF0000C5E466746C1
:10C6C000DDE9042315F0010F104619464FEA650510
:10C6D00007F1010707D0D6E900232AF0A5FF4FF0A4
:10C6E000010C02460B46012D06F10806EAD1BCF109
:10C6F000000F01D0CDE90423059B0BEBC707A3F185
:10C7000054730593DDE90423D7E900012AF08CFF77
:10C71000B74B0A460B40CDE90401B6498B4200F203
:10C72000B980A1F580118B4240F2EC814FF0FF33CC
:10C73000B14ACDE9043200230793D0E4AF4919A8E8
:10C7400032F0BEF800283FF43BAC199B19A8AC4965
:10C75000013B199332F0B4F810B9199B01331993C6
:10C760009FED998BDEE51633FFF61AAE0A9B0C9A05
:10C770009A1AA44B03EBC203DDE90401D3E90023B9
:10C780002BF07CF841EC180BCCE5DDE90C6730466A
:10C79000394632F059FA2AF019FF0B46024639465B
:10C7A0003046C5F313062AF087FD049C0B9F0D4607
:10C7B0002743044657EA060346D185A3D3E900235D
:10C7C0002BF0A4F900283FF490AD9DED048B474673
:10C7D0001A9894E64FF0000BE6E607995A46484649
:10C7E00032F076F98646002840F06E82199A02EB04
:10C7F0000B03199312F80B60302E40F0B680C3F192
:10C8000001029818013319931E78302EF9D0A6F141
:10C810003103082B10D8DDF864904FF00008A6F122
:10C82000300B431C01244E4645460A9308EB88080A
:10C8300000200BEB4808AFE500234FF0010C1C462D
:10C8400098461D460A9363E563A3D3E900232BF0C2
:10C850005DF90028B9D12046294661A3D3E9002318
:10C860002BF072F900283FF440ADAEE71C9B049317
:10C870001B9B03F233421D9B23F4801343EA0253B4
:10C880000593290703D5059B43F0004305939DEDD0
:10C89000048B47E522239FED4C8BCAF8003041E51D
:10C8A000089B19A90294504601931AAB564A00936B
:10C8B0001BAB31F00FFD10F0070405463FF430AD1F
:10C8C000062C54D1069A09F101039FED478B002AEB
:10C8D0003FF47CAB1360FFF779BB0A9B0128199EDC
:10C8E00003440A9304F101031A4616D0204400F1D0
:10C8F000FF3C05E04FEA40089C4503F101030BD0E3
:10C90000224608EB88001C46082AF3D905EB85006F
:10C91000102BD8BF4500EFE70232082C1BDC144671
:10C9200084E70B947446FFF781BBDDE904120E9295
:10C93000002A7FF47FAE474622231A989FED2A8B68
:10C94000CAF80030DBE544F61F639A42A8BF1A46D6
:10C950000C92FFF708BB102A14464FF00000DCBF12
:10C9600005EB850501EB450516E570464FE71A9A7C
:10C970003AB135211CA830F09DFB50461A992FF092
:10C98000EFFE013C042C3FF67CAF01A353F824F0EA
:10C990006DC80000B9C90000B3C90000A5C90000F6
:10C9A0006DC800004FF0FF336FF00040CDE9043058
:10C9B00067E70F4B059364E71C9B04931D9B05934E
:10C9C0005FE700BFAFF30080000000000000F07FD1
:10C9D0009535A094FFFFCF3F9535A094FFFFDF3F33
:10C9E00035E5AF350000E03F00000000000000002A
:10C9F0000000F07F0000A07CFFFFEF7FC0BB0400C1
:10CA0000C4BB040098410400D0BB04007041040082
:10CA10000998B74901EBC001DDE90423D1E9000120
:10CA20002AF002FE41EC180B7CE49FEDAD7B8DED0E
:10CA3000167B9FEDAD7B8DED0C7BACE53B460B9EF5
:10CA400047469846002E78D0AA4BDDE90445C5F349
:10CA500013012A46994200F0BB800C9BDDE90412C9
:10CA6000002B00F0AB801342144620D0B0EE480AF1
:10CA7000F0EE680A002E00F0CE8030F0F1F9079B4E
:10CA800051EC100B5BB1C4F30A54C4F16B04002CDD
:10CA900005DD994D002205EB04532AF0C5FD024641
:10CAA0000B4651EC180B2AF009FC41EC180B079BC4
:10CAB0007BB10022914B51EC180B2AF0B5FD0346D7
:10CAC00041EC180B18EE902A134304BF2223CAF836
:10CAD00000301A9813E5C3F10F0A854C04EBCA0124
:10CAE000DDE90423D1E900012AF09EFD099BA3EBB7
:10CAF0000A0A04EBCA04D4E900232AF095FD41ECAC
:10CB0000180B0FE402F15473059300230793FFF70A
:10CB1000E6BA19A81CAA7A4931F0ECFE05287FF480
:10CB200045AA1D9B43F0FF4343F4E00305931C9B80
:10CB300004939DED048BFFF7F5BBDDE90412C2F30E
:10CB4000130314460B4388D1079B002B40F0B180A0
:10CB50006C4B2340A3F580136FEA13536FEA035322
:10CB600005934FF0FF3304939DED048B9FE7DDE9C0
:10CB700004120B9E47460B46334398D1C2F313036E
:10CB80001446002B93D122F000431B0D1B05B3F17B
:10CB9000D66F8CD9D8F814301BB9D8F81030012BC7
:10CBA00085DD39460122504630F020F849460746D7
:10CBB00030F090F800287FF77AAFC5E718EA010F48
:10CBC0003FF475AF144651E70027DFF840B193E515
:10CBD000079B0499002B4ED04A4B2B40B3F1D46FE6
:10CBE00049D81B0D4FF0FF30C3F16B0300FA03F37C
:10CBF00099427FF432AF013103D1434B9A423FF463
:10CC000078AC404B134003F5801305930023049345
:10CC10009DED048B4BE730F023F9079953EC102B73
:10CC2000B9B3C4F30A54C4F16B04002C0ADD324DCD
:10CC30001946324610EE100A05EB04532AF0F4FCB4
:10CC400002460B4651EC180B2AF036FB02460B4607
:10CC500043EC182B002200232AF04EFF00283FF45B
:10CC600028AF69E64FF0FF3202FA03F3049A1A4044
:10CC70000492FFF7E7BB4FF0FF33B9E74FF0FF3304
:10CC8000C2F14B0203FA02F202EA01030593FFF735
:10CC9000D9BB51EC180B2AF00FFB02460B4643ECB4
:10CCA000182B002200232AF027FF00283FF411AFA1
:10CCB00042E6144B2340B3F1D66F3FF74BAFB3F1CD
:10CCC0005C7F3FF7F6AE37E64FF0000E7546F04654
:10CCD00070467446F446CDF828E0FFF719BB00BF54
:10CCE000000000000000E0BF000000000000E03F86
:10CCF00098410400FFFF0F000000F03F0000503992
:10CD0000E4BB04000000F07FFFFFEF7F70410400F0
:10CD10009FED010B704700BF000000000000F87F8E
:10CD200080B500AF064B00221A80C82200210548BA
:10CD30002BF00EFE044B00221A7000BF80BD00BF16
:10CD40006C0F012070100020800F012080B400AF14
:10CD5000064B00221A80064B00221A70054B002257
:10CD60001A6000BFBD465DF8047B70476C0F012060
:10CD7000800F01203811002080B582B000AF002361
:10CD80007B60384B1B78DBB2012B60D1364804F056
:10CD900071FE364934482CF0C5F978607B68002B69
:10CDA00053D0334B00221A60324B00221A60324BB0
:10CDB0004FF080621A60304B1B684FF480420021B4
:10CDC00018462BF0C5FD274B02221A702B4804F0A1
:10CDD00027FE284B00221A6033E0294B1B68013BD9
:10CDE000274A1360264B1B68002BF6D1214B1B688A
:10CDF0009B00214A11684FF48042184632F048FDEA
:10CE00001D4B4FF080621A601B4B1B684FF4804231
:10CE1000002118462BF09CFD164B1B68194619483B
:10CE200004F0FEFD124B00221A60154B4FF02872E1
:10CE30001A60154804F0F4FD0E4B1B6801330D4ACF
:10CE400013600C4B1B68212BCCD9FFF769FF094BF2
:10CE50001B68212B01D9002300E001231846083765
:10CE6000BD4680BD800F0120701000208842040064
:10CE7000441100203811002040110020944A040081
:10CE80003C11002094420400A042040080B483B00E
:10CE900000AF0346FB7197F90730002B0BDBFB79E2
:10CEA00003F01F02074997F907305B09012000FAD8
:10CEB00002F241F8232000BF0C37BD465DF8047B29
:10CEC000704700BF00E100E080B483B000AF0346CC
:10CED0003960FB7197F90730002B0ADB3B68DAB247
:10CEE0000C4997F907305201D2B20B4483F8002362
:10CEF0000AE03B68DAB20849FB7903F00F03043B10
:10CF00005201D2B20B441A7600BF0C37BD465DF811
:10CF1000047B704700E100E000ED00E080B483B0E6
:10CF200000AF7860114B00221A6013E0104B002212
:10CF30001A6004E00E4B1B6801330D4A13600C4B62
:10CF40001B6842F6F7229342F4D9084B1B68013361
:10CF5000064A1360054B1B687A689A42E6D800BF00
:10CF600000BF0C37BD465DF8047B7047C439002014
:10CF7000C839002080B582B000AF134B44F6206260
:10CF80001A60124831F0A2FF034603F04203002B5F
:10CF900012D00E4831F0B8FF0346FB71FB1D194655
:10CFA0000B4832F047FD0346002B05D14FF4805269
:10CFB0000849074832F022FD074B01221A6000BFE2
:10CFC0000837BD4680BD00BF3C5D002000600840C2
:10CFD000B0390020B0290020445D00200FB480B596
:10CFE00084B000AF0023FB600023BB6000237B60A4
:10CFF0004FF480702BF0C0F803467B607B68002BF9
:10D0000002D10E4804F00CFD07F11C033B603A68A6
:10D01000B96978682EF02CFC0346FB60FA687968E1
:10D02000074810F0F3FA78682BF0AEF8BB681846A2
:10D030001037BD46BDE8804004B07047AC420400E4
:10D040000060084080B586B000AF0D2031F00EFFC3
:10D050002B4B40F201129A67294B40F201125A679A
:10D06000274B4FF49072C3F89420254B4FF49072E5
:10D07000DA670D2031F012FF01233B7001237B7032
:10D080003B461F2200211F4834F0FFFE1E4B0022AA
:10D090001A601E4B00221A804FF4805200211C4857
:10D0A0002BF056FC4FF480521A491B4832F0A6FC74
:10D0B0004FF445700CF04AFD3B1D184610F09CF9EA
:10D0C0004FF4E1337B6001237B7301233B733B1DF2
:10D0D000124A1946124810F0A3F80A21104831F0FC
:10D0E00002FF63210E20FFF7EFFE0E20FFF7CEFEBA
:10D0F0000C4B00221A6000BF1837BD4680BD00BF30
:10D100000010004000C008404C1100206E0F0120AC
:10D1100050110020B0290020B0390020001BB700BA
:10D12000006008404811002080B500AF054B002288
:10D130001A804FF48052002103482BF009FC00BFF5
:10D1400080BD00BF6E0F01205011002090B58DB042
:10D1500000AF786039600023FB61786804F08AFCD6
:10D16000AB4804F05DFC7968AA4804F059FCAA4970
:10D1700078682BF0D7FFF861FB69002B08D0A7482F
:10D1800004F04EFCA648FFF729FF002300F0CABCBC
:10D19000A44978682BF0C6FFF861FB69002B00F00A
:10D1A000818020220021A0482BF0D2FB20220021E8
:10D1B0009E482BF0CDFB202200219D482BF0C8FB80
:10D1C0009A4A9C49F8692BF099FC0023BB620CE059
:10D1D000964ABB6A13441B78D9B2934ABB6A13447C
:10D1E0000A461A70BB6A0133BB62904ABB6A134499
:10D1F0001B78DBB22C2BEBD1BB6A0133BB6210E096
:10D20000BC6A89482BF0CEFD0346E31A013B8749EF
:10D21000BA6A0A441278D1B2854AD154BB6A013342
:10D22000BB62824ABB6A13441B78DBB2002BE7D196
:10D23000814B1B78DBB2312B2ED87F4B1B78DBB2B6
:10D240001A463B681A6078482BF0ACFD03467649D5
:10D25000184604F0B7FF38613B69B3F1FF3F15D0C2
:10D260003B69DCB272482BF09DFD0346704A1946BB
:10D27000204604F043FF3969704804F0D1FB396956
:10D280006E48FFF7ABFE062300F04CBC6C48FFF77E
:10D29000A5FE072300F046BC6A48FFF79FFE072360
:10D2A00000F040BC684978682BF03CFFF861FB69EE
:10D2B000002B21D0032032F05BF9644BFF221A705F
:10D2C000624A6349F8692BF019FC604B1B78DBB2AA
:10D2D0001A463B681A605D4B1B78DBB2803BDAB2C2
:10D2E0005C4B1A70594B1B78DBB219465A4804F054
:10D2F00097FB082300F016BC584978682BF012FF02
:10D30000F861FB69002B0FD0092032F031F9544A43
:10D310005449F8692BF0F2FB01200CF0DBFB524B77
:10D3200000221A700423FDE3504978682BF0FAFEBE
:10D33000F861FB69002B1AD04D4A4E49F8692BF071
:10D34000DDFB4B4B1B78DBB219464B4804F068FB06
:10D35000474B1B78DBB2002B04D14848FFF73EFE59
:10D360000123DFE34548FFF739FE0223DAE34449AE
:10D3700078682BF0D7FEF861FB69002B02D0012002
:10D3800003F08CF83F4978682BF0CCFEF861FB691C
:10D39000002B02D0002003F081F83B4978682BF085
:10D3A000C1FEF861FB69002B00F0C580374B0022FD
:10D3B0001A70374B00221A70202200211A482BF0D5
:10D3C000C7FA2022002119482BF0C2FA202200219E
:10D3D00017482BF0BDFA164B2D4A2E49F8692BF051
:10D3E0008DFB13482BF0DEFC0346DAB2274B1A7094
:10D3F000274B1B78DBB21946244B1B78DBB21A464D
:10D400000B4B254804F00CFB0023FB628BE000BFB4
:10D41000D442040050460400D8420400E442040010
:10D42000E8420400284304009029002050210020F5
:10D430007021002030430400850F01203C4304008C
:10D44000484304005C4304006C430400100A0020BD
:10D45000784304009C0F01207443040084430400BB
:10D46000830F012094430400840F0120A84304008B
:10D47000820F0120B4430400C0430400D4430400DD
:10D48000E4430400F043040000440400860F01203C
:10D49000880F01201044040028440400A24AFB6ABB
:10D4A000134432331A78A14B1B78DBB29A4237D13E
:10D4B0009D4AFB6A5B01134403F616531B78AA2BA3
:10D4C0002ED1994AFB6A5B01134403F617531A786D
:10D4D000974B1B78DBB29A4222D100237B61002359
:10D4E0007B61FB6A5B0103F612538F4A13440633D8
:10D4F000194690482BF016FE78617B69002B04D00A
:10D500008D48FFF76BFD01230CE3FB6A5B0103F61B
:10D510001253854A134406331946884804F080FAAA
:10D52000FB6A0133FB62FB6A312BB7D98448FFF7F2
:10D5300055FD2023F6E2834978682BF0F3FDF8616E
:10D54000FB69002B04D001F007FE4FF4A063E9E271
:10D550007D4978682BF0E6FDF861FB69002B24D04B
:10D5600001F0FAFD2022002178482BF0F1F9784AE9
:10D570007849F8692BF0C2FA132031F0F9FF744BA7
:10D580001B78DBB220227149184604F039FF0346AC
:10D59000002B04D06D49704801F0F6FA02E06F48A4
:10D5A000FFF71CFD4FF48073BCE26D4978682BF0E7
:10D5B000B9FDF861FB69002B51D000237B6201F0BB
:10D5C000CBFD634BFF221A700D2387F823301DE03B
:10D5D00097F82330FA6913441B78DBB22F2B1AD942
:10D5E0007A6A13469B0013445B007B6297F82330F2
:10D5F000FA6913441B78DBB2303B1A467B6A13444A
:10D600007B6297F82330013387F8233097F8233073
:10D61000102BDDD900E000BF7B6A322B03D87B6A78
:10D62000DAB24B4B1A706420FFF778FC4D4B1B8825
:10D630009BB21946464B1B78DBB21A464A4804F0A7
:10D64000EFF972B600BF474B1B889BB21946F869C9
:10D6500031F08DFD62B600BF4FF4007362E24349C2
:10D6600078682BF05FFDF861FB69002B39D0FF2350
:10D67000FB7301F071FD3E4B01221A703D4A3E4999
:10D68000F8692BF03BFA3B4B1B78DBB207F10F023A
:10D690001146184604F092FF0346B3F1FF3F0AD04B
:10D6A000FB7B322B07D8FB7B1946344801F06CFA20
:10D6B0006420FFF733FC2F4B1B78DBB2184605F0D4
:10D6C00003F80346B3F1FF3F05D02D48FFF786FC72
:10D6D0004FF4E02326E22B48FFF780FC4FF40023B1
:10D6E00020E2294978682BF01DFDF861FB69002BC9
:10D6F00050D0264B00221A7005F01AF90346DAB210
:10D70000224B1A70214B1B78DBB21946204804F0DB
:10D7100087F91E4B1B78DBB219461D48FFF75EFCEC
:10D720004FF48033FEE100BF80700020880F01209D
:10D73000860F0120702100204C4404006044040046
:10D7400088440400A0440400B04404009029002050
:10D750008A0F0120BC440400CC440400DC440400D3
:10D76000F04404006E0F012000450400244504002D
:10D77000840F01208B0F0120304504004045040038
:10D7800050450400684504007C450400870F0120D3
:10D790008C450400A84978682BF0C4FCF861FB694B
:10D7A000002B24D00023BB614FF400620021A3486A
:10D7B0002BF0CEF8A14805F0E9F8B861A04804F0D4
:10D7C0002FF9BA699D499F480FF020FF9C48FFF749
:10D7D00005FCBA6999499C480FF018FF9B4804F072
:10D7E0001FF99A48FFF7FAFB4FF400339AE1984982
:10D7F00078682BF097FCF861FB69002B2DD0954BD6
:10D8000000221A702022002193482BF0A1F8924B9D
:10D81000904A9249F8692BF071F98F482BF0C2FABF
:10D820000346DAB28E4B1A708A4B1B78DBB28C4AF5
:10D830001278D2B21146884A184604F095FD034684
:10D84000B3F1FF3F03D08748FFF7C8FB02E08648EB
:10D85000FFF7C4FB4FF4403364E1844978682BF050
:10D8600061FCF861FB69002B45D07A4B00221A70ED
:10D870007F4B00221A70202200217E482BF068F88E
:10D880007C4B744A7C49F8692BF038F979482BF0C5
:10D8900089FA0346DAB2764B1A70784B1B78DBB202
:10D8A0001946734B1B78DBB21A46724B744804F06E
:10D8B000B7F8684B1B78DBB21946724804F0B0F831
:10D8C000644B1B78DBB26A4A1278D1B2694A1846B7
:10D8D00004F0A4FE0346B3F1FF3F07D06A48FFF708
:10D8E0007DFB062031F044FE06231BE16748FFF76D
:10D8F00075FB072316E1664978682BF013FCF86185
:10D90000FB69002B24D05A4B00221A7020220021E0
:10D9100058482BF01DF8574A5E49F8692BF0EEF88D
:10D9200054482BF03FFA0346DAB2514B1A70504B71
:10D930001B78DBB24F4A1946574804F071F8574834
:10D94000FFF74CFB062031F013FE4FF4A023E9E073
:10D95000534978682BF0E6FBF861FB69002B24D073
:10D96000434B00221A702022002142482AF0F0FF87
:10D97000404A4C49F8692BF0C1F83E482BF012FAA6
:10D980000346DAB23A4B1A70394B1B78DBB2394A8C
:10D990001946454804F044F84448FFF71FFB0620A9
:10D9A00031F0E6FD4FF4C023BCE0414978682BF02C
:10D9B000B9FBF861FB69002B00F080802C4B002242
:10D9C0001A70202200212B482AF0C2FF294B2B4A33
:10D9D0003849F8692BF092F826482BF0E3F9034612
:10D9E000DAB2234B1A70254B1B78DBB21946204B59
:10D9F0001B78DBB21A461F4B2F4804F011F81F4B5F
:10DA00001B78DBB2312B15D81C4B1B78DBB21A46C6
:10DA10003B681A60194B1B78DBB2154A1278D2B2F8
:10DA20001146144A184604F069FB062031F0A0FDA7
:10DA3000062377E0072375E0A0450400902100202D
:10DA4000AC4504000080084000600840F047040036
:10DA5000B8450400880F012090290020C845040023
:10DA6000890F0120DC450400F0450400084604004D
:10DA7000860F0120502100201C460400850F012044
:10DA800034460400584604007046040088460400EA
:10DA9000A4460400AC460400C4460400E04604006A
:10DAA000F0460400FC4604000C4704002C47040028
:10DAB0003C47040044470400544704001B4978686D
:10DAC0002BF030FBF861FB69002B2AD0184A19496A
:10DAD000F8692BF013F8164B1B78DBB21946164881
