:020000043000CA
:10000000FFFFFFFFFFFFFFFFFFFFFFFFFFFFFFFF00
:10001000FFFFFFFFFFFFFFFFFFFFFFFFFFFFFFFFF0
:10002000FFFFFFFFFFFFFFFFFFFFFFFFFFFFFFFFE0
:10003000FFFFFFFFFFFFFFFFFFFFFFFFFFFFFFFFD0
:100400004643464200040156000000000103030079
:1004100000000000000000000000000000000000DC
:1004200000000000000000000000000000000000CC
:1004300000000000000000000000000000000000BC
:100440001000000001040700000000000000000090
:10045000000000010000000000000000000000009B
:10046000000000000000000000000000000000008C
:10047000000000000000000000000000000000007C
:10048000EB04180A001E04320426000000000000DD
:10049000000000000000000000000000000000005C
:1004A000000000000000000000000000000000004C
:1004B000000000000000000000000000000000003C
:1004C000000000000000000000000000000000002C
:1004D000000000000000000000000000000000001C
:1004E000000000000000000000000000000000000C
:1004F00000000000000000000000000000000000FC
:1005000000000000000000000000000000000000EB
:1005100000000000000000000000000000000000DB
:1005200000000000000000000000000000000000CB
:1005300000000000000000000000000000000000BB
:1005400000000000000000000000000000000000AB
:10055000000000000000000000000000000000009B
:10056000000000000000000000000000000000008B
:10057000000000000000000000000000000000007B
:10058000000000000000000000000000000000006B
:10059000000000000000000000000000000000005B
:1005A000000000000000000000000000000000004B
:1005B000000000000000000000000000000000003B
:1005C0000001000000100000010000000000000019
:1005D0000000040000000000000000000000000017
:1005E000000000000000000000000000000000000B
:1005F00000000000000000000000000000000000FB
:10060000FFFFFFFFFFFFFFFFFFFFFFFFFFFFFFFFFA
:10061000FFFFFFFFFFFFFFFFFFFFFFFFFFFFFFFFEA
:10100000D1002041C1240030000000003010003029
:101010002010003000100030000000000000000030
:10102000000000300000100000000000FFFFFFFF84
:10103000D2039841CC02EC0440CC0200000006022E
:10104000400E801000000000400E801400000000E0
:10105000400E801800000000400E801C00000000C0
:10106000400E802000000000400E802400000000A0
:10107000400E802800000000400E802C0000000080
:10108000400E803000000000400E80340000000060
:10109000400E803800000000400E803C0000000040
:1010A000400E804000000000400E80440000000020
:1010B000400E804800000000400E804C0000000000
:1010C000400E805000000000400E805400000000E0
:1010D000400E805800000000400E805C00000000C0
:1010E000400E806000000000400E806400000000A0
:1010F000400E806800000000400E806C0000000080
:10110000400E807000000000400E8074000000005F
:10111000400E807800000000400E807C000000003F
:10112000400E808000000000400E8084000000001F
:10113000400E808800000000400E808C00000000FF
:10114000400E809000000000400E809400000000DF
:10115000400E809800000000400E809C00000000BF
:10116000400E80A000000000400E80A4000000009F
:10117000400E80A800000000400E80AC000000106F
:10118000400E825400000008400E82580000000803
:10119000400E825C00000008400E826000000008E3
:1011A000400E826400000008400E826800000008C3
:1011B000400E826C00000008400E827000000008A3
:1011C000400E827400000008400E82780000000883
:1011D000400E827C00000008400E82800000000863
:1011E000400E828400000008400E82880000000843
:1011F000400E828C00000008400E82900000000823
:10120000400E829400000008400E82980000000802
:10121000400E829C00000008400E82A000000008E2
:10122000400E82A400000008400E82A800000008C2
:10123000400E82AC00000008400E82B000000008A2
:10124000400E82B400000008400E82B80000000882
:10125000400E82BC00000008400E82C00000000862
:10126000400E82C400000008400E82C80000000842
:10127000400E82CC00000008400E82D00000000822
:10128000400E82D400000008400E82D80000000802
:10129000400E82DC00000008400E82E000000008E2
:1012A000400E82E400000008400E82E800000008C2
:1012B000400E82EC00000008400E82F000000008A2
:1012C000400D400010000004400D40080000008167
:1012D000400D400C00000081400D40108000001BBC
:1012E000400D404000000F31400D404400772A225D
:1012F000400D404800010A0D400D404C21210408DA
:10130000400D409080000000400D4094000000021D
:10131000400D409800000000400D409CA55A000F71
:10132000C0000400C0000400C0000400C0000400AD
:10133000C0000400CC001404400D403C0000000339
:10134000400D409CA55A000CC0000400C0000400E1
:10135000C0000400C0000400C0000400CC0014045D
:10136000400D403C00000003400D409CA55A000C7D
:10137000C0000400C0000400C0000400C00004005D
:10138000C0000400CC001C04400D403C00000003E1
:10139000400D40A000000033400D409CA55A000ABB
:1013A000C0000400C0000400C0000400C00004002D
:1013B000C0000400CC001404400D403C00000003B9
:1013C000400D404C21210409FFFFFFFFFFFFFFFFFD
:1013D000FFFFFFFFFFFFFFFFFFFFFFFFFFFFFFFF1D
:1013E000FFFFFFFFFFFFFFFFFFFFFFFFFFFFFFFF0D
:1013F000FFFFFFFFFFFFFFFFFFFFFFFFFFFFFFFFFD
:10140000FFFFFFFFFFFFFFFFFFFFFFFFFFFFFFFFEC
:1020000000002C20C1240030952500304B390130D0
:10201000992500301F3C01309D2500300000000054
:10202000000000000000000000000000B1250030AA
:10203000A125003000000000E12500308D87003030
:10204000CB320130D3320130DB320130E3320130A8
:10205000EB320130F3320130FB3201300333013017
:102060000B330130133301301B3301302333013084
:102070002B330130333301303B33013043330130F4
:102080004B330130533301305B3301306333013064
:10209000434E0130574E01306B4E01307F4E0130C0
:1020A000934E0130A74E0130BB4E01306B330130EF
:1020B000733301307B33013083330130CF4E013035
:1020C0008B330130933301309B330130A333013024
:1020D000AB330130B3330130BB330130C333013094
:1020E000CB330130D3330130DB330130E333013004
:1020F000EB330130F3330130FB3301300334013073
:102100000B340130133401301B34013023340130DF
:102110002B340130333401303B340130433401304F
:102120004B340130533401305B34013063340130BF
:102130006B340130733401307B340130833401302F
:102140008B340130933401309B340130A33401309F
:10215000AB340130B3340130BB340130C33401300F
:10216000CB340130D3340130DB340130E33401307F
:10217000EB340130F3340130FB34013003350130EE
:102180000B350130133501301B350130233501305B
:102190002B350130333501303B35013043350130CB
:1021A0004B350130533501305B350130633501303B
:1021B0006B350130733501307B35013083350130AB
:1021C0008B350130933501309B350130A33501301B
:1021D000AB350130B3350130BB350130C33501308B
:1021E000CB350130D3350130DB350130E3350130FB
:1021F000EB350130F3350130FB350130033601306A
:102200000B360130133601301B36013023360130D6
:102210002B360130333601303B3601304336013046
:102220004B360130533601305B36013063360130B6
:102230006B360130733601307B3601308336013026
:102240008B360130933601309B360130A336013096
:10225000AB360130B3360130BB3601305963003044
:102260003D630030C3360130CB360130D336013008
:10227000DB360130E3360130EB360130F336013026
:10228000FB360130033701300B3701301337013093
:102290001B370130233701302B3701303337013002
:1022A0003B370130433701304B3701305337013072
:1022B0005B370130633701306B37013073370130E2
:1022C0007B370130833701308B3701309337013052
:1022D0009B370130A3370130AB370130B3370130C2
:1022E000BB370130C3370130CB370130D337013032
:1022F000DB370130E3370130EB370130F3370130A2
:10230000FB370130033801300B380130133801300E
:102310001B380130233801302B380130333801307D
:102320003B380130433801304B38013053380130ED
:102330005B380130633801306B380130733801305D
:102340007B380130833801308B38013093380130CD
:102350009B380130A3380130AB380130B33801303D
:10236000BB380130C3380130CB380130D3380130AD
:10237000DB380130E3380130EB380130F33801301D
:10238000FB380130033901300B390130133901308A
:102390001B390130233901302B39013033390130F9
:1023A0003B39013043390130DC9A01300000002014
:1023B000D80100002483013000000000B81700009D
:1023C000DC9A01300000008000000000DC9A01303F
:1023D0000000008100000000DC9A01300000242091
:1023E00000000000DC9A01300000342000000000F2
:1023F00000100020D8280400B817000000000000DA
:1024000000000080000000000000008100000000CB
:102410000000242000000000000034200000000024
:1024200010B40B464FF0000C05E050F8044B43F895
:10243000044B0CF1040C9445F7D30D4B5B6913F47A
:10244000803F11D0002A0FDD01F01F031A44BFF3B3
:102450004F8F074BC3F868122031203A002AF8DC6E
:10246000BFF34F8FBFF36F8F5DF8044B704700BF12
:1024700000ED00E010B40346002203E0002443F81E
:10248000044B04328A42F9D30C4B5B6913F4803F4E
:1024900011D000290FDD00F01F031944BFF34F8F47
:1024A000064BC3F86802203020390029F8DCBFF35E
:1024B0004F8FBFF36F8F5DF8044B704700ED00E066
:1024C00010B586B072B62E4C84F3088884F3098860
:1024D00003F09CFD0594EFF3148313F0020F16D064
:1024E000EFF309830493059B049A9B1A0393254BEE
:1024F0000293029B039A9B1A0193BFF34F8FBFF382
:102500006F8F0599013902980138002208E0EFF336
:102510000883E7E711F80139DBB200F8013901322D
:10252000039B9342F6D8EFF3148313F0020F08D005
:10253000019B83F30988BFF36F8F0AF01FF8124BDA
:102540000BE0019B83F30888F5E703F10C049A681C
:1025500059681868FFF764FF23460C4A9342F4D386
:1025600006E01C46596854F8080BFFF783FF234622
:10257000074A9342F5D362B613F0F8FAFEE700BFBC
:1025800000002C2000000620A8230030F02300309B
:1025900020240030FEE7FEE7FEE7FEE7FEE7FEE769
:1025A000FEE7FEE7FEE7FEE7FFFFFFFFFFFFFFFF9F
:1025B000074B19680868B0E8F04F80F30988BFF34B
:1025C0006F8F4FF0000080F311887047AFF30080E9
:1025D000E034042000BF00BFFFFFFFFFFFFFFFFF4D
:1025E000EFF30980BFF36F8F154B1A681EF0100FC1
:1025F00008BF20ED108A20E9F04F10602DE9090096
:102600004FF0200080F31188BFF34F8FBFF36F8F1F
:1026100006F0C0FE4FF0000080F3118809BC196875
:102620000868B0E8F04F1EF0100F08BFB0EC108A39
:1026300080F30988BFF36F8F704700BFAFF300804E
:10264000E034042000BF00BF80B58CB000AF03466B
:10265000FB710023FB6297F90730042B06D097F932
:102660000730052B02D0344800F068F897F907309E
:10267000042B01D1022300E003230021184612F0AD
:1026800039F9B862BB6A5B0E03F007037B62BB6A71
:1026900003F07F03BB6297F90730042B01D10223BB
:1026A00000E003233021184612F024F907EE900AC7
:1026B000B8EE677B87ED067B97F90730042B01D1D5
:1026C000022300E003232021184612F013F907EE3D
:1026D000900AB8EE677B87ED047BBB6A07EE903A01
:1026E000B8EE676B97ED044B97ED065B84EE057BC8
:1026F00036EE077B9FED0E6B27EE065B01227B6AB1
:1027000002FA03F307EE903AB8EE676B85EE067BAC
:1027100087ED027B97ED027BFCEEC77B17EE903ACC
:10272000FB62FB6A18463037BD4680BDAFF30080C0
:102730000000000060E37641C873013080B582B0CC
:1027400000AF78607968024800F062FA00BEFDE7E9
:102750008062013080B584B000AFF860B960134684
:10276000FB80FB68002B11D0BB68002B0ED0FB88D0
:1027700043F2235293420AD0FB88002B07D1054B2A
:102780001B680021184611F061FD00E000BF103702
:10279000BD4680BD381F022080B588B000AF78608C
:1027A000396000237B617B68002BFCD03B68002BE9
:1027B000FCD00DF0AFFCF860494BD3F82C21484B0E
:1027C000D3F830319A4216D001237B61444BD3F8C1
:1027D0002C21434BD3F828311A44414BD3F83031E4
:1027E000D31A3F4AD2F82821B3FBF2F101FB02F2DF
:1027F0009B1ABB6101E00023BB61394BD3F8282150
:10280000BB69D31A013BBB61BA693B689A4205D2E6
:10281000F8680DF090FC4FF0FF335CE000233B6163
:102820001EE03B697A681A442D4BD3F82C31591CB1
:102830002B48C0F82C111178294A13440A4683F812
:102840003421274BD3F82C21254BD3F828319A4239
:1028500003D3234B0022C3F82C213B6901333B6196
:102860003B683A699A42DCDB0023FB617B69002B01
:1028700027D11B4BD3F82C21194BD3F830319A4276
:1028800008D9174BD3F82C21154BD3F83031D31A74
:10289000BB6107E0124BD3F82821114BD3F830313C
:1028A000D31ABB610E4BD3F8303103F598730C4A41
:1028B00013440433BA6919460A4812F09AFD0346D4
:1028C000FB61F8680DF037FCFB69002B01D13B6818
:1028D00001E04FF0FF3318462037BD4680BD00BFF2
:1028E00000160020341D002080B588B000AF78604D
:1028F000396043F22153FB823B68BB617B68002B4C
:10290000FCD03B68002BFCD0304B1B68002B01D166
:10291000002357E00DF0FEFB38612D4BD3F82C213E
:102920002B4BD3F830319A4214D0294BD3F82C21B9
:10293000274BD3F828311A44254BD3F83031D31A1A
:10294000234AD2F82821B3FBF2F101FB02F29B1AD1
:10295000FB6101E00023FB611D4BD3F82821FB69DB
:10296000D31A013BFB61FB69002B16D0FA69BB69E6
:102970009A4201D9BB69FB613A68BB69D31A7A688C
:102980001344F9691846FFF707FFF860FB68002B4E
:1029900003DDFB68BA69D31ABB6138690DF0CBFB64
:1029A000BB69002B06D000F00FF90346FB82FB8ABF
:1029B000002B03D1BB69002BACD100E000BF3A680B
:1029C000BB69D31A18462037BD4680BD3C1F022084
:1029D0000016002080B58EB000AFB9607B60034662
:1029E000FB731346BB730023FB8607F1140300221D
:1029F0001A605A609A60DA607B687B61BB68BB6171
:102A00000123BB770123FB77FB7B87F82230BB7B5D
:102A100087F82C303D4B7B624FF48063BB62BB7BFD
:102A2000012B03D107F114033B6317E0BB7B022B9F
:102A300003D143F22153FB8610E0BB7B032B03D170
:102A400043F22153FB8609E0BB7B042B03D143F205
:102A50002153FB8602E043F22153FB86FB8E43F2B7
:102A6000215293424CD040F28C720021284813F03E
:102A700086F8274B4FF40072C3F82821244B254ACF
:102A80001A60234B1B6807F12402114618460AF00E
:102A900001FA0346FB86FB8E002BFCD1012011F0CE
:102AA0005EFB03461C4A136003220021012011F043
:102AB000EDFA0346194A1360154B1B68184918466E
:102AC0000AF048FA0346FB86FB8E002BFCD1104A25
:102AD000144913480AF0D8FB0D4B1B6812491846DD
:102AE0000AF0A4FA0346FB86FB8E002BFCD1084AB1
:102AF0000E490D480AF0E8FB054B1B680C4A1360B1
:102B0000FB8E18463837BD4680BD00BF3419002003
:102B10000016002004160020341F0220381F022057
:102B2000341D002057010130601D00205527003062
:102B30003C1F022080B500AF1D4B1B68002B02D04C
:102B40001C480AF03FFA1A4B1B68002B02D01A48A7
:102B50000AF0ACFA164B1B68002B0DD0144B1B6807
:102B6000184612F019FC0346002B05D1104B002229
:102B70001A60124B00221A60114B1B68002B07D001
:102B80000F4B1B68184611F0B7FB0D4B00221A6063
:102B90000C4B1B68002B07D00A4B1B68184611F022
:102BA000ABFB084B00221A600023184680BD00BF13
:102BB00000160020341D0020601D00203C1F022054
:102BC000381F0220341F022080B582B000AF10E011
:102BD000EFF305837B607B68002B08D106F0E6FDF0
:102BE0000346022B05D1012006F004F901E0012380
:102BF00008E0064BD3F82C21044BD3F830319A422D
:102C0000E6D1002318460837BD4680BD00160020D7
:102C10000FB480B5C4B000AF0023C7F8083100235B
:102C2000C7F80C3107F58873A3F5867300221A6084
:102C30000433FC220021184612F0A1FF124B1B683E
:102C4000002B16D007F58E73C7F804313A1D0F4BD1
:102C5000D7F80411D7F818010DF0FEFCC7F80801E9
:102C6000D7F808213B1D11461846FFF73DFEC7F86F
:102C70000C01D7F80C31184607F58877BD46BDE83A
:102C8000804004B0704700BF3C1F02202B0201307F
:102C900080B48DB000AF0346FB7100237B6200233C
:102CA000BB62314A07F1140307CA83E807002E4AC2
:102CB00007F1080307CA83E80700FB79012B01D855
:102CC00000234BE0FB79022B02D0FB79032B03D1CD
:102CD000FB79023BFB7112E0FB79062B02D0FB79FA
:102CE000072B03D1FB79063BFB7108E0FB790A2B2C
:102CF00002D0FB790B2B02D1FB790A3BFB7100233D
:102D0000FB6218E0FB6A9B0030333B4453F81C3CE9
:102D1000002B0DD0BA6A531CBB62FB6A9B00303398
:102D20003B4453F81C1C930030333B4443F8281CAD
:102D3000FB6A0133FB62FB6A022BE3D9FB79BA6AB7
:102D40009A4201D2002309E0FB799B0030333B44D7
:102D500053F8283C3B623B6A7B627B6A18463437F7
:102D6000BD465DF8047B70479462013080B586B043
:102D700000AF0346B9607A60FB73FB7B1846FFF730
:102D800087FF78617B69002B01D1012341E07B69DA
:102D90001F22C3F830217B691B6B43F480427B699F
:102DA0001A637B691B6B43F400427B691A637B697E
:102DB00000221A60FB7B0A2B08D0FB7B0B2B05D073
:102DC000FB7B062B02D0FB7B072B07D17B694FF4E3
:102DD00000225A637B694FF480125A637B68002B90
:102DE00016D07B691A690D4B13407A68127802F08D
:102DF0000F017A685278120402F4702211437A6843
:102E00009278120202F470620A431A437B691A61D3
:102E1000002318461837BD4680BD00BFF0F0F0FF14
:102E200080B588B000AF78600B46FB701346BB706E
:102E3000FB785A00BB781344BB610023BB600023BE
:102E4000FB607A68BB6904339B0013445B6823F022
:102E50001F03FB61A2E0BB68002B0CD1FB699B68E0
:102E60007B617A69524B1340FA69928BC2F30B0271
:102E700092B21343BB60FB695B68DBB25BB2002BB1
:102E800003DA4FF0FF33FB600DE0FB69DB69C3F34E
:102E900012331A46FB695B68C3F30E439BB2D21A26
:102EA000FB681344FB607A68BB6904339B001344DE
:102EB0005A687968BB690C339B000B445B689A4283
:102EC0001CD17A68BB6904339B00134400225A600A
:102ED0007A68BB690C339B00134400225A607B68FC
:102EE0009A68BB699B01134401229A607B689A68C7
:102EF000BB699B0113440022DA600DE07A68BB696C
:102F000004339B0013445B681B6819467A68BB69ED
:102F100004339B0013445960FB695B68C3F3C033FF
:102F2000DBB2002B09D17A68BB6904339B001344E0
:102F30005B6823F01F03002B14D1BB78DB01DAB2EE
:102F4000FB781343DBB23B7400237B747B681B6804
:102F500007F10802114618460EF0CBFD0023BB60B6
:102F60000023FB60FB6900225A607B681B691A46DC
:102F7000FB691A607B68FA691A617B6893F85430C0
:102F80000133DAB27B6883F854207A68BB69043372
:102F90009B0013445B6823F01F03FB61FB69002B5C
:102FA0007FF459AF00BF00BF2037BD4680BD00BFD2
:102FB00000F0FFFF80B58CB000AF78607B685B6885
:102FC000D3F8AC317B627B6A002B50D0002387F8AA
:102FD0002B3048E097F82B307A6A22FA03F303F09B
:102FE0000103002B3AD07B689A6897F82B305B007E
:102FF000DBB29B01134430333B623B6AFB61FB69EC
:103000001B78DB0987F82A3097F82A2097F82B30AD
:1030100019467868FFF704FF97F82A3083F0010318
:10302000DAB297F82B3019467868FFF7F9FE97F86F
:103030002B303B74FB69BB600823FB6001237B746E
:1030400097F82B30194678680DF036FF7B681B68BF
:1030500007F10802114618460EF04BFD97F82B3089
:10306000013387F82B3097F82B30032BB2D97B68CC
:103070005B68D3F8BC317B627B685B687A6AC3F8B3
:10308000BC217B6A002B00F0A681002387F8293041
:103090009CE197F829307A6A22FA03F303F00103DE
:1030A000002B00F08E8197F829300F2B08D997F864
:1030B0002930103B87F82B30012387F82A3006E0AF
:1030C00097F8293087F82B30002387F82A3097F8B3
:1030D0002B30032B00F2728197F82B305B00DAB2B1
:1030E00097F82A301344FB760023BB600023FB6073
:1030F00097F82B30002B23D197F82A30012B1FD1C2
:103100007B689A68FB7E9B01134493F8383003F088
:103110000203DBB2002B13D07B689A68FB7E9B0115
:1031200013441B68C3F34073DBB2002B08D17B68E8
:103130009A68FB7E9B011A44136843F000531360A6
:10314000FB7E7A6804339B0013445B6823F01F0303
:10315000FB622EE1002387F82830FB7E7A68043377
:103160009B0013445B6823F01F03FB6222E0FB6AB1
:103170005B68DBB25BB2002B06DBFB6A5B68C3F308
:10318000C033DBB2002B10D0FB6A5B68DBB25BB2F2
:10319000002B13DBFB6A5B68C3F3C033DBB2002B8D
:1031A0000CD0012387F8283008E0FB6A1B6823F065
:1031B0001F03FB62FB6A002BD9D100E000BF97F828
:1031C0002830002B03D1FB6A002B40F0F980FB7EF6
:1031D0007A6804339B0013445B6823F01F03FB628F
:1031E000E3E0FB6A5B68DBB25BB2002B00DAE0E095
:1031F000BB68002B0AD1FB6A9A68794B1340FA6AC4
:10320000928BC2F30B0292B21343BB60FB6ADB6981
:10321000C3F312331A46FB6A5B68C3F30E439BB2D7
:10322000D21AFB681344FB60FB7E7A6804339B0070
:1032300013445A68FB7E79680C339B000B445B682F
:103240009A421CD1FB7E7A6804339B00134400220F
:103250005A60FB7E7A680C339B00134400225A604C
:103260007B689A68FB7E9B01134401229A607B680D
:103270009A68FB7E9B0113440022DA600DE0FB7E1E
:103280007A6804339B0013445B681A68FB7E11461E
:103290007A6804339B0013445960FB6A5B68C3F38C
:1032A000C033DBB2002B09D1FB7E7A6804339B006C
:1032B00013445B6823F01F03002B16D197F82A30C4
:1032C000DB01DAB297F82B301343DBB23B740023F7
:1032D0007B747B681B6807F10802114618460EF0E4
:1032E00008FC0023BB600023FB60FB6A00225A60DD
:1032F0007B681B691A46FB6A1A607B68FA6A1A6166
:103300007B6893F854300133DAB27B6883F8542039
:10331000FB7E7A6804339B0013445B6823F01F0331
:10332000FB62FB6A002B40D0FB6A5B68DBB25BB2DE
:10333000002B3ADA97F82B2097F82A301B01134418
:10334000012202FA03F37B617B685B687A69C3F848
:10335000B0217B685B68D3F8B8217B691340002BF0
:1033600023D100BF7B685B68D3F8B0217B69134031
:10337000002BF7D17B685B68D3F8B8217B691340D9
:10338000002B12D17B689A68FB7E9B011344FA6A7A
:103390009A607B689A68FB7E9B0113440022DA6086
:1033A0007B685B687A69C3F8B021FB6A002B7FF405
:1033B00018AFFB6A002B7FF4CDAE02E000BF00E047
:1033C00000BF97F82930013387F8293097F8293062
:1033D0001F2B7FF65EAE00BF3037BD4680BD00BFFD
:1033E00000F0FFFF80B592B000AFF8607A603B60FC
:1033F0000B46FB72FB7A5B0003F01E03FA7AD209DC
:10340000D2B21343BB62FB7A03F00F02FB7ADB08F4
:1034100003F010031343012202FA03F37B627B6A79
:103420003B640023BB633A6843F6FF7313449B0B72
:103430007B63002387F83330012387F83230002381
:10344000FB62FB68002B01D103239FE1FB689A68B4
:10345000BB6A9B01134493F8383003F00103DBB2DD
:10346000002B01D1012391E1FB6893F85630002B2A
:1034700001D001238AE17B6B002B01D101237B6307
:1034800007F11003184612F02BF9FB6893F854303B
:103490001A467B6B934205D93B69184612F040F9F6
:1034A000022373E13B68B3F5804F03D94FF48043A7
:1034B000FB6301E03B68FB633A68FB6BD31A3B603C
:1034C000FB681B693B623B6A1B681A46FB681A6112
:1034D000FB6893F85430013BDAB2FB6883F8542060
:1034E000BB6B002B01D13B6A7B643B6A01221A60F3
:1034F0003B6A00225A607A68BB6B13441A463B6AE7
:103500009A603B6A9B6803F58052A24B13403A6A6B
:10351000D3603B6ADB6803F580523B6A1A613B6A01
:103520001B6903F580523B6A5A613B6A5B6903F58C
:1035300080523B6A9A61FB6BC3F30E0399B23A6AFD
:10354000536861F31E435360FB6BC3F312013A6A85
:10355000D36961F31E33D3613B6A9B68C3F30B03EA
:1035600099B23A6A938B61F30B0393833A6AD37FE0
:103570006FF3C713D3773B68002B04D13A6A5368C3
:1035800043F4004353603A6A5368802161F30703B0
:103590005360BA6BFB6B1344BB63FA68BB6A0C33B2
:1035A0009B0013445B68002B0FD0FA68BB6A0C3396
:1035B0009B0013445B683A6A1A60FA68BB6A0C3372
:1035C0009B0013443A6A5A6010E0FA68BB6A0433FD
:1035D0009B0013443A6A5A60FA68BB6A0C339B003A
:1035E00013443A6A5A60012387F833303B68002B52
:1035F0007FF458AFFB7A03F00F03002B43D1FB7A23
:10360000DB09DBB2012B3ED1FB7A03F00F03DBB207
:103610005B00FB77FB689A68FB7F9B0113443033A8
:10362000BB61BB697B61FB689A68BB6A9B01134401
:1036300093F8383003F00203DBB2002B23D0FB6B8E
:10364000002B20D07B69DB881A46FB6B93421AD291
:10365000FB689A68BB6A9B0113441B68C3F30A4367
:103660009BB21A46FB6BB3FBF2F101FB02F29B1A11
:10367000002B08D1FB689A68BB6A9B011A44136847
:103680006FF35D73136097F83330002B35D1FB680F
:103690005B68D3F8B0217B6A1340002B1FD03B69D5
:1036A000184612F03DF8002370E0FB685B68D3F821
:1036B0004021FB685B6842F48042C3F84021FB680C
:1036C0005B68D3F8B8313B64FB685B68D3F8403182
:1036D00003F48043002B02D0002387F8323097F8A0
:1036E0003230002BE1D1FB685B68D3F84021FB68E6
:1036F0005B6822F48042C3F8402197F83330002BF6
:1037000004D13A6C7B6A1340002B3AD1FB689A686B
:10371000BB6A9B0113447A6C9A60FB689A68BB6A27
:103720009B0113440022DA60BFF34F8F00BFFB6898
:103730005B687A6AC3F8B02119E0FB6A0133FB6267
:10374000FB6A154A934205D13B69184611F0E8FF20
:1037500001231BE0FB685B68D3F8BC217B6A134044
:10376000002B0DD1FB685B687A6AC3F8B021FB6857
:103770005B68D3F8B8217B6A1340002BDDD000E0F2
:1037800000BF3B69184611F0CBFF002318464837AD
:10379000BD4680BD00F0FFFF8096980080B485B0E4
:1037A00000AF78600023FB7315E0FB7B0F4AD35C0E
:1037B000002B0DD1FB7B0D4A0121D1547B68FA7B94
:1037C0001A70FB7B5C2202FB03F3094A134406E0F8
:1037D000FB7B0133FB73FB7B002BE6D000231846F9
:1037E0001437BD465DF8047B704700BF9C1F022064
:1037F000401F022080B58AB000AF0346B9607A60EE
:10380000FB7300237B623F4A07F1180392E8030031
:1038100083E80300FB7B012B03D9FB7B023B012BDD
:1038200001D9062369E007F117031846FFF7B6FF31
:1038300078627B6A002B01D103235EE0FB7D5B0293
:10384000314A1A447B6ADA60FB7DDB022F4A13445B
:103850003B627B6A3A6A9A607B6AFA7B83F85720FC
:10386000FB7B023B9B0028333B4453F8103C1A4639
:103870007B6A5A607B6A5B68D3F840217B6A5B682D
:1038800042F00202C3F8402100BF7B6A5B68D3F8B4
:10389000403103F00203002BF7D17B6A5B68D3F859
:1038A0002431DBB203F01F03DAB27B6A83F85520C0
:1038B0007B6A93F85530032B01D801231DE07B6A06
:1038C000BA681A607B6A5B68D3F8A8217B6A5B6878
:1038D00022F00302C3F8A8217B6A5B68D3F8A82111
:1038E0007B6A5B6842F00202C3F8A821786A0CF098
:1038F000FBFF7B687A6A1A60002318462837BD46AA
:1039000080BD00BFA0620130001400200010002024
:1039100080B485B000AF78607B68BB607B68002BAB
:1039200001D103232FE00023FB730FE0FB7B5C221C
:1039300002FB03F3174A1344BA689A4203D1FB7B94
:10394000154A0021D154FB7B0133FB73FB7B002B19
:10395000ECD0BB685B680022C3F84821BB685B6899
:10396000D3F84021BB685B6822F00102C3F8402114
:10397000BB685B68D3F84021BB685B6842F0020219
:10398000C3F84021002318461437BD465DF8047B78
:10399000704700BF401F02209C1F022080B58CB0E2
:1039A00000AF78600B46FB707B687B62FB7803F0AE
:1039B0000F02FB78DB0803F010031343012202FA25
:1039C00003F33B62FB785B00DBB203F01E03DAB269
:1039D000FB78DB09DBB21343FB77002387F82B303E
:1039E0007B68002B01D10323EAE007F10C031846A2
:1039F00011F076FE00233B614FF0FF337B61FB7FCC
:103A00007A6A04339B0013445B6823F01F03FB6254
:103A100009E0FA6AD37F43F08003D377FB6A1B681F
:103A200023F01F03FB62FB6A002BF2D1FB7F7A6A53
:103A300004339B0013445B6823F01F03FB6291E097
:103A4000FB6ADB7F23F07F03DBB2002B00F08F806B
:103A5000FB6A5B68DBB25BB2002B1ADA7B6A5B68DD
:103A6000D3F8B4117B6A5B683A6A0A43C3F8B4219D
:103A700000BF7B6A5B68D3F8B4213B6A1340002B1C
:103A8000F7D17B6A5B68D3F8B8213B6A1340002BFF
:103A9000E4D13B69002B0AD1FB6A9A684A4B134078
:103AA000FA6A928BC2F30B0292B213433B61FB7F23
:103AB0007A6A04339B0013445A68FB7F796A0C339B
:103AC0009B000B445B689A420ED1FB7F7A6A0433F9
:103AD0009B00134400225A60FB7F7A6A0C339B00E0
:103AE000134400225A600DE0FB7F7A6A04339B0086
:103AF00013445B681A68FB7F11467A6A04339B00A3
:103B000013445960FB6A5B68C3F3C033DBB2002B1C
:103B100009D1FB7F7A6A04339B0013445B6823F06E
:103B20001F03002B02D1012387F82B30FB6A0022F0
:103B30005A607B6A1B691A46FB6A1A607B6AFA6ADA
:103B40001A617B6A93F854300133DAB27B6A83F8E6
:103B50005420FB7F7A6A04339B0013445B6823F094
:103B60001F03FB62FB6A002B7FF46AAF00E000BF1B
:103B7000FB6A002B0DD17B6A9A68FB7F9B01134483
:103B800001229A607B6A9A68FB7F9B0113440022A2
:103B9000DA60FB68184611F0C3FD97F82B30002B54
:103BA0000DD0FB783B7600237B767B6A1B6807F1A0
:103BB0001002114618460DF09CFF00233B610023C4
:103BC00018463037BD4680BD00F0FFFF80B58AB093
:103BD00000AFF8600B467A60FB72FB683B62012322
:103BE00087F82730FB68002B01D1032336E1FB7AED
:103BF000142B00F2208101A252F823F0513C003036
:103C00006D3C0030893C0030A13C0030C13C0030AC
:103C1000E13C0030013D00301B3D0030CD3D003027
:103C2000373E0030373E0030373E0030373E003000
:103C3000373E0030D53D00301B3E0030373E00306F
:103C4000373E0030373E0030373E0030A93D00306F
:103C50003B6A5B68D3F840213B6A5B6842F0010233
:103C6000C3F84021002387F82730F5E03B6A5B6802
:103C7000D3F840213B6A5B6822F00102C3F840217F
:103C8000002387F82730E7E07B68002B00F0D58021
:103C90007968386A0CF0C1FE034687F82730CCE01B
:103CA0007B68002B00F0CB807B68FB61FB691B7895
:103CB0001946386A0CF0B3FF034687F82730BEE098
:103CC0007B68002B00F0BD807B68FB61FB691B7883
:103CD0001946386A0DF01EF8034687F82730B0E021
:103CE0007B68002B00F0AF807B68FB61FB691B7871
:103CF0001946386A0DF083F8034687F82730A2E0AA
:103D00007B68002B00F0A1807B683B613B6901224E
:103D10001A80002387F8273097E07B68002B00F09B
:103D200096807B68BB61BB691B7803F00F03FB7552
:103D3000BB691B78DB09BB75FB7D032B00F2878019
:103D4000FB7D002B18D03B6A5A68FB7D013B70332A
:103D50009B0013445B68BA7D002A02D04FF4803286
:103D600000E001221340002B14BF01230023DBB22B
:103D70009AB2BB695A8013E03B6A5B68D3F8C031E2
:103D8000BA7D002A02D04FF4803200E001221340B5
:103D9000002B14BF01230023DBB29AB2BB695A8007
:103DA000002387F8273052E07B68002B51D07B68D6
:103DB000FB61FB691B785A063B6A5B6842F08072C4
:103DC000C3F85421002387F8273042E0002387F806
:103DD000273041E0002387F8263013E097F826309B
:103DE00063F07F03DBB21946386A0CF018FF97F8CE
:103DF00026301946386A0CF012FF97F82630013346
:103E000087F8263097F82630032BE7D9386A0CF06C
:103E10006BFD002387F827301EE07B68002B1AD04B
:103E20007B68FB613B6A93F85820FB691A7000239A
:103E300087F827300FE000BF0EE000BF0CE000BFA6
:103E40000AE000BF08E000BF06E000BF04E000BFDA
:103E500002E000BF00E000BF97F82730184628377F
:103E6000BD4680BD90B5A7B002AFF860B9607A607A
:103E70000023BB6700237B67052387F88F3000236F
:103E800087F87330BB685B68B3F1FF3F02D07B6893
:103E9000002B02D197F88F30A0E17B68C7F88830FB
:103EA000D7F888309B68C7F88430D7F88430C7F8D3
:103EB000803007F173031A460621F86800F058FABB
:103EC000BB681B7A002B00F01581BB685B68082B70
:103ED00003D1BB681B68002B02D197F88F307DE1BE
:103EE000BB681B68C7F88430D7F88430FB67FB6F6A
:103EF0005A88D7F880305A80FB6F9A88D7F880307C
:103F00009A80FB6FDA88D7F88030DA80FB6F5A78B6
:103F1000D7F880305A70FB6F1A78D7F880301A7053
:103F2000D7F880301B7803F06003002B23D1D7F83B
:103F300080305B780C2B00F2CB80D7F880305B7838
:103F40001A46A84B53F82230002B00F0C180D7F856
:103F500080305B781A46A34B53F8224007F1740374
:103F600007F17802D7F88010D7F88800A0470346F9
:103F700087F88F30ACE0D7F88030DB88002B64D036
:103F8000D7F880301B785BB2002B5EDBD7F880302F
:103F9000DB88002B21D0D7F880301B7803F020037A
:103FA000002B1AD000237B66012387F86C30D7F8EA
:103FB00080303B66D7F88030DB88BB6607F1600352
:103FC0001A460121F86801F027FF034687F88F3071
:103FD000BB6E7B677B6EBB6725E0D7F88030DB88E4
:103FE000002B20D0D7F880301B7803F04003002B43
:103FF00019D000237B65012387F85C30D7F8803027
:104000003B65D7F88030DB88BB6507F150031A4663
:104010001321F8680FF008F9034687F88F30BB6D5D
:104020007B677B6DBB6797F88F30002B50D1BA6FE1
:10403000D7F88030DB880021F8680DF0C1FE034618
:1040400087F88F3097F88F30C8E0D7F880301B782A
:1040500003F02003002B1AD000237B64012387F890
:104060004C30D7F880303B64D7F88030DB88BB64B5
:1040700007F140031A460121F86801F0CDFE03461E
:1040800087F88F30BB6C7B677B6CBB6720E0D7F811
:1040900080301B7803F04003002B19D000237B6392
:1040A000012387F83C30D7F880303B63D7F8803065
:1040B000DB88BB6307F130031A461321F8680FF061
:1040C000B3F8034687F88F30BB6B7B677B6BBB67AE
:1040D00097F88F2007F17403019307F17803009399
:1040E0000023D7F88010F8680DF002FB034687F82C
:1040F0008F3071E097F87330032B13D1D7F88030ED
:104100005B781A46374B53F8224007F1740307F1E6
:104110007802D7F88010D7F88800A047034687F8C0
:104120008F3059E0BB685B68002B55D0D7F88030E2
:10413000DB88002B50D0D7F880301B785BB2002B87
:104140004ADBD7F880301B7803F02003002B16D011
:10415000BB681B687B62002387F82C30D7F880305F
:104160003B62BB685B68BB6207F120031A46012112
:10417000F86801F051FE034687F88F301BE0D7F84E
:1041800080301B7803F04003002B14D0BB681B6801
:104190007B6100233B77D7F880303B61BB685B686D
:1041A000BB6107F110031A461321F8680FF03CF8C1
:1041B000034687F88F3097F88F2007F17403019337
:1041C00007F1780300930123D7F88010F8680DF009
:1041D0008FFA034687F88F3097F88F301846943758
:1041E000BD4690BDA862013080B588B000AF786050
:1041F00039601B4BFB603B683B6101233B7700232D
:10420000FB7600237B778023BB7640233B8307F13B
:104210000C0207F11803194678680DF00AFE0346F0
:10422000FB77FB7F002B01D0FB7F15E00023BB76E3
:1042300007F10C0207F11803194678680DF0F9FD33
:104240000346FB77FB7F002B05D0802178680DF0BB
:104250004FFEFB7F00E0002318462037BD4680BD9F
:10426000653E003080B584B000AF03463960FB7115
:1042700007F10803184611F033FA0023FB601EE033
:104280002B49FA6813465B019B1A9B000B441B6881
:10429000002B11D02649FA6813465B019B1A9B003C
:1042A0000B4475331B78FA799A4205D1BB681846DE
:1042B00011F036FA012336E0FB680133FB60FB683E
:1042C000002BDDD00023FB6025E01949FA68134676
:1042D0005B019B1A9B000B441B68002B18D11449EF
:1042E000FA6813465B019B1A9B000B447533FA79FD
:1042F0001A70FA6813465B019B1A9B000C4A1A4419
:104300003B681A60BB68184611F00AFA00230AE0FD
:10431000FB680133FB60FB68002BD6D0BB681846F6
:1043200011F0FEF9022318461037BD4680BD00BFCC
:104330008C1D002080B485B000AF03463960FB714E
:104340000623FB73FB79BB73BB7B022B02D0BB7BC9
:10435000032B04D13B68054A1A600023FB73FB7BE7
:1043600018461437BD465DF8047B7047DC620130A7
:1043700080B586B000AFF8600B467A60FB7201230F
:10438000FB757B68002B01D1042353E0FB7A023BD1
:10439000062B4DD801A252F823F000BFB9430030DC
:1043A000C94300300144003011440030D94300308B
:1043B000ED430030214400307A680F21F8680DF099
:1043C0008DFA0346FB7534E07A681021F8680DF029
:1043D00085FA0346FB752CE07B683B610023FB7587
:1043E000FB6893F876203B691A7022E07B683B619A
:1043F0000023FB75FB6893F874203B691A7018E082
:104400007A680621F8680DF069FA0346FB7510E03A
:104410007A680721F8680DF061FA0346FB7508E039
:104420007A680921F8680DF059FA0346FB7500E037
:1044300000BFFB7D18461837BD4680BD80B586B0ED
:1044400000AFF8600B467A60FB720123FB75FB7AC4
:10445000033B0B2B74D801A252F823F08D4400309B
:1044600041450030414500309D440030B3440030A8
:104470004145003041450030214500303145003094
:104480000145003041450030114500307A68112166
:10449000F8680DF023FA0346FB7556E07B68002BA5
:1044A00050D00023FB757B681A78FB6883F8762070
:1044B00048E0FB6893F87630032B17D07B68002B1D
:1044C00042D00023FB757B681A78FB6883F8742060
:1044D000FB68032283F87620FB6874331A461421A4
:1044E000F8680DF0FBF90346FB752DE0FB687433AB
:1044F0001A460821F8680DF0F1F90346FB7523E030
:104500007A680A21F8680DF0E9F90346FB751CE0AA
:104510007A680B21F8680DF0E1F90346FB7514E0A9
:104520007A680C21F8680DF0D9F90346FB750CE0A8
:104530007A680D21F8680DF0D1F90346FB7504E0A7
:1045400000BF02E000BF00E000BFFB7D1846183747
:10455000BD4680BD80B48BB000AF7860414B3B62FC
:10456000414BFB61414BBB61414B7B61414B3B612B
:10457000414BFB6000237B6269E0404A7B6A9821E3
:1045800001FB03F313441B68002B5DD17B6A9B0086
:1045900028333B4453F8082C38497B6A982000FBA9
:1045A00003F30B4418331A607B6A9B0028333B44A7
:1045B00053F80C2C31497B6A982000FB03F30B4421
:1045C0001C331A607B6A9B0028333B4453F8102C41
:1045D0002A497B6A982000FB03F30B4420331A60BE
:1045E0007B6A9B0028333B4453F8142C23497B6A95
:1045F000982000FB03F30B443C331A607B6A9B005A
:1046000028333B4453F8182C1C497B6A982000FB44
:1046100003F30B4440331A607B6A9B0028333B440E
:1046200053F81C2C15497B6A982000FB03F30B44BC
:1046300050331A607B6A982202FB03F30F4A1A4434
:104640007B681A60002306E07B6A01337B627B6A29
:10465000002B92D0022318462C37BD465DF8047B10
:10466000704700BF081E0020281E0020381E0020B2
:104670004C1E0020541E0020601E0020841E0020BE
:1046800080B584B000AF78600023BB607B682033C6
:10469000BB607B689B69DB7B032B0BD0BB681B6813
:1046A00000229A70BB681B6800221A73BB681B68E3
:1046B00000225A737B689B699A68BB685A607B6862
:1046C0009B691B7BDB09DAB2BB685A767B689B6906
:1046D000DB7BAA2B00F0E780AA2B00F32081A82B1C
:1046E00000F0CF80A82B00F31A815A2B00F3C08072
:1046F000002BC0F214815A2B00F2118101A252F852
:1047000023F000BF9B4800301F4900301F49003094
:104710008F480030BF4800301F4900301F4900302B
:104720001F4900301F4900301F4900301F49003029
:104730001F4900301F4900301F4900301F49003019
:104740001F4900301F4900301F49003077480030B2
:104750001F4900301F490030E34800301F49003036
:104760001F4900301F4900301F490030D748003032
:10477000134900301F490030FB480030B348003077
:104780001F4900301F4900301F4900301F490030C9
:10479000EF4800301F490030CB4800301F4900303F
:1047A0001F490030834800301F490030A7480030BF
:1047B0001F4900301F4900301F4900301F49003099
:1047C000074900301F4900301F4900301F490030A1
:1047D0001F4900301F4900301F4900301F49003079
:1047E0001F4900301F4900301F4900301F49003069
:1047F0001F4900301F4900301F4900301F49003059
:104800001F4900301F4900301F4900301F49003048
:104810001F4900301F4900301F4900301F49003038
:104820001F4900301F4900301F4900301F49003028
:104830001F4900301F4900301F4900301F49003018
:104840001F4900301F4900301F4900301F49003008
:104850001F4900301F490030E34800301F49003035
:104860001F4900301F4900301F490030D748003031
:104870009E2B2AD053E078680EF05BF80346FB735A
:1048800053E078680EF092F80346FB734DE07868C9
:104890000EF015F80346FB7347E078680EF088F9D0
:1048A0000346FB7341E078680EF001F90346FB73A1
:1048B0003BE078680EF0DEFB0346FB7335E078687A
:1048C0000EF09CFB0346FB732FE078680EF051FA64
:1048D0000346FB7329E078680EF0C2F90346FB73C8
:1048E00023E078680EF0F9F90346FB731DE0786861
:1048F00000F050FF0346FB7317E078680EF0F3FBFF
:104900000346FB7311E078680EF08BF90346FB73E6
:104910000BE078680EF020FC0346FB7305E0786836
:104920000EF058FC0346FB7300BFBB681B689B7806
:10493000002B0DD07B68DB691B7B002B08D17B68CB
:104940009B69DB7B032B03D07B68DB6901221A7335
:10495000FB7B18461037BD4680BD00BF80B590B0C8
:1049600000AFF860B9607A607B687B63012387F8E9
:104970003B30BB685B68B3F1FF3F4BD17B6B93F877
:104980008530002B22D07B6B5B681B68002B1DD011
:104990007B6B9B69DB7B282B04D07B6B9B69DB7B70
:1049A000A82B13D100237B62BB681B68BB6200236A
:1049B0003B627B6B9B695B7B87F82C307B6B5B6816
:1049C0001B6807F120020121786B98477B6B93F8F5
:1049D0009630012B1BD17B6B002283F896207B6BDA
:1049E000DA697B6BDB6992689A607B6B18687B6B1A
:1049F00093F891107B6BDA690D230DF0C8F97B6B8E
:104A0000012283F88E207B6B002283F88F2097F899
:104A10003B30BAE07B6BDA68BB685B689A4206D3CE
:104A20007B6BDA68BB685B68D21A7B6BDA607B6B86
:104A300093F88B30012B17D17B6B002283F88B20EE
:104A40007B6B012283F886207B6B002283F8852014
:104A50007B6B1A687B6B93F89130194610460DF00A
:104A6000B7FA97F83B3090E07B6B93F88530002BDA
:104A700008D1BB685B680D2B04D1BB681B683B6326
:104A80003B6BFB637B6B93F88530002B5CD07B6BBF
:104A90005B681B68002B76D0BB685B687B61BB687A
:104AA0001B68BB617B6B1B693B617B6B9B695B7BA1
:104AB0003B777B6B9B69DB7B282B04D07B6B9B69F3
:104AC000DB7BA82B07D17B6B5B681B6807F11002AF
:104AD0000121786B98477B6BDB68002B17D07B6BD1
:104AE0001A69BB6859687B6B9B695B7B786B053384
:104AF0001B01034408331B68B1FBF3F31A447B6BBF
:104B00001A61786B0DF088FB034687F83B307B6BAE
:104B1000DB68002B37D17B6B002283F885207B6B11
:104B2000012283F88E207B6BDA697B6BDB699268EC
:104B30009A607B6B18687B6B93F891107B6BDA69DA
:104B40000D230DF024F91EE0BB685B680D2B1AD114
:104B5000FB6B1B680F4A934215D17B6B012283F8D4
:104B600088207B6B002283F88E207B6B18687B6B20
:104B700093F892107B6B9A691F230DF021F97B6BE0
:104B8000012283F88D2097F83B3018464037BD4608
:104B900080BD00BF5553425380B58EB000AFF86062
:104BA000B9607A607B683B63002387F83730BB6865
:104BB0005B68B3F1FF3F47D13B6B93F88430002B28
:104BC00022D03B6B5B681B68002B1DD03B6B9B6945
:104BD000DB7B2A2B04D03B6B9B69DB7BAA2B13D19D
:104BE00000237B62BB681B68BB6200233B623B6B9C
:104BF0009B695B7B87F82C303B6B5B681B6807F11C
:104C000020020221386B98473B6B93F88D30002BC4
:104C100017D13B6B93F88630002B12D13B6B93F886
:104C20008730002B0DD13B6B18683B6B93F89210CB
:104C30003B6B9A691F230DF0C3F83B6B012283F88D
:104C40008D2097F83730B5E13B6BDA68BB685B685D
:104C50009A4206D33B6BDA68BB685B68D21A3B6B3F
:104C6000DA603B6B9B69DB7B552B04D03B6B9B690C
:104C7000DB7B152B0BD13B6B5B681B68002B06D0D5
:104C80003B6B5B681B6800220B21386B98473B6BC2
:104C900093F88C30012B1BD13B6B002283F88C20C6
:104CA0003B6B012283F887203B6B002283F8842032
:104CB0003B6B002283F88D203B6B1A683B6B93F8AB
:104CC0009230194610460DF083F997F8373071E1AC
:104CD0003B6B93F88430002B5DD0BB685B687B61D5
:104CE000BB681B68BB613B6B1B693B613B6B9B6992
:104CF0005B7B3B773B6B5B681B68002B2DD03B6B72
:104D00009B69DB7B2A2B04D03B6B9B69DB7BAA2B4B
:104D100007D13B6B5B681B6807F110020221386BFF
:104D200098473B6BDB68002B17D03B6B1A69BB685D
:104D300059683B6B9B695B7B386B05331B010344F4
:104D400008331B68B1FBF3F31A443B6B1A61386BF1
:104D50000DF0C5FA034687F837303B6BDB68002B54
:104D600040F026813B6B002283F884203B6BDA699C
:104D70003B6BDB6992689A603B6B18683B6B93F8FE
:104D800091103B6BDA690D230DF001F83B6B0122AA
:104D900083F88E200CE13B6B93F88830002B00F0F9
:104DA000DB80BB685B681F2B40F0D6803B6B9B6948
:104DB0001B68824A934240F0CF803B6B9B695B7BD0
:104DC00003F0F003002B40F0C7803B6B9B699B7B9B
:104DD00003F0E003002B40F0BF803B6B9B695B7BE3
:104DE0001A463B6B93F8903001339A4280F0B480BE
:104DF0003B6B9B699B7B002B00F0AE803B6B9B6900
:104E00009B7B102B00F2A8803B6B002283F88D2047
:104E10003B6B0022DA603B6BDB69694A1A603B6BD3
:104E2000DB6900229A603B6B9A693B6BDB695268D5
:104E30005A603B6B002283F888203B6B9A693B6B7E
:104E40009B6992689A603B6B9B691B7B5BB2002BF2
:104E500006DB3B6B9B699B68002B01D0012200E0C5
:104E600000223B6B83F884203B6B9B691B7B5BB20E
:104E7000002B06DA3B6B9B699B68002B01D001225B
:104E800000E000223B6B83F885203B6B93F8853074
:104E9000002B0AD03B6B93F88630002B05D0012302
:104EA00087F8373097F8373084E0386BFFF7E8FB46
:104EB000034687F8373097F83730052B28D13B6BFE
:104EC00093F88430012B0DD13B6B93F88730002B86
:104ED00003D13B6B012283F88C203B6B002283F8CB
:104EE000842011E03B6B93F88530012B0CD13B6B98
:104EF00093F88630002B03D13B6B012283F88B2083
:104F00003B6B002283F885203B6B022283F88F20C5
:104F10003B6B93F88430002B49D13B6B93F8853081
:104F2000002B44D13B6B93F88B30002B3FD13B6B74
:104F3000DA693B6BDB6992689A603B6B18683B6B84
:104F400093F891103B6BDA690D230CF020FF3B6B5B
:104F5000012283F88E202AE03B6B1A683B6B93F8A2
:104F60009230194610460DF033F83B6B1A683B6BD4
:104F700093F89130194610460DF02AF83B6B002249
:104F800083F88D203B6B002283F888203B6B012245
:104F900083F887203B6B012283F886203B6B01223C
:104FA00083F88F203B6B012283F8892000E000BF4B
:104FB00097F8373018463837BD4680BD55534243C1
:104FC0005553425380B58CB000AF78600023FB622C
:104FD000012387F82B307B6893F89430002B08D09E
:104FE0007B6893F894207B685B689B685B799A4246
:104FF00002D997F82B30FDE07B685B689B681B68E3
:10500000002B02D197F82B30F4E07B685B689B683B
:105010001A687B6893F8943019466FF060430B442C
:10502000DB001344FB6100237B624DE0FB695968A0
:105030007A6A13465B0013449B000B441B78082BD1
:105040003FD100233B6222E0FB6959687A6A13462C
:105050005B0013449B000B445A683B6A1B011344DA
:105060001A787B6893F893309A420DD1FB6959689E
:105070007A6A13465B0013449B000B445A683B6AF0
:105080001B011344FB620FE03B6A01333B62FB6987
:1050900059687A6A13465B0013449B000B441B7AE1
:1050A0001A463B6A9342CFD3FB6959687A6A134622
:1050B0005B0013449B000B44DA787B6883F89520EF
:1050C00008E07B6A01337B62FB691B781A467B6AC6
:1050D0009342ABD3FB6A002B02D197F82B3089E0C7
:1050E0007B68FA6A9A6000237B624CE000233B767F
:1050F000FB6A99687A6A13465B0013445B000B44B1
:105100001B797B76FB6A99687A6A13465B001344C5
:105110005B000B441B78BB75FB6A99687A6A13467F
:105120005B0013445B000B445B88BB82FB6A99689D
:105130007A6A13465B0013445B000B445B78FB7593
:10514000BB7DDB09DBB2012B06D1BA7D7B6883F81E
:1051500091202A4BBB6005E0BA7D7B6883F89220E2
:10516000274BBB607B68FB607B681B6807F108020C
:1051700007F1140118460CF05CFE034687F82B304B
:105180007B6A01337B62FB6A1B791A467B6A934216
:10519000ACD37B68002283F884207B68002283F8EC
:1051A00085207B68002283F887207B68002283F8B3
:1051B00086207B68002283F88C207B68002283F89D
:1051C0008B207B68012283F888207B680022DA60CC
:1051D0007B68002283F889207B68002283F88A207C
:1051E0007B68002283F88F207B68002283F896205A
:1051F00097F82B3018463037BD4680BD5D490030EA
:10520000994B003090B599B000AFF860B9607A6002
:10521000012387F85F300023BB65BB6887F85730F0
:105220007B68002B02D0FB68002B01D10323ADE289
:10523000FB683B6597F85730013B052B00F28F82E6
:1052400001A252F823F000BF8556003061520030B1
:105250005D530030D75300305F540030F9540030B4
:105260003B6D002283F894203B6D5B681B6807F15F
:1052700010020521386D9847034687F85F303B6977
:10528000002B02D100233B6106E03B69DBB2013B0E
:10529000DAB23B6D83F890203B69002B03D10423E5
:1052A00087F85F3070E2002387F85E302BE097F8D4
:1052B0005E301B0160333B44483B1B68002B08D029
:1052C00097F85E301B0160333B444C3B1B68002B5E
:1052D00003D1012387F85F3010E097F85E3097F82C
:1052E0005E20396D053212010A441B0160333B44D4
:1052F000503B141D04330FCB84E80F0097F85E3049
:10530000013387F85E303B6D93F8903097F85E205C
:105310009A4203D897F85E30022BC8D93B6D2033F0
:10532000BB65BB6D1B6870221A70BB6D1B680A22BF
:10533000DA71BB6D1B6800229A70BB6D1B6800227E
:105340001A73BB6D1B6800225A733B6D002283F8F1
:105350008D203B6D002283F88E2015E27B68FB6474
:105360003B6D5B68002B00F0FC81FB6C1A783B6D99
:1053700093F894309A4200F0F6813B6D93F89430A4
:10538000002B05D0386D0CF093FE034687F85F3094
:10539000FB6C1A783B6D83F894203B6D002283F8F8
:1053A0009320386DFFF70EFE034687F85F3097F8BD
:1053B0005F30002B40F0D9813B6D18683B6D93F84E
:1053C00092103B6D9A691F230CF0FAFC3B6D012291
:1053D00083F88D20C9E13B6D5B68002B00F0C7812D
:1053E0007B681B88A7F84A30B7F84A3087F84930FD
:1053F0003B6D93F89520B7F84A301B0A9BB2DBB29D
:105400009A4240F0B6813B6D93F8933097F849206B
:105410009A4200F0B081386D0CF04AFE034687F8DE
:105420005F30386DFFF7CEFD034687F85F3097F8A1
:105430005F30002B0DD13B6D18683B6D93F89210D7
:105440003B6D9A691F230CF0BBFC3B6D012283F876
:105450008D203B6D97F8492083F8932094E13B6DB4
:105460005B68002B00F089813B6D9B68002B00F08E
:1054700084817B68FB643B6D93F88630002B19D1E7
:10548000FB6C1A783B6D93F891309A4212D13B6DC8
:10549000012283F886203B6D002283F88E203B6D2D
:1054A0001A68FB6C1B78194610460CF091FD0346F8
:1054B00087F85F303B6D93F88730002B40F05F81B9
:1054C000FB6C1A783B6D93F892309A4240F057810A
:1054D0003B6D012283F887203B6D002283F88D20ED
:1054E0003B6D1A68FB6C1B78194610460CF070FD7A
:1054F000034687F85F3042E13B6D5B68002B00F0AC
:105500003C813B6D9B68002B00F037813B6D93F82D
:105510008930012B00F031817B68FB643B6D93F88F
:105520008630012B19D1FB6C1A783B6D93F89130C2
:105530009A4212D13B6D002283F886203B6D0022F7
:1055400083F88E203B6D1A68FB6C1B781946104659
:105550000CF056FD034687F85F303B6D93F88730BB
:10556000012B19D1FB6C1A783B6D93F892309A425B
:1055700012D13B6D002283F887203B6D002283F817
:105580008D203B6D1A68FB6C1B78194610460CF099
:1055900037FD034687F85F303B6D93F88F30032B60
:1055A00004D03B6D93F88F30022B2FD13B6D93F8D5
:1055B0008A30012B2AD03B6D93F88E30012B0DD110
:1055C0003B6D012283F896203B6D1A683B6D93F882
:1055D0009130194610460CF009FC13E03B6DDA6976
:1055E0003B6DDB6992689A603B6D18683B6D93F880
:1055F00091103B6DDA690D230CF0C9FB3B6D012264
:1056000083F88E203B6D002283F88F203B6D93F84A
:105610008A30012B40F0B5803B6D93F88630002B2B
:1056200040F0AF803B6D93F88730002B40F0A980AD
:105630003B6D002283F88A203B6D93F88D30012B5F
:105640000DD13B6D002283F88D203B6D1A683B6DB8
:1056500093F89230194610460CF0C8FB0DE03B6DF4
:1056600018683B6D93F892103B6D9A691F230CF0FC
:10567000A7FB3B6D012283F88D203B6D002283F850
:105680008F207EE07B687B647B6C1B681B7803F05B
:105690001F03012B77D17B6C1B685B78FE2B02D03C
:1056A000FF2B29D05AE07B6C1B689A883B6D93F8DE
:1056B00095309BB29A421BD17B6C1B685B88002B98
:1056C00016D17B6C1B68DB88012B11D17B6C1B68AE
:1056D0001B785BB2002B0BDA3B6D03F190027B6C05
:1056E0005A607B6C1B68DB881A467B6C9A6035E0DD
:1056F000052387F85F3031E07B6C1B689A883B6D2F
:1057000093F895309BB29A4224D17B6C1B685B88DE
:10571000002B1FD17B6C1B68DB88002B1AD17B6CA4
:105720001B681B785BB2002B14DB3B6D012283F8F6
:1057300087203B6D012283F886203B6D012283F890
:1057400088203B6D002283F889203B6D012283F87D
:105750008A2002E0052387F85F3000BF14E000BF15
:1057600012E000BF10E000BF0EE000BF0CE000BF81
:105770000AE000BF08E000BF06E000BF04E000BF91
:1057800002E000BF00E000BF97F85F3018466437C2
:10579000BD4690BD80B590B000AF786000237B63BC
:1057A0000B2387F83330AF4B1B68BB60002387F8AF
:1057B0003B30002387F83A30002387F839307B6884
:1057C00020337B637B689B695B7B87F8383097F875
:1057D000383087F8243000233B620023FB617B686C
:1057E0005B681B68002B0AD07B685B681B6807F14D
:1057F0001C02112178689847034687F833307B688C
:1058000093F8903097F838209A4206D97B6B1B6842
:1058100005229A70002387F838303B6A002B14D099
:10582000FB69002B11D097F83830FA697968053395
:105830001B010B4404331A6097F838303A6A7968D0
:1058400005331B010B4408331A607B689B699B7D01
:105850001B021AB27B689B69DB7D1BB213431BB230
:105860003B867B6B93F82C30002B07D07B685B6901
:10587000002B01D0022302E0032300E0002387F87D
:105880002F307B689B695B7B7A6805331B0113446F
:1058900004331B681A067B689B695B7B7968053358
:1058A0001B010B4404331B681B0203F47F031A43E0
:1058B0007B689B695B7B796805331B010B44043370
:1058C0001B681B0A03F47F431A437B689B695B7B5D
:1058D000796805331B010B4404331B681B0E13430B
:1058E000FB607B689B695B7B7A6805331B01134413
:1058F00008331B681A067B689B695B7B79680533F4
:105900001B010B4408331B681B0203F47F031A437B
:105910007B689B695B7B796805331B010B4408330B
:105920001B681B0A03F47F431A437B689B695B7BFC
:10593000796805331B010B4408331B681B0E1343A6
:105940003B617B6B93F82C30002B01D0022300E0ED
:10595000012387F82E3097F82F30DB00DBB2FB7283
:105960007B689B695B7B7A6805331B0113440433B6
:105970001B681A067B689B695B7B796805331B0192
:105980000B4404331B681B0203F47F031A437B6838
:105990009B695B7B796805331B010B4404331B68EF
:1059A0001B0A03F47F431A437B689B695B7B79681E
:1059B00005331B010B4404331B681B0E13437B612F
:1059C00097F82E301A067B689B695B7B79680533F4
:1059D0001B010B4408331B6813431A0697F82E303B
:1059E00019067B689B695B7B786805331B01034460
:1059F00008331B680B431B0203F47F031A4397F819
:105A00002E3019067B689B695B7B786805331B0128
:105A1000034408331B680B431B0A03F47F431A43F8
:105A200097F82E3019067B689B695B7B7868053395
:105A30001B01034408331B680B431B0E1343BB615C
:105A400097F82F30DB000C33FB633B8EFA6B9A42E6
:105A500001D93B8EFB6307F10803BB62002387F883
:105A60003B3015E0F462013097F83A305A1C87F861
:105A70003A201A46BB6A1A447B6B196B97F83B3085
:105A80000B4412781A7097F83B30013387F83B309B
:105A900097F83B30032BE7D907F11403BB620023CF
:105AA00087F83A3014E097F83A30BA6A1A447B6BB8
:105AB000196B97F83B300B4412781A7097F83B300B
:105AC000013387F83B3097F83A30013387F83A30A2
:105AD00097F83A30072BE6D97B6B93F82C30002BE4
:105AE0002AD0002387F83A3020E007F10C03BB628C
:105AF00013E097F839305A1C87F839201A46BB6AE8
:105B00001A447B6B196B97F83B300B4412781A7070
:105B100097F83B30013387F83B3097F83B30072B41
:105B2000E7D997F83A30013387F83A3097F83A20B6
:105B300097F82F309A42D8D37B6BFA6B9A607B6BC5
:105B400001229A767B6B1A6B7B6BDA607B6B00228F
:105B50001A7678680CF055FC034687F8333097F8CE
:105B6000333018464037BD4680BD00BF80B584B095
:105B700000AF03463960FB7107F1080318460FF0C8
:105B8000AFFD0023FB6018E0284AFB681B011344AB
:105B90001B68002B0ED0254AFB681B0113440E33F3
:105BA0001B78FA799A4205D1BB6818460FF0B8FD08
:105BB000012337E0FB680133FB60FB68002BE3D077
:105BC0000023FB6026E0194AFB681B0113441B6895
:105BD000002B1CD1154AFB681B0113440E33FA79C4
:105BE0001A70FB68DB00124A1A441049FB681B015B
:105BF0000B4408331A60FB681B010C4A1A443B68CB
:105C00001A60BB6818460FF08BFD00230AE0FB68A2
:105C10000133FB60FB68002BD5D0BB6818460FF042
:105C20007FFD022318461037BD4680BD1C1F002093
:105C30002C1F002080B584B000AF0346FB71002309
:105C4000FB6007F1080318460FF04AFD2CE01C4AE0
:105C5000FB681B0113441B68002B22D0184AFB6809
:105C60001B0113440E331B78FA799A4219D1144A56
:105C7000FB681B01134400221A60114AFB681B01D8
:105C80001344043300221A600D4AFB681B011344BD
:105C90000E3300221A70BB6818460FF041FD002336
:105CA0000AE0FB680133FB60FB68002BCFD0BB68C8
:105CB00018460FF035FD042318461037BD4680BD49
:105CC0001C1F002080B584B000AF03463960FB7113
:105CD0000023FB6007F1080318460FF001FD1EE0EA
:105CE000154AFB681B0113441B68002B14D0124A91
:105CF000FB681B0113440E331B78FA799A420BD1CF
:105D0000FB681B010C4A1A443B681A60BB681846C2
:105D10000FF006FD00230AE0FB680133FB60FB681F
:105D2000002BDDD0BB6818460FF0FAFC04231846A0
:105D30001037BD4680BD00BF1C1F002080B584B059
:105D400000AF786039600023FB6007F10803184654
:105D50000FF0C6FC16E0114AFB681B0113441B68D8
:105D60007A689A420BD1FB681B010C4A1A443B68C3
:105D70001A60BB6818460FF0D3FC00230AE0FB68EA
:105D80000133FB60FB68002BE5D0BB6818460FF0C1
:105D9000C7FC042318461037BD4680BD1C1F0020D9
:105DA00080B584B000AF03463960FB710023FB600F
:105DB00007F1080318460FF093FC1FE0154AFB6833
:105DC0001B0113441B68002B15D0124AFB681B01F2
:105DD00013440E331B78FA799A420CD10D4AFB68B2
:105DE0001B0113441A683B681A60BB6818460FF021
:105DF00097FC00230AE0FB680133FB60FB68002B83
:105E0000DCD0BB6818460FF08BFC04231846103713
:105E1000BD4680BD1C1F002090B587B000AFF86064
:105E20000B467A60FB7201237B757B68002B01D1E6
:105E3000042358E007F110031946F868FFF77EFFC6
:105E400003463B753B7D002B01D004234BE0002330
:105E5000BB7541E00023FB7536E0FB7D244A1B0146
:105E600013440C3319783B695B681868BA7D134694
:105E70005B0013449B0003449B681B79994220D12B
:105E8000FB7D1B4A1B01134408331C683B695B689C
:105E90001968BA7D13465B0013449B000B445B6892
:105EA000F97A7A681846A04703463B753B7D052B77
:105EB00001D1052317E03B7D002B09D100237B7521
:105EC00006E0FB7D0133FB75FB7D002BC5D000E0B8
:105ED00000BFBB7D0133BB753B695B681B7ABA7D34
:105EE0009A42B7D37B7D18461C37BD4690BD00BF94
:105EF000F862013090B587B000AF0346B9607A60B0
:105F0000FB737B68002B06D0BB68002B03D0BB68FB
:105F10005B68002B01D1042370E007F11002FB7BCA
:105F200011461846FFF722FE03467B757B7D002B4A
:105F300001D07B7D62E03B69BA685A603B691A46D2
:105F4000FB7B304918460BF012FE03467B757B7DC8
:105F5000002B0AD03B691B6818460BF0EBFEFB7B5D
:105F60001846FFF767FE7B7D48E00023BB753AE0EB
:105F70000023FB7531E03B695B681968BA7D134605
:105F80005B0013449B000B449B681A79FB7D1E4900
:105F90001B010B440C331B789A421BD1FB7D1A4A20
:105FA0001B0113441C683B695B681968BA7D134682
:105FB0005B0013449B00C8183B695B681968BA7D95
:105FC00013465B0013449B000B441A1DFB7B0146E8
:105FD0001846A047FB7D0133FB75FB7D012BCAD919
:105FE000BB7D0133BB753B695B681B7ABA7D9A4206
:105FF000BED33B691A687B681A607B7D18461C37E4
:10600000BD4690BD29320130F862013000B583B041
:106010000A4A0B480B4B0C49121AD20B5B1ADB0BCA
:1060200000218DF804108DF805208DF8063001A8A8
:1060300005F0F6FA03B05DF804FB00BF000006208F
:1060400000000020000002000000000080B483B0C7
:1060500000AF0346FB80B7F90630002B12DBFB884C
:1060600003F01F020A49B7F906305B09012000FA64
:1060700002F2203341F82320BFF34F8F00BFBFF35C
:106080006F8F00BF00BF0C37BD465DF8047B7047C3
:1060900000E100E080B483B000AF044B7B6000BF40
:1060A0007B685A1E7A60002BFAD1F8E740420F0055
:1060B00080B584B000AF78607B6803F140537B60AB
:1060C0000A2002F097FE7B6804331B6843F001034B
:1060D0001A460C4B1A600C4A7B6893600B4BBB60F2
:1060E000BB6883F3088800BF084BFB60FB6883F341
:1060F000098800BF034B1B68984700BF1037BD4697
:1061000080BD00BFA01F022000ED00E000002C2099
:1061100080B586B000AF00237B614FF0FF33BB60DA
:1061200000237B600023FB7407F10803184601F08D
:1061300043F878617B69002B06D1BB683A1D114694
:1061400018460DF09CFC78617B69002B22D14FF042
:10615000FF333B600023FB603B46184601F02CF800
:10616000F8603A68BB689A420DD0FB68002B0AD1F0
:10617000BB68184601F058F878617B69002B02D0A3
:1061800018480DF036FDBB683A1D114618460DF053
:1061900076FC78617B69002B04D0134B9B6803F17C
:1061A00050437B607B68194610480DF022FD642047
:1061B00002F020FEFCF708FDFCF7BCFC1F20FFF7F7
:1061C00045FF082001F00EFC7B681846FFF770FFC2
:1061D000FFF760FF002002F0ABFD00BF1837BD469F
:1061E00080BD00BF1864013000ED00E04464013060
:1061F00080B582B000AF00237B6000233B603B464C
:10620000184600F0B3FF7860642002F0F3FDFCF75D
:10621000DBFCFCF78FFC1F20FFF718FF7B68002BCF
:1062200002D0054B9B683B603B681846FFF740FF78
:1062300000BF0837BD4680BD00ED00E080B584B0EA
:1062400000AF78600023FB720023FB60144BDB7807
:106250001946134B9B781A46114B1B8811480DF0B9
:10626000C8FC072102200DF008FD00E000BFFB7A0A
:10627000DBB2002BFAD10DF0D9FD0346002B02D082
:10628000002002F0DBFD08480DF0B3FC08210220DD
:106290000DF0F3FCFFF73CFF00BF1037BD4680BD9B
:1062A000180100206C6401309464013080B483B024
:1062B00000AF0346FB80B7F90630002B0BDBFB88F1
:1062C00003F01F020749B7F906305B09012000FA05
:1062D00002F241F8232000BF0C37BD465DF8047B75
:1062E000704700BF00E100E080B483B000AF034618
:1062F0003960FB80B7F90630002B0ADB3B68DAB265
:106300000C49B7F906301201D2B20B4483F80023CE
:106310000AE03B68DAB20849FB8803F00F03043B4C
:106320001201D2B20B441A7600BF0C37BD465DF89D
:10633000047B704700E100E000ED00E080B500AFB5
:10634000044B1B6818460AF0C6FEBFF34F8F00BF10
:1063500000BF80BDA41F022080B500AF044B1B68A6
:1063600018460AF0B8FEBFF34F8F00BF00BF80BDD4
:10637000A41F022080B582B000AF0D4A3B1D1268F9
:10638000114619800233120C1A700A49002005F0D8
:106390002FF8084900200EF0F2FB3B1D1A46054974
:1063A0000220FCF7E3FC00BF0837BD4680BD00BFFC
:1063B000B864013000366E0180B58AB000AFF86075
:1063C000B9607A60012387F82730BB68013B102B46
:1063D00000F2968001A252F823F000BF2164003041
:1063E00027640030456400305F6400307964003019
:1063F00001650030A5640030AB640030BD6400303E
:1064000001650030CF640030016500300165003067
:106410000165003001650030D5640030EB64003068
:106420007B687B616DE07B687B617B6918687B6959
:1064300059687B699B681A4601F050F9034687F852
:1064400027305EE07B687B61314B1A697B691B6892
:1064500003F01F035B021A447B699A6051E07B687A
:106460007B612B4B1A697B691B6803F01F035B027E
:106470001A447B699A6044E07B68BB61BB69012276
:106480001A60BB694FF400729A60BB694FF4A04276
:106490005A60BB694FF42002DA60BB694FF42002F6
:1064A0001A612EE07B68FB612BE07B68FB61FB6976
:1064B00024225A60FB69174A9A6022E07B68FB61DC
:1064C000FB6908225A60FB69134A9A6019E07B68ED
:1064D000FB6116E07B683B623B6A4FF400725A60D6
:1064E0003B6A4FF4A0421A600BE07B683B623B6A58
:1064F0004FF400725A603B6A4FF4A0421A6000E009
:1065000000BF97F8273018462837BD4680BD00BF2A
:10651000A41F0220000000202400002080B588B0C5
:1065200000AFF860B9607A600123FB777B68BB61DC
:106530007B687B61BB68013B152B00F2BB8001A22D
:1065400052F823F09D650030B5660030B566003026
:10655000B5660030B5660030B5660030B56600300F
:10656000B5660030C9650030FD65003079660030E1
:106570008D660030A1660030B5660030B56600302B
:10658000B5660030B5660030B5660030B5660030DF
:10659000B5660030276600303B6600304F4B002266
:1065A0005A764E4B00229A750023FB774C49022005
:1065B0000CF069FE0346002B7ED1484B1B7E19462A
:1065C000F86801F0D5FD77E07B691B78002B06D1D8
:1065D000424B00225A76414B00229A7579E07B6942
:1065E0001B78012B07D13D4B01225A767B691A7823
:1065F0003A4B9A756DE00523FB776AE0374B5B7E7B
:10660000002B5BD0BB691B881B0A9BB2BB74BB69A8
:106610001B887B74BB7C002B50D1BB7C2F4A13445E
:106620007A7CDA754AE07B68002B49D02B4B9A7D47
:106630007B691A700023FB7742E07B68002B41D016
:10664000BB691B881B0A9BB2FB74FB7C002B10D11F
:10665000BB691B8823F0FF039AB2FB7C1F490B44E4
:10666000DB7D9BB213439AB2BB691A800023FB7790
:1066700028E00523FB7725E07B68002B24D0796890
:10668000F86801F0E7FC0346FB771DE07B68002B10
:106690001CD07968F86801F0F1FC0346FB7715E03F
:1066A0007B68002B14D07968F86801F001FD03467F
:1066B000FB770DE000BF0CE000BF0AE000BF08E080
:1066C00000BF06E000BF04E000BF02E000BF00E042
:1066D00000BFFB7F18462037BD4680BDA41F0220A7
:1066E000BC1F022080B500AFFFF744FE1B4B002209
:1066F0001A761A4B00225A76184B00225A60174B12
:1067000000221A604FF400721549164800F090FFFD
:10671000124B144A1A61114A13490220FFF7EAFB8F
:106720000346002B03D011480DF063FA07E0104830
:106730000DF05FFA0C4B1B685B68084A53600DF064
:106740001FF90C4941F2883004F000FF034B1B682D
:1067500018460BF0D3FA00BF80BD00BFA41F022073
:10676000B01F0220341F002028010020BC6401302B
:10677000D864013000CA9A3B80B584B002AF0023D0
:106780007B6000F08FFF0346FB70FB78032B1BD070
:10679000032B1EDC002B05D0002B1ADB013B012B49
:1067A00017D808E00E4B00930E4B0522052101205F
:1067B00001F0D8F80EE00A4B00930A4B05220421A1
:1067C000012001F0CFF805E0032101200DF055FA7A
:1067D00000E000BF7B6818460837BD4680BD00BF9B
:1067E000D4010020C01F022080B582B000AF00237A
:1067F0007B6000F057FF0346FB70FB78032B16D13C
:1068000017480DF0F6F9002000F0D2F978607B68A7
:10681000002B02D100F018FA78607B68B3F1FF3FDB
:1068200005D1042000F04AFF0E480DF0E2F9FB7894
:10683000042B01D10DF002FA4FF47A7002F0DAFA6B
:10684000094B1B6818460BF067FA4FF47A7002F098
:10685000D1FAFFF7CDFC00BF0837BD4680BD00BFB1
:10686000FC64013008650130A41F022080B582B0AD
:1068700000AF7860FFF780FF024B1B6818460DF0F1
:1068800096F8F7E7A41F022080B584B002AF7860C5
:10689000FFF728FF0F4B1B68002B12D00D4B1B6816
:1068A0000D4A01920522009240F2E2420B490C4847
:1068B0000DF0AEFE0346012B03D00A480DF099F906
:1068C00005E0002002F0BAFAFFF78EFFF9E708377B
:1068D000BD4680BDA41F0220AC1F022014650130FC
:1068E0006D6800302465013080B582B002AF0B4B7B
:1068F0000193042300930A4B40F2E24209490A48FB
:106900000DF086FE0346012B04D008480DF071F906
:10691000012300E001231846BD4680BDB01F0220C0
:10692000A41F0220446501308968003024650130CD
:1069300080B584B000AF78604FF0FF33BB60264A6B
:106940007B68136000F0B8FAF860FB68002B05D193
:1069500007F10803184600F02FFCF860BB687A685E
:106960009A4202D14FF0FF33FB60FB68002B06D147
:10697000194B1B68194918460DF081F8F860FB683F
:10698000002B06D1144B1B68154918460DF0B0F8C2
:10699000F860144B00221A604FF48052FF21124815
:1069A0000DF048F8FB68002B08D10C4B1B680C4A13
:1069B0001268114618460DF01AF8F860FB68002BB3
:1069C00004D14FF4806000F069FBF860FB68184662
:1069D0001037BD4680BD00BF34010020C42F022007
:1069E000C82F0220CC2F0220C41F022080B58EB0F9
:1069F00000AFF860B9607A6000237B630023BB625C
:106A000000233B6300237B62FB68DBB23B62FB68D5
:106A100023F0FF03FB61FA68FB69D31AFB620023D2
:106A2000BB610023FB74BB68002B02D07B68002B8A
:106A300002D14FF0FF33AEE0FA687B681A44584B3E
:106A40001B689A4202D94FF0FF33A4E007F1130309
:106A500019464FF4806000F0FBFA0346002B02D089
:106A60004FF0FF3397E0FB7C83F00103DBB2002B98
:106A700002D04FF0FF338EE04FF48052FF2149489F
:106A80000CF0D8FFFA687B681A44474B1B689A429F
:106A900004D9FA687B681344434A13603B6A002BAD
:106AA00074D0424B1A68FB6913444FF48071184646
:106AB00000F046FB3D4B1A68FB691344FA6A3949FA
:106AC00018460FF0D1FB0346002B5FD04FF0FF3389
:106AD00061E07A687B6BD21AFB6A1344FF2B03D9FF
:106AE000FB6AC3F5807302E07A687B6BD31ABB62E2
:106AF0003B6B1B02FA6913447B62FA6ABB6A13445C
:106B0000FF2B1ED8FA6ABB6A1344C3F580737B61FE
:106B10007A6AFB6A1344BA6A1344BB61234B1A684E
:106B2000BB69D018FA6ABB6A13441E4A13447A69D7
:106B300019460FF099FB0346002B02D04FF0FF33AC
:106B400029E0FB6A174A1344BA6AB96818460FF07D
:106B500014F87B6ABB61154B1A68BB691344114971
:106B600018460FF075FB0346002B02D04FF0FF33A1
:106B700011E07A6BBB6A13447B63BA68BB6A134447
:106B8000BB603B6B01333B630023FB627A6B7B682A
:106B90009A429ED3002318463837BD4680BD00BFB9
:106BA000C82F0220C41F0220CC2F0220C42F022095
:106BB00080B582B000AF00237B601D4B1B681D4A6F
:106BC00012680121184600F0F3F878607B68002B0A
:106BD00004D14FF4807000F061FA78607B68002B7C
:106BE0000AD115480DF005F8114B1B681A46134BD6
:106BF0001A6100F07DF878607B68002B07D110489F
:106C00000CF0F7FF4FF4007000F048FA78607B68F2
:106C1000002B07D10B480CF0ECFF4FF4806000F024
:106C200065FA78607B6818460837BD4680BD00BFAE
:106C300034010020CC2F022054650130D42F0220D3
:106C4000706501308865013080B582B000AF0023E7
:106C50007B600023FB7000F02FF978607B68002BCD
:106C600006D1FB1C19464FF4007000F0F1F9786072
:106C7000FB78002B30D01C4B1B691A461B4B1A604B
:106C80001A4B1B68002B03DB184B1B68022B02DD21
:106C90004FF0FF337B607B68002B05D1134B1B68E3
:106CA000184600F0C1FA78607B68002B04D14FF4DD
:106CB000807000F01BFA78607B68002B04D14FF4E1
:106CC000007000F013FA78607B68002B07D1102069
:106CD00000F0E4F9786002E04FF0FF337B607B68FE
:106CE00018460837BD4680BDD42F0220340100204D
:106CF00080B588B000AF0023FB612A4BBB612A48F6
:106D00000FF096FAF861FB69002B3BD1264B7B61B3
:106D1000264BBB60BA687B69D31A3B613B691B0A8F
:106D2000FB603B69DBB27B6000233B607B68002B30
:106D300002D0FB680133FB603B69B3F5807F28BF5D
:106D40004FF480733B603A68B96978690FF084FA50
:106D5000F861FB69002B03D04FF0FF33FB6111E0BA
:106D60007B6903F580737B61BB6903F58073BB614D
:106D70003B69A3F580733B61FB68013BFB60FB68EB
:106D8000002BD9D1FB69002B06D14FF46D72054958
:106D900005480FF069FAF861FB6918462037BD46CF
:106DA00080BD00BFD42F022000F0FF00B4F3FF002D
:106DB00080B586B000AFF860B9607A6000237B616F
:106DC00000233B61FB68002B02DBFB68022B02DD2A
:106DD0004FF0FF337B617B69002B06D107F1100375
:106DE0001946F8680CF04BFE78617B69002B38D1AE
:106DF0001E4AFB684FF49A7101FB03F313441833E6
:106E00004FF05A321A60FA681849FB684FF49A70CA
:106E100000FB03F30B441C331A603A691349FB6807
:106E20004FF49A7000FB03F30B4420331A600F4AAF
:106E3000FB684FF49A7101FB03F3134424337A681F
:106E40001A600A4AFB684FF49A7101FB03F313447A
:106E50002833BA681A60FFF74BFF786104480CF0DA
:106E6000C8FE7B6918461837BD4680BDD42F022066
:106E7000A065013080B582B000AF0023FB710B4BE1
:106E80001B68B3F1A53F09D1084B5B68032B05D103
:106E900007480CF0AEFE0123FB7102E005480CF040
:106EA000A8FEFB7918460837BD4680BDD42F0220C6
:106EB000D0650130F865013080B584B000AF0023A3
:106EC000FB600023FB72032130480CF092FE00F0BF
:106ED00069F8F860FB68002B02D04FF0FF33FB60CD
:106EE0002B480CF086FEFB68002B06D14FF46D7228
:106EF000284929480FF0B8F9F860FB68002B03D146
:106F0000FFF7B8FF0346FB72FB7A83F00103DBB2A5
:106F1000002B32D021480CF06CFE4FF46D72002132
:106F20001C480EF02CFE1C480FF082F9F860FB683C
:106F3000002B22D1174B4FF0A5321A60154B0322BC
:106F40005A60144B0122DA60124B70229A600023BF
:106F50007B600FE0002200217868FFF729FFF860CE
:106F6000FB68002B03D04FF0FF33FB6005E07B682C
:106F700001337B607B68022BECDD09480CF039FEA5
:106F8000FB6818461037BD4680BD00BF2066013043
:106F900034660130D42F022000F0FF00706601300B
:106FA0009C66013080B582B000AFEF23FB70FB1C04
:106FB0007B600B480CF01DFE786800F017F8034664
:106FC000002B05D007480CF014FE4FF0FF3303E010
:106FD00005480CF00EFE002318460837BD4680BD5C
:106FE000C8660130E46601301067013080B586B0B4
:106FF00000AF786000237B610FF012F938610FF069
:107000001FF907F10F03194610480FF015F97861C1
:107010007B69002B02D04FF0FF337B617B69002B33
:1070200007D17B681A78FB7B9A4202D04FF0FF337E
:107030007B610FF0F9F838690FF01AF9BFF36F8F21
:107040007B6918461837BD4680BD00BF00C00C40A4
:1070500080B584B000AF786039600023FB604FF4E6
:107060006D720C490C480FF0FFF8F860FB68002BBC
:107070000AD1084B9A687B681340002B14BF012388
:107080000023DAB23B681A70FB6818461037BD4619
:1070900080BD00BFD42F022000F0FF0080B584B077
:1070A00000AF78600023FB604FF46D720D490E480D
:1070B0000FF0DAF8F860FB68002B0ED1094B9A68E4
:1070C0007B681340002B08D1064B9A687B681343FA
:1070D000044A9360FFF70CFEF860FB68184610370F
:1070E000BD4680BDD42F022000F0FF0080B584B0E3
:1070F00000AF78600023FB604FF46D720E490F48BB
:107100000FF0B2F8F860FB68002B0FD10A4B9A68B9
:107110007B681340002B09D0074B9A687B68DB43E0
:107120001340054A9360FFF7E3FDF860FB681846DB
:107130001037BD4680BD00BFD42F022000F0FF00F5
:1071400080B483B000AF78603960074B1B68002BB8
:1071500002D04FF0FF3300E0002318460C37BD4645
:107160005DF8047B704700BFD02F022080B584B04B
:1071700000AF78600023FB604FF46D720C490D483E
:107180000FF072F8F860FB68002B0BD1084B5B69BD
:10719000074A4FF49A7101FB03F3134420331A6832
:1071A0007B681A60FB6818461037BD4680BD00BF7B
:1071B000D42F022000F0FF0080B584B000AF7860CB
:1071C0000023FB607B68002B02D14FF0FF33FB6094
:1071D000FB68002B06D17B684FF0FF321A60FFF787
:1071E0006BFEF860FB68002B17D10E4BDB681A466C
:1071F0007B681A607B681B68012B0ED07B681B685C
:10720000022B0AD07B6801221A607B681B681A4631
:10721000044BDA60FFF76CFDF860FB681846103726
:10722000BD4680BDD42F022080B584B000AF786009
:107230000023FB607B68054AD360FFF759FDF860C7
:10724000FB6818461037BD4680BD00BFD42F022012
:1072500080B588B002AF0346B9607A60FB81002335
:107260007B61154B1B68002B20D10022042178681C
:107270000CF00CFF0346104A13600F4B1B68002BE9
:1072800014D0FA8900230193BB68009300230B49B3
:107290000B480DF0BDF90346012B02D101237B61A0
:1072A00004E0054B1B6818460DF026F87B6918466C
:1072B0001837BD4680BD00BF8833022030670130DB
:1072C000C572003080B584B000AF78600023FB60E9
:1072D0000A4B1B6807F10C014FF0FF32184601F012
:1072E000C1FB0346012BF3D1FB681846FBF790FC6A
:1072F000FB68184601F09AF8EAE700BF88330220DD
:10730000B0B58EB002AFB9607A603B600346FB73E4
:107310000023FB620023BB6200233B614FF48070BB
:1073200000F0D0FF03463B613B69002B00F0E68094
:1073300000237B620023BB61724938680EF07AFC3F
:107340000346002B26D0704B7B6102F02FFA0346D8
:10735000012B04D0002001F05FFF386201E07B695F
:107360003B623C69694B1B685A1C68490A601D46B0
:1073700001F042FF02463B6A019300922B46644AA9
:107380004FF48071204608F037FD03461A46FB6A29
:107390001344FB62FB7B013B032B16D801A252F87E
:1073A00023F000BFB5730030BB730030C1730030F1
:1073B000C7730030574B7B6207E0574B7B6204E09A
:1073C000564B7B6201E0564B7B627B6A002B0ED0F2
:1073D0003A69FB6AD018FB6AC3F580717B6A514A2F
:1073E00008F00AFD03461A46FB6A1344FB62BB68B9
:1073F000002B32D00023FB615C21B8680EF08BFCBF
:107400000346002B07D05C21B8680EF084FC0346CD
:107410000133FB6110E02F21B8680EF07CFC0346BD
:10742000002B07D02F21B8680EF075FC03460133FE
:10743000FB6101E0BB68FB613A69FB6AD018FB6A3B
:10744000C3F580717B680093FB69374A08F0D4FC70
:1074500003461A46FB6A1344FB623A69FB6AD0187A
:10746000FB6AC3F580713B6C3A6808F001FDB862B5
